{
  "_format": "hh-sol-artifact-1",
  "contractName": "FarmingC2N",
  "sourceName": "contracts/farming/FarmingC2N.sol",
  "abi": [
    {
      "inputs": [
        {
          "internalType": "contract IERC20",
          "name": "_erc20",
          "type": "address"
        },
        {
          "internalType": "uint256",
          "name": "_rewardPerSecond",
          "type": "uint256"
        },
        {
          "internalType": "uint256",
          "name": "_startTimestamp",
          "type": "uint256"
        }
      ],
      "stateMutability": "nonpayable",
      "type": "constructor"
    },
    {
      "inputs": [
        {
          "internalType": "address",
          "name": "owner",
          "type": "address"
        }
      ],
      "name": "OwnableInvalidOwner",
      "type": "error"
    },
    {
      "inputs": [
        {
          "internalType": "address",
          "name": "account",
          "type": "address"
        }
      ],
      "name": "OwnableUnauthorizedAccount",
      "type": "error"
    },
    {
      "inputs": [
        {
          "internalType": "address",
          "name": "token",
          "type": "address"
        }
      ],
      "name": "SafeERC20FailedOperation",
      "type": "error"
    },
    {
      "anonymous": false,
      "inputs": [
        {
          "indexed": true,
          "internalType": "address",
          "name": "user",
          "type": "address"
        },
        {
          "indexed": true,
          "internalType": "uint256",
          "name": "pid",
          "type": "uint256"
        },
        {
          "indexed": false,
          "internalType": "uint256",
          "name": "amount",
          "type": "uint256"
        }
      ],
      "name": "Deposit",
      "type": "event"
    },
    {
      "anonymous": false,
      "inputs": [
        {
          "indexed": true,
          "internalType": "address",
          "name": "user",
          "type": "address"
        },
        {
          "indexed": true,
          "internalType": "uint256",
          "name": "pid",
          "type": "uint256"
        },
        {
          "indexed": false,
          "internalType": "uint256",
          "name": "amount",
          "type": "uint256"
        }
      ],
      "name": "EmergencyWithdraw",
      "type": "event"
    },
    {
      "anonymous": false,
      "inputs": [
        {
          "indexed": true,
          "internalType": "address",
          "name": "previousOwner",
          "type": "address"
        },
        {
          "indexed": true,
          "internalType": "address",
          "name": "newOwner",
          "type": "address"
        }
      ],
      "name": "OwnershipTransferred",
      "type": "event"
    },
    {
      "anonymous": false,
      "inputs": [
        {
          "indexed": true,
          "internalType": "address",
          "name": "user",
          "type": "address"
        },
        {
          "indexed": true,
          "internalType": "uint256",
          "name": "pid",
          "type": "uint256"
        },
        {
          "indexed": false,
          "internalType": "uint256",
          "name": "amount",
          "type": "uint256"
        }
      ],
      "name": "Withdraw",
      "type": "event"
    },
    {
      "inputs": [
        {
          "internalType": "uint256",
          "name": "_allocPoint",
          "type": "uint256"
        },
        {
          "internalType": "contract IERC20",
          "name": "_lpToken",
          "type": "address"
        },
        {
          "internalType": "bool",
          "name": "_withUpdate",
          "type": "bool"
        }
      ],
      "name": "add",
      "outputs": [],
      "stateMutability": "nonpayable",
      "type": "function"
    },
    {
      "inputs": [
        {
          "internalType": "uint256",
          "name": "_pid",
          "type": "uint256"
        },
        {
          "internalType": "uint256",
          "name": "_amount",
          "type": "uint256"
        }
      ],
      "name": "deposit",
      "outputs": [],
      "stateMutability": "nonpayable",
      "type": "function"
    },
    {
      "inputs": [
        {
          "internalType": "uint256",
          "name": "_pid",
          "type": "uint256"
        },
        {
          "internalType": "address",
          "name": "_user",
          "type": "address"
        }
      ],
      "name": "deposited",
      "outputs": [
        {
          "internalType": "uint256",
          "name": "",
          "type": "uint256"
        }
      ],
      "stateMutability": "view",
      "type": "function"
    },
    {
      "inputs": [
        {
          "internalType": "uint256",
          "name": "_pid",
          "type": "uint256"
        }
      ],
      "name": "emergencyWithdraw",
      "outputs": [],
      "stateMutability": "nonpayable",
      "type": "function"
    },
    {
      "inputs": [],
      "name": "endTimestamp",
      "outputs": [
        {
          "internalType": "uint256",
          "name": "",
          "type": "uint256"
        }
      ],
      "stateMutability": "view",
      "type": "function"
    },
    {
      "inputs": [],
      "name": "erc20",
      "outputs": [
        {
          "internalType": "contract IERC20",
          "name": "",
          "type": "address"
        }
      ],
      "stateMutability": "view",
      "type": "function"
    },
    {
      "inputs": [
        {
          "internalType": "uint256",
          "name": "_amount",
          "type": "uint256"
        }
      ],
      "name": "fund",
      "outputs": [],
      "stateMutability": "nonpayable",
      "type": "function"
    },
    {
      "inputs": [],
      "name": "massUpdatePools",
      "outputs": [],
      "stateMutability": "nonpayable",
      "type": "function"
    },
    {
      "inputs": [],
      "name": "owner",
      "outputs": [
        {
          "internalType": "address",
          "name": "",
          "type": "address"
        }
      ],
      "stateMutability": "view",
      "type": "function"
    },
    {
      "inputs": [],
      "name": "paidOut",
      "outputs": [
        {
          "internalType": "uint256",
          "name": "",
          "type": "uint256"
        }
      ],
      "stateMutability": "view",
      "type": "function"
    },
    {
      "inputs": [
        {
          "internalType": "uint256",
          "name": "_pid",
          "type": "uint256"
        },
        {
          "internalType": "address",
          "name": "_user",
          "type": "address"
        }
      ],
      "name": "pending",
      "outputs": [
        {
          "internalType": "uint256",
          "name": "",
          "type": "uint256"
        }
      ],
      "stateMutability": "view",
      "type": "function"
    },
    {
      "inputs": [
        {
          "internalType": "uint256",
          "name": "",
          "type": "uint256"
        }
      ],
      "name": "poolInfo",
      "outputs": [
        {
          "internalType": "contract IERC20",
          "name": "lpToken",
          "type": "address"
        },
        {
          "internalType": "uint256",
          "name": "allocPoint",
          "type": "uint256"
        },
        {
          "internalType": "uint256",
          "name": "lastRewardTimestamp",
          "type": "uint256"
        },
        {
          "internalType": "uint256",
          "name": "accERC20PerShare",
          "type": "uint256"
        },
        {
          "internalType": "uint256",
          "name": "totalDeposits",
          "type": "uint256"
        }
      ],
      "stateMutability": "view",
      "type": "function"
    },
    {
      "inputs": [],
      "name": "poolLength",
      "outputs": [
        {
          "internalType": "uint256",
          "name": "",
          "type": "uint256"
        }
      ],
      "stateMutability": "view",
      "type": "function"
    },
    {
      "inputs": [],
      "name": "renounceOwnership",
      "outputs": [],
      "stateMutability": "nonpayable",
      "type": "function"
    },
    {
      "inputs": [],
      "name": "rewardPerSecond",
      "outputs": [
        {
          "internalType": "uint256",
          "name": "",
          "type": "uint256"
        }
      ],
      "stateMutability": "view",
      "type": "function"
    },
    {
      "inputs": [
        {
          "internalType": "uint256",
          "name": "_pid",
          "type": "uint256"
        },
        {
          "internalType": "uint256",
          "name": "_allocPoint",
          "type": "uint256"
        },
        {
          "internalType": "bool",
          "name": "_withUpdate",
          "type": "bool"
        }
      ],
      "name": "set",
      "outputs": [],
      "stateMutability": "nonpayable",
      "type": "function"
    },
    {
      "inputs": [],
      "name": "startTimestamp",
      "outputs": [
        {
          "internalType": "uint256",
          "name": "",
          "type": "uint256"
        }
      ],
      "stateMutability": "view",
      "type": "function"
    },
    {
      "inputs": [],
      "name": "totalAllocPoint",
      "outputs": [
        {
          "internalType": "uint256",
          "name": "",
          "type": "uint256"
        }
      ],
      "stateMutability": "view",
      "type": "function"
    },
    {
      "inputs": [],
      "name": "totalPending",
      "outputs": [
        {
          "internalType": "uint256",
          "name": "",
          "type": "uint256"
        }
      ],
      "stateMutability": "view",
      "type": "function"
    },
    {
      "inputs": [],
      "name": "totalRewards",
      "outputs": [
        {
          "internalType": "uint256",
          "name": "",
          "type": "uint256"
        }
      ],
      "stateMutability": "view",
      "type": "function"
    },
    {
      "inputs": [
        {
          "internalType": "address",
          "name": "newOwner",
          "type": "address"
        }
      ],
      "name": "transferOwnership",
      "outputs": [],
      "stateMutability": "nonpayable",
      "type": "function"
    },
    {
      "inputs": [
        {
          "internalType": "uint256",
          "name": "_pid",
          "type": "uint256"
        }
      ],
      "name": "updatePool",
      "outputs": [],
      "stateMutability": "nonpayable",
      "type": "function"
    },
    {
      "inputs": [
        {
          "internalType": "uint256",
          "name": "",
          "type": "uint256"
        },
        {
          "internalType": "address",
          "name": "",
          "type": "address"
        }
      ],
      "name": "userInfo",
      "outputs": [
        {
          "internalType": "uint256",
          "name": "amount",
          "type": "uint256"
        },
        {
          "internalType": "uint256",
          "name": "rewardDebt",
          "type": "uint256"
        }
      ],
      "stateMutability": "view",
      "type": "function"
    },
    {
      "inputs": [
        {
          "internalType": "uint256",
          "name": "_pid",
          "type": "uint256"
        },
        {
          "internalType": "uint256",
          "name": "_amount",
          "type": "uint256"
        }
      ],
      "name": "withdraw",
      "outputs": [],
      "stateMutability": "nonpayable",
      "type": "function"
    }
  ],
  "bytecode": "0x6080346100e957601f61105e38819003918201601f19168301916001600160401b038311848410176100ee578084926060946040528339810103126100e95780516001600160a01b03811691908290036100e957604060208201519101519033156100d35760008054336001600160a01b0319821681178355604051959290916001600160a01b0316907f8be0079c531659141344cd1fd0a4f28419497f9722a3daafe3b4186f6b6457e09080a360018060a01b0319600154161760015560035580600855600955610f5990816101058239f35b631e4fbdf760e01b600052600060045260246000fd5b600080fd5b634e487b7160e01b600052604160045260246000fdfe608080604052600436101561001357600080fd5b60003560e01c908163081e3eda14610b31575080630e15561a14610b135780631526fe2714610aad57806317caf6f114610a8f5780631eaaa0451461094e5780633f90916a14610933578063441a3e70146107e657806351eb05a6146107ca5780635312ea8e1461072c5780635c76ca2d1461070e578063630b5ba1146106f357806364482f7914610686578063715018a61461062d578063785e9e86146106045780638da5cb5b146105db5780638f10369a146105bd57806393f1a40b1461056c578063a238310614610524578063a85adeab14610506578063ca1d209d14610451578063e2bbb15814610353578063e4c75c27146101d7578063e6fd48bc146101b95763f2fde38b1461012757600080fd5b346101b45760203660031901126101b4576004356001600160a01b038116908190036101b457610155610d79565b801561019e57600080546001600160a01b03198116831782556001600160a01b0316907f8be0079c531659141344cd1fd0a4f28419497f9722a3daafe3b4186f6b6457e09080a3005b631e4fbdf760e01b600052600060045260246000fd5b600080fd5b346101b45760003660031901126101b4576020600854604051908152f35b346101b45760403660031901126101b4576004356101f3610bbf565b6101fc82610b4c565b5091600052600660205260406000209060018060a01b0316600052602052604060002060038201549160048101549060028101548042118061034a575b610272575b602061026a8560016a0c097ce7bc90715b34b9f160241b6102608a8454610c11565b0491015490610c04565b604051908152f35b6102c09160016102ae6102a56102b794600998979854908142106000146103445742915b8082101561033c575090610c04565b60035490610c11565b91015490610c11565b60075490610c75565b916a0c097ce7bc90715b34b9f160241b8302928084046a0c097ce7bc90715b34b9f160241b1490151715610326576a0c097ce7bc90715b34b9f160241b61026061031b60209661031560019561026a98610c75565b90610bd5565b95505082935061023e565b634e487b7160e01b600052601160045260246000fd5b905090610c04565b81610296565b50821515610239565b346101b45761036136610ba9565b61036a82610b4c565b5082600052600660205260016a0c097ce7bc90715b34b9f160241b6103f2604080600020600090858060a01b033316825260205220936103a987610c95565b845480610424575b506103c886858060a01b0383541630903390610e84565b600481016103d7878254610bd5565b905560036103e6878754610bd5565b91828755015490610c11565b049101556040519081527f90890809c654f11d6e72a28fa60149770a0d11ec6c92319d6ceb2bb0a4ea1a1560203392a3005b6104458461043a61044b93600386015490610c11565b048688015490610c04565b33610da2565b876103b1565b346101b45760203660031901126101b4576004356009544210156104b6576001546104b1919061048f908290309033906001600160a01b0316610e84565b6104a661049e60035483610c75565b600954610bd5565b600955600454610bd5565b600455005b60405162461bcd60e51b815260206004820152602260248201527f66756e643a20746f6f206c6174652c20746865206661726d20697320636c6f73604482015261195960f21b6064820152608490fd5b346101b45760003660031901126101b4576020600954604051908152f35b346101b45760403660031901126101b45761053d610bbf565b600435600052600660205260406000209060018060a01b03166000526020526020604060002054604051908152f35b346101b45760403660031901126101b457610585610bbf565b600435600052600660205260406000209060018060a01b03166000526020526040806000206001815491015482519182526020820152f35b346101b45760003660031901126101b4576020600354604051908152f35b346101b45760003660031901126101b4576000546040516001600160a01b039091168152602090f35b346101b45760003660031901126101b4576001546040516001600160a01b039091168152602090f35b346101b45760003660031901126101b457610646610d79565b600080546001600160a01b0319811682556001600160a01b03167f8be0079c531659141344cd1fd0a4f28419497f9722a3daafe3b4186f6b6457e08280a3005b346101b45760603660031901126101b45760243560016106e16004356106aa610b9a565b6106b2610d79565b6106e6575b6106d9846106d4600754866106cb86610b4c565b50015490610c04565b610bd5565b600755610b4c565b500155005b6106ee610d56565b6106b7565b346101b45760003660031901126101b45761070c610d56565b005b346101b45760003660031901126101b4576020600254604051908152f35b346101b45760203660031901126101b4576000600160043561074d81610b4c565b50908084526006602052600460408086208690868060a01b03331682526020522092610785858060a01b038254168554903390610e41565b016107938154845490610c04565b905581546040519081527fbb757047c2b5f3974fe26b7c10f732e7bce710b0952a71082702781e62ae059560203392a38281550155005b346101b45760203660031901126101b45761070c600435610c95565b346101b4576107f436610ba9565b6107fd82610b4c565b5082600052600660205260408060002060009060018060a01b03331682526020522090828254106108db5760049161083485610c95565b6a0c097ce7bc90715b34b9f160241b6108848254928261085a6003870195865490610c11565b049361086f6104456001840196875490610c04565b61087a888354610c04565b8092555490610c11565b049055805461089f90849033906001600160a01b0316610e41565b016108ab828254610c04565b90556040519081527ff279e6a1f5e320cca91135676d9cb6e44ca8a08c0b88342bcdb1144f6511b56860203392a3005b60405162461bcd60e51b815260206004820152602a60248201527f77697468647261773a2063616e2774207769746864726177206d6f7265207468604482015269185b8819195c1bdcda5d60b21b6064820152608490fd5b346101b45760003660031901126101b457602061026a610c24565b346101b45760603660031901126101b4576004356024356001600160a01b038116908190036101b45761097f610b9a565b610987610d79565b610a82575b600854804211600014610a7d5750425b6109a883600754610bd5565b6007556040519160a0830183811067ffffffffffffffff821117610a675760405282526020820192835260408201908152606082016000815260808301916000835260055468010000000000000000811015610a6757806001610a0e9201600555610b4c565b959095610a5157935185546001600160a01b0319166001600160a01b03919091161785559251600185015591516002840155905160038301555160049190910155005b634e487b7160e01b600052600060045260246000fd5b634e487b7160e01b600052604160045260246000fd5b61099c565b610a8a610d56565b61098c565b346101b45760003660031901126101b4576020600754604051908152f35b346101b45760203660031901126101b4576004356005548110156101b457610ad660a091610b4c565b50600180831b0381541690600181015490600281015460046003830154920154926040519485526020850152604084015260608301526080820152f35b346101b45760003660031901126101b4576020600454604051908152f35b346101b45760003660031901126101b4576020906005548152f35b600554811015610b84576005600081815291027f036b6384b5eca791c62761152d0c79bb0604c104a5fb6f4eb0703f3154bb3db00191565b634e487b7160e01b600052603260045260246000fd5b6044359081151582036101b457565b60409060031901126101b4576004359060243590565b602435906001600160a01b03821682036101b457565b9190820180921161032657565b90601f8019910116810190811067ffffffffffffffff821117610a6757604052565b9190820391821161032657565b8181029291811591840414171561032657565b60085480421115610c6f57610c59610c6291600954804210600014610c655750610c5342915b60035492610c04565b90610c11565b60025490610c04565b90565b610c539091610c4a565b50600090565b8115610c7f570490565b634e487b7160e01b600052601260045260246000fd5b610c9e90610b4c565b50600954804210600014610d50575042905b60028101918254811115610d4b576004820154908115610d4457610cfd610cf4610ce9610ce1600394885490610c04565b845490610c11565b600186015490610c11565b60075490610c04565b9201918254906a0c097ce7bc90715b34b9f160241b8102908082046a0c097ce7bc90715b34b9f160241b149015171561032657610d3d9261031591610c75565b9055429055565b9291505055565b505050565b90610cb0565b60055460005b818110610d67575050565b80610d73600192610c95565b01610d5c565b6000546001600160a01b03163303610d8d57565b63118cdaa760e01b6000523360045260246000fd5b60015460405163a9059cbb60e01b81526001600160a01b039283166004820152602481018490529160209183916044918391600091165af18015610e3557610df7575b50610df290600254610bd5565b600255565b6020813d602011610e2d575b81610e1060209383610be2565b810103126101b457519081151582036101b4579050610df2610de5565b3d9150610e03565b6040513d6000823e3d90fd5b60405163a9059cbb60e01b60208201526001600160a01b03929092166024830152604480830193909352918152610e8291610e7d606483610be2565b610ec8565b565b6040516323b872dd60e01b60208201526001600160a01b039283166024820152929091166044830152606480830193909352918152610e8291610e7d608483610be2565b906000602091828151910182855af115610e35576000513d610f1a57506001600160a01b0381163b155b610ef95750565b635274afe760e01b60009081526001600160a01b0391909116600452602490fd5b60011415610ef256fea2646970667358221220e11754112785eae65f40576fb528dd16c33c2e6d79b1372d11a3c50f5749bf5664736f6c634300081a0033",
  "linkReferences": {},
  "deployedLinkReferences": {}
}