{
  "_format": "hh-sol-artifact-1",
  "contractName": "Airdrop",
  "sourceName": "contracts/token/Airdrop.sol",
  "abi": [
    {
      "inputs": [
        {
          "internalType": "address",
          "name": "_airdropToken",
          "type": "address"
        }
      ],
      "stateMutability": "nonpayable",
      "type": "constructor"
    },
    {
      "anonymous": false,
      "inputs": [
        {
          "indexed": false,
          "internalType": "address",
          "name": "beneficiary",
          "type": "address"
        }
      ],
      "name": "TokensAirdropped",
      "type": "event"
    },
    {
      "inputs": [],
      "name": "TOKENS_PER_CLAIM",
      "outputs": [
        {
          "internalType": "uint256",
          "name": "",
          "type": "uint256"
        }
      ],
      "stateMutability": "view",
      "type": "function"
    },
    {
      "inputs": [],
      "name": "airdropToken",
      "outputs": [
        {
          "internalType": "contract IERC20",
          "name": "",
          "type": "address"
        }
      ],
      "stateMutability": "view",
      "type": "function"
    },
    {
      "inputs": [],
      "name": "totalTokensWithdrawn",
      "outputs": [
        {
          "internalType": "uint256",
          "name": "",
          "type": "uint256"
        }
      ],
      "stateMutability": "view",
      "type": "function"
    },
    {
      "inputs": [
        {
          "internalType": "address",
          "name": "",
          "type": "address"
        }
      ],
      "name": "wasClaimed",
      "outputs": [
        {
          "internalType": "bool",
          "name": "",
          "type": "bool"
        }
      ],
      "stateMutability": "view",
      "type": "function"
    },
    {
      "inputs": [],
      "name": "withdrawTokens",
      "outputs": [],
      "stateMutability": "nonpayable",
      "type": "function"
    }
  ],
  "bytecode": "0x608034607557601f61040638819003918201601f19168301916001600160401b03831184841017607a57808492602094604052833981010312607557516001600160a01b038116908190036075578015607557600080546001600160a01b03191691909117905560405161037590816100918239f35b600080fd5b634e487b7160e01b600052604160045260246000fdfe608080604052600436101561001357600080fd5b60003560e01c9081634d06068a1461031b575080638d8f2adb146100e0578063bd8d8c321461009d578063cac37f931461007f5763ccfff6791461005657600080fd5b3461007a57600036600319011261007a57602060405168056bc75e2d631000008152f35b600080fd5b3461007a57600036600319011261007a576020600154604051908152f35b3461007a57602036600319011261007a576004356001600160a01b0381169081900361007a576000526002602052602060ff604060002054166040519015158152f35b3461007a57600036600319011261007a573233036102c45733600052600260205260ff6040600020541661028c573360005260026020526040600020600160ff198254161790556000602060018060a01b0382541660446040518094819363a9059cbb60e01b835233600484015268056bc75e2d6310000060248401525af190811561028057600091610214575b50156101cf5760015468056bc75e2d6310000081018091116101b9576001557fdf23082d2b28b19078bc48141d3fdbfd14390048297d149755a09e7edd8129a96020604051338152a1005b634e487b7160e01b600052601160045260246000fd5b60405162461bcd60e51b815260206004820152601f60248201527f546f6b656e207472616e73666572207374617475732069732066616c73652e006044820152606490fd5b60203d602011610279575b601f8101601f1916820167ffffffffffffffff81118382101761026557602091839160405281010312610261575190811515820361025e57508161016e565b80fd5b5080fd5b634e487b7160e01b84526041600452602484fd5b503d61021f565b6040513d6000823e3d90fd5b60405162461bcd60e51b815260206004820152601060248201526f416c726561647920636c61696d65642160801b6044820152606490fd5b60405162461bcd60e51b815260206004820152602960248201527f526571756972652074686174206d6573736167652073656e64657220697320746044820152683c16b7b934b3b4b71760b91b6064820152608490fd5b3461007a57600036600319011261007a576000546001600160a01b03168152602090f3fea2646970667358221220ded3b0c2c74af01ac4bc805c22c12c0cf4fae97fe190fb82e6498a6c62f57c9864736f6c634300081a0033",
  "linkReferences": {},
  "deployedLinkReferences": {}
}