{
  "_format": "hh-sol-artifact-1",
  "contractName": "Admin",
  "sourceName": "contracts/access/Admin.sol",
  "abi": [
    {
      "inputs": [
        {
          "internalType": "address[]",
          "name": "_admins",
          "type": "address[]"
        }
      ],
      "stateMutability": "nonpayable",
      "type": "constructor"
    },
    {
      "inputs": [
        {
          "internalType": "address",
          "name": "_adminAddress",
          "type": "address"
        }
      ],
      "name": "addAdmin",
      "outputs": [],
      "stateMutability": "nonpayable",
      "type": "function"
    },
    {
      "inputs": [
        {
          "internalType": "uint256",
          "name": "",
          "type": "uint256"
        }
      ],
      "name": "admins",
      "outputs": [
        {
          "internalType": "address",
          "name": "",
          "type": "address"
        }
      ],
      "stateMutability": "view",
      "type": "function"
    },
    {
      "inputs": [],
      "name": "getAllAdmins",
      "outputs": [
        {
          "internalType": "address[]",
          "name": "",
          "type": "address[]"
        }
      ],
      "stateMutability": "view",
      "type": "function"
    },
    {
      "inputs": [
        {
          "internalType": "address",
          "name": "",
          "type": "address"
        }
      ],
      "name": "isAdmin",
      "outputs": [
        {
          "internalType": "bool",
          "name": "",
          "type": "bool"
        }
      ],
      "stateMutability": "view",
      "type": "function"
    },
    {
      "inputs": [
        {
          "internalType": "address",
          "name": "_adminAddress",
          "type": "address"
        }
      ],
      "name": "removeAdmin",
      "outputs": [],
      "stateMutability": "nonpayable",
      "type": "function"
    }
  ],
  "bytecode": "0x608060405234610194576107b38038038061001981610199565b928339810190602081830312610194578051906001600160401b038211610194570181601f82011215610194578051916001600160401b03831161014f578260051b9160208061006a818601610199565b80968152019382010191821161019457602001915b818310610174578360005b8151811015610165576001600160a01b036100a582846101be565b511690600054916801000000000000000083101561014f57600183018060005583101561013957600080527f290decd9548b62a8d60345a988386fc84ba6bc95484008f6362f93160ef3e56390920180546001600160a01b0319169092179091556001906001600160a01b0361011b82856101be565b51166000528160205260406000208260ff198254161790550161008a565b634e487b7160e01b600052603260045260246000fd5b634e487b7160e01b600052604160045260246000fd5b6040516105e090816101d38239f35b82516001600160a01b03811681036101945781526020928301920161007f565b600080fd5b6040519190601f01601f191682016001600160401b0381118382101761014f57604052565b80518210156101395760209160051b01019056fe6080604052600436101561001257600080fd5b60003560e01c806314bfd6d0146104f55780631785f53c146102f357806324d7806c146102b0578063704802751461014e5763e9523c971461005357600080fd5b346101495760003660031901126101495760405180602060005491828152018091600080527f290decd9548b62a8d60345a988386fc84ba6bc95484008f6362f93160ef3e5639060005b81811061012a57505050829003601f01601f191682019167ffffffffffffffff83118184101761011457908291826040526020830190602084525180915260408301919060005b8181106100f2575050500390f35b82516001600160a01b03168452859450602093840193909201916001016100e4565b634e487b7160e01b600052604160045260246000fd5b82546001600160a01b031684526020909301926001928301920161009d565b600080fd5b34610149576020366003190112610149576004356001600160a01b038116908181036101495733600052600160205261018e60ff60406000205416610567565b81156102585781600052600160205260ff60406000205416610213576000549068010000000000000000821015610114576101d28260016101f69401600055610537565b81546001600160a01b0393841660039290921b91821b9390911b1916919091179055565b60005260016020526040600020600160ff19825416179055600080f35b60405162461bcd60e51b815260206004820152601e60248201527f5b524241435d203a2041646d696e20616c7265616479206578697374732e00006044820152606490fd5b60405162461bcd60e51b815260206004820152602a60248201527f5b524241435d203a2041646d696e206d75737420626520213d207468616e20306044820152697830206164647265737360b01b6064820152608490fd5b34610149576020366003190112610149576004356001600160a01b03811690819003610149576000526001602052602060ff604060002054166040519015158152f35b34610149576020366003190112610149576004356001600160a01b038116908190036101495733600052600160205261033360ff60406000205416610567565b80600052600160205260ff604060002054161561014957600054600181111561048a5760005b8261036382610537565b905460039190911b1c6001600160a01b0316146103f9578181146103a857600019811461039257600101610359565b634e487b7160e01b600052601160045260246000fd5b60405162461bcd60e51b815260206004820152602360248201527f5061737365642061646d696e206164647265737320646f6573206e6f742065786044820152621a5cdd60ea1b6064820152608490fd5b6000198201918211610392576101d261041461042c93610537565b905460039190911b1c6001600160a01b031691610537565b6000526001602052604060002060ff1981541690556000548015610474576000190161045781610537565b81546001600160a01b0360039290921b9190911b19169055600055005b634e487b7160e01b600052603160045260246000fd5b60405162461bcd60e51b815260206004820152603a60248201527f43616e206e6f742072656d6f766520616c6c2061646d696e732073696e63652060448201527f636f6e7472616374206265636f6d657320756e757361626c652e0000000000006064820152608490fd5b34610149576020366003190112610149576004356000548110156101495761051e602091610537565b905460405160039290921b1c6001600160a01b03168152f35b600054811015610551576000805260206000200190600090565b634e487b7160e01b600052603260045260246000fd5b1561056e57565b60405162461bcd60e51b815260206004820152601460248201527327b7363c9030b236b4b71031b0b71031b0b6361760611b6044820152606490fdfea26469706673582212200817628f39e9933ff4f625e7cc8aea1da4f4038b23b9e80046f5547ff99fa75464736f6c634300081a0033",
  "linkReferences": {},
  "deployedLinkReferences": {}
}