{
  "_format": "hh-sol-artifact-1",
  "contractName": "AllocationStaking",
  "sourceName": "contracts/sales/AllocationStaking.sol",
  "abi": [
    {
      "inputs": [],
      "name": "InvalidInitialization",
      "type": "error"
    },
    {
      "inputs": [],
      "name": "NotInitializing",
      "type": "error"
    },
    {
      "inputs": [
        {
          "internalType": "address",
          "name": "owner",
          "type": "address"
        }
      ],
      "name": "OwnableInvalidOwner",
      "type": "error"
    },
    {
      "inputs": [
        {
          "internalType": "address",
          "name": "account",
          "type": "address"
        }
      ],
      "name": "OwnableUnauthorizedAccount",
      "type": "error"
    },
    {
      "inputs": [
        {
          "internalType": "address",
          "name": "token",
          "type": "address"
        }
      ],
      "name": "SafeERC20FailedOperation",
      "type": "error"
    },
    {
      "anonymous": false,
      "inputs": [
        {
          "indexed": true,
          "internalType": "address",
          "name": "user",
          "type": "address"
        },
        {
          "indexed": true,
          "internalType": "uint256",
          "name": "pid",
          "type": "uint256"
        },
        {
          "indexed": false,
          "internalType": "uint256",
          "name": "amountAdded",
          "type": "uint256"
        },
        {
          "indexed": false,
          "internalType": "uint256",
          "name": "totalDeposited",
          "type": "uint256"
        }
      ],
      "name": "CompoundedEarnings",
      "type": "event"
    },
    {
      "anonymous": false,
      "inputs": [
        {
          "indexed": true,
          "internalType": "address",
          "name": "user",
          "type": "address"
        },
        {
          "indexed": true,
          "internalType": "uint256",
          "name": "pid",
          "type": "uint256"
        },
        {
          "indexed": false,
          "internalType": "uint256",
          "name": "amount",
          "type": "uint256"
        }
      ],
      "name": "Deposit",
      "type": "event"
    },
    {
      "anonymous": false,
      "inputs": [
        {
          "indexed": true,
          "internalType": "address",
          "name": "user",
          "type": "address"
        },
        {
          "indexed": true,
          "internalType": "uint256",
          "name": "pid",
          "type": "uint256"
        },
        {
          "indexed": false,
          "internalType": "uint256",
          "name": "amount",
          "type": "uint256"
        }
      ],
      "name": "EmergencyWithdraw",
      "type": "event"
    },
    {
      "anonymous": false,
      "inputs": [
        {
          "indexed": false,
          "internalType": "uint64",
          "name": "version",
          "type": "uint64"
        }
      ],
      "name": "Initialized",
      "type": "event"
    },
    {
      "anonymous": false,
      "inputs": [
        {
          "indexed": true,
          "internalType": "address",
          "name": "previousOwner",
          "type": "address"
        },
        {
          "indexed": true,
          "internalType": "address",
          "name": "newOwner",
          "type": "address"
        }
      ],
      "name": "OwnershipTransferred",
      "type": "event"
    },
    {
      "anonymous": false,
      "inputs": [
        {
          "indexed": true,
          "internalType": "address",
          "name": "user",
          "type": "address"
        },
        {
          "indexed": true,
          "internalType": "uint256",
          "name": "pid",
          "type": "uint256"
        },
        {
          "indexed": false,
          "internalType": "uint256",
          "name": "amount",
          "type": "uint256"
        }
      ],
      "name": "Withdraw",
      "type": "event"
    },
    {
      "inputs": [
        {
          "internalType": "uint256",
          "name": "_allocPoint",
          "type": "uint256"
        },
        {
          "internalType": "contract IERC20",
          "name": "_lpToken",
          "type": "address"
        },
        {
          "internalType": "bool",
          "name": "_withUpdate",
          "type": "bool"
        }
      ],
      "name": "add",
      "outputs": [],
      "stateMutability": "nonpayable",
      "type": "function"
    },
    {
      "inputs": [
        {
          "internalType": "uint256",
          "name": "_pid",
          "type": "uint256"
        }
      ],
      "name": "compound",
      "outputs": [],
      "stateMutability": "nonpayable",
      "type": "function"
    },
    {
      "inputs": [
        {
          "internalType": "uint256",
          "name": "_pid",
          "type": "uint256"
        },
        {
          "internalType": "uint256",
          "name": "_amount",
          "type": "uint256"
        }
      ],
      "name": "deposit",
      "outputs": [],
      "stateMutability": "nonpayable",
      "type": "function"
    },
    {
      "inputs": [
        {
          "internalType": "uint256",
          "name": "_pid",
          "type": "uint256"
        },
        {
          "internalType": "address",
          "name": "_user",
          "type": "address"
        }
      ],
      "name": "deposited",
      "outputs": [
        {
          "internalType": "uint256",
          "name": "",
          "type": "uint256"
        }
      ],
      "stateMutability": "view",
      "type": "function"
    },
    {
      "inputs": [
        {
          "internalType": "uint256",
          "name": "_pid",
          "type": "uint256"
        }
      ],
      "name": "emergencyWithdraw",
      "outputs": [],
      "stateMutability": "nonpayable",
      "type": "function"
    },
    {
      "inputs": [],
      "name": "endTimestamp",
      "outputs": [
        {
          "internalType": "uint256",
          "name": "",
          "type": "uint256"
        }
      ],
      "stateMutability": "view",
      "type": "function"
    },
    {
      "inputs": [],
      "name": "erc20",
      "outputs": [
        {
          "internalType": "contract IERC20",
          "name": "",
          "type": "address"
        }
      ],
      "stateMutability": "view",
      "type": "function"
    },
    {
      "inputs": [
        {
          "internalType": "uint256",
          "name": "_amount",
          "type": "uint256"
        }
      ],
      "name": "fund",
      "outputs": [],
      "stateMutability": "nonpayable",
      "type": "function"
    },
    {
      "inputs": [
        {
          "internalType": "address[]",
          "name": "users",
          "type": "address[]"
        },
        {
          "internalType": "uint256",
          "name": "pid",
          "type": "uint256"
        }
      ],
      "name": "getPendingAndDepositedForUsers",
      "outputs": [
        {
          "internalType": "uint256[]",
          "name": "",
          "type": "uint256[]"
        },
        {
          "internalType": "uint256[]",
          "name": "",
          "type": "uint256[]"
        }
      ],
      "stateMutability": "view",
      "type": "function"
    },
    {
      "inputs": [
        {
          "internalType": "contract IERC20",
          "name": "_erc20",
          "type": "address"
        },
        {
          "internalType": "uint256",
          "name": "_rewardPerSecond",
          "type": "uint256"
        },
        {
          "internalType": "uint256",
          "name": "_startTimestamp",
          "type": "uint256"
        },
        {
          "internalType": "address",
          "name": "_salesFactory",
          "type": "address"
        }
      ],
      "name": "initialize",
      "outputs": [],
      "stateMutability": "nonpayable",
      "type": "function"
    },
    {
      "inputs": [],
      "name": "massUpdatePools",
      "outputs": [],
      "stateMutability": "nonpayable",
      "type": "function"
    },
    {
      "inputs": [],
      "name": "owner",
      "outputs": [
        {
          "internalType": "address",
          "name": "",
          "type": "address"
        }
      ],
      "stateMutability": "view",
      "type": "function"
    },
    {
      "inputs": [],
      "name": "paidOut",
      "outputs": [
        {
          "internalType": "uint256",
          "name": "",
          "type": "uint256"
        }
      ],
      "stateMutability": "view",
      "type": "function"
    },
    {
      "inputs": [
        {
          "internalType": "uint256",
          "name": "_pid",
          "type": "uint256"
        },
        {
          "internalType": "address",
          "name": "_user",
          "type": "address"
        }
      ],
      "name": "pending",
      "outputs": [
        {
          "internalType": "uint256",
          "name": "",
          "type": "uint256"
        }
      ],
      "stateMutability": "view",
      "type": "function"
    },
    {
      "inputs": [
        {
          "internalType": "uint256",
          "name": "",
          "type": "uint256"
        }
      ],
      "name": "poolInfo",
      "outputs": [
        {
          "internalType": "contract IERC20",
          "name": "lpToken",
          "type": "address"
        },
        {
          "internalType": "uint256",
          "name": "allocPoint",
          "type": "uint256"
        },
        {
          "internalType": "uint256",
          "name": "lastRewardTimestamp",
          "type": "uint256"
        },
        {
          "internalType": "uint256",
          "name": "accERC20PerShare",
          "type": "uint256"
        },
        {
          "internalType": "uint256",
          "name": "totalDeposits",
          "type": "uint256"
        }
      ],
      "stateMutability": "view",
      "type": "function"
    },
    {
      "inputs": [],
      "name": "poolLength",
      "outputs": [
        {
          "internalType": "uint256",
          "name": "",
          "type": "uint256"
        }
      ],
      "stateMutability": "view",
      "type": "function"
    },
    {
      "inputs": [],
      "name": "renounceOwnership",
      "outputs": [],
      "stateMutability": "nonpayable",
      "type": "function"
    },
    {
      "inputs": [],
      "name": "rewardPerSecond",
      "outputs": [
        {
          "internalType": "uint256",
          "name": "",
          "type": "uint256"
        }
      ],
      "stateMutability": "view",
      "type": "function"
    },
    {
      "inputs": [],
      "name": "salesFactory",
      "outputs": [
        {
          "internalType": "contract ISalesFactory",
          "name": "",
          "type": "address"
        }
      ],
      "stateMutability": "view",
      "type": "function"
    },
    {
      "inputs": [
        {
          "internalType": "uint256",
          "name": "_pid",
          "type": "uint256"
        },
        {
          "internalType": "uint256",
          "name": "_allocPoint",
          "type": "uint256"
        },
        {
          "internalType": "bool",
          "name": "_withUpdate",
          "type": "bool"
        }
      ],
      "name": "set",
      "outputs": [],
      "stateMutability": "nonpayable",
      "type": "function"
    },
    {
      "inputs": [
        {
          "internalType": "address",
          "name": "_salesFactory",
          "type": "address"
        }
      ],
      "name": "setSalesFactory",
      "outputs": [],
      "stateMutability": "nonpayable",
      "type": "function"
    },
    {
      "inputs": [
        {
          "internalType": "uint256",
          "name": "_pid",
          "type": "uint256"
        },
        {
          "internalType": "address",
          "name": "_user",
          "type": "address"
        },
        {
          "internalType": "uint256",
          "name": "_tokensUnlockTime",
          "type": "uint256"
        }
      ],
      "name": "setTokensUnlockTime",
      "outputs": [],
      "stateMutability": "nonpayable",
      "type": "function"
    },
    {
      "inputs": [],
      "name": "startTimestamp",
      "outputs": [
        {
          "internalType": "uint256",
          "name": "",
          "type": "uint256"
        }
      ],
      "stateMutability": "view",
      "type": "function"
    },
    {
      "inputs": [],
      "name": "totalAllocPoint",
      "outputs": [
        {
          "internalType": "uint256",
          "name": "",
          "type": "uint256"
        }
      ],
      "stateMutability": "view",
      "type": "function"
    },
    {
      "inputs": [],
      "name": "totalPending",
      "outputs": [
        {
          "internalType": "uint256",
          "name": "",
          "type": "uint256"
        }
      ],
      "stateMutability": "view",
      "type": "function"
    },
    {
      "inputs": [],
      "name": "totalRewards",
      "outputs": [
        {
          "internalType": "uint256",
          "name": "",
          "type": "uint256"
        }
      ],
      "stateMutability": "view",
      "type": "function"
    },
    {
      "inputs": [
        {
          "internalType": "address",
          "name": "newOwner",
          "type": "address"
        }
      ],
      "name": "transferOwnership",
      "outputs": [],
      "stateMutability": "nonpayable",
      "type": "function"
    },
    {
      "inputs": [
        {
          "internalType": "uint256",
          "name": "_pid",
          "type": "uint256"
        }
      ],
      "name": "updatePool",
      "outputs": [],
      "stateMutability": "nonpayable",
      "type": "function"
    },
    {
      "inputs": [
        {
          "internalType": "uint256",
          "name": "",
          "type": "uint256"
        },
        {
          "internalType": "address",
          "name": "",
          "type": "address"
        }
      ],
      "name": "userInfo",
      "outputs": [
        {
          "internalType": "uint256",
          "name": "amount",
          "type": "uint256"
        },
        {
          "internalType": "uint256",
          "name": "rewardDebt",
          "type": "uint256"
        },
        {
          "internalType": "uint256",
          "name": "tokensUnlockTime",
          "type": "uint256"
        }
      ],
      "stateMutability": "view",
      "type": "function"
    },
    {
      "inputs": [
        {
          "internalType": "uint256",
          "name": "_pid",
          "type": "uint256"
        },
        {
          "internalType": "uint256",
          "name": "_amount",
          "type": "uint256"
        }
      ],
      "name": "withdraw",
      "outputs": [],
      "stateMutability": "nonpayable",
      "type": "function"
    }
  ],
  "bytecode": "0x6080806040523460155761173d908161001b8239f35b600080fdfe608080604052600436101561001357600080fd5b60003560e01c908163081e3eda1461107c575080630e15561a1461105e5780631526fe2714610ff857806317caf6f114610fda5780631eaaa04514610eb95780633dfcb86114610e715780633f90916a14610e56578063441a3e7014610c9357806351eb05a614610c775780635312ea8e14610b5a5780635c76ca2d14610b3c578063630b5ba114610b2357806364482f7914610ab6578063715018a614610a4c578063785e9e8614610a235780638da5cb5b146109ed5780638f10369a146109cf57806393f1a40b146109725780639e3d87cd146107c9578063a238310614610781578063a85adeab14610763578063aa5f7e2614610690578063ca1d209d146105db578063e2bbb158146104dd578063e4c75c27146104af578063e6f04acc14610330578063e6fd48bc14610312578063ed95f07f146102e9578063f2fde38b146102be5763fcfc1b141461016957600080fd5b346102b95760403660031901126102b95760043567ffffffffffffffff81116102b957366023820112156102b95780600401356101a581611142565b916101b36040519384611120565b8183526024602084019260051b820101903682116102b957602401915b81831061029957836024356101e582516114c8565b906101f083516114c8565b9260005b815181101561026b5760019060406001600160a01b0361021483866114fa565b511685600052600660205281600020600091858060a01b03168252602052205461023e82876114fa565b5261025a828060a01b0361025283866114fa565b51168561132d565b61026482886114fa565b52016101f4565b610287846102958760405193849360408552604085019061115a565b90838203602085015261115a565b0390f35b82356001600160a01b03811681036102b9578152602092830192016101d0565b600080fd5b346102b95760203660031901126102b9576102e76102da6110e5565b6102e261150e565b611452565b005b346102b95760003660031901126102b9576004546040516001600160a01b039091168152602090f35b346102b95760003660031901126102b9576020600854604051908152f35b346102b95760603660031901126102b9576103496110cf565b6024602060018060a01b036004541660405192838092631400493d60e31b82523360048301525afa9081156104a357600091610474575b501561042557600435600052600660205260406000209060018060a01b031660005260205260406000206002810190815442106102b957600391604435905501805490600160401b82101561040f57600182018082558210156103f9576000908152602090200180546001600160a01b03191633179055005b634e487b7160e01b600052603260045260246000fd5b634e487b7160e01b600052604160045260246000fd5b60405162461bcd60e51b815260206004820152602160248201527f53616c65206e6f742063726561746564207468726f75676820666163746f72796044820152601760f91b6064820152608490fd5b610496915060203d60201161049c575b61048e8183611120565b81019061143a565b82610380565b503d610484565b6040513d6000823e3d90fd5b346102b95760403660031901126102b95760206104d56104cd6110cf565b60043561132d565b604051908152f35b346102b9576104eb3661110a565b6104f482611097565b5082600052600660205260016a0c097ce7bc90715b34b9f160241b61057c604080600020600090858060a01b0333168252602052209361053387611242565b8454806105ae575b5061055286858060a01b03835416309033906115fa565b6004810161056187825461118e565b9055600361057087875461118e565b918287550154906111be565b049101556040519081527f90890809c654f11d6e72a28fa60149770a0d11ec6c92319d6ceb2bb0a4ea1a1560203392a3005b6105cf846105c46105d5936003860154906111be565b0486880154906111b1565b33611544565b8761053b565b346102b95760203660031901126102b9576004356009544210156106405760005461063b9190610619908290309033906001600160a01b03166115fa565b61063061062860025483611222565b60095461118e565b60095560035461118e565b600355005b60405162461bcd60e51b815260206004820152602260248201527f66756e643a20746f6f206c6174652c20746865206661726d20697320636c6f73604482015261195960f21b6064820152608490fd5b346102b95760203660031901126102b9576004356106ad81611097565b50600082815260066020908152604080832033845290915290206106d083611242565b6004815492600381016a0c097ce7bc90715b34b9f160241b61071e816106f78454896111be565b049261071361070c60018901958654906111b1565b809961118e565b9081885554906111be565b0490550161072d83825461118e565b90555460405191825260208201527f92f0bdf80f3916a4279540865e94ef327cf48639092106cca4bddc9bb1de4a8660403392a3005b346102b95760003660031901126102b9576020600954604051908152f35b346102b95760403660031901126102b95761079a6110cf565b600435600052600660205260406000209060018060a01b03166000526020526020604060002054604051908152f35b346102b95760803660031901126102b9576107e26110e5565b6064356001600160a01b03811690604435908290036102b9576000805160206116e8833981519152549260ff8460401c16159367ffffffffffffffff81168015908161096a575b6001149081610960575b159081610957575b506109465767ffffffffffffffff1981166001176000805160206116e88339815191525584610919575b5061086e611699565b610876611699565b61087f33611452565b60018060a01b03166001600160601b0360a01b6000541617600055602435600255806008556009556001600160601b0360a01b60045416176004556108c057005b68ff0000000000000000196000805160206116e883398151915254166000805160206116e8833981519152557fc7f505b2f371ae2175ee4913f4499e1f2633a7b5936321eed1cdaeb6115181d2602060405160018152a1005b68ffffffffffffffffff191668010000000000000001176000805160206116e88339815191525584610865565b63f92ee8a960e01b60005260046000fd5b9050158661083b565b303b159150610833565b869150610829565b346102b95760403660031901126102b9576060604061098f6110cf565b60043560005260066020528160002060009160018060a01b0316825260205220805490600260018201549101549060405192835260208301526040820152f35b346102b95760003660031901126102b9576020600254604051908152f35b346102b95760003660031901126102b9576000805160206116c8833981519152546040516001600160a01b039091168152602090f35b346102b95760003660031901126102b9576000546040516001600160a01b039091168152602090f35b346102b95760003660031901126102b957610a6561150e565b6000805160206116c883398151915280546001600160a01b031981169091556000906001600160a01b03167f8be0079c531659141344cd1fd0a4f28419497f9722a3daafe3b4186f6b6457e08280a3005b346102b95760603660031901126102b9576024356001610b11600435610ada6110fb565b610ae261150e565b610b16575b610b0984610b0460075486610afb86611097565b500154906111b1565b61118e565b600755611097565b500155005b610b1e61130a565b610ae7565b346102b95760003660031901126102b9576102e761130a565b346102b95760003660031901126102b9576020600154604051908152f35b346102b95760203660031901126102b957600435610b7781611097565b5081600052600660205260408060002060009060018060a01b03331682526020522091600283019182544210610c0c576000938492610c026004600194610bca868060a01b0382541686549033906115b7565b8454936040518581527fbb757047c2b5f3974fe26b7c10f732e7bce710b0952a71082702781e62ae059560203392a3019182546111b1565b9055828155015555005b60405162461bcd60e51b815260206004820152603b60248201527f456d657267656e637920776974686472617720626c6f636b656420647572696e60448201527f672073616c6520616e6420636f6f6c646f776e20706572696f642e00000000006064820152608490fd5b346102b95760203660031901126102b9576102e7600435611242565b346102b957610ca13661110a565b610caa82611097565b50600083815260066020908152604080832033845290915290206002810180549092904210610df75783825410610d9f57600491610ce786611242565b6a0c097ce7bc90715b34b9f160241b610d3782549282610d0d60038701958654906111be565b0493610d226105cf60018401968754906111b1565b610d2d8983546111b1565b80925554906111be565b0490558054610d5290859033906001600160a01b03166115b7565b01610d5e8382546111b1565b905581610d95575b506040519081527ff279e6a1f5e320cca91135676d9cb6e44ca8a08c0b88342bcdb1144f6511b56860203392a3005b6000905582610d66565b60405162461bcd60e51b815260206004820152602a60248201527f77697468647261773a2063616e2774207769746864726177206d6f7265207468604482015269185b8819195c1bdcda5d60b21b6064820152608490fd5b60405162461bcd60e51b815260206004820152603160248201527f4c6173742073616c6520796f75207265676973746572656420666f72206973206044820152703737ba103334b734b9b432b2103cb2ba1760791b6064820152608490fd5b346102b95760003660031901126102b95760206104d56111d1565b346102b95760203660031901126102b957610e8a6110e5565b610e9261150e565b6001600160a01b031680156102b9576001600160601b0360a01b6004541617600455600080f35b346102b95760603660031901126102b957600435610ed56110cf565b610edd6110fb565b610ee561150e565b610fcd575b600854804211600014610fc85750425b610f068360075461118e565b6007556040519160a0830183811067ffffffffffffffff82111761040f5760405260018060a01b0316825260208201928352604082019081526060820160008152608083019160008352600554600160401b81101561040f57806001610f6f9201600555611097565b959095610fb257935185546001600160a01b0319166001600160a01b03919091161785559251600185015591516002840155905160038301555160049190910155005b634e487b7160e01b600052600060045260246000fd5b610efa565b610fd561130a565b610eea565b346102b95760003660031901126102b9576020600754604051908152f35b346102b95760203660031901126102b9576004356005548110156102b95761102160a091611097565b50600180831b0381541690600181015490600281015460046003830154920154926040519485526020850152604084015260608301526080820152f35b346102b95760003660031901126102b9576020600354604051908152f35b346102b95760003660031901126102b9576020906005548152f35b6005548110156103f9576005600081815291027f036b6384b5eca791c62761152d0c79bb0604c104a5fb6f4eb0703f3154bb3db00191565b602435906001600160a01b03821682036102b957565b600435906001600160a01b03821682036102b957565b6044359081151582036102b957565b60409060031901126102b9576004359060243590565b90601f8019910116810190811067ffffffffffffffff82111761040f57604052565b67ffffffffffffffff811161040f5760051b60200190565b906020808351928381520192019060005b8181106111785750505090565b825184526020938401939092019160010161116b565b9190820180921161119b57565b634e487b7160e01b600052601160045260246000fd5b9190820391821161119b57565b8181029291811591840414171561119b57565b6008548042111561121c5761120661120f91600954804210600014611212575061120042915b600254926111b1565b906111be565b600154906111b1565b90565b61120090916111f7565b50600090565b811561122c570490565b634e487b7160e01b600052601260045260246000fd5b61124b90611097565b506009548042106000146113055750425b809160028101918254809111156112fd575b50600481015480156112f85760036112ad6112a46112996112908754896111b1565b600254906111be565b6001860154906111be565b60075490611222565b9201918254906a0c097ce7bc90715b34b9f160241b8102908082046a0c097ce7bc90715b34b9f160241b149015171561119b576112f3926112ed91611222565b9061118e565b905555565b505055565b92503861126e565b61125c565b60055460005b81811061131b575050565b80611327600192611242565b01611310565b9061133782611097565b5091600052600660205260406000209060018060a01b03166000526020526040600020600382015491600481015490600281015480421180611431575b6113a5575b50505060016a0c097ce7bc90715b34b9f160241b61139b61120f9484546111be565b04910154906111b1565b6113d29160016113c96112906112a49460095480421060001461142c5750426111b1565b910154906111be565b926a0c097ce7bc90715b34b9f160241b8402938085046a0c097ce7bc90715b34b9f160241b149015171561119b5761139b6114256a0c097ce7bc90715b34b9f160241b926112ed60019561120f98611222565b9450611379565b6111b1565b50821515611374565b908160209103126102b9575180151581036102b95790565b6001600160a01b031680156114b2576000805160206116c883398151915280546001600160a01b0319811683179091556001600160a01b03167f8be0079c531659141344cd1fd0a4f28419497f9722a3daafe3b4186f6b6457e0600080a3565b631e4fbdf760e01b600052600060045260246000fd5b906114d282611142565b6114df6040519182611120565b82815280926114f0601f1991611142565b0190602036910137565b80518210156103f95760209160051b010190565b6000805160206116c8833981519152546001600160a01b0316330361152f57565b63118cdaa760e01b6000523360045260246000fd5b6000805460405163a9059cbb60e01b81526001600160a01b0393841660048201526024810185905293926020928592604492849291165af19182156104a3576115959261159a575b5060015461118e565b600155565b6115b29060203d60201161049c5761048e8183611120565b61158c565b60405163a9059cbb60e01b60208201526001600160a01b039290921660248301526044808301939093529181526115f8916115f3606483611120565b61163e565b565b6040516323b872dd60e01b60208201526001600160a01b0392831660248201529290911660448301526064808301939093529181526115f8916115f3608483611120565b906000602091828151910182855af1156104a3576000513d61169057506001600160a01b0381163b155b61166f5750565b635274afe760e01b60009081526001600160a01b0391909116600452602490fd5b60011415611668565b60ff6000805160206116e88339815191525460401c16156116b657565b631afcd79f60e31b60005260046000fdfe9016d09d72d40fdae2fd8ceac6b6234c7706214fd39c1cd1e609a0528c199300f0c57e16840df040f15088dc2f81fe391c3923bec73e23a9662efc9c229c6a00a26469706673582212205a7f775c9da29a434ea8ab6891703c6c45457556b90e6466569d14c860e7cbf364736f6c634300081a0033",
  "linkReferences": {},
  "deployedLinkReferences": {}
}