{"contracts/sales/AllocationStaking.sol":{"AllocationStaking":{"abi":[{"inputs":[],"name":"InvalidInitialization","type":"error"},{"inputs":[],"name":"NotInitializing","type":"error"},{"inputs":[{"internalType":"address","name":"owner","type":"address"}],"name":"OwnableInvalidOwner","type":"error"},{"inputs":[{"internalType":"address","name":"account","type":"address"}],"name":"OwnableUnauthorizedAccount","type":"error"},{"inputs":[{"internalType":"address","name":"token","type":"address"}],"name":"SafeERC20FailedOperation","type":"error"},{"anonymous":false,"inputs":[{"indexed":true,"internalType":"address","name":"user","type":"address"},{"indexed":true,"internalType":"uint256","name":"pid","type":"uint256"},{"indexed":false,"internalType":"uint256","name":"amountAdded","type":"uint256"},{"indexed":false,"internalType":"uint256","name":"totalDeposited","type":"uint256"}],"name":"CompoundedEarnings","type":"event"},{"anonymous":false,"inputs":[{"indexed":true,"internalType":"address","name":"user","type":"address"},{"indexed":true,"internalType":"uint256","name":"pid","type":"uint256"},{"indexed":false,"internalType":"uint256","name":"amount","type":"uint256"}],"name":"Deposit","type":"event"},{"anonymous":false,"inputs":[{"indexed":true,"internalType":"address","name":"user","type":"address"},{"indexed":true,"internalType":"uint256","name":"pid","type":"uint256"},{"indexed":false,"internalType":"uint256","name":"amount","type":"uint256"}],"name":"EmergencyWithdraw","type":"event"},{"anonymous":false,"inputs":[{"indexed":false,"internalType":"uint64","name":"version","type":"uint64"}],"name":"Initialized","type":"event"},{"anonymous":false,"inputs":[{"indexed":true,"internalType":"address","name":"previousOwner","type":"address"},{"indexed":true,"internalType":"address","name":"newOwner","type":"address"}],"name":"OwnershipTransferred","type":"event"},{"anonymous":false,"inputs":[{"indexed":true,"internalType":"address","name":"user","type":"address"},{"indexed":true,"internalType":"uint256","name":"pid","type":"uint256"},{"indexed":false,"internalType":"uint256","name":"amount","type":"uint256"}],"name":"Withdraw","type":"event"},{"inputs":[{"internalType":"uint256","name":"_allocPoint","type":"uint256"},{"internalType":"contract IERC20","name":"_lpToken","type":"address"},{"internalType":"bool","name":"_withUpdate","type":"bool"}],"name":"add","outputs":[],"stateMutability":"nonpayable","type":"function"},{"inputs":[{"internalType":"uint256","name":"_pid","type":"uint256"}],"name":"compound","outputs":[],"stateMutability":"nonpayable","type":"function"},{"inputs":[{"internalType":"uint256","name":"_pid","type":"uint256"},{"internalType":"uint256","name":"_amount","type":"uint256"}],"name":"deposit","outputs":[],"stateMutability":"nonpayable","type":"function"},{"inputs":[{"internalType":"uint256","name":"_pid","type":"uint256"},{"internalType":"address","name":"_user","type":"address"}],"name":"deposited","outputs":[{"internalType":"uint256","name":"","type":"uint256"}],"stateMutability":"view","type":"function"},{"inputs":[{"internalType":"uint256","name":"_pid","type":"uint256"}],"name":"emergencyWithdraw","outputs":[],"stateMutability":"nonpayable","type":"function"},{"inputs":[],"name":"endTimestamp","outputs":[{"internalType":"uint256","name":"","type":"uint256"}],"stateMutability":"view","type":"function"},{"inputs":[],"name":"erc20","outputs":[{"internalType":"contract IERC20","name":"","type":"address"}],"stateMutability":"view","type":"function"},{"inputs":[{"internalType":"uint256","name":"_amount","type":"uint256"}],"name":"fund","outputs":[],"stateMutability":"nonpayable","type":"function"},{"inputs":[{"internalType":"address[]","name":"users","type":"address[]"},{"internalType":"uint256","name":"pid","type":"uint256"}],"name":"getPendingAndDepositedForUsers","outputs":[{"internalType":"uint256[]","name":"","type":"uint256[]"},{"internalType":"uint256[]","name":"","type":"uint256[]"}],"stateMutability":"view","type":"function"},{"inputs":[{"internalType":"contract IERC20","name":"_erc20","type":"address"},{"internalType":"uint256","name":"_rewardPerSecond","type":"uint256"},{"internalType":"uint256","name":"_startTimestamp","type":"uint256"},{"internalType":"address","name":"_salesFactory","type":"address"}],"name":"initialize","outputs":[],"stateMutability":"nonpayable","type":"function"},{"inputs":[],"name":"massUpdatePools","outputs":[],"stateMutability":"nonpayable","type":"function"},{"inputs":[],"name":"owner","outputs":[{"internalType":"address","name":"","type":"address"}],"stateMutability":"view","type":"function"},{"inputs":[],"name":"paidOut","outputs":[{"internalType":"uint256","name":"","type":"uint256"}],"stateMutability":"view","type":"function"},{"inputs":[{"internalType":"uint256","name":"_pid","type":"uint256"},{"internalType":"address","name":"_user","type":"address"}],"name":"pending","outputs":[{"internalType":"uint256","name":"","type":"uint256"}],"stateMutability":"view","type":"function"},{"inputs":[{"internalType":"uint256","name":"","type":"uint256"}],"name":"poolInfo","outputs":[{"internalType":"contract IERC20","name":"lpToken","type":"address"},{"internalType":"uint256","name":"allocPoint","type":"uint256"},{"internalType":"uint256","name":"lastRewardTimestamp","type":"uint256"},{"internalType":"uint256","name":"accERC20PerShare","type":"uint256"},{"internalType":"uint256","name":"totalDeposits","type":"uint256"}],"stateMutability":"view","type":"function"},{"inputs":[],"name":"poolLength","outputs":[{"internalType":"uint256","name":"","type":"uint256"}],"stateMutability":"view","type":"function"},{"inputs":[],"name":"renounceOwnership","outputs":[],"stateMutability":"nonpayable","type":"function"},{"inputs":[],"name":"rewardPerSecond","outputs":[{"internalType":"uint256","name":"","type":"uint256"}],"stateMutability":"view","type":"function"},{"inputs":[],"name":"salesFactory","outputs":[{"internalType":"contract ISalesFactory","name":"","type":"address"}],"stateMutability":"view","type":"function"},{"inputs":[{"internalType":"uint256","name":"_pid","type":"uint256"},{"internalType":"uint256","name":"_allocPoint","type":"uint256"},{"internalType":"bool","name":"_withUpdate","type":"bool"}],"name":"set","outputs":[],"stateMutability":"nonpayable","type":"function"},{"inputs":[{"internalType":"address","name":"_salesFactory","type":"address"}],"name":"setSalesFactory","outputs":[],"stateMutability":"nonpayable","type":"function"},{"inputs":[{"internalType":"uint256","name":"_pid","type":"uint256"},{"internalType":"address","name":"_user","type":"address"},{"internalType":"uint256","name":"_tokensUnlockTime","type":"uint256"}],"name":"setTokensUnlockTime","outputs":[],"stateMutability":"nonpayable","type":"function"},{"inputs":[],"name":"startTimestamp","outputs":[{"internalType":"uint256","name":"","type":"uint256"}],"stateMutability":"view","type":"function"},{"inputs":[],"name":"totalAllocPoint","outputs":[{"internalType":"uint256","name":"","type":"uint256"}],"stateMutability":"view","type":"function"},{"inputs":[],"name":"totalPending","outputs":[{"internalType":"uint256","name":"","type":"uint256"}],"stateMutability":"view","type":"function"},{"inputs":[],"name":"totalRewards","outputs":[{"internalType":"uint256","name":"","type":"uint256"}],"stateMutability":"view","type":"function"},{"inputs":[{"internalType":"address","name":"newOwner","type":"address"}],"name":"transferOwnership","outputs":[],"stateMutability":"nonpayable","type":"function"},{"inputs":[{"internalType":"uint256","name":"_pid","type":"uint256"}],"name":"updatePool","outputs":[],"stateMutability":"nonpayable","type":"function"},{"inputs":[{"internalType":"uint256","name":"","type":"uint256"},{"internalType":"address","name":"","type":"address"}],"name":"userInfo","outputs":[{"internalType":"uint256","name":"amount","type":"uint256"},{"internalType":"uint256","name":"rewardDebt","type":"uint256"},{"internalType":"uint256","name":"tokensUnlockTime","type":"uint256"}],"stateMutability":"view","type":"function"},{"inputs":[{"internalType":"uint256","name":"_pid","type":"uint256"},{"internalType":"uint256","name":"_amount","type":"uint256"}],"name":"withdraw","outputs":[],"stateMutability":"nonpayable","type":"function"}],"evm":{"bytecode":{"linkReferences":{},"object":"6080806040523460155761173d908161001b8239f35b600080fdfe608080604052600436101561001357600080fd5b60003560e01c908163081e3eda1461107c575080630e15561a1461105e5780631526fe2714610ff857806317caf6f114610fda5780631eaaa04514610eb95780633dfcb86114610e715780633f90916a14610e56578063441a3e7014610c9357806351eb05a614610c775780635312ea8e14610b5a5780635c76ca2d14610b3c578063630b5ba114610b2357806364482f7914610ab6578063715018a614610a4c578063785e9e8614610a235780638da5cb5b146109ed5780638f10369a146109cf57806393f1a40b146109725780639e3d87cd146107c9578063a238310614610781578063a85adeab14610763578063aa5f7e2614610690578063ca1d209d146105db578063e2bbb158146104dd578063e4c75c27146104af578063e6f04acc14610330578063e6fd48bc14610312578063ed95f07f146102e9578063f2fde38b146102be5763fcfc1b141461016957600080fd5b346102b95760403660031901126102b95760043567ffffffffffffffff81116102b957366023820112156102b95780600401356101a581611142565b916101b36040519384611120565b8183526024602084019260051b820101903682116102b957602401915b81831061029957836024356101e582516114c8565b906101f083516114c8565b9260005b815181101561026b5760019060406001600160a01b0361021483866114fa565b511685600052600660205281600020600091858060a01b03168252602052205461023e82876114fa565b5261025a828060a01b0361025283866114fa565b51168561132d565b61026482886114fa565b52016101f4565b610287846102958760405193849360408552604085019061115a565b90838203602085015261115a565b0390f35b82356001600160a01b03811681036102b9578152602092830192016101d0565b600080fd5b346102b95760203660031901126102b9576102e76102da6110e5565b6102e261150e565b611452565b005b346102b95760003660031901126102b9576004546040516001600160a01b039091168152602090f35b346102b95760003660031901126102b9576020600854604051908152f35b346102b95760603660031901126102b9576103496110cf565b6024602060018060a01b036004541660405192838092631400493d60e31b82523360048301525afa9081156104a357600091610474575b501561042557600435600052600660205260406000209060018060a01b031660005260205260406000206002810190815442106102b957600391604435905501805490600160401b82101561040f57600182018082558210156103f9576000908152602090200180546001600160a01b03191633179055005b634e487b7160e01b600052603260045260246000fd5b634e487b7160e01b600052604160045260246000fd5b60405162461bcd60e51b815260206004820152602160248201527f53616c65206e6f742063726561746564207468726f75676820666163746f72796044820152601760f91b6064820152608490fd5b610496915060203d60201161049c575b61048e8183611120565b81019061143a565b82610380565b503d610484565b6040513d6000823e3d90fd5b346102b95760403660031901126102b95760206104d56104cd6110cf565b60043561132d565b604051908152f35b346102b9576104eb3661110a565b6104f482611097565b5082600052600660205260016a0c097ce7bc90715b34b9f160241b61057c604080600020600090858060a01b0333168252602052209361053387611242565b8454806105ae575b5061055286858060a01b03835416309033906115fa565b6004810161056187825461118e565b9055600361057087875461118e565b918287550154906111be565b049101556040519081527f90890809c654f11d6e72a28fa60149770a0d11ec6c92319d6ceb2bb0a4ea1a1560203392a3005b6105cf846105c46105d5936003860154906111be565b0486880154906111b1565b33611544565b8761053b565b346102b95760203660031901126102b9576004356009544210156106405760005461063b9190610619908290309033906001600160a01b03166115fa565b61063061062860025483611222565b60095461118e565b60095560035461118e565b600355005b60405162461bcd60e51b815260206004820152602260248201527f66756e643a20746f6f206c6174652c20746865206661726d20697320636c6f73604482015261195960f21b6064820152608490fd5b346102b95760203660031901126102b9576004356106ad81611097565b50600082815260066020908152604080832033845290915290206106d083611242565b6004815492600381016a0c097ce7bc90715b34b9f160241b61071e816106f78454896111be565b049261071361070c60018901958654906111b1565b809961118e565b9081885554906111be565b0490550161072d83825461118e565b90555460405191825260208201527f92f0bdf80f3916a4279540865e94ef327cf48639092106cca4bddc9bb1de4a8660403392a3005b346102b95760003660031901126102b9576020600954604051908152f35b346102b95760403660031901126102b95761079a6110cf565b600435600052600660205260406000209060018060a01b03166000526020526020604060002054604051908152f35b346102b95760803660031901126102b9576107e26110e5565b6064356001600160a01b03811690604435908290036102b9576000805160206116e8833981519152549260ff8460401c16159367ffffffffffffffff81168015908161096a575b6001149081610960575b159081610957575b506109465767ffffffffffffffff1981166001176000805160206116e88339815191525584610919575b5061086e611699565b610876611699565b61087f33611452565b60018060a01b03166001600160601b0360a01b6000541617600055602435600255806008556009556001600160601b0360a01b60045416176004556108c057005b68ff0000000000000000196000805160206116e883398151915254166000805160206116e8833981519152557fc7f505b2f371ae2175ee4913f4499e1f2633a7b5936321eed1cdaeb6115181d2602060405160018152a1005b68ffffffffffffffffff191668010000000000000001176000805160206116e88339815191525584610865565b63f92ee8a960e01b60005260046000fd5b9050158661083b565b303b159150610833565b869150610829565b346102b95760403660031901126102b9576060604061098f6110cf565b60043560005260066020528160002060009160018060a01b0316825260205220805490600260018201549101549060405192835260208301526040820152f35b346102b95760003660031901126102b9576020600254604051908152f35b346102b95760003660031901126102b9576000805160206116c8833981519152546040516001600160a01b039091168152602090f35b346102b95760003660031901126102b9576000546040516001600160a01b039091168152602090f35b346102b95760003660031901126102b957610a6561150e565b6000805160206116c883398151915280546001600160a01b031981169091556000906001600160a01b03167f8be0079c531659141344cd1fd0a4f28419497f9722a3daafe3b4186f6b6457e08280a3005b346102b95760603660031901126102b9576024356001610b11600435610ada6110fb565b610ae261150e565b610b16575b610b0984610b0460075486610afb86611097565b500154906111b1565b61118e565b600755611097565b500155005b610b1e61130a565b610ae7565b346102b95760003660031901126102b9576102e761130a565b346102b95760003660031901126102b9576020600154604051908152f35b346102b95760203660031901126102b957600435610b7781611097565b5081600052600660205260408060002060009060018060a01b03331682526020522091600283019182544210610c0c576000938492610c026004600194610bca868060a01b0382541686549033906115b7565b8454936040518581527fbb757047c2b5f3974fe26b7c10f732e7bce710b0952a71082702781e62ae059560203392a3019182546111b1565b9055828155015555005b60405162461bcd60e51b815260206004820152603b60248201527f456d657267656e637920776974686472617720626c6f636b656420647572696e60448201527f672073616c6520616e6420636f6f6c646f776e20706572696f642e00000000006064820152608490fd5b346102b95760203660031901126102b9576102e7600435611242565b346102b957610ca13661110a565b610caa82611097565b50600083815260066020908152604080832033845290915290206002810180549092904210610df75783825410610d9f57600491610ce786611242565b6a0c097ce7bc90715b34b9f160241b610d3782549282610d0d60038701958654906111be565b0493610d226105cf60018401968754906111b1565b610d2d8983546111b1565b80925554906111be565b0490558054610d5290859033906001600160a01b03166115b7565b01610d5e8382546111b1565b905581610d95575b506040519081527ff279e6a1f5e320cca91135676d9cb6e44ca8a08c0b88342bcdb1144f6511b56860203392a3005b6000905582610d66565b60405162461bcd60e51b815260206004820152602a60248201527f77697468647261773a2063616e2774207769746864726177206d6f7265207468604482015269185b8819195c1bdcda5d60b21b6064820152608490fd5b60405162461bcd60e51b815260206004820152603160248201527f4c6173742073616c6520796f75207265676973746572656420666f72206973206044820152703737ba103334b734b9b432b2103cb2ba1760791b6064820152608490fd5b346102b95760003660031901126102b95760206104d56111d1565b346102b95760203660031901126102b957610e8a6110e5565b610e9261150e565b6001600160a01b031680156102b9576001600160601b0360a01b6004541617600455600080f35b346102b95760603660031901126102b957600435610ed56110cf565b610edd6110fb565b610ee561150e565b610fcd575b600854804211600014610fc85750425b610f068360075461118e565b6007556040519160a0830183811067ffffffffffffffff82111761040f5760405260018060a01b0316825260208201928352604082019081526060820160008152608083019160008352600554600160401b81101561040f57806001610f6f9201600555611097565b959095610fb257935185546001600160a01b0319166001600160a01b03919091161785559251600185015591516002840155905160038301555160049190910155005b634e487b7160e01b600052600060045260246000fd5b610efa565b610fd561130a565b610eea565b346102b95760003660031901126102b9576020600754604051908152f35b346102b95760203660031901126102b9576004356005548110156102b95761102160a091611097565b50600180831b0381541690600181015490600281015460046003830154920154926040519485526020850152604084015260608301526080820152f35b346102b95760003660031901126102b9576020600354604051908152f35b346102b95760003660031901126102b9576020906005548152f35b6005548110156103f9576005600081815291027f036b6384b5eca791c62761152d0c79bb0604c104a5fb6f4eb0703f3154bb3db00191565b602435906001600160a01b03821682036102b957565b600435906001600160a01b03821682036102b957565b6044359081151582036102b957565b60409060031901126102b9576004359060243590565b90601f8019910116810190811067ffffffffffffffff82111761040f57604052565b67ffffffffffffffff811161040f5760051b60200190565b906020808351928381520192019060005b8181106111785750505090565b825184526020938401939092019160010161116b565b9190820180921161119b57565b634e487b7160e01b600052601160045260246000fd5b9190820391821161119b57565b8181029291811591840414171561119b57565b6008548042111561121c5761120661120f91600954804210600014611212575061120042915b600254926111b1565b906111be565b600154906111b1565b90565b61120090916111f7565b50600090565b811561122c570490565b634e487b7160e01b600052601260045260246000fd5b61124b90611097565b506009548042106000146113055750425b809160028101918254809111156112fd575b50600481015480156112f85760036112ad6112a46112996112908754896111b1565b600254906111be565b6001860154906111be565b60075490611222565b9201918254906a0c097ce7bc90715b34b9f160241b8102908082046a0c097ce7bc90715b34b9f160241b149015171561119b576112f3926112ed91611222565b9061118e565b905555565b505055565b92503861126e565b61125c565b60055460005b81811061131b575050565b80611327600192611242565b01611310565b9061133782611097565b5091600052600660205260406000209060018060a01b03166000526020526040600020600382015491600481015490600281015480421180611431575b6113a5575b50505060016a0c097ce7bc90715b34b9f160241b61139b61120f9484546111be565b04910154906111b1565b6113d29160016113c96112906112a49460095480421060001461142c5750426111b1565b910154906111be565b926a0c097ce7bc90715b34b9f160241b8402938085046a0c097ce7bc90715b34b9f160241b149015171561119b5761139b6114256a0c097ce7bc90715b34b9f160241b926112ed60019561120f98611222565b9450611379565b6111b1565b50821515611374565b908160209103126102b9575180151581036102b95790565b6001600160a01b031680156114b2576000805160206116c883398151915280546001600160a01b0319811683179091556001600160a01b03167f8be0079c531659141344cd1fd0a4f28419497f9722a3daafe3b4186f6b6457e0600080a3565b631e4fbdf760e01b600052600060045260246000fd5b906114d282611142565b6114df6040519182611120565b82815280926114f0601f1991611142565b0190602036910137565b80518210156103f95760209160051b010190565b6000805160206116c8833981519152546001600160a01b0316330361152f57565b63118cdaa760e01b6000523360045260246000fd5b6000805460405163a9059cbb60e01b81526001600160a01b0393841660048201526024810185905293926020928592604492849291165af19182156104a3576115959261159a575b5060015461118e565b600155565b6115b29060203d60201161049c5761048e8183611120565b61158c565b60405163a9059cbb60e01b60208201526001600160a01b039290921660248301526044808301939093529181526115f8916115f3606483611120565b61163e565b565b6040516323b872dd60e01b60208201526001600160a01b0392831660248201529290911660448301526064808301939093529181526115f8916115f3608483611120565b906000602091828151910182855af1156104a3576000513d61169057506001600160a01b0381163b155b61166f5750565b635274afe760e01b60009081526001600160a01b0391909116600452602490fd5b60011415611668565b60ff6000805160206116e88339815191525460401c16156116b657565b631afcd79f60e31b60005260046000fdfe9016d09d72d40fdae2fd8ceac6b6234c7706214fd39c1cd1e609a0528c199300f0c57e16840df040f15088dc2f81fe391c3923bec73e23a9662efc9c229c6a00a26469706673582212205a7f775c9da29a434ea8ab6891703c6c45457556b90e6466569d14c860e7cbf364736f6c634300081a0033","opcodes":"PUSH1 0x80 DUP1 PUSH1 0x40 MSTORE CALLVALUE PUSH1 0x15 JUMPI PUSH2 0x173D SWAP1 DUP2 PUSH2 0x1B DUP3 CODECOPY RETURN JUMPDEST PUSH1 0x0 DUP1 REVERT INVALID PUSH1 0x80 DUP1 PUSH1 0x40 MSTORE PUSH1 0x4 CALLDATASIZE LT ISZERO PUSH2 0x13 JUMPI PUSH1 0x0 DUP1 REVERT JUMPDEST PUSH1 0x0 CALLDATALOAD PUSH1 0xE0 SHR SWAP1 DUP2 PUSH4 0x81E3EDA EQ PUSH2 0x107C JUMPI POP DUP1 PUSH4 0xE15561A EQ PUSH2 0x105E JUMPI DUP1 PUSH4 0x1526FE27 EQ PUSH2 0xFF8 JUMPI DUP1 PUSH4 0x17CAF6F1 EQ PUSH2 0xFDA JUMPI DUP1 PUSH4 0x1EAAA045 EQ PUSH2 0xEB9 JUMPI DUP1 PUSH4 0x3DFCB861 EQ PUSH2 0xE71 JUMPI DUP1 PUSH4 0x3F90916A EQ PUSH2 0xE56 JUMPI DUP1 PUSH4 0x441A3E70 EQ PUSH2 0xC93 JUMPI DUP1 PUSH4 0x51EB05A6 EQ PUSH2 0xC77 JUMPI DUP1 PUSH4 0x5312EA8E EQ PUSH2 0xB5A JUMPI DUP1 PUSH4 0x5C76CA2D EQ PUSH2 0xB3C JUMPI DUP1 PUSH4 0x630B5BA1 EQ PUSH2 0xB23 JUMPI DUP1 PUSH4 0x64482F79 EQ PUSH2 0xAB6 JUMPI DUP1 PUSH4 0x715018A6 EQ PUSH2 0xA4C JUMPI DUP1 PUSH4 0x785E9E86 EQ PUSH2 0xA23 JUMPI DUP1 PUSH4 0x8DA5CB5B EQ PUSH2 0x9ED JUMPI DUP1 PUSH4 0x8F10369A EQ PUSH2 0x9CF JUMPI DUP1 PUSH4 0x93F1A40B EQ PUSH2 0x972 JUMPI DUP1 PUSH4 0x9E3D87CD EQ PUSH2 0x7C9 JUMPI DUP1 PUSH4 0xA2383106 EQ PUSH2 0x781 JUMPI DUP1 PUSH4 0xA85ADEAB EQ PUSH2 0x763 JUMPI DUP1 PUSH4 0xAA5F7E26 EQ PUSH2 0x690 JUMPI DUP1 PUSH4 0xCA1D209D EQ PUSH2 0x5DB JUMPI DUP1 PUSH4 0xE2BBB158 EQ PUSH2 0x4DD JUMPI DUP1 PUSH4 0xE4C75C27 EQ PUSH2 0x4AF JUMPI DUP1 PUSH4 0xE6F04ACC EQ PUSH2 0x330 JUMPI DUP1 PUSH4 0xE6FD48BC EQ PUSH2 0x312 JUMPI DUP1 PUSH4 0xED95F07F EQ PUSH2 0x2E9 JUMPI DUP1 PUSH4 0xF2FDE38B EQ PUSH2 0x2BE JUMPI PUSH4 0xFCFC1B14 EQ PUSH2 0x169 JUMPI PUSH1 0x0 DUP1 REVERT JUMPDEST CALLVALUE PUSH2 0x2B9 JUMPI PUSH1 0x40 CALLDATASIZE PUSH1 0x3 NOT ADD SLT PUSH2 0x2B9 JUMPI PUSH1 0x4 CALLDATALOAD PUSH8 0xFFFFFFFFFFFFFFFF DUP2 GT PUSH2 0x2B9 JUMPI CALLDATASIZE PUSH1 0x23 DUP3 ADD SLT ISZERO PUSH2 0x2B9 JUMPI DUP1 PUSH1 0x4 ADD CALLDATALOAD PUSH2 0x1A5 DUP2 PUSH2 0x1142 JUMP JUMPDEST SWAP2 PUSH2 0x1B3 PUSH1 0x40 MLOAD SWAP4 DUP5 PUSH2 0x1120 JUMP JUMPDEST DUP2 DUP4 MSTORE PUSH1 0x24 PUSH1 0x20 DUP5 ADD SWAP3 PUSH1 0x5 SHL DUP3 ADD ADD SWAP1 CALLDATASIZE DUP3 GT PUSH2 0x2B9 JUMPI PUSH1 0x24 ADD SWAP2 JUMPDEST DUP2 DUP4 LT PUSH2 0x299 JUMPI DUP4 PUSH1 0x24 CALLDATALOAD PUSH2 0x1E5 DUP3 MLOAD PUSH2 0x14C8 JUMP JUMPDEST SWAP1 PUSH2 0x1F0 DUP4 MLOAD PUSH2 0x14C8 JUMP JUMPDEST SWAP3 PUSH1 0x0 JUMPDEST DUP2 MLOAD DUP2 LT ISZERO PUSH2 0x26B JUMPI PUSH1 0x1 SWAP1 PUSH1 0x40 PUSH1 0x1 PUSH1 0x1 PUSH1 0xA0 SHL SUB PUSH2 0x214 DUP4 DUP7 PUSH2 0x14FA JUMP JUMPDEST MLOAD AND DUP6 PUSH1 0x0 MSTORE PUSH1 0x6 PUSH1 0x20 MSTORE DUP2 PUSH1 0x0 KECCAK256 PUSH1 0x0 SWAP2 DUP6 DUP1 PUSH1 0xA0 SHL SUB AND DUP3 MSTORE PUSH1 0x20 MSTORE KECCAK256 SLOAD PUSH2 0x23E DUP3 DUP8 PUSH2 0x14FA JUMP JUMPDEST MSTORE PUSH2 0x25A DUP3 DUP1 PUSH1 0xA0 SHL SUB PUSH2 0x252 DUP4 DUP7 PUSH2 0x14FA JUMP JUMPDEST MLOAD AND DUP6 PUSH2 0x132D JUMP JUMPDEST PUSH2 0x264 DUP3 DUP9 PUSH2 0x14FA JUMP JUMPDEST MSTORE ADD PUSH2 0x1F4 JUMP JUMPDEST PUSH2 0x287 DUP5 PUSH2 0x295 DUP8 PUSH1 0x40 MLOAD SWAP4 DUP5 SWAP4 PUSH1 0x40 DUP6 MSTORE PUSH1 0x40 DUP6 ADD SWAP1 PUSH2 0x115A JUMP JUMPDEST SWAP1 DUP4 DUP3 SUB PUSH1 0x20 DUP6 ADD MSTORE PUSH2 0x115A JUMP JUMPDEST SUB SWAP1 RETURN JUMPDEST DUP3 CALLDATALOAD PUSH1 0x1 PUSH1 0x1 PUSH1 0xA0 SHL SUB DUP2 AND DUP2 SUB PUSH2 0x2B9 JUMPI DUP2 MSTORE PUSH1 0x20 SWAP3 DUP4 ADD SWAP3 ADD PUSH2 0x1D0 JUMP JUMPDEST PUSH1 0x0 DUP1 REVERT JUMPDEST CALLVALUE PUSH2 0x2B9 JUMPI PUSH1 0x20 CALLDATASIZE PUSH1 0x3 NOT ADD SLT PUSH2 0x2B9 JUMPI PUSH2 0x2E7 PUSH2 0x2DA PUSH2 0x10E5 JUMP JUMPDEST PUSH2 0x2E2 PUSH2 0x150E JUMP JUMPDEST PUSH2 0x1452 JUMP JUMPDEST STOP JUMPDEST CALLVALUE PUSH2 0x2B9 JUMPI PUSH1 0x0 CALLDATASIZE PUSH1 0x3 NOT ADD SLT PUSH2 0x2B9 JUMPI PUSH1 0x4 SLOAD PUSH1 0x40 MLOAD PUSH1 0x1 PUSH1 0x1 PUSH1 0xA0 SHL SUB SWAP1 SWAP2 AND DUP2 MSTORE PUSH1 0x20 SWAP1 RETURN JUMPDEST CALLVALUE PUSH2 0x2B9 JUMPI PUSH1 0x0 CALLDATASIZE PUSH1 0x3 NOT ADD SLT PUSH2 0x2B9 JUMPI PUSH1 0x20 PUSH1 0x8 SLOAD PUSH1 0x40 MLOAD SWAP1 DUP2 MSTORE RETURN JUMPDEST CALLVALUE PUSH2 0x2B9 JUMPI PUSH1 0x60 CALLDATASIZE PUSH1 0x3 NOT ADD SLT PUSH2 0x2B9 JUMPI PUSH2 0x349 PUSH2 0x10CF JUMP JUMPDEST PUSH1 0x24 PUSH1 0x20 PUSH1 0x1 DUP1 PUSH1 0xA0 SHL SUB PUSH1 0x4 SLOAD AND PUSH1 0x40 MLOAD SWAP3 DUP4 DUP1 SWAP3 PUSH4 0x1400493D PUSH1 0xE3 SHL DUP3 MSTORE CALLER PUSH1 0x4 DUP4 ADD MSTORE GAS STATICCALL SWAP1 DUP2 ISZERO PUSH2 0x4A3 JUMPI PUSH1 0x0 SWAP2 PUSH2 0x474 JUMPI JUMPDEST POP ISZERO PUSH2 0x425 JUMPI PUSH1 0x4 CALLDATALOAD PUSH1 0x0 MSTORE PUSH1 0x6 PUSH1 0x20 MSTORE PUSH1 0x40 PUSH1 0x0 KECCAK256 SWAP1 PUSH1 0x1 DUP1 PUSH1 0xA0 SHL SUB AND PUSH1 0x0 MSTORE PUSH1 0x20 MSTORE PUSH1 0x40 PUSH1 0x0 KECCAK256 PUSH1 0x2 DUP2 ADD SWAP1 DUP2 SLOAD TIMESTAMP LT PUSH2 0x2B9 JUMPI PUSH1 0x3 SWAP2 PUSH1 0x44 CALLDATALOAD SWAP1 SSTORE ADD DUP1 SLOAD SWAP1 PUSH1 0x1 PUSH1 0x40 SHL DUP3 LT ISZERO PUSH2 0x40F JUMPI PUSH1 0x1 DUP3 ADD DUP1 DUP3 SSTORE DUP3 LT ISZERO PUSH2 0x3F9 JUMPI PUSH1 0x0 SWAP1 DUP2 MSTORE PUSH1 0x20 SWAP1 KECCAK256 ADD DUP1 SLOAD PUSH1 0x1 PUSH1 0x1 PUSH1 0xA0 SHL SUB NOT AND CALLER OR SWAP1 SSTORE STOP JUMPDEST PUSH4 0x4E487B71 PUSH1 0xE0 SHL PUSH1 0x0 MSTORE PUSH1 0x32 PUSH1 0x4 MSTORE PUSH1 0x24 PUSH1 0x0 REVERT JUMPDEST PUSH4 0x4E487B71 PUSH1 0xE0 SHL PUSH1 0x0 MSTORE PUSH1 0x41 PUSH1 0x4 MSTORE PUSH1 0x24 PUSH1 0x0 REVERT JUMPDEST PUSH1 0x40 MLOAD PUSH3 0x461BCD PUSH1 0xE5 SHL DUP2 MSTORE PUSH1 0x20 PUSH1 0x4 DUP3 ADD MSTORE PUSH1 0x21 PUSH1 0x24 DUP3 ADD MSTORE PUSH32 0x53616C65206E6F742063726561746564207468726F75676820666163746F7279 PUSH1 0x44 DUP3 ADD MSTORE PUSH1 0x17 PUSH1 0xF9 SHL PUSH1 0x64 DUP3 ADD MSTORE PUSH1 0x84 SWAP1 REVERT JUMPDEST PUSH2 0x496 SWAP2 POP PUSH1 0x20 RETURNDATASIZE PUSH1 0x20 GT PUSH2 0x49C JUMPI JUMPDEST PUSH2 0x48E DUP2 DUP4 PUSH2 0x1120 JUMP JUMPDEST DUP2 ADD SWAP1 PUSH2 0x143A JUMP JUMPDEST DUP3 PUSH2 0x380 JUMP JUMPDEST POP RETURNDATASIZE PUSH2 0x484 JUMP JUMPDEST PUSH1 0x40 MLOAD RETURNDATASIZE PUSH1 0x0 DUP3 RETURNDATACOPY RETURNDATASIZE SWAP1 REVERT JUMPDEST CALLVALUE PUSH2 0x2B9 JUMPI PUSH1 0x40 CALLDATASIZE PUSH1 0x3 NOT ADD SLT PUSH2 0x2B9 JUMPI PUSH1 0x20 PUSH2 0x4D5 PUSH2 0x4CD PUSH2 0x10CF JUMP JUMPDEST PUSH1 0x4 CALLDATALOAD PUSH2 0x132D JUMP JUMPDEST PUSH1 0x40 MLOAD SWAP1 DUP2 MSTORE RETURN JUMPDEST CALLVALUE PUSH2 0x2B9 JUMPI PUSH2 0x4EB CALLDATASIZE PUSH2 0x110A JUMP JUMPDEST PUSH2 0x4F4 DUP3 PUSH2 0x1097 JUMP JUMPDEST POP DUP3 PUSH1 0x0 MSTORE PUSH1 0x6 PUSH1 0x20 MSTORE PUSH1 0x1 PUSH11 0xC097CE7BC90715B34B9F1 PUSH1 0x24 SHL PUSH2 0x57C PUSH1 0x40 DUP1 PUSH1 0x0 KECCAK256 PUSH1 0x0 SWAP1 DUP6 DUP1 PUSH1 0xA0 SHL SUB CALLER AND DUP3 MSTORE PUSH1 0x20 MSTORE KECCAK256 SWAP4 PUSH2 0x533 DUP8 PUSH2 0x1242 JUMP JUMPDEST DUP5 SLOAD DUP1 PUSH2 0x5AE JUMPI JUMPDEST POP PUSH2 0x552 DUP7 DUP6 DUP1 PUSH1 0xA0 SHL SUB DUP4 SLOAD AND ADDRESS SWAP1 CALLER SWAP1 PUSH2 0x15FA JUMP JUMPDEST PUSH1 0x4 DUP2 ADD PUSH2 0x561 DUP8 DUP3 SLOAD PUSH2 0x118E JUMP JUMPDEST SWAP1 SSTORE PUSH1 0x3 PUSH2 0x570 DUP8 DUP8 SLOAD PUSH2 0x118E JUMP JUMPDEST SWAP2 DUP3 DUP8 SSTORE ADD SLOAD SWAP1 PUSH2 0x11BE JUMP JUMPDEST DIV SWAP2 ADD SSTORE PUSH1 0x40 MLOAD SWAP1 DUP2 MSTORE PUSH32 0x90890809C654F11D6E72A28FA60149770A0D11EC6C92319D6CEB2BB0A4EA1A15 PUSH1 0x20 CALLER SWAP3 LOG3 STOP JUMPDEST PUSH2 0x5CF DUP5 PUSH2 0x5C4 PUSH2 0x5D5 SWAP4 PUSH1 0x3 DUP7 ADD SLOAD SWAP1 PUSH2 0x11BE JUMP JUMPDEST DIV DUP7 DUP9 ADD SLOAD SWAP1 PUSH2 0x11B1 JUMP JUMPDEST CALLER PUSH2 0x1544 JUMP JUMPDEST DUP8 PUSH2 0x53B JUMP JUMPDEST CALLVALUE PUSH2 0x2B9 JUMPI PUSH1 0x20 CALLDATASIZE PUSH1 0x3 NOT ADD SLT PUSH2 0x2B9 JUMPI PUSH1 0x4 CALLDATALOAD PUSH1 0x9 SLOAD TIMESTAMP LT ISZERO PUSH2 0x640 JUMPI PUSH1 0x0 SLOAD PUSH2 0x63B SWAP2 SWAP1 PUSH2 0x619 SWAP1 DUP3 SWAP1 ADDRESS SWAP1 CALLER SWAP1 PUSH1 0x1 PUSH1 0x1 PUSH1 0xA0 SHL SUB AND PUSH2 0x15FA JUMP JUMPDEST PUSH2 0x630 PUSH2 0x628 PUSH1 0x2 SLOAD DUP4 PUSH2 0x1222 JUMP JUMPDEST PUSH1 0x9 SLOAD PUSH2 0x118E JUMP JUMPDEST PUSH1 0x9 SSTORE PUSH1 0x3 SLOAD PUSH2 0x118E JUMP JUMPDEST PUSH1 0x3 SSTORE STOP JUMPDEST PUSH1 0x40 MLOAD PUSH3 0x461BCD PUSH1 0xE5 SHL DUP2 MSTORE PUSH1 0x20 PUSH1 0x4 DUP3 ADD MSTORE PUSH1 0x22 PUSH1 0x24 DUP3 ADD MSTORE PUSH32 0x66756E643A20746F6F206C6174652C20746865206661726D20697320636C6F73 PUSH1 0x44 DUP3 ADD MSTORE PUSH2 0x1959 PUSH1 0xF2 SHL PUSH1 0x64 DUP3 ADD MSTORE PUSH1 0x84 SWAP1 REVERT JUMPDEST CALLVALUE PUSH2 0x2B9 JUMPI PUSH1 0x20 CALLDATASIZE PUSH1 0x3 NOT ADD SLT PUSH2 0x2B9 JUMPI PUSH1 0x4 CALLDATALOAD PUSH2 0x6AD DUP2 PUSH2 0x1097 JUMP JUMPDEST POP PUSH1 0x0 DUP3 DUP2 MSTORE PUSH1 0x6 PUSH1 0x20 SWAP1 DUP2 MSTORE PUSH1 0x40 DUP1 DUP4 KECCAK256 CALLER DUP5 MSTORE SWAP1 SWAP2 MSTORE SWAP1 KECCAK256 PUSH2 0x6D0 DUP4 PUSH2 0x1242 JUMP JUMPDEST PUSH1 0x4 DUP2 SLOAD SWAP3 PUSH1 0x3 DUP2 ADD PUSH11 0xC097CE7BC90715B34B9F1 PUSH1 0x24 SHL PUSH2 0x71E DUP2 PUSH2 0x6F7 DUP5 SLOAD DUP10 PUSH2 0x11BE JUMP JUMPDEST DIV SWAP3 PUSH2 0x713 PUSH2 0x70C PUSH1 0x1 DUP10 ADD SWAP6 DUP7 SLOAD SWAP1 PUSH2 0x11B1 JUMP JUMPDEST DUP1 SWAP10 PUSH2 0x118E JUMP JUMPDEST SWAP1 DUP2 DUP9 SSTORE SLOAD SWAP1 PUSH2 0x11BE JUMP JUMPDEST DIV SWAP1 SSTORE ADD PUSH2 0x72D DUP4 DUP3 SLOAD PUSH2 0x118E JUMP JUMPDEST SWAP1 SSTORE SLOAD PUSH1 0x40 MLOAD SWAP2 DUP3 MSTORE PUSH1 0x20 DUP3 ADD MSTORE PUSH32 0x92F0BDF80F3916A4279540865E94EF327CF48639092106CCA4BDDC9BB1DE4A86 PUSH1 0x40 CALLER SWAP3 LOG3 STOP JUMPDEST CALLVALUE PUSH2 0x2B9 JUMPI PUSH1 0x0 CALLDATASIZE PUSH1 0x3 NOT ADD SLT PUSH2 0x2B9 JUMPI PUSH1 0x20 PUSH1 0x9 SLOAD PUSH1 0x40 MLOAD SWAP1 DUP2 MSTORE RETURN JUMPDEST CALLVALUE PUSH2 0x2B9 JUMPI PUSH1 0x40 CALLDATASIZE PUSH1 0x3 NOT ADD SLT PUSH2 0x2B9 JUMPI PUSH2 0x79A PUSH2 0x10CF JUMP JUMPDEST PUSH1 0x4 CALLDATALOAD PUSH1 0x0 MSTORE PUSH1 0x6 PUSH1 0x20 MSTORE PUSH1 0x40 PUSH1 0x0 KECCAK256 SWAP1 PUSH1 0x1 DUP1 PUSH1 0xA0 SHL SUB AND PUSH1 0x0 MSTORE PUSH1 0x20 MSTORE PUSH1 0x20 PUSH1 0x40 PUSH1 0x0 KECCAK256 SLOAD PUSH1 0x40 MLOAD SWAP1 DUP2 MSTORE RETURN JUMPDEST CALLVALUE PUSH2 0x2B9 JUMPI PUSH1 0x80 CALLDATASIZE PUSH1 0x3 NOT ADD SLT PUSH2 0x2B9 JUMPI PUSH2 0x7E2 PUSH2 0x10E5 JUMP JUMPDEST PUSH1 0x64 CALLDATALOAD PUSH1 0x1 PUSH1 0x1 PUSH1 0xA0 SHL SUB DUP2 AND SWAP1 PUSH1 0x44 CALLDATALOAD SWAP1 DUP3 SWAP1 SUB PUSH2 0x2B9 JUMPI PUSH1 0x0 DUP1 MLOAD PUSH1 0x20 PUSH2 0x16E8 DUP4 CODECOPY DUP2 MLOAD SWAP2 MSTORE SLOAD SWAP3 PUSH1 0xFF DUP5 PUSH1 0x40 SHR AND ISZERO SWAP4 PUSH8 0xFFFFFFFFFFFFFFFF DUP2 AND DUP1 ISZERO SWAP1 DUP2 PUSH2 0x96A JUMPI JUMPDEST PUSH1 0x1 EQ SWAP1 DUP2 PUSH2 0x960 JUMPI JUMPDEST ISZERO SWAP1 DUP2 PUSH2 0x957 JUMPI JUMPDEST POP PUSH2 0x946 JUMPI PUSH8 0xFFFFFFFFFFFFFFFF NOT DUP2 AND PUSH1 0x1 OR PUSH1 0x0 DUP1 MLOAD PUSH1 0x20 PUSH2 0x16E8 DUP4 CODECOPY DUP2 MLOAD SWAP2 MSTORE SSTORE DUP5 PUSH2 0x919 JUMPI JUMPDEST POP PUSH2 0x86E PUSH2 0x1699 JUMP JUMPDEST PUSH2 0x876 PUSH2 0x1699 JUMP JUMPDEST PUSH2 0x87F CALLER PUSH2 0x1452 JUMP JUMPDEST PUSH1 0x1 DUP1 PUSH1 0xA0 SHL SUB AND PUSH1 0x1 PUSH1 0x1 PUSH1 0x60 SHL SUB PUSH1 0xA0 SHL PUSH1 0x0 SLOAD AND OR PUSH1 0x0 SSTORE PUSH1 0x24 CALLDATALOAD PUSH1 0x2 SSTORE DUP1 PUSH1 0x8 SSTORE PUSH1 0x9 SSTORE PUSH1 0x1 PUSH1 0x1 PUSH1 0x60 SHL SUB PUSH1 0xA0 SHL PUSH1 0x4 SLOAD AND OR PUSH1 0x4 SSTORE PUSH2 0x8C0 JUMPI STOP JUMPDEST PUSH9 0xFF0000000000000000 NOT PUSH1 0x0 DUP1 MLOAD PUSH1 0x20 PUSH2 0x16E8 DUP4 CODECOPY DUP2 MLOAD SWAP2 MSTORE SLOAD AND PUSH1 0x0 DUP1 MLOAD PUSH1 0x20 PUSH2 0x16E8 DUP4 CODECOPY DUP2 MLOAD SWAP2 MSTORE SSTORE PUSH32 0xC7F505B2F371AE2175EE4913F4499E1F2633A7B5936321EED1CDAEB6115181D2 PUSH1 0x20 PUSH1 0x40 MLOAD PUSH1 0x1 DUP2 MSTORE LOG1 STOP JUMPDEST PUSH9 0xFFFFFFFFFFFFFFFFFF NOT AND PUSH9 0x10000000000000001 OR PUSH1 0x0 DUP1 MLOAD PUSH1 0x20 PUSH2 0x16E8 DUP4 CODECOPY DUP2 MLOAD SWAP2 MSTORE SSTORE DUP5 PUSH2 0x865 JUMP JUMPDEST PUSH4 0xF92EE8A9 PUSH1 0xE0 SHL PUSH1 0x0 MSTORE PUSH1 0x4 PUSH1 0x0 REVERT JUMPDEST SWAP1 POP ISZERO DUP7 PUSH2 0x83B JUMP JUMPDEST ADDRESS EXTCODESIZE ISZERO SWAP2 POP PUSH2 0x833 JUMP JUMPDEST DUP7 SWAP2 POP PUSH2 0x829 JUMP JUMPDEST CALLVALUE PUSH2 0x2B9 JUMPI PUSH1 0x40 CALLDATASIZE PUSH1 0x3 NOT ADD SLT PUSH2 0x2B9 JUMPI PUSH1 0x60 PUSH1 0x40 PUSH2 0x98F PUSH2 0x10CF JUMP JUMPDEST PUSH1 0x4 CALLDATALOAD PUSH1 0x0 MSTORE PUSH1 0x6 PUSH1 0x20 MSTORE DUP2 PUSH1 0x0 KECCAK256 PUSH1 0x0 SWAP2 PUSH1 0x1 DUP1 PUSH1 0xA0 SHL SUB AND DUP3 MSTORE PUSH1 0x20 MSTORE KECCAK256 DUP1 SLOAD SWAP1 PUSH1 0x2 PUSH1 0x1 DUP3 ADD SLOAD SWAP2 ADD SLOAD SWAP1 PUSH1 0x40 MLOAD SWAP3 DUP4 MSTORE PUSH1 0x20 DUP4 ADD MSTORE PUSH1 0x40 DUP3 ADD MSTORE RETURN JUMPDEST CALLVALUE PUSH2 0x2B9 JUMPI PUSH1 0x0 CALLDATASIZE PUSH1 0x3 NOT ADD SLT PUSH2 0x2B9 JUMPI PUSH1 0x20 PUSH1 0x2 SLOAD PUSH1 0x40 MLOAD SWAP1 DUP2 MSTORE RETURN JUMPDEST CALLVALUE PUSH2 0x2B9 JUMPI PUSH1 0x0 CALLDATASIZE PUSH1 0x3 NOT ADD SLT PUSH2 0x2B9 JUMPI PUSH1 0x0 DUP1 MLOAD PUSH1 0x20 PUSH2 0x16C8 DUP4 CODECOPY DUP2 MLOAD SWAP2 MSTORE SLOAD PUSH1 0x40 MLOAD PUSH1 0x1 PUSH1 0x1 PUSH1 0xA0 SHL SUB SWAP1 SWAP2 AND DUP2 MSTORE PUSH1 0x20 SWAP1 RETURN JUMPDEST CALLVALUE PUSH2 0x2B9 JUMPI PUSH1 0x0 CALLDATASIZE PUSH1 0x3 NOT ADD SLT PUSH2 0x2B9 JUMPI PUSH1 0x0 SLOAD PUSH1 0x40 MLOAD PUSH1 0x1 PUSH1 0x1 PUSH1 0xA0 SHL SUB SWAP1 SWAP2 AND DUP2 MSTORE PUSH1 0x20 SWAP1 RETURN JUMPDEST CALLVALUE PUSH2 0x2B9 JUMPI PUSH1 0x0 CALLDATASIZE PUSH1 0x3 NOT ADD SLT PUSH2 0x2B9 JUMPI PUSH2 0xA65 PUSH2 0x150E JUMP JUMPDEST PUSH1 0x0 DUP1 MLOAD PUSH1 0x20 PUSH2 0x16C8 DUP4 CODECOPY DUP2 MLOAD SWAP2 MSTORE DUP1 SLOAD PUSH1 0x1 PUSH1 0x1 PUSH1 0xA0 SHL SUB NOT DUP2 AND SWAP1 SWAP2 SSTORE PUSH1 0x0 SWAP1 PUSH1 0x1 PUSH1 0x1 PUSH1 0xA0 SHL SUB AND PUSH32 0x8BE0079C531659141344CD1FD0A4F28419497F9722A3DAAFE3B4186F6B6457E0 DUP3 DUP1 LOG3 STOP JUMPDEST CALLVALUE PUSH2 0x2B9 JUMPI PUSH1 0x60 CALLDATASIZE PUSH1 0x3 NOT ADD SLT PUSH2 0x2B9 JUMPI PUSH1 0x24 CALLDATALOAD PUSH1 0x1 PUSH2 0xB11 PUSH1 0x4 CALLDATALOAD PUSH2 0xADA PUSH2 0x10FB JUMP JUMPDEST PUSH2 0xAE2 PUSH2 0x150E JUMP JUMPDEST PUSH2 0xB16 JUMPI JUMPDEST PUSH2 0xB09 DUP5 PUSH2 0xB04 PUSH1 0x7 SLOAD DUP7 PUSH2 0xAFB DUP7 PUSH2 0x1097 JUMP JUMPDEST POP ADD SLOAD SWAP1 PUSH2 0x11B1 JUMP JUMPDEST PUSH2 0x118E JUMP JUMPDEST PUSH1 0x7 SSTORE PUSH2 0x1097 JUMP JUMPDEST POP ADD SSTORE STOP JUMPDEST PUSH2 0xB1E PUSH2 0x130A JUMP JUMPDEST PUSH2 0xAE7 JUMP JUMPDEST CALLVALUE PUSH2 0x2B9 JUMPI PUSH1 0x0 CALLDATASIZE PUSH1 0x3 NOT ADD SLT PUSH2 0x2B9 JUMPI PUSH2 0x2E7 PUSH2 0x130A JUMP JUMPDEST CALLVALUE PUSH2 0x2B9 JUMPI PUSH1 0x0 CALLDATASIZE PUSH1 0x3 NOT ADD SLT PUSH2 0x2B9 JUMPI PUSH1 0x20 PUSH1 0x1 SLOAD PUSH1 0x40 MLOAD SWAP1 DUP2 MSTORE RETURN JUMPDEST CALLVALUE PUSH2 0x2B9 JUMPI PUSH1 0x20 CALLDATASIZE PUSH1 0x3 NOT ADD SLT PUSH2 0x2B9 JUMPI PUSH1 0x4 CALLDATALOAD PUSH2 0xB77 DUP2 PUSH2 0x1097 JUMP JUMPDEST POP DUP2 PUSH1 0x0 MSTORE PUSH1 0x6 PUSH1 0x20 MSTORE PUSH1 0x40 DUP1 PUSH1 0x0 KECCAK256 PUSH1 0x0 SWAP1 PUSH1 0x1 DUP1 PUSH1 0xA0 SHL SUB CALLER AND DUP3 MSTORE PUSH1 0x20 MSTORE KECCAK256 SWAP2 PUSH1 0x2 DUP4 ADD SWAP2 DUP3 SLOAD TIMESTAMP LT PUSH2 0xC0C JUMPI PUSH1 0x0 SWAP4 DUP5 SWAP3 PUSH2 0xC02 PUSH1 0x4 PUSH1 0x1 SWAP5 PUSH2 0xBCA DUP7 DUP1 PUSH1 0xA0 SHL SUB DUP3 SLOAD AND DUP7 SLOAD SWAP1 CALLER SWAP1 PUSH2 0x15B7 JUMP JUMPDEST DUP5 SLOAD SWAP4 PUSH1 0x40 MLOAD DUP6 DUP2 MSTORE PUSH32 0xBB757047C2B5F3974FE26B7C10F732E7BCE710B0952A71082702781E62AE0595 PUSH1 0x20 CALLER SWAP3 LOG3 ADD SWAP2 DUP3 SLOAD PUSH2 0x11B1 JUMP JUMPDEST SWAP1 SSTORE DUP3 DUP2 SSTORE ADD SSTORE SSTORE STOP JUMPDEST PUSH1 0x40 MLOAD PUSH3 0x461BCD PUSH1 0xE5 SHL DUP2 MSTORE PUSH1 0x20 PUSH1 0x4 DUP3 ADD MSTORE PUSH1 0x3B PUSH1 0x24 DUP3 ADD MSTORE PUSH32 0x456D657267656E637920776974686472617720626C6F636B656420647572696E PUSH1 0x44 DUP3 ADD MSTORE PUSH32 0x672073616C6520616E6420636F6F6C646F776E20706572696F642E0000000000 PUSH1 0x64 DUP3 ADD MSTORE PUSH1 0x84 SWAP1 REVERT JUMPDEST CALLVALUE PUSH2 0x2B9 JUMPI PUSH1 0x20 CALLDATASIZE PUSH1 0x3 NOT ADD SLT PUSH2 0x2B9 JUMPI PUSH2 0x2E7 PUSH1 0x4 CALLDATALOAD PUSH2 0x1242 JUMP JUMPDEST CALLVALUE PUSH2 0x2B9 JUMPI PUSH2 0xCA1 CALLDATASIZE PUSH2 0x110A JUMP JUMPDEST PUSH2 0xCAA DUP3 PUSH2 0x1097 JUMP JUMPDEST POP PUSH1 0x0 DUP4 DUP2 MSTORE PUSH1 0x6 PUSH1 0x20 SWAP1 DUP2 MSTORE PUSH1 0x40 DUP1 DUP4 KECCAK256 CALLER DUP5 MSTORE SWAP1 SWAP2 MSTORE SWAP1 KECCAK256 PUSH1 0x2 DUP2 ADD DUP1 SLOAD SWAP1 SWAP3 SWAP1 TIMESTAMP LT PUSH2 0xDF7 JUMPI DUP4 DUP3 SLOAD LT PUSH2 0xD9F JUMPI PUSH1 0x4 SWAP2 PUSH2 0xCE7 DUP7 PUSH2 0x1242 JUMP JUMPDEST PUSH11 0xC097CE7BC90715B34B9F1 PUSH1 0x24 SHL PUSH2 0xD37 DUP3 SLOAD SWAP3 DUP3 PUSH2 0xD0D PUSH1 0x3 DUP8 ADD SWAP6 DUP7 SLOAD SWAP1 PUSH2 0x11BE JUMP JUMPDEST DIV SWAP4 PUSH2 0xD22 PUSH2 0x5CF PUSH1 0x1 DUP5 ADD SWAP7 DUP8 SLOAD SWAP1 PUSH2 0x11B1 JUMP JUMPDEST PUSH2 0xD2D DUP10 DUP4 SLOAD PUSH2 0x11B1 JUMP JUMPDEST DUP1 SWAP3 SSTORE SLOAD SWAP1 PUSH2 0x11BE JUMP JUMPDEST DIV SWAP1 SSTORE DUP1 SLOAD PUSH2 0xD52 SWAP1 DUP6 SWAP1 CALLER SWAP1 PUSH1 0x1 PUSH1 0x1 PUSH1 0xA0 SHL SUB AND PUSH2 0x15B7 JUMP JUMPDEST ADD PUSH2 0xD5E DUP4 DUP3 SLOAD PUSH2 0x11B1 JUMP JUMPDEST SWAP1 SSTORE DUP2 PUSH2 0xD95 JUMPI JUMPDEST POP PUSH1 0x40 MLOAD SWAP1 DUP2 MSTORE PUSH32 0xF279E6A1F5E320CCA91135676D9CB6E44CA8A08C0B88342BCDB1144F6511B568 PUSH1 0x20 CALLER SWAP3 LOG3 STOP JUMPDEST PUSH1 0x0 SWAP1 SSTORE DUP3 PUSH2 0xD66 JUMP JUMPDEST PUSH1 0x40 MLOAD PUSH3 0x461BCD PUSH1 0xE5 SHL DUP2 MSTORE PUSH1 0x20 PUSH1 0x4 DUP3 ADD MSTORE PUSH1 0x2A PUSH1 0x24 DUP3 ADD MSTORE PUSH32 0x77697468647261773A2063616E2774207769746864726177206D6F7265207468 PUSH1 0x44 DUP3 ADD MSTORE PUSH10 0x185B8819195C1BDCDA5D PUSH1 0xB2 SHL PUSH1 0x64 DUP3 ADD MSTORE PUSH1 0x84 SWAP1 REVERT JUMPDEST PUSH1 0x40 MLOAD PUSH3 0x461BCD PUSH1 0xE5 SHL DUP2 MSTORE PUSH1 0x20 PUSH1 0x4 DUP3 ADD MSTORE PUSH1 0x31 PUSH1 0x24 DUP3 ADD MSTORE PUSH32 0x4C6173742073616C6520796F75207265676973746572656420666F7220697320 PUSH1 0x44 DUP3 ADD MSTORE PUSH17 0x3737BA103334B734B9B432B2103CB2BA17 PUSH1 0x79 SHL PUSH1 0x64 DUP3 ADD MSTORE PUSH1 0x84 SWAP1 REVERT JUMPDEST CALLVALUE PUSH2 0x2B9 JUMPI PUSH1 0x0 CALLDATASIZE PUSH1 0x3 NOT ADD SLT PUSH2 0x2B9 JUMPI PUSH1 0x20 PUSH2 0x4D5 PUSH2 0x11D1 JUMP JUMPDEST CALLVALUE PUSH2 0x2B9 JUMPI PUSH1 0x20 CALLDATASIZE PUSH1 0x3 NOT ADD SLT PUSH2 0x2B9 JUMPI PUSH2 0xE8A PUSH2 0x10E5 JUMP JUMPDEST PUSH2 0xE92 PUSH2 0x150E JUMP JUMPDEST PUSH1 0x1 PUSH1 0x1 PUSH1 0xA0 SHL SUB AND DUP1 ISZERO PUSH2 0x2B9 JUMPI PUSH1 0x1 PUSH1 0x1 PUSH1 0x60 SHL SUB PUSH1 0xA0 SHL PUSH1 0x4 SLOAD AND OR PUSH1 0x4 SSTORE PUSH1 0x0 DUP1 RETURN JUMPDEST CALLVALUE PUSH2 0x2B9 JUMPI PUSH1 0x60 CALLDATASIZE PUSH1 0x3 NOT ADD SLT PUSH2 0x2B9 JUMPI PUSH1 0x4 CALLDATALOAD PUSH2 0xED5 PUSH2 0x10CF JUMP JUMPDEST PUSH2 0xEDD PUSH2 0x10FB JUMP JUMPDEST PUSH2 0xEE5 PUSH2 0x150E JUMP JUMPDEST PUSH2 0xFCD JUMPI JUMPDEST PUSH1 0x8 SLOAD DUP1 TIMESTAMP GT PUSH1 0x0 EQ PUSH2 0xFC8 JUMPI POP TIMESTAMP JUMPDEST PUSH2 0xF06 DUP4 PUSH1 0x7 SLOAD PUSH2 0x118E JUMP JUMPDEST PUSH1 0x7 SSTORE PUSH1 0x40 MLOAD SWAP2 PUSH1 0xA0 DUP4 ADD DUP4 DUP2 LT PUSH8 0xFFFFFFFFFFFFFFFF DUP3 GT OR PUSH2 0x40F JUMPI PUSH1 0x40 MSTORE PUSH1 0x1 DUP1 PUSH1 0xA0 SHL SUB AND DUP3 MSTORE PUSH1 0x20 DUP3 ADD SWAP3 DUP4 MSTORE PUSH1 0x40 DUP3 ADD SWAP1 DUP2 MSTORE PUSH1 0x60 DUP3 ADD PUSH1 0x0 DUP2 MSTORE PUSH1 0x80 DUP4 ADD SWAP2 PUSH1 0x0 DUP4 MSTORE PUSH1 0x5 SLOAD PUSH1 0x1 PUSH1 0x40 SHL DUP2 LT ISZERO PUSH2 0x40F JUMPI DUP1 PUSH1 0x1 PUSH2 0xF6F SWAP3 ADD PUSH1 0x5 SSTORE PUSH2 0x1097 JUMP JUMPDEST SWAP6 SWAP1 SWAP6 PUSH2 0xFB2 JUMPI SWAP4 MLOAD DUP6 SLOAD PUSH1 0x1 PUSH1 0x1 PUSH1 0xA0 SHL SUB NOT AND PUSH1 0x1 PUSH1 0x1 PUSH1 0xA0 SHL SUB SWAP2 SWAP1 SWAP2 AND OR DUP6 SSTORE SWAP3 MLOAD PUSH1 0x1 DUP6 ADD SSTORE SWAP2 MLOAD PUSH1 0x2 DUP5 ADD SSTORE SWAP1 MLOAD PUSH1 0x3 DUP4 ADD SSTORE MLOAD PUSH1 0x4 SWAP2 SWAP1 SWAP2 ADD SSTORE STOP JUMPDEST PUSH4 0x4E487B71 PUSH1 0xE0 SHL PUSH1 0x0 MSTORE PUSH1 0x0 PUSH1 0x4 MSTORE PUSH1 0x24 PUSH1 0x0 REVERT JUMPDEST PUSH2 0xEFA JUMP JUMPDEST PUSH2 0xFD5 PUSH2 0x130A JUMP JUMPDEST PUSH2 0xEEA JUMP JUMPDEST CALLVALUE PUSH2 0x2B9 JUMPI PUSH1 0x0 CALLDATASIZE PUSH1 0x3 NOT ADD SLT PUSH2 0x2B9 JUMPI PUSH1 0x20 PUSH1 0x7 SLOAD PUSH1 0x40 MLOAD SWAP1 DUP2 MSTORE RETURN JUMPDEST CALLVALUE PUSH2 0x2B9 JUMPI PUSH1 0x20 CALLDATASIZE PUSH1 0x3 NOT ADD SLT PUSH2 0x2B9 JUMPI PUSH1 0x4 CALLDATALOAD PUSH1 0x5 SLOAD DUP2 LT ISZERO PUSH2 0x2B9 JUMPI PUSH2 0x1021 PUSH1 0xA0 SWAP2 PUSH2 0x1097 JUMP JUMPDEST POP PUSH1 0x1 DUP1 DUP4 SHL SUB DUP2 SLOAD AND SWAP1 PUSH1 0x1 DUP2 ADD SLOAD SWAP1 PUSH1 0x2 DUP2 ADD SLOAD PUSH1 0x4 PUSH1 0x3 DUP4 ADD SLOAD SWAP3 ADD SLOAD SWAP3 PUSH1 0x40 MLOAD SWAP5 DUP6 MSTORE PUSH1 0x20 DUP6 ADD MSTORE PUSH1 0x40 DUP5 ADD MSTORE PUSH1 0x60 DUP4 ADD MSTORE PUSH1 0x80 DUP3 ADD MSTORE RETURN JUMPDEST CALLVALUE PUSH2 0x2B9 JUMPI PUSH1 0x0 CALLDATASIZE PUSH1 0x3 NOT ADD SLT PUSH2 0x2B9 JUMPI PUSH1 0x20 PUSH1 0x3 SLOAD PUSH1 0x40 MLOAD SWAP1 DUP2 MSTORE RETURN JUMPDEST CALLVALUE PUSH2 0x2B9 JUMPI PUSH1 0x0 CALLDATASIZE PUSH1 0x3 NOT ADD SLT PUSH2 0x2B9 JUMPI PUSH1 0x20 SWAP1 PUSH1 0x5 SLOAD DUP2 MSTORE RETURN JUMPDEST PUSH1 0x5 SLOAD DUP2 LT ISZERO PUSH2 0x3F9 JUMPI PUSH1 0x5 PUSH1 0x0 DUP2 DUP2 MSTORE SWAP2 MUL PUSH32 0x36B6384B5ECA791C62761152D0C79BB0604C104A5FB6F4EB0703F3154BB3DB0 ADD SWAP2 JUMP JUMPDEST PUSH1 0x24 CALLDATALOAD SWAP1 PUSH1 0x1 PUSH1 0x1 PUSH1 0xA0 SHL SUB DUP3 AND DUP3 SUB PUSH2 0x2B9 JUMPI JUMP JUMPDEST PUSH1 0x4 CALLDATALOAD SWAP1 PUSH1 0x1 PUSH1 0x1 PUSH1 0xA0 SHL SUB DUP3 AND DUP3 SUB PUSH2 0x2B9 JUMPI JUMP JUMPDEST PUSH1 0x44 CALLDATALOAD SWAP1 DUP2 ISZERO ISZERO DUP3 SUB PUSH2 0x2B9 JUMPI JUMP JUMPDEST PUSH1 0x40 SWAP1 PUSH1 0x3 NOT ADD SLT PUSH2 0x2B9 JUMPI PUSH1 0x4 CALLDATALOAD SWAP1 PUSH1 0x24 CALLDATALOAD SWAP1 JUMP JUMPDEST SWAP1 PUSH1 0x1F DUP1 NOT SWAP2 ADD AND DUP2 ADD SWAP1 DUP2 LT PUSH8 0xFFFFFFFFFFFFFFFF DUP3 GT OR PUSH2 0x40F JUMPI PUSH1 0x40 MSTORE JUMP JUMPDEST PUSH8 0xFFFFFFFFFFFFFFFF DUP2 GT PUSH2 0x40F JUMPI PUSH1 0x5 SHL PUSH1 0x20 ADD SWAP1 JUMP JUMPDEST SWAP1 PUSH1 0x20 DUP1 DUP4 MLOAD SWAP3 DUP4 DUP2 MSTORE ADD SWAP3 ADD SWAP1 PUSH1 0x0 JUMPDEST DUP2 DUP2 LT PUSH2 0x1178 JUMPI POP POP POP SWAP1 JUMP JUMPDEST DUP3 MLOAD DUP5 MSTORE PUSH1 0x20 SWAP4 DUP5 ADD SWAP4 SWAP1 SWAP3 ADD SWAP2 PUSH1 0x1 ADD PUSH2 0x116B JUMP JUMPDEST SWAP2 SWAP1 DUP3 ADD DUP1 SWAP3 GT PUSH2 0x119B JUMPI JUMP JUMPDEST PUSH4 0x4E487B71 PUSH1 0xE0 SHL PUSH1 0x0 MSTORE PUSH1 0x11 PUSH1 0x4 MSTORE PUSH1 0x24 PUSH1 0x0 REVERT JUMPDEST SWAP2 SWAP1 DUP3 SUB SWAP2 DUP3 GT PUSH2 0x119B JUMPI JUMP JUMPDEST DUP2 DUP2 MUL SWAP3 SWAP2 DUP2 ISZERO SWAP2 DUP5 DIV EQ OR ISZERO PUSH2 0x119B JUMPI JUMP JUMPDEST PUSH1 0x8 SLOAD DUP1 TIMESTAMP GT ISZERO PUSH2 0x121C JUMPI PUSH2 0x1206 PUSH2 0x120F SWAP2 PUSH1 0x9 SLOAD DUP1 TIMESTAMP LT PUSH1 0x0 EQ PUSH2 0x1212 JUMPI POP PUSH2 0x1200 TIMESTAMP SWAP2 JUMPDEST PUSH1 0x2 SLOAD SWAP3 PUSH2 0x11B1 JUMP JUMPDEST SWAP1 PUSH2 0x11BE JUMP JUMPDEST PUSH1 0x1 SLOAD SWAP1 PUSH2 0x11B1 JUMP JUMPDEST SWAP1 JUMP JUMPDEST PUSH2 0x1200 SWAP1 SWAP2 PUSH2 0x11F7 JUMP JUMPDEST POP PUSH1 0x0 SWAP1 JUMP JUMPDEST DUP2 ISZERO PUSH2 0x122C JUMPI DIV SWAP1 JUMP JUMPDEST PUSH4 0x4E487B71 PUSH1 0xE0 SHL PUSH1 0x0 MSTORE PUSH1 0x12 PUSH1 0x4 MSTORE PUSH1 0x24 PUSH1 0x0 REVERT JUMPDEST PUSH2 0x124B SWAP1 PUSH2 0x1097 JUMP JUMPDEST POP PUSH1 0x9 SLOAD DUP1 TIMESTAMP LT PUSH1 0x0 EQ PUSH2 0x1305 JUMPI POP TIMESTAMP JUMPDEST DUP1 SWAP2 PUSH1 0x2 DUP2 ADD SWAP2 DUP3 SLOAD DUP1 SWAP2 GT ISZERO PUSH2 0x12FD JUMPI JUMPDEST POP PUSH1 0x4 DUP2 ADD SLOAD DUP1 ISZERO PUSH2 0x12F8 JUMPI PUSH1 0x3 PUSH2 0x12AD PUSH2 0x12A4 PUSH2 0x1299 PUSH2 0x1290 DUP8 SLOAD DUP10 PUSH2 0x11B1 JUMP JUMPDEST PUSH1 0x2 SLOAD SWAP1 PUSH2 0x11BE JUMP JUMPDEST PUSH1 0x1 DUP7 ADD SLOAD SWAP1 PUSH2 0x11BE JUMP JUMPDEST PUSH1 0x7 SLOAD SWAP1 PUSH2 0x1222 JUMP JUMPDEST SWAP3 ADD SWAP2 DUP3 SLOAD SWAP1 PUSH11 0xC097CE7BC90715B34B9F1 PUSH1 0x24 SHL DUP2 MUL SWAP1 DUP1 DUP3 DIV PUSH11 0xC097CE7BC90715B34B9F1 PUSH1 0x24 SHL EQ SWAP1 ISZERO OR ISZERO PUSH2 0x119B JUMPI PUSH2 0x12F3 SWAP3 PUSH2 0x12ED SWAP2 PUSH2 0x1222 JUMP JUMPDEST SWAP1 PUSH2 0x118E JUMP JUMPDEST SWAP1 SSTORE SSTORE JUMP JUMPDEST POP POP SSTORE JUMP JUMPDEST SWAP3 POP CODESIZE PUSH2 0x126E JUMP JUMPDEST PUSH2 0x125C JUMP JUMPDEST PUSH1 0x5 SLOAD PUSH1 0x0 JUMPDEST DUP2 DUP2 LT PUSH2 0x131B JUMPI POP POP JUMP JUMPDEST DUP1 PUSH2 0x1327 PUSH1 0x1 SWAP3 PUSH2 0x1242 JUMP JUMPDEST ADD PUSH2 0x1310 JUMP JUMPDEST SWAP1 PUSH2 0x1337 DUP3 PUSH2 0x1097 JUMP JUMPDEST POP SWAP2 PUSH1 0x0 MSTORE PUSH1 0x6 PUSH1 0x20 MSTORE PUSH1 0x40 PUSH1 0x0 KECCAK256 SWAP1 PUSH1 0x1 DUP1 PUSH1 0xA0 SHL SUB AND PUSH1 0x0 MSTORE PUSH1 0x20 MSTORE PUSH1 0x40 PUSH1 0x0 KECCAK256 PUSH1 0x3 DUP3 ADD SLOAD SWAP2 PUSH1 0x4 DUP2 ADD SLOAD SWAP1 PUSH1 0x2 DUP2 ADD SLOAD DUP1 TIMESTAMP GT DUP1 PUSH2 0x1431 JUMPI JUMPDEST PUSH2 0x13A5 JUMPI JUMPDEST POP POP POP PUSH1 0x1 PUSH11 0xC097CE7BC90715B34B9F1 PUSH1 0x24 SHL PUSH2 0x139B PUSH2 0x120F SWAP5 DUP5 SLOAD PUSH2 0x11BE JUMP JUMPDEST DIV SWAP2 ADD SLOAD SWAP1 PUSH2 0x11B1 JUMP JUMPDEST PUSH2 0x13D2 SWAP2 PUSH1 0x1 PUSH2 0x13C9 PUSH2 0x1290 PUSH2 0x12A4 SWAP5 PUSH1 0x9 SLOAD DUP1 TIMESTAMP LT PUSH1 0x0 EQ PUSH2 0x142C JUMPI POP TIMESTAMP PUSH2 0x11B1 JUMP JUMPDEST SWAP2 ADD SLOAD SWAP1 PUSH2 0x11BE JUMP JUMPDEST SWAP3 PUSH11 0xC097CE7BC90715B34B9F1 PUSH1 0x24 SHL DUP5 MUL SWAP4 DUP1 DUP6 DIV PUSH11 0xC097CE7BC90715B34B9F1 PUSH1 0x24 SHL EQ SWAP1 ISZERO OR ISZERO PUSH2 0x119B JUMPI PUSH2 0x139B PUSH2 0x1425 PUSH11 0xC097CE7BC90715B34B9F1 PUSH1 0x24 SHL SWAP3 PUSH2 0x12ED PUSH1 0x1 SWAP6 PUSH2 0x120F SWAP9 PUSH2 0x1222 JUMP JUMPDEST SWAP5 POP PUSH2 0x1379 JUMP JUMPDEST PUSH2 0x11B1 JUMP JUMPDEST POP DUP3 ISZERO ISZERO PUSH2 0x1374 JUMP JUMPDEST SWAP1 DUP2 PUSH1 0x20 SWAP2 SUB SLT PUSH2 0x2B9 JUMPI MLOAD DUP1 ISZERO ISZERO DUP2 SUB PUSH2 0x2B9 JUMPI SWAP1 JUMP JUMPDEST PUSH1 0x1 PUSH1 0x1 PUSH1 0xA0 SHL SUB AND DUP1 ISZERO PUSH2 0x14B2 JUMPI PUSH1 0x0 DUP1 MLOAD PUSH1 0x20 PUSH2 0x16C8 DUP4 CODECOPY DUP2 MLOAD SWAP2 MSTORE DUP1 SLOAD PUSH1 0x1 PUSH1 0x1 PUSH1 0xA0 SHL SUB NOT DUP2 AND DUP4 OR SWAP1 SWAP2 SSTORE PUSH1 0x1 PUSH1 0x1 PUSH1 0xA0 SHL SUB AND PUSH32 0x8BE0079C531659141344CD1FD0A4F28419497F9722A3DAAFE3B4186F6B6457E0 PUSH1 0x0 DUP1 LOG3 JUMP JUMPDEST PUSH4 0x1E4FBDF7 PUSH1 0xE0 SHL PUSH1 0x0 MSTORE PUSH1 0x0 PUSH1 0x4 MSTORE PUSH1 0x24 PUSH1 0x0 REVERT JUMPDEST SWAP1 PUSH2 0x14D2 DUP3 PUSH2 0x1142 JUMP JUMPDEST PUSH2 0x14DF PUSH1 0x40 MLOAD SWAP2 DUP3 PUSH2 0x1120 JUMP JUMPDEST DUP3 DUP2 MSTORE DUP1 SWAP3 PUSH2 0x14F0 PUSH1 0x1F NOT SWAP2 PUSH2 0x1142 JUMP JUMPDEST ADD SWAP1 PUSH1 0x20 CALLDATASIZE SWAP2 ADD CALLDATACOPY JUMP JUMPDEST DUP1 MLOAD DUP3 LT ISZERO PUSH2 0x3F9 JUMPI PUSH1 0x20 SWAP2 PUSH1 0x5 SHL ADD ADD SWAP1 JUMP JUMPDEST PUSH1 0x0 DUP1 MLOAD PUSH1 0x20 PUSH2 0x16C8 DUP4 CODECOPY DUP2 MLOAD SWAP2 MSTORE SLOAD PUSH1 0x1 PUSH1 0x1 PUSH1 0xA0 SHL SUB AND CALLER SUB PUSH2 0x152F JUMPI JUMP JUMPDEST PUSH4 0x118CDAA7 PUSH1 0xE0 SHL PUSH1 0x0 MSTORE CALLER PUSH1 0x4 MSTORE PUSH1 0x24 PUSH1 0x0 REVERT JUMPDEST PUSH1 0x0 DUP1 SLOAD PUSH1 0x40 MLOAD PUSH4 0xA9059CBB PUSH1 0xE0 SHL DUP2 MSTORE PUSH1 0x1 PUSH1 0x1 PUSH1 0xA0 SHL SUB SWAP4 DUP5 AND PUSH1 0x4 DUP3 ADD MSTORE PUSH1 0x24 DUP2 ADD DUP6 SWAP1 MSTORE SWAP4 SWAP3 PUSH1 0x20 SWAP3 DUP6 SWAP3 PUSH1 0x44 SWAP3 DUP5 SWAP3 SWAP2 AND GAS CALL SWAP2 DUP3 ISZERO PUSH2 0x4A3 JUMPI PUSH2 0x1595 SWAP3 PUSH2 0x159A JUMPI JUMPDEST POP PUSH1 0x1 SLOAD PUSH2 0x118E JUMP JUMPDEST PUSH1 0x1 SSTORE JUMP JUMPDEST PUSH2 0x15B2 SWAP1 PUSH1 0x20 RETURNDATASIZE PUSH1 0x20 GT PUSH2 0x49C JUMPI PUSH2 0x48E DUP2 DUP4 PUSH2 0x1120 JUMP JUMPDEST PUSH2 0x158C JUMP JUMPDEST PUSH1 0x40 MLOAD PUSH4 0xA9059CBB PUSH1 0xE0 SHL PUSH1 0x20 DUP3 ADD MSTORE PUSH1 0x1 PUSH1 0x1 PUSH1 0xA0 SHL SUB SWAP3 SWAP1 SWAP3 AND PUSH1 0x24 DUP4 ADD MSTORE PUSH1 0x44 DUP1 DUP4 ADD SWAP4 SWAP1 SWAP4 MSTORE SWAP2 DUP2 MSTORE PUSH2 0x15F8 SWAP2 PUSH2 0x15F3 PUSH1 0x64 DUP4 PUSH2 0x1120 JUMP JUMPDEST PUSH2 0x163E JUMP JUMPDEST JUMP JUMPDEST PUSH1 0x40 MLOAD PUSH4 0x23B872DD PUSH1 0xE0 SHL PUSH1 0x20 DUP3 ADD MSTORE PUSH1 0x1 PUSH1 0x1 PUSH1 0xA0 SHL SUB SWAP3 DUP4 AND PUSH1 0x24 DUP3 ADD MSTORE SWAP3 SWAP1 SWAP2 AND PUSH1 0x44 DUP4 ADD MSTORE PUSH1 0x64 DUP1 DUP4 ADD SWAP4 SWAP1 SWAP4 MSTORE SWAP2 DUP2 MSTORE PUSH2 0x15F8 SWAP2 PUSH2 0x15F3 PUSH1 0x84 DUP4 PUSH2 0x1120 JUMP JUMPDEST SWAP1 PUSH1 0x0 PUSH1 0x20 SWAP2 DUP3 DUP2 MLOAD SWAP2 ADD DUP3 DUP6 GAS CALL ISZERO PUSH2 0x4A3 JUMPI PUSH1 0x0 MLOAD RETURNDATASIZE PUSH2 0x1690 JUMPI POP PUSH1 0x1 PUSH1 0x1 PUSH1 0xA0 SHL SUB DUP2 AND EXTCODESIZE ISZERO JUMPDEST PUSH2 0x166F JUMPI POP JUMP JUMPDEST PUSH4 0x5274AFE7 PUSH1 0xE0 SHL PUSH1 0x0 SWAP1 DUP2 MSTORE PUSH1 0x1 PUSH1 0x1 PUSH1 0xA0 SHL SUB SWAP2 SWAP1 SWAP2 AND PUSH1 0x4 MSTORE PUSH1 0x24 SWAP1 REVERT JUMPDEST PUSH1 0x1 EQ ISZERO PUSH2 0x1668 JUMP JUMPDEST PUSH1 0xFF PUSH1 0x0 DUP1 MLOAD PUSH1 0x20 PUSH2 0x16E8 DUP4 CODECOPY DUP2 MLOAD SWAP2 MSTORE SLOAD PUSH1 0x40 SHR AND ISZERO PUSH2 0x16B6 JUMPI JUMP JUMPDEST PUSH4 0x1AFCD79F PUSH1 0xE3 SHL PUSH1 0x0 MSTORE PUSH1 0x4 PUSH1 0x0 REVERT INVALID SWAP1 AND 0xD0 SWAP14 PUSH19 0xD40FDAE2FD8CEAC6B6234C7706214FD39C1CD1 0xE6 MULMOD LOG0 MSTORE DUP13 NOT SWAP4 STOP CREATE 0xC5 PUSH31 0x16840DF040F15088DC2F81FE391C3923BEC73E23A9662EFC9C229C6A00A264 PUSH10 0x706673582212205A7F77 TLOAD SWAP14 LOG2 SWAP11 NUMBER 0x4E 0xA8 0xAB PUSH9 0x91703C6C45457556B9 0xE PUSH5 0x66569D14C8 PUSH1 0xE7 0xCB RETURN PUSH5 0x736F6C6343 STOP ADDMOD BYTE STOP CALLER "},"methodIdentifiers":{"add(uint256,address,bool)":"1eaaa045","compound(uint256)":"aa5f7e26","deposit(uint256,uint256)":"e2bbb158","deposited(uint256,address)":"a2383106","emergencyWithdraw(uint256)":"5312ea8e","endTimestamp()":"a85adeab","erc20()":"785e9e86","fund(uint256)":"ca1d209d","getPendingAndDepositedForUsers(address[],uint256)":"fcfc1b14","initialize(address,uint256,uint256,address)":"9e3d87cd","massUpdatePools()":"630b5ba1","owner()":"8da5cb5b","paidOut()":"5c76ca2d","pending(uint256,address)":"e4c75c27","poolInfo(uint256)":"1526fe27","poolLength()":"081e3eda","renounceOwnership()":"715018a6","rewardPerSecond()":"8f10369a","salesFactory()":"ed95f07f","set(uint256,uint256,bool)":"64482f79","setSalesFactory(address)":"3dfcb861","setTokensUnlockTime(uint256,address,uint256)":"e6f04acc","startTimestamp()":"e6fd48bc","totalAllocPoint()":"17caf6f1","totalPending()":"3f90916a","totalRewards()":"0e15561a","transferOwnership(address)":"f2fde38b","updatePool(uint256)":"51eb05a6","userInfo(uint256,address)":"93f1a40b","withdraw(uint256,uint256)":"441a3e70"}},"storageLayout":{"storage":[{"astId":8209,"contract":"contracts/sales/AllocationStaking.sol:AllocationStaking","label":"erc20","offset":0,"slot":"0","type":"t_contract(IERC20)1466"},{"astId":8211,"contract":"contracts/sales/AllocationStaking.sol:AllocationStaking","label":"paidOut","offset":0,"slot":"1","type":"t_uint256"},{"astId":8213,"contract":"contracts/sales/AllocationStaking.sol:AllocationStaking","label":"rewardPerSecond","offset":0,"slot":"2","type":"t_uint256"},{"astId":8215,"contract":"contracts/sales/AllocationStaking.sol:AllocationStaking","label":"totalRewards","offset":0,"slot":"3","type":"t_uint256"},{"astId":8218,"contract":"contracts/sales/AllocationStaking.sol:AllocationStaking","label":"salesFactory","offset":0,"slot":"4","type":"t_contract(ISalesFactory)8171"},{"astId":8222,"contract":"contracts/sales/AllocationStaking.sol:AllocationStaking","label":"poolInfo","offset":0,"slot":"5","type":"t_array(t_struct(PoolInfo)8206_storage)dyn_storage"},{"astId":8229,"contract":"contracts/sales/AllocationStaking.sol:AllocationStaking","label":"userInfo","offset":0,"slot":"6","type":"t_mapping(t_uint256,t_mapping(t_address,t_struct(UserInfo)8194_storage))"},{"astId":8231,"contract":"contracts/sales/AllocationStaking.sol:AllocationStaking","label":"totalAllocPoint","offset":0,"slot":"7","type":"t_uint256"},{"astId":8233,"contract":"contracts/sales/AllocationStaking.sol:AllocationStaking","label":"startTimestamp","offset":0,"slot":"8","type":"t_uint256"},{"astId":8235,"contract":"contracts/sales/AllocationStaking.sol:AllocationStaking","label":"endTimestamp","offset":0,"slot":"9","type":"t_uint256"}],"types":{"t_address":{"encoding":"inplace","label":"address","numberOfBytes":"20"},"t_array(t_address)dyn_storage":{"base":"t_address","encoding":"dynamic_array","label":"address[]","numberOfBytes":"32"},"t_array(t_struct(PoolInfo)8206_storage)dyn_storage":{"base":"t_struct(PoolInfo)8206_storage","encoding":"dynamic_array","label":"struct AllocationStaking.PoolInfo[]","numberOfBytes":"32"},"t_contract(IERC20)1466":{"encoding":"inplace","label":"contract IERC20","numberOfBytes":"20"},"t_contract(ISalesFactory)8171":{"encoding":"inplace","label":"contract ISalesFactory","numberOfBytes":"20"},"t_mapping(t_address,t_struct(UserInfo)8194_storage)":{"encoding":"mapping","key":"t_address","label":"mapping(address => struct AllocationStaking.UserInfo)","numberOfBytes":"32","value":"t_struct(UserInfo)8194_storage"},"t_mapping(t_uint256,t_mapping(t_address,t_struct(UserInfo)8194_storage))":{"encoding":"mapping","key":"t_uint256","label":"mapping(uint256 => mapping(address => struct AllocationStaking.UserInfo))","numberOfBytes":"32","value":"t_mapping(t_address,t_struct(UserInfo)8194_storage)"},"t_struct(PoolInfo)8206_storage":{"encoding":"inplace","label":"struct AllocationStaking.PoolInfo","members":[{"astId":8197,"contract":"contracts/sales/AllocationStaking.sol:AllocationStaking","label":"lpToken","offset":0,"slot":"0","type":"t_contract(IERC20)1466"},{"astId":8199,"contract":"contracts/sales/AllocationStaking.sol:AllocationStaking","label":"allocPoint","offset":0,"slot":"1","type":"t_uint256"},{"astId":8201,"contract":"contracts/sales/AllocationStaking.sol:AllocationStaking","label":"lastRewardTimestamp","offset":0,"slot":"2","type":"t_uint256"},{"astId":8203,"contract":"contracts/sales/AllocationStaking.sol:AllocationStaking","label":"accERC20PerShare","offset":0,"slot":"3","type":"t_uint256"},{"astId":8205,"contract":"contracts/sales/AllocationStaking.sol:AllocationStaking","label":"totalDeposits","offset":0,"slot":"4","type":"t_uint256"}],"numberOfBytes":"160"},"t_struct(UserInfo)8194_storage":{"encoding":"inplace","label":"struct AllocationStaking.UserInfo","members":[{"astId":8186,"contract":"contracts/sales/AllocationStaking.sol:AllocationStaking","label":"amount","offset":0,"slot":"0","type":"t_uint256"},{"astId":8188,"contract":"contracts/sales/AllocationStaking.sol:AllocationStaking","label":"rewardDebt","offset":0,"slot":"1","type":"t_uint256"},{"astId":8190,"contract":"contracts/sales/AllocationStaking.sol:AllocationStaking","label":"tokensUnlockTime","offset":0,"slot":"2","type":"t_uint256"},{"astId":8193,"contract":"contracts/sales/AllocationStaking.sol:AllocationStaking","label":"salesRegistered","offset":0,"slot":"3","type":"t_array(t_address)dyn_storage"}],"numberOfBytes":"128"},"t_uint256":{"encoding":"inplace","label":"uint256","numberOfBytes":"32"}}}}}}