{"contracts/sales/C2NSale.sol":{"C2NSale":{"abi":[{"inputs":[{"internalType":"address","name":"_admin","type":"address"},{"internalType":"address","name":"_allocationStaking","type":"address"}],"stateMutability":"nonpayable","type":"constructor"},{"inputs":[],"name":"ECDSAInvalidSignature","type":"error"},{"inputs":[{"internalType":"uint256","name":"length","type":"uint256"}],"name":"ECDSAInvalidSignatureLength","type":"error"},{"inputs":[{"internalType":"bytes32","name":"s","type":"bytes32"}],"name":"ECDSAInvalidSignatureS","type":"error"},{"inputs":[{"internalType":"address","name":"token","type":"address"}],"name":"SafeERC20FailedOperation","type":"error"},{"anonymous":false,"inputs":[{"indexed":false,"internalType":"uint256","name":"maxParticipation","type":"uint256"}],"name":"MaxParticipationSet","type":"event"},{"anonymous":false,"inputs":[{"indexed":false,"internalType":"uint256","name":"registrationTimeStarts","type":"uint256"},{"indexed":false,"internalType":"uint256","name":"registrationTimeEnds","type":"uint256"}],"name":"RegistrationTimeSet","type":"event"},{"anonymous":false,"inputs":[{"indexed":false,"internalType":"address","name":"saleOwner","type":"address"},{"indexed":false,"internalType":"uint256","name":"tokenPriceInETH","type":"uint256"},{"indexed":false,"internalType":"uint256","name":"amountOfTokensToSell","type":"uint256"},{"indexed":false,"internalType":"uint256","name":"saleEnd","type":"uint256"}],"name":"SaleCreated","type":"event"},{"anonymous":false,"inputs":[{"indexed":false,"internalType":"uint256","name":"startTime","type":"uint256"}],"name":"StartTimeSet","type":"event"},{"anonymous":false,"inputs":[{"indexed":false,"internalType":"uint256","name":"newPrice","type":"uint256"}],"name":"TokenPriceSet","type":"event"},{"anonymous":false,"inputs":[{"indexed":false,"internalType":"address","name":"user","type":"address"},{"indexed":false,"internalType":"uint256","name":"amount","type":"uint256"}],"name":"TokensSold","type":"event"},{"anonymous":false,"inputs":[{"indexed":false,"internalType":"address","name":"user","type":"address"},{"indexed":false,"internalType":"uint256","name":"amount","type":"uint256"}],"name":"TokensWithdrawn","type":"event"},{"anonymous":false,"inputs":[{"indexed":false,"internalType":"address","name":"user","type":"address"}],"name":"UserRegistered","type":"event"},{"inputs":[],"name":"admin","outputs":[{"internalType":"contract IAdmin","name":"","type":"address"}],"stateMutability":"view","type":"function"},{"inputs":[],"name":"allocationStakingContract","outputs":[{"internalType":"contract IAllocationStaking","name":"","type":"address"}],"stateMutability":"view","type":"function"},{"inputs":[{"internalType":"bytes","name":"signature","type":"bytes"},{"internalType":"address","name":"user","type":"address"},{"internalType":"uint256","name":"amount","type":"uint256"}],"name":"checkParticipationSignature","outputs":[{"internalType":"bool","name":"","type":"bool"}],"stateMutability":"view","type":"function"},{"inputs":[{"internalType":"bytes","name":"signature","type":"bytes"},{"internalType":"address","name":"user","type":"address"}],"name":"checkRegistrationSignature","outputs":[{"internalType":"bool","name":"","type":"bool"}],"stateMutability":"view","type":"function"},{"inputs":[],"name":"depositTokens","outputs":[],"stateMutability":"nonpayable","type":"function"},{"inputs":[{"internalType":"uint256","name":"timeToAdd","type":"uint256"}],"name":"extendRegistrationPeriod","outputs":[],"stateMutability":"nonpayable","type":"function"},{"inputs":[],"name":"factory","outputs":[{"internalType":"contract ISalesFactory","name":"","type":"address"}],"stateMutability":"view","type":"function"},{"inputs":[],"name":"getNumberOfRegisteredUsers","outputs":[{"internalType":"uint256","name":"","type":"uint256"}],"stateMutability":"view","type":"function"},{"inputs":[{"internalType":"address","name":"_user","type":"address"}],"name":"getParticipation","outputs":[{"internalType":"uint256","name":"","type":"uint256"},{"internalType":"uint256","name":"","type":"uint256"},{"internalType":"uint256","name":"","type":"uint256"},{"internalType":"bool[]","name":"","type":"bool[]"}],"stateMutability":"view","type":"function"},{"inputs":[{"internalType":"bytes","name":"signature","type":"bytes"},{"internalType":"address","name":"user","type":"address"},{"internalType":"uint256","name":"amount","type":"uint256"}],"name":"getParticipationSigner","outputs":[{"internalType":"address","name":"","type":"address"}],"stateMutability":"view","type":"function"},{"inputs":[],"name":"getVestingInfo","outputs":[{"internalType":"uint256[]","name":"","type":"uint256[]"},{"internalType":"uint256[]","name":"","type":"uint256[]"}],"stateMutability":"view","type":"function"},{"inputs":[{"internalType":"address","name":"","type":"address"}],"name":"isParticipated","outputs":[{"internalType":"bool","name":"","type":"bool"}],"stateMutability":"view","type":"function"},{"inputs":[{"internalType":"address","name":"","type":"address"}],"name":"isRegistered","outputs":[{"internalType":"bool","name":"","type":"bool"}],"stateMutability":"view","type":"function"},{"inputs":[],"name":"maxVestingTimeShift","outputs":[{"internalType":"uint256","name":"","type":"uint256"}],"stateMutability":"view","type":"function"},{"inputs":[],"name":"numberOfParticipants","outputs":[{"internalType":"uint256","name":"","type":"uint256"}],"stateMutability":"view","type":"function"},{"inputs":[{"internalType":"bytes","name":"signature","type":"bytes"},{"internalType":"uint256","name":"amount","type":"uint256"}],"name":"participate","outputs":[],"stateMutability":"payable","type":"function"},{"inputs":[],"name":"portionVestingPrecision","outputs":[{"internalType":"uint256","name":"","type":"uint256"}],"stateMutability":"view","type":"function"},{"inputs":[{"internalType":"uint256","name":"timeToShift","type":"uint256"}],"name":"postponeSale","outputs":[],"stateMutability":"nonpayable","type":"function"},{"inputs":[{"internalType":"bytes","name":"signature","type":"bytes"},{"internalType":"uint256","name":"pid","type":"uint256"}],"name":"registerForSale","outputs":[],"stateMutability":"nonpayable","type":"function"},{"inputs":[],"name":"registration","outputs":[{"internalType":"uint256","name":"registrationTimeStarts","type":"uint256"},{"internalType":"uint256","name":"registrationTimeEnds","type":"uint256"},{"internalType":"uint256","name":"numberOfRegistrants","type":"uint256"}],"stateMutability":"view","type":"function"},{"inputs":[],"name":"sale","outputs":[{"internalType":"contract IERC20","name":"token","type":"address"},{"internalType":"bool","name":"isCreated","type":"bool"},{"internalType":"bool","name":"earningsWithdrawn","type":"bool"},{"internalType":"bool","name":"leftoverWithdrawn","type":"bool"},{"internalType":"bool","name":"tokensDeposited","type":"bool"},{"internalType":"address","name":"saleOwner","type":"address"},{"internalType":"uint256","name":"tokenPriceInETH","type":"uint256"},{"internalType":"uint256","name":"amountOfTokensToSell","type":"uint256"},{"internalType":"uint256","name":"totalTokensSold","type":"uint256"},{"internalType":"uint256","name":"totalETHRaised","type":"uint256"},{"internalType":"uint256","name":"saleStart","type":"uint256"},{"internalType":"uint256","name":"saleEnd","type":"uint256"},{"internalType":"uint256","name":"tokensUnlockTime","type":"uint256"},{"internalType":"uint256","name":"maxParticipation","type":"uint256"}],"stateMutability":"view","type":"function"},{"inputs":[{"internalType":"uint256","name":"cap","type":"uint256"}],"name":"setCap","outputs":[],"stateMutability":"nonpayable","type":"function"},{"inputs":[{"internalType":"uint256","name":"_registrationTimeStarts","type":"uint256"},{"internalType":"uint256","name":"_registrationTimeEnds","type":"uint256"}],"name":"setRegistrationTime","outputs":[],"stateMutability":"nonpayable","type":"function"},{"inputs":[{"internalType":"address","name":"_token","type":"address"},{"internalType":"address","name":"_saleOwner","type":"address"},{"internalType":"uint256","name":"_tokenPriceInETH","type":"uint256"},{"internalType":"uint256","name":"_amountOfTokensToSell","type":"uint256"},{"internalType":"uint256","name":"_saleEnd","type":"uint256"},{"internalType":"uint256","name":"_tokensUnlockTime","type":"uint256"},{"internalType":"uint256","name":"_portionVestingPrecision","type":"uint256"},{"internalType":"uint256","name":"_maxParticipation","type":"uint256"}],"name":"setSaleParams","outputs":[],"stateMutability":"nonpayable","type":"function"},{"inputs":[{"internalType":"uint256","name":"starTime","type":"uint256"}],"name":"setSaleStart","outputs":[],"stateMutability":"nonpayable","type":"function"},{"inputs":[{"internalType":"address","name":"saleToken","type":"address"}],"name":"setSaleToken","outputs":[],"stateMutability":"nonpayable","type":"function"},{"inputs":[{"internalType":"uint256[]","name":"_unlockingTimes","type":"uint256[]"},{"internalType":"uint256[]","name":"_percents","type":"uint256[]"},{"internalType":"uint256","name":"_maxVestingTimeShift","type":"uint256"}],"name":"setVestingParams","outputs":[],"stateMutability":"nonpayable","type":"function"},{"inputs":[{"internalType":"uint256","name":"timeToShift","type":"uint256"}],"name":"shiftVestingUnlockingTimes","outputs":[],"stateMutability":"nonpayable","type":"function"},{"inputs":[{"internalType":"uint256","name":"price","type":"uint256"}],"name":"updateTokenPriceInETH","outputs":[],"stateMutability":"nonpayable","type":"function"},{"inputs":[{"internalType":"address","name":"","type":"address"}],"name":"userToParticipation","outputs":[{"internalType":"uint256","name":"amountBought","type":"uint256"},{"internalType":"uint256","name":"amountETHPaid","type":"uint256"},{"internalType":"uint256","name":"timeParticipated","type":"uint256"}],"stateMutability":"view","type":"function"},{"inputs":[{"internalType":"uint256","name":"","type":"uint256"}],"name":"vestingPercentPerPortion","outputs":[{"internalType":"uint256","name":"","type":"uint256"}],"stateMutability":"view","type":"function"},{"inputs":[{"internalType":"uint256","name":"","type":"uint256"}],"name":"vestingPortionsUnlockTime","outputs":[{"internalType":"uint256","name":"","type":"uint256"}],"stateMutability":"view","type":"function"},{"inputs":[],"name":"withdrawEarnings","outputs":[],"stateMutability":"nonpayable","type":"function"},{"inputs":[],"name":"withdrawEarningsAndLeftover","outputs":[],"stateMutability":"nonpayable","type":"function"},{"inputs":[],"name":"withdrawLeftover","outputs":[],"stateMutability":"nonpayable","type":"function"},{"inputs":[{"internalType":"uint256[]","name":"portionIds","type":"uint256[]"}],"name":"withdrawMultiplePortions","outputs":[],"stateMutability":"nonpayable","type":"function"},{"inputs":[{"internalType":"uint256","name":"portionId","type":"uint256"}],"name":"withdrawTokens","outputs":[],"stateMutability":"nonpayable","type":"function"},{"stateMutability":"payable","type":"receive"}],"evm":{"bytecode":{"linkReferences":{},"object":"60803460a757601f61322d38819003918201601f19168301916001600160401b0383118484101760ac57808492604094855283398101031260a757604b602060458360c2565b920160c2565b6001600160a01b0390911690811560a7576001600160a01b031690811560a757600280546001600160a01b0319908116929092179055600180548216331790556000805490911691909117905560405161315790816100d68239f35b600080fd5b634e487b7160e01b600052604160045260246000fd5b51906001600160a01b038216820360a75756fe608080604052600436101561001d575b50361561001b57600080fd5b005b600090813560e01c908163059ea17214612732575080631f11cb1e146126545780632a7c35de146126365780632f181f54146123e8578063315a095d14612261578063443bd1d01461222f57806347786d3714612153578063482a5dc7146121395780634897f4c31461210d5780635164d8711461203d5780635e7464f614611fe35780636ad1fe0214611f2d578063718af7e614611da3578063735deffa14611d545780637417040e14611d365780637843990a14611c705780637c4b414d14611b9e578063927f6aee14611b73578063931d81c9146115b8578063a29f481c14611522578063a525d237146114fc578063ab7589b5146114de578063abee6927146113b7578063b73c6ce914611389578063c3c5a5471461134a578063c45a015514611321578063c4fbe09114611076578063cad925ef14610989578063ccc171f51461096b578063cf5b8d4b1461092c578063d937d45614610694578063da4d4fbf1461065b578063dc25a30014610575578063e099cf64146103f8578063e9d8479e14610222578063f1ef7ff2146101e85763f851a4400361000f57346101e557806003193601126101e5576002546040516001600160a01b039091168152602090f35b80fd5b50346101e55760203660031901126101e557600435906014548210156101e557602061021383612884565b90549060031b1c604051908152f35b50346101e557610231366128e8565b90600d54421015806103ec575b156103a75761024e903390612be1565b1561036e57338252601260205260ff60408320541661032957338252601260205260408220805460ff191660011790558154600a546001600160a01b0391909116918391833b1561032557606483928360405196879485936339bc12b360e21b8552600485015233602485015260448401525af1801561031857610308575b6102d8600f54612d42565b600f557f54db7a5cb4735e1aac1f53db512d3390390bb6637bd30ad4bf9fc98667d9b9b96020604051338152a180f35b61031191612788565b38816102cd565b50604051903d90823e3d90fd5b8280fd5b60405162461bcd60e51b815260206004820152601c60248201527f557365722063616e206e6f742072656769737465722074776963652e000000006044820152606490fd5b60405162461bcd60e51b8152602060048201526011602482015270496e76616c6964207369676e617475726560781b6044820152606490fd5b60405162461bcd60e51b815260206004820152601c60248201527f526567697374726174696f6e206761746520697320636c6f7365642e000000006044820152606490fd5b50600e5442111561023e565b50346101e55760403660031901126101e5576004356024356024602060018060a01b036002541660405192838092630935e01b60e21b82523360048301525afa801561056a5761044f91859161053b575b506129db565b60ff60035460a01c161561032557600d54610325574282101580610532575b1561032557600a5481101561032557600954806104c2575b50816040917faf6e91c17885891414abbe7fa95074976b3e429980b0d8790034468e69650dd993600d5580600e5582519182526020820152a180f35b8110156104cf5738610486565b60405162461bcd60e51b815260206004820152603560248201527f726567697374726174696f6e54696d65456e6473203e3d2073616c652e73616c6044820152741954dd185c9d081a5cc81b9bdd08185b1b1bddd959605a1b6064820152608490fd5b5081811161046e565b61055d915060203d602011610563575b6105558183612788565b8101906129c3565b38610449565b503d61054b565b6040513d86823e3d90fd5b50346101e557806003193601126101e5576040516014548082528160208101601485526020852092855b8181106106425750506105b492500382612788565b60405160158054808352908452909260208401917f55f448fdea98c4d29eb340757ef0a66cd03dbb9538908a6a81d96026b71ec475915b81811061062c5761061a856106288861060681890382612788565b60405193849360408552604085019061298f565b90838203602085015261298f565b0390f35b82548452602090930192600192830192016105eb565b845483526001948501948694506020909301920161059f565b50346101e557806003193601126101e55761068160018060a01b03600454163314612c5b565b610689612e99565b610691612ded565b80f35b50346101e55760603660031901126101e55760043567ffffffffffffffff8111610928576106c6903690600401612932565b60243567ffffffffffffffff8111610325576106e6903690600401612932565b600254604051630935e01b60e21b815233600482015260443591602090829060249082906001600160a01b03165afa801561091d5761072b91869161053b57506129db565b6015541580610913575b1561090f57825182510361090f57601654156108a45762278d00811161085f5760175582805b835185101561080f5761076e8585612d51565b51601454600160401b8110156107fb57906107948260016107ad940160145560146128d0565b90919082549060031b91821b91600019901b1916179055565b6107b78584612d51565b51601554600160401b8110156107fb57916107e26107f39261079485600180970160155560156128d0565b6107ec8786612d51565b5190612a76565b94019361075b565b634e487b7160e01b84526041600452602484fd5b6016540361081a5780f35b60405162461bcd60e51b815260206004820152601b60248201527f50657263656e7420646973747269627574696f6e2069737375652e00000000006044820152606490fd5b60405162461bcd60e51b815260206004820152601960248201527f4d6178696d616c20736869667420697320333020646179732e000000000000006044820152606490fd5b60405162461bcd60e51b815260206004820152603960248201527f53616665677561726420666f72206d616b696e6720737572652073657453616c60448201527f65506172616d73206765742066697273742063616c6c65642e000000000000006064820152608490fd5b8380fd5b5060145415610735565b6040513d87823e3d90fd5b5080fd5b50346101e55760203660031901126101e55760209060ff906040906001600160a01b03610957612812565b168152601384522054166040519015158152f35b50346101e557806003193601126101e5576020601754604051908152f35b50346101e55760203660031901126101e5576001600160a01b036109ab612812565b16815260116020526040812090604051906109c582612756565b8254825260018301549060208301918252600360028501549460408501958652019260405190818260208754928381520180978652602086209286905b80601f830110610e8e57610b1d945491818110610e78575b818110610e5f575b818110610e46575b818110610e2d575b818110610e15575b818110610dfc575b818110610de3575b818110610dca575b818110610db1575b818110610d98575b818110610d7f575b818110610d66575b818110610d4d575b818110610d34575b818110610d1b575b818110610d02575b818110610ce9575b818110610cd0575b818110610cb7575b818110610c9e575b818110610c85575b818110610c6c575b818110610c53575b818110610c3a575b818110610c21575b818110610c08575b818110610bef575b818110610bd6575b818110610bbd575b818110610ba4575b818110610b8b575b10610b7b575b5097969593970387612788565b8560608201525190519351946040519586956080870193875260208701526040860152608060608601525180915260a0840192915b818110610b60575050500390f35b82511515845285945060209384019390920191600101610b52565b60f81c1515815260200138610b10565b92602060019160ff8560f01c1615158152019301610b0a565b92602060019160ff8560e81c1615158152019301610b02565b92602060019160ff8560e01c1615158152019301610afa565b92602060019160ff8560d81c1615158152019301610af2565b92602060019160ff8560d01c1615158152019301610aea565b92602060019160ff8560c81c1615158152019301610ae2565b92602060019160ff8560c01c1615158152019301610ada565b92602060019160ff8560b81c1615158152019301610ad2565b92602060019160ff8560b01c1615158152019301610aca565b92602060019160ff8560a81c1615158152019301610ac2565b92602060019160ff8560a01c1615158152019301610aba565b92602060019160ff8560981c1615158152019301610ab2565b92602060019160ff8560901c1615158152019301610aaa565b92602060019160ff8560881c1615158152019301610aa2565b92602060019160ff8560801c1615158152019301610a9a565b92602060019160ff8560781c1615158152019301610a92565b92602060019160ff8560701c1615158152019301610a8a565b92602060019160ff8560681c1615158152019301610a82565b92602060019160ff8560601c1615158152019301610a7a565b92602060019160ff8560581c1615158152019301610a72565b92602060019160ff8560501c1615158152019301610a6a565b92602060019160ff8560481c1615158152019301610a62565b92602060019160ff8560401c1615158152019301610a5a565b92602060019160ff8560381c1615158152019301610a52565b92602060019160ff8560301c1615158152019301610a4a565b92602060019160ff8560281c1615158152019301610a42565b92602060019160ff85831c1615158152019301610a3a565b92602060019160ff8560181c1615158152019301610a32565b92602060019160ff8560101c1615158152019301610a2a565b92602060019160ff8560081c1615158152019301610a22565b92602060019160ff851615158152019301610a1a565b916020919350610400600191865460ff81161515825260ff8160081c1615158583015260ff8160101c161515604083015260ff8160181c161515606083015260ff81861c161515608083015260ff8160281c16151560a083015260ff8160301c16151560c083015260ff8160381c16151560e083015260ff8160401c16151561010083015260ff8160481c16151561012083015260ff8160501c16151561014083015260ff8160581c16151561016083015260ff8160601c16151561018083015260ff8160681c1615156101a083015260ff8160701c1615156101c083015260ff8160781c1615156101e083015260ff8160801c16151561020083015260ff8160881c16151561022083015260ff8160901c16151561024083015260ff8160981c16151561026083015260ff8160a01c16151561028083015260ff8160a81c1615156102a083015260ff8160b01c1615156102c083015260ff8160b81c1615156102e083015260ff8160c01c16151561030083015260ff8160c81c16151561032083015260ff8160d01c16151561034083015260ff8160d81c16151561036083015260ff8160e01c16151561038083015260ff8160e81c1615156103a083015260ff8160f01c1615156103c083015260f81c15156103e0820152019401920185929391610a02565b50346101e5576101003660031901126101e557611091612812565b611099612828565b6044356064356084359060a4359260c43560e4356024602060018060a01b036002541660405192838092630935e01b60e21b82523360048301525afa8015611316576110eb918b9161053b57506129db565b6003549660ff8860a01c166112c1576001600160a01b0316958615611264578315158061125b575b80611252575b80611249575b80611240575b156111fb57606483106111bd577f2cd2dfcdeb2b58c4b80527e9df5e12da537fa4f6c958a4fb623a83ab74eeab6398608098600160a01b9160018060a01b0316906affffffffffffffffffffff60a81b161717600355866001600160601b0360a01b6004541617600455836005558460065585600a55600b55600c55601655604051938452602084015260408301526060820152a180f35b60405162461bcd60e51b8152602060048201526016602482015275053686f756c64206265206174206c65617374203130360541b6044820152606490fd5b60405162461bcd60e51b815260206004820152601860248201527f73657453616c65506172616d733a2042616420696e70757400000000000000006044820152606490fd5b50811515611125565b5042811161111f565b50428611611119565b50841515611113565b60405162461bcd60e51b815260206004820152602f60248201527f73657453616c65506172616d733a2053616c65206f776e65722061646472657360448201526e399031b0b7103737ba10313290181760891b6064820152608490fd5b60405162461bcd60e51b815260206004820152602760248201527f73657453616c65506172616d733a2053616c6520697320616c726561647920636044820152663932b0ba32b21760c91b6064820152608490fd5b6040513d8c823e3d90fd5b50346101e557806003193601126101e5576001546040516001600160a01b039091168152602090f35b50346101e55760203660031901126101e55760209060ff906040906001600160a01b03611375612812565b168152601284522054166040519015158152f35b50346101e557806003193601126101e5576113af60018060a01b03600454163314612c5b565b610691612e99565b50346101e55760203660031901126101e557600435906024602060018060a01b036002541660405192838092630935e01b60e21b82523360048301525afa9081156114d3579061140d91839161053b57506129db565b811515806114c8575b1561145d5780601755805b601454811015611459578061145361144a8561143e600195612884565b90549060031b1c612a76565b61079483612884565b01611421565b5080f35b60405162461bcd60e51b815260206004820152603b60248201527f5368696674206d757374206265206e6f6e7a65726f20616e6420736d616c6c6560448201527f72207468616e206d617856657374696e6754696d6553686966742e00000000006064820152608490fd5b506017548210611416565b6040513d84823e3d90fd5b50346101e557806003193601126101e5576020600f54604051908152f35b50346101e557806003193601126101e55761068960018060a01b03600454163314612c5b565b50346101e55760203660031901126101e55761153c612812565b600254604051630935e01b60e21b815233600482015290602090829060249082906001600160a01b03165afa80156115ad5761157e91849161053b57506129db565b600354906001600160a01b038216610325576001600160a01b03166001600160a01b0319919091161760035580f35b6040513d85823e3d90fd5b506115c2366128e8565b90600c548211611b1a57338352601260205260ff60408420541615611ad557816115ed913390612aec565b15611a815760095442101580611a76575b15611a3257338252601360205260ff6040832054166119ed573233036119a85760035460405163313ce56760e01b815290602090829060049082906001600160a01b03165afa9081156115ad57839161196a575b5061166b61166560ff6116749316612ca7565b34612ab9565b60055490612acc565b9081156119305781116118ec5761168d81600754612a76565b60075561169c34600854612a76565b6008556014546116ab8161291a565b906116b96040519283612788565b8082526116c8601f199161291a565b0136602083013760036040516116dd81612756565b838152602081013481526040820190428252606083019485523387526011602052604087209251835551600183015551600282015501905180519067ffffffffffffffff82116118d857600160401b82116118d857825482845580831061187f575b50602001918452602084208160051c91855b83811061183a5750601f1981169003806117cf575b857f57d61f3ccd4ccd25ec5d234d6049553a586fac134c85c98d0b0d9d5724f4e43e6117c987338452601360205260408420600160ff198254161790556117ae601054612d42565b60105560408051338152602081019290925290918291820190565b0390a180f35b928593865b81811061180b5750505001556117c97f57d61f3ccd4ccd25ec5d234d6049553a586fac134c85c98d0b0d9d5724f4e43e3880611766565b90919460206118306001928489511515919060ff809160031b9316831b921b19161790565b96019291016117d4565b86875b60208110611852575083820155600101611751565b959060206118766001928985511515919060ff809160031b9316831b921b19161790565b9201960161183d565b83865260208620601f80850160051c8201920160051c0190601f8416806118bb575b505b8181106118b0575061173f565b8681556001016118a3565b6000198201908154906000199060200360031b1c169055386118a1565b634e487b7160e01b85526041600452602485fd5b606460405162461bcd60e51b815260206004820152602060248201527f547279696e6720746f20627579206d6f7265207468616e20616c6c6f7765642e6044820152fd5b60405162461bcd60e51b815260206004820152601260248201527143616e277420627579203020746f6b656e7360701b6044820152606490fd5b90506020813d6020116119a0575b8161198560209383612788565b81010312610325575160ff811681036103255761166b611652565b3d9150611978565b60405162461bcd60e51b815260206004820152601b60248201527f4f6e6c792064697265637420636f6e74726163742063616c6c732e00000000006044820152606490fd5b60405162461bcd60e51b815260206004820152601f60248201527f557365722063616e207061727469636970617465206f6e6c79206f6e63652e006044820152606490fd5b606460405162461bcd60e51b815260206004820152602060248201527f73616c65206469646e2774207374617274206f72206974277320656e6465642e6044820152fd5b50600a5442106115fe565b60405162461bcd60e51b815260206004820152602660248201527f496e76616c6964207369676e61747572652e20566572696669636174696f6e2060448201526519985a5b195960d21b6064820152608490fd5b60405162461bcd60e51b815260206004820152601d60248201527f4e6f74207265676973746572656420666f7220746869732073616c652e0000006044820152606490fd5b60405162461bcd60e51b815260206004820152602b60248201527f4f766572666c6f77696e67206d6178696d616c2070617274696369706174696f60448201526a37103337b91039b0b6329760a91b6064820152608490fd5b50346101e55760203660031901126101e557600435906015548210156101e5576020610213836128b5565b50346101e557806003193601126101e557611bc460018060a01b03600454163314612c5b565b60035460ff8160b81c16611c2b5760ff60b81b198116600160b81b176003556006546040516323b872dd60e01b602082015233602482015230604482015260648082019290925290815261069191611c1d608483612788565b6001600160a01b0316612f79565b60405162461bcd60e51b815260206004820152601d60248201527f4465706f7369742063616e20626520646f6e65206f6e6c79206f6e63650000006044820152606490fd5b50346101e55760203660031901126101e5576004356024602060018060a01b036002541660405192838092630935e01b60e21b82523360048301525afa80156115ad57611cc391849161053b57506129db565b8015611cfb576020817f4b59d61d9ffdc3db926d0ce7e06ebabb6bd1bf9dcdae262667e48be36822721692600555604051908152a180f35b60405162461bcd60e51b8152602060048201526013602482015272283934b1b29031b0b7103737ba10313290181760691b6044820152606490fd5b50346101e557806003193601126101e5576020601054604051908152f35b50346101e55760403660031901126101e5576004359067ffffffffffffffff82116101e5576020611d99611d8b36600486016127c6565b611d93612828565b90612be1565b6040519015158152f35b50346101e55760203660031901126101e55760043567ffffffffffffffff8111610928573660238201121561092857806004013567ffffffffffffffff8111610325573660248260051b8401011161032557908233845260116020526040842091849060038401915b85811015611ed05760248160051b83010135601554811015611ecc5760ff611e348286612a99565b90549060031b1c161580611eb3575b611e51575b50600101611e0c565b60019194611ea6611e9d83611e83611e6c611eac968a612a99565b819291549060031b9060ff6001831b921b19161790565b9055611e908a54916128b5565b90549060031b1c90612ab9565b60165490612acc565b90612a76565b9390611e48565b50611ebd81612884565b90549060031b1c421015611e43565b8780fd5b868480611edb575080f35b6117c981611f157f6352c5382c4a4578e712449ca65e83cdb392d045dfcf1cad9615189db2da244b933360018060a01b0360035416612d65565b60408051338152602081019290925290918291820190565b50346101e557806003193601126101e5576101c060035460018060a01b036004541660055460065460075460085460095491600a5493600b5495600c549760ff6040519a60018060a01b0381168c52818160a01c16151560208d0152818160a81c16151560408d0152818160b01c16151560608d015260b81c16151560808b015260a08a015260c089015260e08801526101008701526101208601526101408501526101608401526101808301526101a0820152f35b50346101e55760203660031901126101e5576040906001600160a01b03612008612812565b168152601160205220805461062860026001840154930154604051938493846040919493926060820195825260208201520152565b50346101e55760203660031901126101e5576004356024602060018060a01b036002541660405192838092630935e01b60e21b82523360048301525afa80156115ad5761209091849161053b57506129db565b600e549061209e8183612a76565b60095411156120b6576120b091612a76565b600e5580f35b60405162461bcd60e51b815260206004820152602960248201527f526567697374726174696f6e20706572696f64206f766572666c6f777320736160448201526836329039ba30b93a1760b91b6064820152608490fd5b50346101e55760206121276121213661283e565b91612b66565b6040516001600160a01b039091168152f35b50346101e5576020611d9961214d3661283e565b91612aec565b50346101e55760203660031901126101e5576004356024602060018060a01b036002541660405192838092630935e01b60e21b82523360048301525afa80156115ad576121a691849161053b57506129db565b6121b36009544210612a32565b80156121eb576020817f37cfb0744bdb923d0300a0c37fac13cfec5fc2ee313cb9b217d284122980bada92600c55604051908152a180f35b606460405162461bcd60e51b815260206004820152602060248201527f43616e277420736574206d61782070617274696369706174696f6e20746f20306044820152fd5b50346101e557806003193601126101e557600d54600e54600f5460408051938452602084019290925290820152606090f35b50346101e55760203660031901126101e557600435600b5442106123a45760155481101561235f57338252601160205260408220600381019160ff6122a68285612a99565b90549060031b1c161580612346575b156122e357611e90611e9d926122d1611e6c846122da97612a99565b905554916128b5565b80611edb575080f35b60405162461bcd60e51b815260206004820152603560248201527f546f6b656e7320616c72656164792077697468647261776e206f7220706f727460448201527434b7b7103737ba103ab73637b1b5b2b2103cb2ba1760591b6064820152608490fd5b5061235081612884565b4291549060031b1c11156122b5565b60405162461bcd60e51b815260206004820152601860248201527f506f7274696f6e206964206f7574206f662072616e67652e00000000000000006044820152606490fd5b606460405162461bcd60e51b815260206004820152602060248201527f546f6b656e732063616e206e6f742062652077697468647261776e207965742e6044820152fd5b50346101e55760203660031901126101e5576004356024602060018060a01b036002541660405192838092630935e01b60e21b82523360048301525afa80156115ad5761243b91849161053b57506129db565b60ff60035460a01c16156125fa576009546125a657600e5481111561254457600a548110156124ee5742811061249d576020817faad53c4362ef2fe5a5390cc046e71fd8423a0a8dceebc156ac9bbcd15997eec292600955604051908152a180f35b60405162461bcd60e51b815260206004820152602360248201527f73746172742074696d652073686f756c6420626520696e20746865206675747560448201526239329760e91b6064820152608490fd5b60405162461bcd60e51b815260206004820152602860248201527f73746172742074696d652073686f756c64206c657373207468616e2073616c65604482015267456e642074696d6560c01b6064820152608490fd5b60405162461bcd60e51b815260206004820152603460248201527f73746172742074696d652073686f756c642067726561746572207468616e207260448201527332b3b4b9ba3930ba34b7b72a34b6b2a2b732399760611b6064820152608490fd5b60405162461bcd60e51b815260206004820152602660248201527f73657453616c6553746172743a207374617254696d652069732073657420616c6044820152653932b0b23c9760d11b6064820152608490fd5b60405162461bcd60e51b815260206004820152601460248201527339b0b6329034b9903737ba1031b932b0ba32b21760611b6044820152606490fd5b50346101e557806003193601126101e5576020601654604051908152f35b50346101e55760203660031901126101e5576024600435602060018060a01b036002541660405193848092630935e01b60e21b82523360048301525afa9182156115ad576126cc926126ac91859161053b57506129db565b6126c3816009546126be814210612a32565b612a76565b80600955612a76565b600a5411156126d85780f35b60405162461bcd60e51b815260206004820152602c60248201527f53746172742074696d652063616e206e6f74206265206772656174657220746860448201526b30b71032b732103a34b6b29760a11b6064820152608490fd5b90503461092857816003193601126109285790546001600160a01b03168152602090f35b6080810190811067ffffffffffffffff82111761277257604052565b634e487b7160e01b600052604160045260246000fd5b90601f8019910116810190811067ffffffffffffffff82111761277257604052565b67ffffffffffffffff811161277257601f01601f191660200190565b81601f8201121561280d578035906127dd826127aa565b926127eb6040519485612788565b8284526020838301011161280d57816000926020809301838601378301015290565b600080fd5b600435906001600160a01b038216820361280d57565b602435906001600160a01b038216820361280d57565b606060031982011261280d576004359067ffffffffffffffff821161280d57612869916004016127c6565b906024356001600160a01b038116810361280d579060443590565b60145481101561289f57601460005260206000200190600090565b634e487b7160e01b600052603260045260246000fd5b60155481101561289f57601560005260206000200190600090565b805482101561289f5760005260206000200190600090565b604060031982011261280d576004359067ffffffffffffffff821161280d57612913916004016127c6565b9060243590565b67ffffffffffffffff81116127725760051b60200190565b9080601f8301121561280d5781356129498161291a565b926129576040519485612788565b81845260208085019260051b82010192831161280d57602001905b82821061297f5750505090565b8135815260209182019101612972565b906020808351928381520192019060005b8181106129ad5750505090565b82518452602093840193909201916001016129a0565b9081602091031261280d5751801515810361280d5790565b156129e257565b60405162461bcd60e51b815260206004820152602260248201527f4f6e6c792061646d696e2063616e2063616c6c20746869732066756e6374696f604482015261371760f11b6064820152608490fd5b15612a3957565b60405162461bcd60e51b815260206004820152601560248201527439b0b6329030b63932b0b23c9039ba30b93a32b21760591b6044820152606490fd5b91908201809211612a8357565b634e487b7160e01b600052601160045260246000fd5b919091805483101561289f57600052601f60206000208360051c01921690565b81810292918115918404141715612a8357565b8115612ad6570490565b634e487b7160e01b600052601260045260246000fd5b6002546001600160a01b031692602092612b0592612b66565b604051630935e01b60e21b81526001600160a01b03909116600482015291829060249082905afa908115612b5a57600091612b3e575090565b612b57915060203d602011610563576105558183612788565b90565b6040513d6000823e3d90fd5b612bd891612b57936040519060208201926001600160601b03199060601b16835260348201523060601b605482015260488152612ba4606882612788565b5190207f19457468657265756d205369676e6564204d6573736167653a0a333200000000600052601c52603c600020612fd4565b90929192613010565b9060405160208101916001600160601b03199060601b1682523060601b603482015260288152612c12604882612788565b5190207f19457468657265756d205369676e6564204d6573736167653a0a333200000000600052601c526020612b05612bd8603c6000209360018060a01b036002541694612fd4565b15612c6257565b60405162461bcd60e51b815260206004820152601a60248201527f4f6e6c7953616c654f776e65723a3a20526573747269637465640000000000006044820152606490fd5b8015612d3c5760009060208110600116604e821060011617612d3457600a916001915b60018111612cf7575082600019048211612ce357500290565b634e487b7160e01b81526011600452602490fd5b9280600019048111612d205760018416612d17575b80029260011c612cca565b80920291612d0c565b634e487b7160e01b82526011600452602482fd5b9050600a0a90565b50600190565b6000198114612a835760010190565b805182101561289f5760209160051b010190565b60405163a9059cbb60e01b60208201526001600160a01b03929092166024830152604480830193909352918152612da691612da1606483612788565b612f79565b565b15612daf57565b60405162461bcd60e51b815260206004820152601660248201527539b0b6329034b9903737ba1032b73232b2103cb2ba1760511b6044820152606490fd5b612dfb600a54421015612da8565b60035460ff8160b01c16612e485760ff60b01b198116600160b01b1760035560065460075480820391808311612a835703612e34575050565b612da69133906001600160a01b0316612d65565b60405162461bcd60e51b815260206004820152602360248201527f6f776e65722063616e2774207769746864726177206c6566746f76657220747760448201526269636560e81b6064820152608490fd5b612ea7600a54421015612da8565b60035460ff8160a81c16612f285760ff60a81b1916600160a81b17600355600854604051602091600091829190612ede8582612788565b82815284810190601f1986013683375191335af1903d15612f225760003d91612f06836127aa565b92612f146040519485612788565b83523d92013e5b1561280d57565b50612f1b565b60405162461bcd60e51b815260206004820152602360248201527f6f776e65722063616e2774207769746864726177206561726e696e677320747760448201526269636560e81b6064820152608490fd5b906000602091828151910182855af115612b5a576000513d612fcb57506001600160a01b0381163b155b612faa5750565b635274afe760e01b60009081526001600160a01b0391909116600452602490fd5b60011415612fa3565b815191906041830361300557612ffe92506020820151906060604084015193015160001a90613098565b9192909190565b505060009160029190565b9190916004811015613082578061302657509050565b6000600182036130415763f645eedf60e01b60005260046000fd5b506002810361305f578263fce698f760e01b60005260045260246000fd5b909160036000921461306f575050565b6335e2f38360e21b825260045260249150fd5b634e487b7160e01b600052602160045260246000fd5b91907f7fffffffffffffffffffffffffffffff5d576e7357a4501ddfe92f46681b20a08411613115579160209360809260ff60009560405194855216868401526040830152606082015282805260015afa15612b5a576000516001600160a01b038116156131095790600090600090565b50600090600190600090565b5050506000916003919056fea2646970667358221220f945a3bb5f19698ecafbffc5dd290e615e7304babe1627a49b5093e8bc538ae864736f6c634300081a0033","opcodes":"PUSH1 0x80 CALLVALUE PUSH1 0xA7 JUMPI PUSH1 0x1F PUSH2 0x322D CODESIZE DUP2 SWAP1 SUB SWAP2 DUP3 ADD PUSH1 0x1F NOT AND DUP4 ADD SWAP2 PUSH1 0x1 PUSH1 0x1 PUSH1 0x40 SHL SUB DUP4 GT DUP5 DUP5 LT OR PUSH1 0xAC JUMPI DUP1 DUP5 SWAP3 PUSH1 0x40 SWAP5 DUP6 MSTORE DUP4 CODECOPY DUP2 ADD SUB SLT PUSH1 0xA7 JUMPI PUSH1 0x4B PUSH1 0x20 PUSH1 0x45 DUP4 PUSH1 0xC2 JUMP JUMPDEST SWAP3 ADD PUSH1 0xC2 JUMP JUMPDEST PUSH1 0x1 PUSH1 0x1 PUSH1 0xA0 SHL SUB SWAP1 SWAP2 AND SWAP1 DUP2 ISZERO PUSH1 0xA7 JUMPI PUSH1 0x1 PUSH1 0x1 PUSH1 0xA0 SHL SUB AND SWAP1 DUP2 ISZERO PUSH1 0xA7 JUMPI PUSH1 0x2 DUP1 SLOAD PUSH1 0x1 PUSH1 0x1 PUSH1 0xA0 SHL SUB NOT SWAP1 DUP2 AND SWAP3 SWAP1 SWAP3 OR SWAP1 SSTORE PUSH1 0x1 DUP1 SLOAD DUP3 AND CALLER OR SWAP1 SSTORE PUSH1 0x0 DUP1 SLOAD SWAP1 SWAP2 AND SWAP2 SWAP1 SWAP2 OR SWAP1 SSTORE PUSH1 0x40 MLOAD PUSH2 0x3157 SWAP1 DUP2 PUSH2 0xD6 DUP3 CODECOPY RETURN JUMPDEST PUSH1 0x0 DUP1 REVERT JUMPDEST PUSH4 0x4E487B71 PUSH1 0xE0 SHL PUSH1 0x0 MSTORE PUSH1 0x41 PUSH1 0x4 MSTORE PUSH1 0x24 PUSH1 0x0 REVERT JUMPDEST MLOAD SWAP1 PUSH1 0x1 PUSH1 0x1 PUSH1 0xA0 SHL SUB DUP3 AND DUP3 SUB PUSH1 0xA7 JUMPI JUMP INVALID PUSH1 0x80 DUP1 PUSH1 0x40 MSTORE PUSH1 0x4 CALLDATASIZE LT ISZERO PUSH2 0x1D JUMPI JUMPDEST POP CALLDATASIZE ISZERO PUSH2 0x1B JUMPI PUSH1 0x0 DUP1 REVERT JUMPDEST STOP JUMPDEST PUSH1 0x0 SWAP1 DUP2 CALLDATALOAD PUSH1 0xE0 SHR SWAP1 DUP2 PUSH4 0x59EA172 EQ PUSH2 0x2732 JUMPI POP DUP1 PUSH4 0x1F11CB1E EQ PUSH2 0x2654 JUMPI DUP1 PUSH4 0x2A7C35DE EQ PUSH2 0x2636 JUMPI DUP1 PUSH4 0x2F181F54 EQ PUSH2 0x23E8 JUMPI DUP1 PUSH4 0x315A095D EQ PUSH2 0x2261 JUMPI DUP1 PUSH4 0x443BD1D0 EQ PUSH2 0x222F JUMPI DUP1 PUSH4 0x47786D37 EQ PUSH2 0x2153 JUMPI DUP1 PUSH4 0x482A5DC7 EQ PUSH2 0x2139 JUMPI DUP1 PUSH4 0x4897F4C3 EQ PUSH2 0x210D JUMPI DUP1 PUSH4 0x5164D871 EQ PUSH2 0x203D JUMPI DUP1 PUSH4 0x5E7464F6 EQ PUSH2 0x1FE3 JUMPI DUP1 PUSH4 0x6AD1FE02 EQ PUSH2 0x1F2D JUMPI DUP1 PUSH4 0x718AF7E6 EQ PUSH2 0x1DA3 JUMPI DUP1 PUSH4 0x735DEFFA EQ PUSH2 0x1D54 JUMPI DUP1 PUSH4 0x7417040E EQ PUSH2 0x1D36 JUMPI DUP1 PUSH4 0x7843990A EQ PUSH2 0x1C70 JUMPI DUP1 PUSH4 0x7C4B414D EQ PUSH2 0x1B9E JUMPI DUP1 PUSH4 0x927F6AEE EQ PUSH2 0x1B73 JUMPI DUP1 PUSH4 0x931D81C9 EQ PUSH2 0x15B8 JUMPI DUP1 PUSH4 0xA29F481C EQ PUSH2 0x1522 JUMPI DUP1 PUSH4 0xA525D237 EQ PUSH2 0x14FC JUMPI DUP1 PUSH4 0xAB7589B5 EQ PUSH2 0x14DE JUMPI DUP1 PUSH4 0xABEE6927 EQ PUSH2 0x13B7 JUMPI DUP1 PUSH4 0xB73C6CE9 EQ PUSH2 0x1389 JUMPI DUP1 PUSH4 0xC3C5A547 EQ PUSH2 0x134A JUMPI DUP1 PUSH4 0xC45A0155 EQ PUSH2 0x1321 JUMPI DUP1 PUSH4 0xC4FBE091 EQ PUSH2 0x1076 JUMPI DUP1 PUSH4 0xCAD925EF EQ PUSH2 0x989 JUMPI DUP1 PUSH4 0xCCC171F5 EQ PUSH2 0x96B JUMPI DUP1 PUSH4 0xCF5B8D4B EQ PUSH2 0x92C JUMPI DUP1 PUSH4 0xD937D456 EQ PUSH2 0x694 JUMPI DUP1 PUSH4 0xDA4D4FBF EQ PUSH2 0x65B JUMPI DUP1 PUSH4 0xDC25A300 EQ PUSH2 0x575 JUMPI DUP1 PUSH4 0xE099CF64 EQ PUSH2 0x3F8 JUMPI DUP1 PUSH4 0xE9D8479E EQ PUSH2 0x222 JUMPI DUP1 PUSH4 0xF1EF7FF2 EQ PUSH2 0x1E8 JUMPI PUSH4 0xF851A440 SUB PUSH2 0xF JUMPI CALLVALUE PUSH2 0x1E5 JUMPI DUP1 PUSH1 0x3 NOT CALLDATASIZE ADD SLT PUSH2 0x1E5 JUMPI PUSH1 0x2 SLOAD PUSH1 0x40 MLOAD PUSH1 0x1 PUSH1 0x1 PUSH1 0xA0 SHL SUB SWAP1 SWAP2 AND DUP2 MSTORE PUSH1 0x20 SWAP1 RETURN JUMPDEST DUP1 REVERT JUMPDEST POP CALLVALUE PUSH2 0x1E5 JUMPI PUSH1 0x20 CALLDATASIZE PUSH1 0x3 NOT ADD SLT PUSH2 0x1E5 JUMPI PUSH1 0x4 CALLDATALOAD SWAP1 PUSH1 0x14 SLOAD DUP3 LT ISZERO PUSH2 0x1E5 JUMPI PUSH1 0x20 PUSH2 0x213 DUP4 PUSH2 0x2884 JUMP JUMPDEST SWAP1 SLOAD SWAP1 PUSH1 0x3 SHL SHR PUSH1 0x40 MLOAD SWAP1 DUP2 MSTORE RETURN JUMPDEST POP CALLVALUE PUSH2 0x1E5 JUMPI PUSH2 0x231 CALLDATASIZE PUSH2 0x28E8 JUMP JUMPDEST SWAP1 PUSH1 0xD SLOAD TIMESTAMP LT ISZERO DUP1 PUSH2 0x3EC JUMPI JUMPDEST ISZERO PUSH2 0x3A7 JUMPI PUSH2 0x24E SWAP1 CALLER SWAP1 PUSH2 0x2BE1 JUMP JUMPDEST ISZERO PUSH2 0x36E JUMPI CALLER DUP3 MSTORE PUSH1 0x12 PUSH1 0x20 MSTORE PUSH1 0xFF PUSH1 0x40 DUP4 KECCAK256 SLOAD AND PUSH2 0x329 JUMPI CALLER DUP3 MSTORE PUSH1 0x12 PUSH1 0x20 MSTORE PUSH1 0x40 DUP3 KECCAK256 DUP1 SLOAD PUSH1 0xFF NOT AND PUSH1 0x1 OR SWAP1 SSTORE DUP2 SLOAD PUSH1 0xA SLOAD PUSH1 0x1 PUSH1 0x1 PUSH1 0xA0 SHL SUB SWAP2 SWAP1 SWAP2 AND SWAP2 DUP4 SWAP2 DUP4 EXTCODESIZE ISZERO PUSH2 0x325 JUMPI PUSH1 0x64 DUP4 SWAP3 DUP4 PUSH1 0x40 MLOAD SWAP7 DUP8 SWAP5 DUP6 SWAP4 PUSH4 0x39BC12B3 PUSH1 0xE2 SHL DUP6 MSTORE PUSH1 0x4 DUP6 ADD MSTORE CALLER PUSH1 0x24 DUP6 ADD MSTORE PUSH1 0x44 DUP5 ADD MSTORE GAS CALL DUP1 ISZERO PUSH2 0x318 JUMPI PUSH2 0x308 JUMPI JUMPDEST PUSH2 0x2D8 PUSH1 0xF SLOAD PUSH2 0x2D42 JUMP JUMPDEST PUSH1 0xF SSTORE PUSH32 0x54DB7A5CB4735E1AAC1F53DB512D3390390BB6637BD30AD4BF9FC98667D9B9B9 PUSH1 0x20 PUSH1 0x40 MLOAD CALLER DUP2 MSTORE LOG1 DUP1 RETURN JUMPDEST PUSH2 0x311 SWAP2 PUSH2 0x2788 JUMP JUMPDEST CODESIZE DUP2 PUSH2 0x2CD JUMP JUMPDEST POP PUSH1 0x40 MLOAD SWAP1 RETURNDATASIZE SWAP1 DUP3 RETURNDATACOPY RETURNDATASIZE SWAP1 REVERT JUMPDEST DUP3 DUP1 REVERT JUMPDEST PUSH1 0x40 MLOAD PUSH3 0x461BCD PUSH1 0xE5 SHL DUP2 MSTORE PUSH1 0x20 PUSH1 0x4 DUP3 ADD MSTORE PUSH1 0x1C PUSH1 0x24 DUP3 ADD MSTORE PUSH32 0x557365722063616E206E6F742072656769737465722074776963652E00000000 PUSH1 0x44 DUP3 ADD MSTORE PUSH1 0x64 SWAP1 REVERT JUMPDEST PUSH1 0x40 MLOAD PUSH3 0x461BCD PUSH1 0xE5 SHL DUP2 MSTORE PUSH1 0x20 PUSH1 0x4 DUP3 ADD MSTORE PUSH1 0x11 PUSH1 0x24 DUP3 ADD MSTORE PUSH17 0x496E76616C6964207369676E6174757265 PUSH1 0x78 SHL PUSH1 0x44 DUP3 ADD MSTORE PUSH1 0x64 SWAP1 REVERT JUMPDEST PUSH1 0x40 MLOAD PUSH3 0x461BCD PUSH1 0xE5 SHL DUP2 MSTORE PUSH1 0x20 PUSH1 0x4 DUP3 ADD MSTORE PUSH1 0x1C PUSH1 0x24 DUP3 ADD MSTORE PUSH32 0x526567697374726174696F6E206761746520697320636C6F7365642E00000000 PUSH1 0x44 DUP3 ADD MSTORE PUSH1 0x64 SWAP1 REVERT JUMPDEST POP PUSH1 0xE SLOAD TIMESTAMP GT ISZERO PUSH2 0x23E JUMP JUMPDEST POP CALLVALUE PUSH2 0x1E5 JUMPI PUSH1 0x40 CALLDATASIZE PUSH1 0x3 NOT ADD SLT PUSH2 0x1E5 JUMPI PUSH1 0x4 CALLDATALOAD PUSH1 0x24 CALLDATALOAD PUSH1 0x24 PUSH1 0x20 PUSH1 0x1 DUP1 PUSH1 0xA0 SHL SUB PUSH1 0x2 SLOAD AND PUSH1 0x40 MLOAD SWAP3 DUP4 DUP1 SWAP3 PUSH4 0x935E01B PUSH1 0xE2 SHL DUP3 MSTORE CALLER PUSH1 0x4 DUP4 ADD MSTORE GAS STATICCALL DUP1 ISZERO PUSH2 0x56A JUMPI PUSH2 0x44F SWAP2 DUP6 SWAP2 PUSH2 0x53B JUMPI JUMPDEST POP PUSH2 0x29DB JUMP JUMPDEST PUSH1 0xFF PUSH1 0x3 SLOAD PUSH1 0xA0 SHR AND ISZERO PUSH2 0x325 JUMPI PUSH1 0xD SLOAD PUSH2 0x325 JUMPI TIMESTAMP DUP3 LT ISZERO DUP1 PUSH2 0x532 JUMPI JUMPDEST ISZERO PUSH2 0x325 JUMPI PUSH1 0xA SLOAD DUP2 LT ISZERO PUSH2 0x325 JUMPI PUSH1 0x9 SLOAD DUP1 PUSH2 0x4C2 JUMPI JUMPDEST POP DUP2 PUSH1 0x40 SWAP2 PUSH32 0xAF6E91C17885891414ABBE7FA95074976B3E429980B0D8790034468E69650DD9 SWAP4 PUSH1 0xD SSTORE DUP1 PUSH1 0xE SSTORE DUP3 MLOAD SWAP2 DUP3 MSTORE PUSH1 0x20 DUP3 ADD MSTORE LOG1 DUP1 RETURN JUMPDEST DUP2 LT ISZERO PUSH2 0x4CF JUMPI CODESIZE PUSH2 0x486 JUMP JUMPDEST PUSH1 0x40 MLOAD PUSH3 0x461BCD PUSH1 0xE5 SHL DUP2 MSTORE PUSH1 0x20 PUSH1 0x4 DUP3 ADD MSTORE PUSH1 0x35 PUSH1 0x24 DUP3 ADD MSTORE PUSH32 0x726567697374726174696F6E54696D65456E6473203E3D2073616C652E73616C PUSH1 0x44 DUP3 ADD MSTORE PUSH21 0x1954DD185C9D081A5CC81B9BDD08185B1B1BDDD959 PUSH1 0x5A SHL PUSH1 0x64 DUP3 ADD MSTORE PUSH1 0x84 SWAP1 REVERT JUMPDEST POP DUP2 DUP2 GT PUSH2 0x46E JUMP JUMPDEST PUSH2 0x55D SWAP2 POP PUSH1 0x20 RETURNDATASIZE PUSH1 0x20 GT PUSH2 0x563 JUMPI JUMPDEST PUSH2 0x555 DUP2 DUP4 PUSH2 0x2788 JUMP JUMPDEST DUP2 ADD SWAP1 PUSH2 0x29C3 JUMP JUMPDEST CODESIZE PUSH2 0x449 JUMP JUMPDEST POP RETURNDATASIZE PUSH2 0x54B JUMP JUMPDEST PUSH1 0x40 MLOAD RETURNDATASIZE DUP7 DUP3 RETURNDATACOPY RETURNDATASIZE SWAP1 REVERT JUMPDEST POP CALLVALUE PUSH2 0x1E5 JUMPI DUP1 PUSH1 0x3 NOT CALLDATASIZE ADD SLT PUSH2 0x1E5 JUMPI PUSH1 0x40 MLOAD PUSH1 0x14 SLOAD DUP1 DUP3 MSTORE DUP2 PUSH1 0x20 DUP2 ADD PUSH1 0x14 DUP6 MSTORE PUSH1 0x20 DUP6 KECCAK256 SWAP3 DUP6 JUMPDEST DUP2 DUP2 LT PUSH2 0x642 JUMPI POP POP PUSH2 0x5B4 SWAP3 POP SUB DUP3 PUSH2 0x2788 JUMP JUMPDEST PUSH1 0x40 MLOAD PUSH1 0x15 DUP1 SLOAD DUP1 DUP4 MSTORE SWAP1 DUP5 MSTORE SWAP1 SWAP3 PUSH1 0x20 DUP5 ADD SWAP2 PUSH32 0x55F448FDEA98C4D29EB340757EF0A66CD03DBB9538908A6A81D96026B71EC475 SWAP2 JUMPDEST DUP2 DUP2 LT PUSH2 0x62C JUMPI PUSH2 0x61A DUP6 PUSH2 0x628 DUP9 PUSH2 0x606 DUP2 DUP10 SUB DUP3 PUSH2 0x2788 JUMP JUMPDEST PUSH1 0x40 MLOAD SWAP4 DUP5 SWAP4 PUSH1 0x40 DUP6 MSTORE PUSH1 0x40 DUP6 ADD SWAP1 PUSH2 0x298F JUMP JUMPDEST SWAP1 DUP4 DUP3 SUB PUSH1 0x20 DUP6 ADD MSTORE PUSH2 0x298F JUMP JUMPDEST SUB SWAP1 RETURN JUMPDEST DUP3 SLOAD DUP5 MSTORE PUSH1 0x20 SWAP1 SWAP4 ADD SWAP3 PUSH1 0x1 SWAP3 DUP4 ADD SWAP3 ADD PUSH2 0x5EB JUMP JUMPDEST DUP5 SLOAD DUP4 MSTORE PUSH1 0x1 SWAP5 DUP6 ADD SWAP5 DUP7 SWAP5 POP PUSH1 0x20 SWAP1 SWAP4 ADD SWAP3 ADD PUSH2 0x59F JUMP JUMPDEST POP CALLVALUE PUSH2 0x1E5 JUMPI DUP1 PUSH1 0x3 NOT CALLDATASIZE ADD SLT PUSH2 0x1E5 JUMPI PUSH2 0x681 PUSH1 0x1 DUP1 PUSH1 0xA0 SHL SUB PUSH1 0x4 SLOAD AND CALLER EQ PUSH2 0x2C5B JUMP JUMPDEST PUSH2 0x689 PUSH2 0x2E99 JUMP JUMPDEST PUSH2 0x691 PUSH2 0x2DED JUMP JUMPDEST DUP1 RETURN JUMPDEST POP CALLVALUE PUSH2 0x1E5 JUMPI PUSH1 0x60 CALLDATASIZE PUSH1 0x3 NOT ADD SLT PUSH2 0x1E5 JUMPI PUSH1 0x4 CALLDATALOAD PUSH8 0xFFFFFFFFFFFFFFFF DUP2 GT PUSH2 0x928 JUMPI PUSH2 0x6C6 SWAP1 CALLDATASIZE SWAP1 PUSH1 0x4 ADD PUSH2 0x2932 JUMP JUMPDEST PUSH1 0x24 CALLDATALOAD PUSH8 0xFFFFFFFFFFFFFFFF DUP2 GT PUSH2 0x325 JUMPI PUSH2 0x6E6 SWAP1 CALLDATASIZE SWAP1 PUSH1 0x4 ADD PUSH2 0x2932 JUMP JUMPDEST PUSH1 0x2 SLOAD PUSH1 0x40 MLOAD PUSH4 0x935E01B PUSH1 0xE2 SHL DUP2 MSTORE CALLER PUSH1 0x4 DUP3 ADD MSTORE PUSH1 0x44 CALLDATALOAD SWAP2 PUSH1 0x20 SWAP1 DUP3 SWAP1 PUSH1 0x24 SWAP1 DUP3 SWAP1 PUSH1 0x1 PUSH1 0x1 PUSH1 0xA0 SHL SUB AND GAS STATICCALL DUP1 ISZERO PUSH2 0x91D JUMPI PUSH2 0x72B SWAP2 DUP7 SWAP2 PUSH2 0x53B JUMPI POP PUSH2 0x29DB JUMP JUMPDEST PUSH1 0x15 SLOAD ISZERO DUP1 PUSH2 0x913 JUMPI JUMPDEST ISZERO PUSH2 0x90F JUMPI DUP3 MLOAD DUP3 MLOAD SUB PUSH2 0x90F JUMPI PUSH1 0x16 SLOAD ISZERO PUSH2 0x8A4 JUMPI PUSH3 0x278D00 DUP2 GT PUSH2 0x85F JUMPI PUSH1 0x17 SSTORE DUP3 DUP1 JUMPDEST DUP4 MLOAD DUP6 LT ISZERO PUSH2 0x80F JUMPI PUSH2 0x76E DUP6 DUP6 PUSH2 0x2D51 JUMP JUMPDEST MLOAD PUSH1 0x14 SLOAD PUSH1 0x1 PUSH1 0x40 SHL DUP2 LT ISZERO PUSH2 0x7FB JUMPI SWAP1 PUSH2 0x794 DUP3 PUSH1 0x1 PUSH2 0x7AD SWAP5 ADD PUSH1 0x14 SSTORE PUSH1 0x14 PUSH2 0x28D0 JUMP JUMPDEST SWAP1 SWAP2 SWAP1 DUP3 SLOAD SWAP1 PUSH1 0x3 SHL SWAP2 DUP3 SHL SWAP2 PUSH1 0x0 NOT SWAP1 SHL NOT AND OR SWAP1 SSTORE JUMP JUMPDEST PUSH2 0x7B7 DUP6 DUP5 PUSH2 0x2D51 JUMP JUMPDEST MLOAD PUSH1 0x15 SLOAD PUSH1 0x1 PUSH1 0x40 SHL DUP2 LT ISZERO PUSH2 0x7FB JUMPI SWAP2 PUSH2 0x7E2 PUSH2 0x7F3 SWAP3 PUSH2 0x794 DUP6 PUSH1 0x1 DUP1 SWAP8 ADD PUSH1 0x15 SSTORE PUSH1 0x15 PUSH2 0x28D0 JUMP JUMPDEST PUSH2 0x7EC DUP8 DUP7 PUSH2 0x2D51 JUMP JUMPDEST MLOAD SWAP1 PUSH2 0x2A76 JUMP JUMPDEST SWAP5 ADD SWAP4 PUSH2 0x75B JUMP JUMPDEST PUSH4 0x4E487B71 PUSH1 0xE0 SHL DUP5 MSTORE PUSH1 0x41 PUSH1 0x4 MSTORE PUSH1 0x24 DUP5 REVERT JUMPDEST PUSH1 0x16 SLOAD SUB PUSH2 0x81A JUMPI DUP1 RETURN JUMPDEST PUSH1 0x40 MLOAD PUSH3 0x461BCD PUSH1 0xE5 SHL DUP2 MSTORE PUSH1 0x20 PUSH1 0x4 DUP3 ADD MSTORE PUSH1 0x1B PUSH1 0x24 DUP3 ADD MSTORE PUSH32 0x50657263656E7420646973747269627574696F6E2069737375652E0000000000 PUSH1 0x44 DUP3 ADD MSTORE PUSH1 0x64 SWAP1 REVERT JUMPDEST PUSH1 0x40 MLOAD PUSH3 0x461BCD PUSH1 0xE5 SHL DUP2 MSTORE PUSH1 0x20 PUSH1 0x4 DUP3 ADD MSTORE PUSH1 0x19 PUSH1 0x24 DUP3 ADD MSTORE PUSH32 0x4D6178696D616C20736869667420697320333020646179732E00000000000000 PUSH1 0x44 DUP3 ADD MSTORE PUSH1 0x64 SWAP1 REVERT JUMPDEST PUSH1 0x40 MLOAD PUSH3 0x461BCD PUSH1 0xE5 SHL DUP2 MSTORE PUSH1 0x20 PUSH1 0x4 DUP3 ADD MSTORE PUSH1 0x39 PUSH1 0x24 DUP3 ADD MSTORE PUSH32 0x53616665677561726420666F72206D616B696E6720737572652073657453616C PUSH1 0x44 DUP3 ADD MSTORE PUSH32 0x65506172616D73206765742066697273742063616C6C65642E00000000000000 PUSH1 0x64 DUP3 ADD MSTORE PUSH1 0x84 SWAP1 REVERT JUMPDEST DUP4 DUP1 REVERT JUMPDEST POP PUSH1 0x14 SLOAD ISZERO PUSH2 0x735 JUMP JUMPDEST PUSH1 0x40 MLOAD RETURNDATASIZE DUP8 DUP3 RETURNDATACOPY RETURNDATASIZE SWAP1 REVERT JUMPDEST POP DUP1 REVERT JUMPDEST POP CALLVALUE PUSH2 0x1E5 JUMPI PUSH1 0x20 CALLDATASIZE PUSH1 0x3 NOT ADD SLT PUSH2 0x1E5 JUMPI PUSH1 0x20 SWAP1 PUSH1 0xFF SWAP1 PUSH1 0x40 SWAP1 PUSH1 0x1 PUSH1 0x1 PUSH1 0xA0 SHL SUB PUSH2 0x957 PUSH2 0x2812 JUMP JUMPDEST AND DUP2 MSTORE PUSH1 0x13 DUP5 MSTORE KECCAK256 SLOAD AND PUSH1 0x40 MLOAD SWAP1 ISZERO ISZERO DUP2 MSTORE RETURN JUMPDEST POP CALLVALUE PUSH2 0x1E5 JUMPI DUP1 PUSH1 0x3 NOT CALLDATASIZE ADD SLT PUSH2 0x1E5 JUMPI PUSH1 0x20 PUSH1 0x17 SLOAD PUSH1 0x40 MLOAD SWAP1 DUP2 MSTORE RETURN JUMPDEST POP CALLVALUE PUSH2 0x1E5 JUMPI PUSH1 0x20 CALLDATASIZE PUSH1 0x3 NOT ADD SLT PUSH2 0x1E5 JUMPI PUSH1 0x1 PUSH1 0x1 PUSH1 0xA0 SHL SUB PUSH2 0x9AB PUSH2 0x2812 JUMP JUMPDEST AND DUP2 MSTORE PUSH1 0x11 PUSH1 0x20 MSTORE PUSH1 0x40 DUP2 KECCAK256 SWAP1 PUSH1 0x40 MLOAD SWAP1 PUSH2 0x9C5 DUP3 PUSH2 0x2756 JUMP JUMPDEST DUP3 SLOAD DUP3 MSTORE PUSH1 0x1 DUP4 ADD SLOAD SWAP1 PUSH1 0x20 DUP4 ADD SWAP2 DUP3 MSTORE PUSH1 0x3 PUSH1 0x2 DUP6 ADD SLOAD SWAP5 PUSH1 0x40 DUP6 ADD SWAP6 DUP7 MSTORE ADD SWAP3 PUSH1 0x40 MLOAD SWAP1 DUP2 DUP3 PUSH1 0x20 DUP8 SLOAD SWAP3 DUP4 DUP2 MSTORE ADD DUP1 SWAP8 DUP7 MSTORE PUSH1 0x20 DUP7 KECCAK256 SWAP3 DUP7 SWAP1 JUMPDEST DUP1 PUSH1 0x1F DUP4 ADD LT PUSH2 0xE8E JUMPI PUSH2 0xB1D SWAP5 SLOAD SWAP2 DUP2 DUP2 LT PUSH2 0xE78 JUMPI JUMPDEST DUP2 DUP2 LT PUSH2 0xE5F JUMPI JUMPDEST DUP2 DUP2 LT PUSH2 0xE46 JUMPI JUMPDEST DUP2 DUP2 LT PUSH2 0xE2D JUMPI JUMPDEST DUP2 DUP2 LT PUSH2 0xE15 JUMPI JUMPDEST DUP2 DUP2 LT PUSH2 0xDFC JUMPI JUMPDEST DUP2 DUP2 LT PUSH2 0xDE3 JUMPI JUMPDEST DUP2 DUP2 LT PUSH2 0xDCA JUMPI JUMPDEST DUP2 DUP2 LT PUSH2 0xDB1 JUMPI JUMPDEST DUP2 DUP2 LT PUSH2 0xD98 JUMPI JUMPDEST DUP2 DUP2 LT PUSH2 0xD7F JUMPI JUMPDEST DUP2 DUP2 LT PUSH2 0xD66 JUMPI JUMPDEST DUP2 DUP2 LT PUSH2 0xD4D JUMPI JUMPDEST DUP2 DUP2 LT PUSH2 0xD34 JUMPI JUMPDEST DUP2 DUP2 LT PUSH2 0xD1B JUMPI JUMPDEST DUP2 DUP2 LT PUSH2 0xD02 JUMPI JUMPDEST DUP2 DUP2 LT PUSH2 0xCE9 JUMPI JUMPDEST DUP2 DUP2 LT PUSH2 0xCD0 JUMPI JUMPDEST DUP2 DUP2 LT PUSH2 0xCB7 JUMPI JUMPDEST DUP2 DUP2 LT PUSH2 0xC9E JUMPI JUMPDEST DUP2 DUP2 LT PUSH2 0xC85 JUMPI JUMPDEST DUP2 DUP2 LT PUSH2 0xC6C JUMPI JUMPDEST DUP2 DUP2 LT PUSH2 0xC53 JUMPI JUMPDEST DUP2 DUP2 LT PUSH2 0xC3A JUMPI JUMPDEST DUP2 DUP2 LT PUSH2 0xC21 JUMPI JUMPDEST DUP2 DUP2 LT PUSH2 0xC08 JUMPI JUMPDEST DUP2 DUP2 LT PUSH2 0xBEF JUMPI JUMPDEST DUP2 DUP2 LT PUSH2 0xBD6 JUMPI JUMPDEST DUP2 DUP2 LT PUSH2 0xBBD JUMPI JUMPDEST DUP2 DUP2 LT PUSH2 0xBA4 JUMPI JUMPDEST DUP2 DUP2 LT PUSH2 0xB8B JUMPI JUMPDEST LT PUSH2 0xB7B JUMPI JUMPDEST POP SWAP8 SWAP7 SWAP6 SWAP4 SWAP8 SUB DUP8 PUSH2 0x2788 JUMP JUMPDEST DUP6 PUSH1 0x60 DUP3 ADD MSTORE MLOAD SWAP1 MLOAD SWAP4 MLOAD SWAP5 PUSH1 0x40 MLOAD SWAP6 DUP7 SWAP6 PUSH1 0x80 DUP8 ADD SWAP4 DUP8 MSTORE PUSH1 0x20 DUP8 ADD MSTORE PUSH1 0x40 DUP7 ADD MSTORE PUSH1 0x80 PUSH1 0x60 DUP7 ADD MSTORE MLOAD DUP1 SWAP2 MSTORE PUSH1 0xA0 DUP5 ADD SWAP3 SWAP2 JUMPDEST DUP2 DUP2 LT PUSH2 0xB60 JUMPI POP POP POP SUB SWAP1 RETURN JUMPDEST DUP3 MLOAD ISZERO ISZERO DUP5 MSTORE DUP6 SWAP5 POP PUSH1 0x20 SWAP4 DUP5 ADD SWAP4 SWAP1 SWAP3 ADD SWAP2 PUSH1 0x1 ADD PUSH2 0xB52 JUMP JUMPDEST PUSH1 0xF8 SHR ISZERO ISZERO DUP2 MSTORE PUSH1 0x20 ADD CODESIZE PUSH2 0xB10 JUMP JUMPDEST SWAP3 PUSH1 0x20 PUSH1 0x1 SWAP2 PUSH1 0xFF DUP6 PUSH1 0xF0 SHR AND ISZERO ISZERO DUP2 MSTORE ADD SWAP4 ADD PUSH2 0xB0A JUMP JUMPDEST SWAP3 PUSH1 0x20 PUSH1 0x1 SWAP2 PUSH1 0xFF DUP6 PUSH1 0xE8 SHR AND ISZERO ISZERO DUP2 MSTORE ADD SWAP4 ADD PUSH2 0xB02 JUMP JUMPDEST SWAP3 PUSH1 0x20 PUSH1 0x1 SWAP2 PUSH1 0xFF DUP6 PUSH1 0xE0 SHR AND ISZERO ISZERO DUP2 MSTORE ADD SWAP4 ADD PUSH2 0xAFA JUMP JUMPDEST SWAP3 PUSH1 0x20 PUSH1 0x1 SWAP2 PUSH1 0xFF DUP6 PUSH1 0xD8 SHR AND ISZERO ISZERO DUP2 MSTORE ADD SWAP4 ADD PUSH2 0xAF2 JUMP JUMPDEST SWAP3 PUSH1 0x20 PUSH1 0x1 SWAP2 PUSH1 0xFF DUP6 PUSH1 0xD0 SHR AND ISZERO ISZERO DUP2 MSTORE ADD SWAP4 ADD PUSH2 0xAEA JUMP JUMPDEST SWAP3 PUSH1 0x20 PUSH1 0x1 SWAP2 PUSH1 0xFF DUP6 PUSH1 0xC8 SHR AND ISZERO ISZERO DUP2 MSTORE ADD SWAP4 ADD PUSH2 0xAE2 JUMP JUMPDEST SWAP3 PUSH1 0x20 PUSH1 0x1 SWAP2 PUSH1 0xFF DUP6 PUSH1 0xC0 SHR AND ISZERO ISZERO DUP2 MSTORE ADD SWAP4 ADD PUSH2 0xADA JUMP JUMPDEST SWAP3 PUSH1 0x20 PUSH1 0x1 SWAP2 PUSH1 0xFF DUP6 PUSH1 0xB8 SHR AND ISZERO ISZERO DUP2 MSTORE ADD SWAP4 ADD PUSH2 0xAD2 JUMP JUMPDEST SWAP3 PUSH1 0x20 PUSH1 0x1 SWAP2 PUSH1 0xFF DUP6 PUSH1 0xB0 SHR AND ISZERO ISZERO DUP2 MSTORE ADD SWAP4 ADD PUSH2 0xACA JUMP JUMPDEST SWAP3 PUSH1 0x20 PUSH1 0x1 SWAP2 PUSH1 0xFF DUP6 PUSH1 0xA8 SHR AND ISZERO ISZERO DUP2 MSTORE ADD SWAP4 ADD PUSH2 0xAC2 JUMP JUMPDEST SWAP3 PUSH1 0x20 PUSH1 0x1 SWAP2 PUSH1 0xFF DUP6 PUSH1 0xA0 SHR AND ISZERO ISZERO DUP2 MSTORE ADD SWAP4 ADD PUSH2 0xABA JUMP JUMPDEST SWAP3 PUSH1 0x20 PUSH1 0x1 SWAP2 PUSH1 0xFF DUP6 PUSH1 0x98 SHR AND ISZERO ISZERO DUP2 MSTORE ADD SWAP4 ADD PUSH2 0xAB2 JUMP JUMPDEST SWAP3 PUSH1 0x20 PUSH1 0x1 SWAP2 PUSH1 0xFF DUP6 PUSH1 0x90 SHR AND ISZERO ISZERO DUP2 MSTORE ADD SWAP4 ADD PUSH2 0xAAA JUMP JUMPDEST SWAP3 PUSH1 0x20 PUSH1 0x1 SWAP2 PUSH1 0xFF DUP6 PUSH1 0x88 SHR AND ISZERO ISZERO DUP2 MSTORE ADD SWAP4 ADD PUSH2 0xAA2 JUMP JUMPDEST SWAP3 PUSH1 0x20 PUSH1 0x1 SWAP2 PUSH1 0xFF DUP6 PUSH1 0x80 SHR AND ISZERO ISZERO DUP2 MSTORE ADD SWAP4 ADD PUSH2 0xA9A JUMP JUMPDEST SWAP3 PUSH1 0x20 PUSH1 0x1 SWAP2 PUSH1 0xFF DUP6 PUSH1 0x78 SHR AND ISZERO ISZERO DUP2 MSTORE ADD SWAP4 ADD PUSH2 0xA92 JUMP JUMPDEST SWAP3 PUSH1 0x20 PUSH1 0x1 SWAP2 PUSH1 0xFF DUP6 PUSH1 0x70 SHR AND ISZERO ISZERO DUP2 MSTORE ADD SWAP4 ADD PUSH2 0xA8A JUMP JUMPDEST SWAP3 PUSH1 0x20 PUSH1 0x1 SWAP2 PUSH1 0xFF DUP6 PUSH1 0x68 SHR AND ISZERO ISZERO DUP2 MSTORE ADD SWAP4 ADD PUSH2 0xA82 JUMP JUMPDEST SWAP3 PUSH1 0x20 PUSH1 0x1 SWAP2 PUSH1 0xFF DUP6 PUSH1 0x60 SHR AND ISZERO ISZERO DUP2 MSTORE ADD SWAP4 ADD PUSH2 0xA7A JUMP JUMPDEST SWAP3 PUSH1 0x20 PUSH1 0x1 SWAP2 PUSH1 0xFF DUP6 PUSH1 0x58 SHR AND ISZERO ISZERO DUP2 MSTORE ADD SWAP4 ADD PUSH2 0xA72 JUMP JUMPDEST SWAP3 PUSH1 0x20 PUSH1 0x1 SWAP2 PUSH1 0xFF DUP6 PUSH1 0x50 SHR AND ISZERO ISZERO DUP2 MSTORE ADD SWAP4 ADD PUSH2 0xA6A JUMP JUMPDEST SWAP3 PUSH1 0x20 PUSH1 0x1 SWAP2 PUSH1 0xFF DUP6 PUSH1 0x48 SHR AND ISZERO ISZERO DUP2 MSTORE ADD SWAP4 ADD PUSH2 0xA62 JUMP JUMPDEST SWAP3 PUSH1 0x20 PUSH1 0x1 SWAP2 PUSH1 0xFF DUP6 PUSH1 0x40 SHR AND ISZERO ISZERO DUP2 MSTORE ADD SWAP4 ADD PUSH2 0xA5A JUMP JUMPDEST SWAP3 PUSH1 0x20 PUSH1 0x1 SWAP2 PUSH1 0xFF DUP6 PUSH1 0x38 SHR AND ISZERO ISZERO DUP2 MSTORE ADD SWAP4 ADD PUSH2 0xA52 JUMP JUMPDEST SWAP3 PUSH1 0x20 PUSH1 0x1 SWAP2 PUSH1 0xFF DUP6 PUSH1 0x30 SHR AND ISZERO ISZERO DUP2 MSTORE ADD SWAP4 ADD PUSH2 0xA4A JUMP JUMPDEST SWAP3 PUSH1 0x20 PUSH1 0x1 SWAP2 PUSH1 0xFF DUP6 PUSH1 0x28 SHR AND ISZERO ISZERO DUP2 MSTORE ADD SWAP4 ADD PUSH2 0xA42 JUMP JUMPDEST SWAP3 PUSH1 0x20 PUSH1 0x1 SWAP2 PUSH1 0xFF DUP6 DUP4 SHR AND ISZERO ISZERO DUP2 MSTORE ADD SWAP4 ADD PUSH2 0xA3A JUMP JUMPDEST SWAP3 PUSH1 0x20 PUSH1 0x1 SWAP2 PUSH1 0xFF DUP6 PUSH1 0x18 SHR AND ISZERO ISZERO DUP2 MSTORE ADD SWAP4 ADD PUSH2 0xA32 JUMP JUMPDEST SWAP3 PUSH1 0x20 PUSH1 0x1 SWAP2 PUSH1 0xFF DUP6 PUSH1 0x10 SHR AND ISZERO ISZERO DUP2 MSTORE ADD SWAP4 ADD PUSH2 0xA2A JUMP JUMPDEST SWAP3 PUSH1 0x20 PUSH1 0x1 SWAP2 PUSH1 0xFF DUP6 PUSH1 0x8 SHR AND ISZERO ISZERO DUP2 MSTORE ADD SWAP4 ADD PUSH2 0xA22 JUMP JUMPDEST SWAP3 PUSH1 0x20 PUSH1 0x1 SWAP2 PUSH1 0xFF DUP6 AND ISZERO ISZERO DUP2 MSTORE ADD SWAP4 ADD PUSH2 0xA1A JUMP JUMPDEST SWAP2 PUSH1 0x20 SWAP2 SWAP4 POP PUSH2 0x400 PUSH1 0x1 SWAP2 DUP7 SLOAD PUSH1 0xFF DUP2 AND ISZERO ISZERO DUP3 MSTORE PUSH1 0xFF DUP2 PUSH1 0x8 SHR AND ISZERO ISZERO DUP6 DUP4 ADD MSTORE PUSH1 0xFF DUP2 PUSH1 0x10 SHR AND ISZERO ISZERO PUSH1 0x40 DUP4 ADD MSTORE PUSH1 0xFF DUP2 PUSH1 0x18 SHR AND ISZERO ISZERO PUSH1 0x60 DUP4 ADD MSTORE PUSH1 0xFF DUP2 DUP7 SHR AND ISZERO ISZERO PUSH1 0x80 DUP4 ADD MSTORE PUSH1 0xFF DUP2 PUSH1 0x28 SHR AND ISZERO ISZERO PUSH1 0xA0 DUP4 ADD MSTORE PUSH1 0xFF DUP2 PUSH1 0x30 SHR AND ISZERO ISZERO PUSH1 0xC0 DUP4 ADD MSTORE PUSH1 0xFF DUP2 PUSH1 0x38 SHR AND ISZERO ISZERO PUSH1 0xE0 DUP4 ADD MSTORE PUSH1 0xFF DUP2 PUSH1 0x40 SHR AND ISZERO ISZERO PUSH2 0x100 DUP4 ADD MSTORE PUSH1 0xFF DUP2 PUSH1 0x48 SHR AND ISZERO ISZERO PUSH2 0x120 DUP4 ADD MSTORE PUSH1 0xFF DUP2 PUSH1 0x50 SHR AND ISZERO ISZERO PUSH2 0x140 DUP4 ADD MSTORE PUSH1 0xFF DUP2 PUSH1 0x58 SHR AND ISZERO ISZERO PUSH2 0x160 DUP4 ADD MSTORE PUSH1 0xFF DUP2 PUSH1 0x60 SHR AND ISZERO ISZERO PUSH2 0x180 DUP4 ADD MSTORE PUSH1 0xFF DUP2 PUSH1 0x68 SHR AND ISZERO ISZERO PUSH2 0x1A0 DUP4 ADD MSTORE PUSH1 0xFF DUP2 PUSH1 0x70 SHR AND ISZERO ISZERO PUSH2 0x1C0 DUP4 ADD MSTORE PUSH1 0xFF DUP2 PUSH1 0x78 SHR AND ISZERO ISZERO PUSH2 0x1E0 DUP4 ADD MSTORE PUSH1 0xFF DUP2 PUSH1 0x80 SHR AND ISZERO ISZERO PUSH2 0x200 DUP4 ADD MSTORE PUSH1 0xFF DUP2 PUSH1 0x88 SHR AND ISZERO ISZERO PUSH2 0x220 DUP4 ADD MSTORE PUSH1 0xFF DUP2 PUSH1 0x90 SHR AND ISZERO ISZERO PUSH2 0x240 DUP4 ADD MSTORE PUSH1 0xFF DUP2 PUSH1 0x98 SHR AND ISZERO ISZERO PUSH2 0x260 DUP4 ADD MSTORE PUSH1 0xFF DUP2 PUSH1 0xA0 SHR AND ISZERO ISZERO PUSH2 0x280 DUP4 ADD MSTORE PUSH1 0xFF DUP2 PUSH1 0xA8 SHR AND ISZERO ISZERO PUSH2 0x2A0 DUP4 ADD MSTORE PUSH1 0xFF DUP2 PUSH1 0xB0 SHR AND ISZERO ISZERO PUSH2 0x2C0 DUP4 ADD MSTORE PUSH1 0xFF DUP2 PUSH1 0xB8 SHR AND ISZERO ISZERO PUSH2 0x2E0 DUP4 ADD MSTORE PUSH1 0xFF DUP2 PUSH1 0xC0 SHR AND ISZERO ISZERO PUSH2 0x300 DUP4 ADD MSTORE PUSH1 0xFF DUP2 PUSH1 0xC8 SHR AND ISZERO ISZERO PUSH2 0x320 DUP4 ADD MSTORE PUSH1 0xFF DUP2 PUSH1 0xD0 SHR AND ISZERO ISZERO PUSH2 0x340 DUP4 ADD MSTORE PUSH1 0xFF DUP2 PUSH1 0xD8 SHR AND ISZERO ISZERO PUSH2 0x360 DUP4 ADD MSTORE PUSH1 0xFF DUP2 PUSH1 0xE0 SHR AND ISZERO ISZERO PUSH2 0x380 DUP4 ADD MSTORE PUSH1 0xFF DUP2 PUSH1 0xE8 SHR AND ISZERO ISZERO PUSH2 0x3A0 DUP4 ADD MSTORE PUSH1 0xFF DUP2 PUSH1 0xF0 SHR AND ISZERO ISZERO PUSH2 0x3C0 DUP4 ADD MSTORE PUSH1 0xF8 SHR ISZERO ISZERO PUSH2 0x3E0 DUP3 ADD MSTORE ADD SWAP5 ADD SWAP3 ADD DUP6 SWAP3 SWAP4 SWAP2 PUSH2 0xA02 JUMP JUMPDEST POP CALLVALUE PUSH2 0x1E5 JUMPI PUSH2 0x100 CALLDATASIZE PUSH1 0x3 NOT ADD SLT PUSH2 0x1E5 JUMPI PUSH2 0x1091 PUSH2 0x2812 JUMP JUMPDEST PUSH2 0x1099 PUSH2 0x2828 JUMP JUMPDEST PUSH1 0x44 CALLDATALOAD PUSH1 0x64 CALLDATALOAD PUSH1 0x84 CALLDATALOAD SWAP1 PUSH1 0xA4 CALLDATALOAD SWAP3 PUSH1 0xC4 CALLDATALOAD PUSH1 0xE4 CALLDATALOAD PUSH1 0x24 PUSH1 0x20 PUSH1 0x1 DUP1 PUSH1 0xA0 SHL SUB PUSH1 0x2 SLOAD AND PUSH1 0x40 MLOAD SWAP3 DUP4 DUP1 SWAP3 PUSH4 0x935E01B PUSH1 0xE2 SHL DUP3 MSTORE CALLER PUSH1 0x4 DUP4 ADD MSTORE GAS STATICCALL DUP1 ISZERO PUSH2 0x1316 JUMPI PUSH2 0x10EB SWAP2 DUP12 SWAP2 PUSH2 0x53B JUMPI POP PUSH2 0x29DB JUMP JUMPDEST PUSH1 0x3 SLOAD SWAP7 PUSH1 0xFF DUP9 PUSH1 0xA0 SHR AND PUSH2 0x12C1 JUMPI PUSH1 0x1 PUSH1 0x1 PUSH1 0xA0 SHL SUB AND SWAP6 DUP7 ISZERO PUSH2 0x1264 JUMPI DUP4 ISZERO ISZERO DUP1 PUSH2 0x125B JUMPI JUMPDEST DUP1 PUSH2 0x1252 JUMPI JUMPDEST DUP1 PUSH2 0x1249 JUMPI JUMPDEST DUP1 PUSH2 0x1240 JUMPI JUMPDEST ISZERO PUSH2 0x11FB JUMPI PUSH1 0x64 DUP4 LT PUSH2 0x11BD JUMPI PUSH32 0x2CD2DFCDEB2B58C4B80527E9DF5E12DA537FA4F6C958A4FB623A83AB74EEAB63 SWAP9 PUSH1 0x80 SWAP9 PUSH1 0x1 PUSH1 0xA0 SHL SWAP2 PUSH1 0x1 DUP1 PUSH1 0xA0 SHL SUB AND SWAP1 PUSH11 0xFFFFFFFFFFFFFFFFFFFFFF PUSH1 0xA8 SHL AND OR OR PUSH1 0x3 SSTORE DUP7 PUSH1 0x1 PUSH1 0x1 PUSH1 0x60 SHL SUB PUSH1 0xA0 SHL PUSH1 0x4 SLOAD AND OR PUSH1 0x4 SSTORE DUP4 PUSH1 0x5 SSTORE DUP5 PUSH1 0x6 SSTORE DUP6 PUSH1 0xA SSTORE PUSH1 0xB SSTORE PUSH1 0xC SSTORE PUSH1 0x16 SSTORE PUSH1 0x40 MLOAD SWAP4 DUP5 MSTORE PUSH1 0x20 DUP5 ADD MSTORE PUSH1 0x40 DUP4 ADD MSTORE PUSH1 0x60 DUP3 ADD MSTORE LOG1 DUP1 RETURN JUMPDEST PUSH1 0x40 MLOAD PUSH3 0x461BCD PUSH1 0xE5 SHL DUP2 MSTORE PUSH1 0x20 PUSH1 0x4 DUP3 ADD MSTORE PUSH1 0x16 PUSH1 0x24 DUP3 ADD MSTORE PUSH22 0x53686F756C64206265206174206C656173742031303 PUSH1 0x54 SHL PUSH1 0x44 DUP3 ADD MSTORE PUSH1 0x64 SWAP1 REVERT JUMPDEST PUSH1 0x40 MLOAD PUSH3 0x461BCD PUSH1 0xE5 SHL DUP2 MSTORE PUSH1 0x20 PUSH1 0x4 DUP3 ADD MSTORE PUSH1 0x18 PUSH1 0x24 DUP3 ADD MSTORE PUSH32 0x73657453616C65506172616D733A2042616420696E7075740000000000000000 PUSH1 0x44 DUP3 ADD MSTORE PUSH1 0x64 SWAP1 REVERT JUMPDEST POP DUP2 ISZERO ISZERO PUSH2 0x1125 JUMP JUMPDEST POP TIMESTAMP DUP2 GT PUSH2 0x111F JUMP JUMPDEST POP TIMESTAMP DUP7 GT PUSH2 0x1119 JUMP JUMPDEST POP DUP5 ISZERO ISZERO PUSH2 0x1113 JUMP JUMPDEST PUSH1 0x40 MLOAD PUSH3 0x461BCD PUSH1 0xE5 SHL DUP2 MSTORE PUSH1 0x20 PUSH1 0x4 DUP3 ADD MSTORE PUSH1 0x2F PUSH1 0x24 DUP3 ADD MSTORE PUSH32 0x73657453616C65506172616D733A2053616C65206F776E657220616464726573 PUSH1 0x44 DUP3 ADD MSTORE PUSH15 0x399031B0B7103737BA103132901817 PUSH1 0x89 SHL PUSH1 0x64 DUP3 ADD MSTORE PUSH1 0x84 SWAP1 REVERT JUMPDEST PUSH1 0x40 MLOAD PUSH3 0x461BCD PUSH1 0xE5 SHL DUP2 MSTORE PUSH1 0x20 PUSH1 0x4 DUP3 ADD MSTORE PUSH1 0x27 PUSH1 0x24 DUP3 ADD MSTORE PUSH32 0x73657453616C65506172616D733A2053616C6520697320616C72656164792063 PUSH1 0x44 DUP3 ADD MSTORE PUSH7 0x3932B0BA32B217 PUSH1 0xC9 SHL PUSH1 0x64 DUP3 ADD MSTORE PUSH1 0x84 SWAP1 REVERT JUMPDEST PUSH1 0x40 MLOAD RETURNDATASIZE DUP13 DUP3 RETURNDATACOPY RETURNDATASIZE SWAP1 REVERT JUMPDEST POP CALLVALUE PUSH2 0x1E5 JUMPI DUP1 PUSH1 0x3 NOT CALLDATASIZE ADD SLT PUSH2 0x1E5 JUMPI PUSH1 0x1 SLOAD PUSH1 0x40 MLOAD PUSH1 0x1 PUSH1 0x1 PUSH1 0xA0 SHL SUB SWAP1 SWAP2 AND DUP2 MSTORE PUSH1 0x20 SWAP1 RETURN JUMPDEST POP CALLVALUE PUSH2 0x1E5 JUMPI PUSH1 0x20 CALLDATASIZE PUSH1 0x3 NOT ADD SLT PUSH2 0x1E5 JUMPI PUSH1 0x20 SWAP1 PUSH1 0xFF SWAP1 PUSH1 0x40 SWAP1 PUSH1 0x1 PUSH1 0x1 PUSH1 0xA0 SHL SUB PUSH2 0x1375 PUSH2 0x2812 JUMP JUMPDEST AND DUP2 MSTORE PUSH1 0x12 DUP5 MSTORE KECCAK256 SLOAD AND PUSH1 0x40 MLOAD SWAP1 ISZERO ISZERO DUP2 MSTORE RETURN JUMPDEST POP CALLVALUE PUSH2 0x1E5 JUMPI DUP1 PUSH1 0x3 NOT CALLDATASIZE ADD SLT PUSH2 0x1E5 JUMPI PUSH2 0x13AF PUSH1 0x1 DUP1 PUSH1 0xA0 SHL SUB PUSH1 0x4 SLOAD AND CALLER EQ PUSH2 0x2C5B JUMP JUMPDEST PUSH2 0x691 PUSH2 0x2E99 JUMP JUMPDEST POP CALLVALUE PUSH2 0x1E5 JUMPI PUSH1 0x20 CALLDATASIZE PUSH1 0x3 NOT ADD SLT PUSH2 0x1E5 JUMPI PUSH1 0x4 CALLDATALOAD SWAP1 PUSH1 0x24 PUSH1 0x20 PUSH1 0x1 DUP1 PUSH1 0xA0 SHL SUB PUSH1 0x2 SLOAD AND PUSH1 0x40 MLOAD SWAP3 DUP4 DUP1 SWAP3 PUSH4 0x935E01B PUSH1 0xE2 SHL DUP3 MSTORE CALLER PUSH1 0x4 DUP4 ADD MSTORE GAS STATICCALL SWAP1 DUP2 ISZERO PUSH2 0x14D3 JUMPI SWAP1 PUSH2 0x140D SWAP2 DUP4 SWAP2 PUSH2 0x53B JUMPI POP PUSH2 0x29DB JUMP JUMPDEST DUP2 ISZERO ISZERO DUP1 PUSH2 0x14C8 JUMPI JUMPDEST ISZERO PUSH2 0x145D JUMPI DUP1 PUSH1 0x17 SSTORE DUP1 JUMPDEST PUSH1 0x14 SLOAD DUP2 LT ISZERO PUSH2 0x1459 JUMPI DUP1 PUSH2 0x1453 PUSH2 0x144A DUP6 PUSH2 0x143E PUSH1 0x1 SWAP6 PUSH2 0x2884 JUMP JUMPDEST SWAP1 SLOAD SWAP1 PUSH1 0x3 SHL SHR PUSH2 0x2A76 JUMP JUMPDEST PUSH2 0x794 DUP4 PUSH2 0x2884 JUMP JUMPDEST ADD PUSH2 0x1421 JUMP JUMPDEST POP DUP1 RETURN JUMPDEST PUSH1 0x40 MLOAD PUSH3 0x461BCD PUSH1 0xE5 SHL DUP2 MSTORE PUSH1 0x20 PUSH1 0x4 DUP3 ADD MSTORE PUSH1 0x3B PUSH1 0x24 DUP3 ADD MSTORE PUSH32 0x5368696674206D757374206265206E6F6E7A65726F20616E6420736D616C6C65 PUSH1 0x44 DUP3 ADD MSTORE PUSH32 0x72207468616E206D617856657374696E6754696D6553686966742E0000000000 PUSH1 0x64 DUP3 ADD MSTORE PUSH1 0x84 SWAP1 REVERT JUMPDEST POP PUSH1 0x17 SLOAD DUP3 LT PUSH2 0x1416 JUMP JUMPDEST PUSH1 0x40 MLOAD RETURNDATASIZE DUP5 DUP3 RETURNDATACOPY RETURNDATASIZE SWAP1 REVERT JUMPDEST POP CALLVALUE PUSH2 0x1E5 JUMPI DUP1 PUSH1 0x3 NOT CALLDATASIZE ADD SLT PUSH2 0x1E5 JUMPI PUSH1 0x20 PUSH1 0xF SLOAD PUSH1 0x40 MLOAD SWAP1 DUP2 MSTORE RETURN JUMPDEST POP CALLVALUE PUSH2 0x1E5 JUMPI DUP1 PUSH1 0x3 NOT CALLDATASIZE ADD SLT PUSH2 0x1E5 JUMPI PUSH2 0x689 PUSH1 0x1 DUP1 PUSH1 0xA0 SHL SUB PUSH1 0x4 SLOAD AND CALLER EQ PUSH2 0x2C5B JUMP JUMPDEST POP CALLVALUE PUSH2 0x1E5 JUMPI PUSH1 0x20 CALLDATASIZE PUSH1 0x3 NOT ADD SLT PUSH2 0x1E5 JUMPI PUSH2 0x153C PUSH2 0x2812 JUMP JUMPDEST PUSH1 0x2 SLOAD PUSH1 0x40 MLOAD PUSH4 0x935E01B PUSH1 0xE2 SHL DUP2 MSTORE CALLER PUSH1 0x4 DUP3 ADD MSTORE SWAP1 PUSH1 0x20 SWAP1 DUP3 SWAP1 PUSH1 0x24 SWAP1 DUP3 SWAP1 PUSH1 0x1 PUSH1 0x1 PUSH1 0xA0 SHL SUB AND GAS STATICCALL DUP1 ISZERO PUSH2 0x15AD JUMPI PUSH2 0x157E SWAP2 DUP5 SWAP2 PUSH2 0x53B JUMPI POP PUSH2 0x29DB JUMP JUMPDEST PUSH1 0x3 SLOAD SWAP1 PUSH1 0x1 PUSH1 0x1 PUSH1 0xA0 SHL SUB DUP3 AND PUSH2 0x325 JUMPI PUSH1 0x1 PUSH1 0x1 PUSH1 0xA0 SHL SUB AND PUSH1 0x1 PUSH1 0x1 PUSH1 0xA0 SHL SUB NOT SWAP2 SWAP1 SWAP2 AND OR PUSH1 0x3 SSTORE DUP1 RETURN JUMPDEST PUSH1 0x40 MLOAD RETURNDATASIZE DUP6 DUP3 RETURNDATACOPY RETURNDATASIZE SWAP1 REVERT JUMPDEST POP PUSH2 0x15C2 CALLDATASIZE PUSH2 0x28E8 JUMP JUMPDEST SWAP1 PUSH1 0xC SLOAD DUP3 GT PUSH2 0x1B1A JUMPI CALLER DUP4 MSTORE PUSH1 0x12 PUSH1 0x20 MSTORE PUSH1 0xFF PUSH1 0x40 DUP5 KECCAK256 SLOAD AND ISZERO PUSH2 0x1AD5 JUMPI DUP2 PUSH2 0x15ED SWAP2 CALLER SWAP1 PUSH2 0x2AEC JUMP JUMPDEST ISZERO PUSH2 0x1A81 JUMPI PUSH1 0x9 SLOAD TIMESTAMP LT ISZERO DUP1 PUSH2 0x1A76 JUMPI JUMPDEST ISZERO PUSH2 0x1A32 JUMPI CALLER DUP3 MSTORE PUSH1 0x13 PUSH1 0x20 MSTORE PUSH1 0xFF PUSH1 0x40 DUP4 KECCAK256 SLOAD AND PUSH2 0x19ED JUMPI ORIGIN CALLER SUB PUSH2 0x19A8 JUMPI PUSH1 0x3 SLOAD PUSH1 0x40 MLOAD PUSH4 0x313CE567 PUSH1 0xE0 SHL DUP2 MSTORE SWAP1 PUSH1 0x20 SWAP1 DUP3 SWAP1 PUSH1 0x4 SWAP1 DUP3 SWAP1 PUSH1 0x1 PUSH1 0x1 PUSH1 0xA0 SHL SUB AND GAS STATICCALL SWAP1 DUP2 ISZERO PUSH2 0x15AD JUMPI DUP4 SWAP2 PUSH2 0x196A JUMPI JUMPDEST POP PUSH2 0x166B PUSH2 0x1665 PUSH1 0xFF PUSH2 0x1674 SWAP4 AND PUSH2 0x2CA7 JUMP JUMPDEST CALLVALUE PUSH2 0x2AB9 JUMP JUMPDEST PUSH1 0x5 SLOAD SWAP1 PUSH2 0x2ACC JUMP JUMPDEST SWAP1 DUP2 ISZERO PUSH2 0x1930 JUMPI DUP2 GT PUSH2 0x18EC JUMPI PUSH2 0x168D DUP2 PUSH1 0x7 SLOAD PUSH2 0x2A76 JUMP JUMPDEST PUSH1 0x7 SSTORE PUSH2 0x169C CALLVALUE PUSH1 0x8 SLOAD PUSH2 0x2A76 JUMP JUMPDEST PUSH1 0x8 SSTORE PUSH1 0x14 SLOAD PUSH2 0x16AB DUP2 PUSH2 0x291A JUMP JUMPDEST SWAP1 PUSH2 0x16B9 PUSH1 0x40 MLOAD SWAP3 DUP4 PUSH2 0x2788 JUMP JUMPDEST DUP1 DUP3 MSTORE PUSH2 0x16C8 PUSH1 0x1F NOT SWAP2 PUSH2 0x291A JUMP JUMPDEST ADD CALLDATASIZE PUSH1 0x20 DUP4 ADD CALLDATACOPY PUSH1 0x3 PUSH1 0x40 MLOAD PUSH2 0x16DD DUP2 PUSH2 0x2756 JUMP JUMPDEST DUP4 DUP2 MSTORE PUSH1 0x20 DUP2 ADD CALLVALUE DUP2 MSTORE PUSH1 0x40 DUP3 ADD SWAP1 TIMESTAMP DUP3 MSTORE PUSH1 0x60 DUP4 ADD SWAP5 DUP6 MSTORE CALLER DUP8 MSTORE PUSH1 0x11 PUSH1 0x20 MSTORE PUSH1 0x40 DUP8 KECCAK256 SWAP3 MLOAD DUP4 SSTORE MLOAD PUSH1 0x1 DUP4 ADD SSTORE MLOAD PUSH1 0x2 DUP3 ADD SSTORE ADD SWAP1 MLOAD DUP1 MLOAD SWAP1 PUSH8 0xFFFFFFFFFFFFFFFF DUP3 GT PUSH2 0x18D8 JUMPI PUSH1 0x1 PUSH1 0x40 SHL DUP3 GT PUSH2 0x18D8 JUMPI DUP3 SLOAD DUP3 DUP5 SSTORE DUP1 DUP4 LT PUSH2 0x187F JUMPI JUMPDEST POP PUSH1 0x20 ADD SWAP2 DUP5 MSTORE PUSH1 0x20 DUP5 KECCAK256 DUP2 PUSH1 0x5 SHR SWAP2 DUP6 JUMPDEST DUP4 DUP2 LT PUSH2 0x183A JUMPI POP PUSH1 0x1F NOT DUP2 AND SWAP1 SUB DUP1 PUSH2 0x17CF JUMPI JUMPDEST DUP6 PUSH32 0x57D61F3CCD4CCD25EC5D234D6049553A586FAC134C85C98D0B0D9D5724F4E43E PUSH2 0x17C9 DUP8 CALLER DUP5 MSTORE PUSH1 0x13 PUSH1 0x20 MSTORE PUSH1 0x40 DUP5 KECCAK256 PUSH1 0x1 PUSH1 0xFF NOT DUP3 SLOAD AND OR SWAP1 SSTORE PUSH2 0x17AE PUSH1 0x10 SLOAD PUSH2 0x2D42 JUMP JUMPDEST PUSH1 0x10 SSTORE PUSH1 0x40 DUP1 MLOAD CALLER DUP2 MSTORE PUSH1 0x20 DUP2 ADD SWAP3 SWAP1 SWAP3 MSTORE SWAP1 SWAP2 DUP3 SWAP2 DUP3 ADD SWAP1 JUMP JUMPDEST SUB SWAP1 LOG1 DUP1 RETURN JUMPDEST SWAP3 DUP6 SWAP4 DUP7 JUMPDEST DUP2 DUP2 LT PUSH2 0x180B JUMPI POP POP POP ADD SSTORE PUSH2 0x17C9 PUSH32 0x57D61F3CCD4CCD25EC5D234D6049553A586FAC134C85C98D0B0D9D5724F4E43E CODESIZE DUP1 PUSH2 0x1766 JUMP JUMPDEST SWAP1 SWAP2 SWAP5 PUSH1 0x20 PUSH2 0x1830 PUSH1 0x1 SWAP3 DUP5 DUP10 MLOAD ISZERO ISZERO SWAP2 SWAP1 PUSH1 0xFF DUP1 SWAP2 PUSH1 0x3 SHL SWAP4 AND DUP4 SHL SWAP3 SHL NOT AND OR SWAP1 JUMP JUMPDEST SWAP7 ADD SWAP3 SWAP2 ADD PUSH2 0x17D4 JUMP JUMPDEST DUP7 DUP8 JUMPDEST PUSH1 0x20 DUP2 LT PUSH2 0x1852 JUMPI POP DUP4 DUP3 ADD SSTORE PUSH1 0x1 ADD PUSH2 0x1751 JUMP JUMPDEST SWAP6 SWAP1 PUSH1 0x20 PUSH2 0x1876 PUSH1 0x1 SWAP3 DUP10 DUP6 MLOAD ISZERO ISZERO SWAP2 SWAP1 PUSH1 0xFF DUP1 SWAP2 PUSH1 0x3 SHL SWAP4 AND DUP4 SHL SWAP3 SHL NOT AND OR SWAP1 JUMP JUMPDEST SWAP3 ADD SWAP7 ADD PUSH2 0x183D JUMP JUMPDEST DUP4 DUP7 MSTORE PUSH1 0x20 DUP7 KECCAK256 PUSH1 0x1F DUP1 DUP6 ADD PUSH1 0x5 SHR DUP3 ADD SWAP3 ADD PUSH1 0x5 SHR ADD SWAP1 PUSH1 0x1F DUP5 AND DUP1 PUSH2 0x18BB JUMPI JUMPDEST POP JUMPDEST DUP2 DUP2 LT PUSH2 0x18B0 JUMPI POP PUSH2 0x173F JUMP JUMPDEST DUP7 DUP2 SSTORE PUSH1 0x1 ADD PUSH2 0x18A3 JUMP JUMPDEST PUSH1 0x0 NOT DUP3 ADD SWAP1 DUP2 SLOAD SWAP1 PUSH1 0x0 NOT SWAP1 PUSH1 0x20 SUB PUSH1 0x3 SHL SHR AND SWAP1 SSTORE CODESIZE PUSH2 0x18A1 JUMP JUMPDEST PUSH4 0x4E487B71 PUSH1 0xE0 SHL DUP6 MSTORE PUSH1 0x41 PUSH1 0x4 MSTORE PUSH1 0x24 DUP6 REVERT JUMPDEST PUSH1 0x64 PUSH1 0x40 MLOAD PUSH3 0x461BCD PUSH1 0xE5 SHL DUP2 MSTORE PUSH1 0x20 PUSH1 0x4 DUP3 ADD MSTORE PUSH1 0x20 PUSH1 0x24 DUP3 ADD MSTORE PUSH32 0x547279696E6720746F20627579206D6F7265207468616E20616C6C6F7765642E PUSH1 0x44 DUP3 ADD MSTORE REVERT JUMPDEST PUSH1 0x40 MLOAD PUSH3 0x461BCD PUSH1 0xE5 SHL DUP2 MSTORE PUSH1 0x20 PUSH1 0x4 DUP3 ADD MSTORE PUSH1 0x12 PUSH1 0x24 DUP3 ADD MSTORE PUSH18 0x43616E277420627579203020746F6B656E73 PUSH1 0x70 SHL PUSH1 0x44 DUP3 ADD MSTORE PUSH1 0x64 SWAP1 REVERT JUMPDEST SWAP1 POP PUSH1 0x20 DUP2 RETURNDATASIZE PUSH1 0x20 GT PUSH2 0x19A0 JUMPI JUMPDEST DUP2 PUSH2 0x1985 PUSH1 0x20 SWAP4 DUP4 PUSH2 0x2788 JUMP JUMPDEST DUP2 ADD SUB SLT PUSH2 0x325 JUMPI MLOAD PUSH1 0xFF DUP2 AND DUP2 SUB PUSH2 0x325 JUMPI PUSH2 0x166B PUSH2 0x1652 JUMP JUMPDEST RETURNDATASIZE SWAP2 POP PUSH2 0x1978 JUMP JUMPDEST PUSH1 0x40 MLOAD PUSH3 0x461BCD PUSH1 0xE5 SHL DUP2 MSTORE PUSH1 0x20 PUSH1 0x4 DUP3 ADD MSTORE PUSH1 0x1B PUSH1 0x24 DUP3 ADD MSTORE PUSH32 0x4F6E6C792064697265637420636F6E74726163742063616C6C732E0000000000 PUSH1 0x44 DUP3 ADD MSTORE PUSH1 0x64 SWAP1 REVERT JUMPDEST PUSH1 0x40 MLOAD PUSH3 0x461BCD PUSH1 0xE5 SHL DUP2 MSTORE PUSH1 0x20 PUSH1 0x4 DUP3 ADD MSTORE PUSH1 0x1F PUSH1 0x24 DUP3 ADD MSTORE PUSH32 0x557365722063616E207061727469636970617465206F6E6C79206F6E63652E00 PUSH1 0x44 DUP3 ADD MSTORE PUSH1 0x64 SWAP1 REVERT JUMPDEST PUSH1 0x64 PUSH1 0x40 MLOAD PUSH3 0x461BCD PUSH1 0xE5 SHL DUP2 MSTORE PUSH1 0x20 PUSH1 0x4 DUP3 ADD MSTORE PUSH1 0x20 PUSH1 0x24 DUP3 ADD MSTORE PUSH32 0x73616C65206469646E2774207374617274206F72206974277320656E6465642E PUSH1 0x44 DUP3 ADD MSTORE REVERT JUMPDEST POP PUSH1 0xA SLOAD TIMESTAMP LT PUSH2 0x15FE JUMP JUMPDEST PUSH1 0x40 MLOAD PUSH3 0x461BCD PUSH1 0xE5 SHL DUP2 MSTORE PUSH1 0x20 PUSH1 0x4 DUP3 ADD MSTORE PUSH1 0x26 PUSH1 0x24 DUP3 ADD MSTORE PUSH32 0x496E76616C6964207369676E61747572652E20566572696669636174696F6E20 PUSH1 0x44 DUP3 ADD MSTORE PUSH6 0x19985A5B1959 PUSH1 0xD2 SHL PUSH1 0x64 DUP3 ADD MSTORE PUSH1 0x84 SWAP1 REVERT JUMPDEST PUSH1 0x40 MLOAD PUSH3 0x461BCD PUSH1 0xE5 SHL DUP2 MSTORE PUSH1 0x20 PUSH1 0x4 DUP3 ADD MSTORE PUSH1 0x1D PUSH1 0x24 DUP3 ADD MSTORE PUSH32 0x4E6F74207265676973746572656420666F7220746869732073616C652E000000 PUSH1 0x44 DUP3 ADD MSTORE PUSH1 0x64 SWAP1 REVERT JUMPDEST PUSH1 0x40 MLOAD PUSH3 0x461BCD PUSH1 0xE5 SHL DUP2 MSTORE PUSH1 0x20 PUSH1 0x4 DUP3 ADD MSTORE PUSH1 0x2B PUSH1 0x24 DUP3 ADD MSTORE PUSH32 0x4F766572666C6F77696E67206D6178696D616C2070617274696369706174696F PUSH1 0x44 DUP3 ADD MSTORE PUSH11 0x37103337B91039B0B63297 PUSH1 0xA9 SHL PUSH1 0x64 DUP3 ADD MSTORE PUSH1 0x84 SWAP1 REVERT JUMPDEST POP CALLVALUE PUSH2 0x1E5 JUMPI PUSH1 0x20 CALLDATASIZE PUSH1 0x3 NOT ADD SLT PUSH2 0x1E5 JUMPI PUSH1 0x4 CALLDATALOAD SWAP1 PUSH1 0x15 SLOAD DUP3 LT ISZERO PUSH2 0x1E5 JUMPI PUSH1 0x20 PUSH2 0x213 DUP4 PUSH2 0x28B5 JUMP JUMPDEST POP CALLVALUE PUSH2 0x1E5 JUMPI DUP1 PUSH1 0x3 NOT CALLDATASIZE ADD SLT PUSH2 0x1E5 JUMPI PUSH2 0x1BC4 PUSH1 0x1 DUP1 PUSH1 0xA0 SHL SUB PUSH1 0x4 SLOAD AND CALLER EQ PUSH2 0x2C5B JUMP JUMPDEST PUSH1 0x3 SLOAD PUSH1 0xFF DUP2 PUSH1 0xB8 SHR AND PUSH2 0x1C2B JUMPI PUSH1 0xFF PUSH1 0xB8 SHL NOT DUP2 AND PUSH1 0x1 PUSH1 0xB8 SHL OR PUSH1 0x3 SSTORE PUSH1 0x6 SLOAD PUSH1 0x40 MLOAD PUSH4 0x23B872DD PUSH1 0xE0 SHL PUSH1 0x20 DUP3 ADD MSTORE CALLER PUSH1 0x24 DUP3 ADD MSTORE ADDRESS PUSH1 0x44 DUP3 ADD MSTORE PUSH1 0x64 DUP1 DUP3 ADD SWAP3 SWAP1 SWAP3 MSTORE SWAP1 DUP2 MSTORE PUSH2 0x691 SWAP2 PUSH2 0x1C1D PUSH1 0x84 DUP4 PUSH2 0x2788 JUMP JUMPDEST PUSH1 0x1 PUSH1 0x1 PUSH1 0xA0 SHL SUB AND PUSH2 0x2F79 JUMP JUMPDEST PUSH1 0x40 MLOAD PUSH3 0x461BCD PUSH1 0xE5 SHL DUP2 MSTORE PUSH1 0x20 PUSH1 0x4 DUP3 ADD MSTORE PUSH1 0x1D PUSH1 0x24 DUP3 ADD MSTORE PUSH32 0x4465706F7369742063616E20626520646F6E65206F6E6C79206F6E6365000000 PUSH1 0x44 DUP3 ADD MSTORE PUSH1 0x64 SWAP1 REVERT JUMPDEST POP CALLVALUE PUSH2 0x1E5 JUMPI PUSH1 0x20 CALLDATASIZE PUSH1 0x3 NOT ADD SLT PUSH2 0x1E5 JUMPI PUSH1 0x4 CALLDATALOAD PUSH1 0x24 PUSH1 0x20 PUSH1 0x1 DUP1 PUSH1 0xA0 SHL SUB PUSH1 0x2 SLOAD AND PUSH1 0x40 MLOAD SWAP3 DUP4 DUP1 SWAP3 PUSH4 0x935E01B PUSH1 0xE2 SHL DUP3 MSTORE CALLER PUSH1 0x4 DUP4 ADD MSTORE GAS STATICCALL DUP1 ISZERO PUSH2 0x15AD JUMPI PUSH2 0x1CC3 SWAP2 DUP5 SWAP2 PUSH2 0x53B JUMPI POP PUSH2 0x29DB JUMP JUMPDEST DUP1 ISZERO PUSH2 0x1CFB JUMPI PUSH1 0x20 DUP2 PUSH32 0x4B59D61D9FFDC3DB926D0CE7E06EBABB6BD1BF9DCDAE262667E48BE368227216 SWAP3 PUSH1 0x5 SSTORE PUSH1 0x40 MLOAD SWAP1 DUP2 MSTORE LOG1 DUP1 RETURN JUMPDEST PUSH1 0x40 MLOAD PUSH3 0x461BCD PUSH1 0xE5 SHL DUP2 MSTORE PUSH1 0x20 PUSH1 0x4 DUP3 ADD MSTORE PUSH1 0x13 PUSH1 0x24 DUP3 ADD MSTORE PUSH19 0x283934B1B29031B0B7103737BA103132901817 PUSH1 0x69 SHL PUSH1 0x44 DUP3 ADD MSTORE PUSH1 0x64 SWAP1 REVERT JUMPDEST POP CALLVALUE PUSH2 0x1E5 JUMPI DUP1 PUSH1 0x3 NOT CALLDATASIZE ADD SLT PUSH2 0x1E5 JUMPI PUSH1 0x20 PUSH1 0x10 SLOAD PUSH1 0x40 MLOAD SWAP1 DUP2 MSTORE RETURN JUMPDEST POP CALLVALUE PUSH2 0x1E5 JUMPI PUSH1 0x40 CALLDATASIZE PUSH1 0x3 NOT ADD SLT PUSH2 0x1E5 JUMPI PUSH1 0x4 CALLDATALOAD SWAP1 PUSH8 0xFFFFFFFFFFFFFFFF DUP3 GT PUSH2 0x1E5 JUMPI PUSH1 0x20 PUSH2 0x1D99 PUSH2 0x1D8B CALLDATASIZE PUSH1 0x4 DUP7 ADD PUSH2 0x27C6 JUMP JUMPDEST PUSH2 0x1D93 PUSH2 0x2828 JUMP JUMPDEST SWAP1 PUSH2 0x2BE1 JUMP JUMPDEST PUSH1 0x40 MLOAD SWAP1 ISZERO ISZERO DUP2 MSTORE RETURN JUMPDEST POP CALLVALUE PUSH2 0x1E5 JUMPI PUSH1 0x20 CALLDATASIZE PUSH1 0x3 NOT ADD SLT PUSH2 0x1E5 JUMPI PUSH1 0x4 CALLDATALOAD PUSH8 0xFFFFFFFFFFFFFFFF DUP2 GT PUSH2 0x928 JUMPI CALLDATASIZE PUSH1 0x23 DUP3 ADD SLT ISZERO PUSH2 0x928 JUMPI DUP1 PUSH1 0x4 ADD CALLDATALOAD PUSH8 0xFFFFFFFFFFFFFFFF DUP2 GT PUSH2 0x325 JUMPI CALLDATASIZE PUSH1 0x24 DUP3 PUSH1 0x5 SHL DUP5 ADD ADD GT PUSH2 0x325 JUMPI SWAP1 DUP3 CALLER DUP5 MSTORE PUSH1 0x11 PUSH1 0x20 MSTORE PUSH1 0x40 DUP5 KECCAK256 SWAP2 DUP5 SWAP1 PUSH1 0x3 DUP5 ADD SWAP2 JUMPDEST DUP6 DUP2 LT ISZERO PUSH2 0x1ED0 JUMPI PUSH1 0x24 DUP2 PUSH1 0x5 SHL DUP4 ADD ADD CALLDATALOAD PUSH1 0x15 SLOAD DUP2 LT ISZERO PUSH2 0x1ECC JUMPI PUSH1 0xFF PUSH2 0x1E34 DUP3 DUP7 PUSH2 0x2A99 JUMP JUMPDEST SWAP1 SLOAD SWAP1 PUSH1 0x3 SHL SHR AND ISZERO DUP1 PUSH2 0x1EB3 JUMPI JUMPDEST PUSH2 0x1E51 JUMPI JUMPDEST POP PUSH1 0x1 ADD PUSH2 0x1E0C JUMP JUMPDEST PUSH1 0x1 SWAP2 SWAP5 PUSH2 0x1EA6 PUSH2 0x1E9D DUP4 PUSH2 0x1E83 PUSH2 0x1E6C PUSH2 0x1EAC SWAP7 DUP11 PUSH2 0x2A99 JUMP JUMPDEST DUP2 SWAP3 SWAP2 SLOAD SWAP1 PUSH1 0x3 SHL SWAP1 PUSH1 0xFF PUSH1 0x1 DUP4 SHL SWAP3 SHL NOT AND OR SWAP1 JUMP JUMPDEST SWAP1 SSTORE PUSH2 0x1E90 DUP11 SLOAD SWAP2 PUSH2 0x28B5 JUMP JUMPDEST SWAP1 SLOAD SWAP1 PUSH1 0x3 SHL SHR SWAP1 PUSH2 0x2AB9 JUMP JUMPDEST PUSH1 0x16 SLOAD SWAP1 PUSH2 0x2ACC JUMP JUMPDEST SWAP1 PUSH2 0x2A76 JUMP JUMPDEST SWAP4 SWAP1 PUSH2 0x1E48 JUMP JUMPDEST POP PUSH2 0x1EBD DUP2 PUSH2 0x2884 JUMP JUMPDEST SWAP1 SLOAD SWAP1 PUSH1 0x3 SHL SHR TIMESTAMP LT ISZERO PUSH2 0x1E43 JUMP JUMPDEST DUP8 DUP1 REVERT JUMPDEST DUP7 DUP5 DUP1 PUSH2 0x1EDB JUMPI POP DUP1 RETURN JUMPDEST PUSH2 0x17C9 DUP2 PUSH2 0x1F15 PUSH32 0x6352C5382C4A4578E712449CA65E83CDB392D045DFCF1CAD9615189DB2DA244B SWAP4 CALLER PUSH1 0x1 DUP1 PUSH1 0xA0 SHL SUB PUSH1 0x3 SLOAD AND PUSH2 0x2D65 JUMP JUMPDEST PUSH1 0x40 DUP1 MLOAD CALLER DUP2 MSTORE PUSH1 0x20 DUP2 ADD SWAP3 SWAP1 SWAP3 MSTORE SWAP1 SWAP2 DUP3 SWAP2 DUP3 ADD SWAP1 JUMP JUMPDEST POP CALLVALUE PUSH2 0x1E5 JUMPI DUP1 PUSH1 0x3 NOT CALLDATASIZE ADD SLT PUSH2 0x1E5 JUMPI PUSH2 0x1C0 PUSH1 0x3 SLOAD PUSH1 0x1 DUP1 PUSH1 0xA0 SHL SUB PUSH1 0x4 SLOAD AND PUSH1 0x5 SLOAD PUSH1 0x6 SLOAD PUSH1 0x7 SLOAD PUSH1 0x8 SLOAD PUSH1 0x9 SLOAD SWAP2 PUSH1 0xA SLOAD SWAP4 PUSH1 0xB SLOAD SWAP6 PUSH1 0xC SLOAD SWAP8 PUSH1 0xFF PUSH1 0x40 MLOAD SWAP11 PUSH1 0x1 DUP1 PUSH1 0xA0 SHL SUB DUP2 AND DUP13 MSTORE DUP2 DUP2 PUSH1 0xA0 SHR AND ISZERO ISZERO PUSH1 0x20 DUP14 ADD MSTORE DUP2 DUP2 PUSH1 0xA8 SHR AND ISZERO ISZERO PUSH1 0x40 DUP14 ADD MSTORE DUP2 DUP2 PUSH1 0xB0 SHR AND ISZERO ISZERO PUSH1 0x60 DUP14 ADD MSTORE PUSH1 0xB8 SHR AND ISZERO ISZERO PUSH1 0x80 DUP12 ADD MSTORE PUSH1 0xA0 DUP11 ADD MSTORE PUSH1 0xC0 DUP10 ADD MSTORE PUSH1 0xE0 DUP9 ADD MSTORE PUSH2 0x100 DUP8 ADD MSTORE PUSH2 0x120 DUP7 ADD MSTORE PUSH2 0x140 DUP6 ADD MSTORE PUSH2 0x160 DUP5 ADD MSTORE PUSH2 0x180 DUP4 ADD MSTORE PUSH2 0x1A0 DUP3 ADD MSTORE RETURN JUMPDEST POP CALLVALUE PUSH2 0x1E5 JUMPI PUSH1 0x20 CALLDATASIZE PUSH1 0x3 NOT ADD SLT PUSH2 0x1E5 JUMPI PUSH1 0x40 SWAP1 PUSH1 0x1 PUSH1 0x1 PUSH1 0xA0 SHL SUB PUSH2 0x2008 PUSH2 0x2812 JUMP JUMPDEST AND DUP2 MSTORE PUSH1 0x11 PUSH1 0x20 MSTORE KECCAK256 DUP1 SLOAD PUSH2 0x628 PUSH1 0x2 PUSH1 0x1 DUP5 ADD SLOAD SWAP4 ADD SLOAD PUSH1 0x40 MLOAD SWAP4 DUP5 SWAP4 DUP5 PUSH1 0x40 SWAP2 SWAP5 SWAP4 SWAP3 PUSH1 0x60 DUP3 ADD SWAP6 DUP3 MSTORE PUSH1 0x20 DUP3 ADD MSTORE ADD MSTORE JUMP JUMPDEST POP CALLVALUE PUSH2 0x1E5 JUMPI PUSH1 0x20 CALLDATASIZE PUSH1 0x3 NOT ADD SLT PUSH2 0x1E5 JUMPI PUSH1 0x4 CALLDATALOAD PUSH1 0x24 PUSH1 0x20 PUSH1 0x1 DUP1 PUSH1 0xA0 SHL SUB PUSH1 0x2 SLOAD AND PUSH1 0x40 MLOAD SWAP3 DUP4 DUP1 SWAP3 PUSH4 0x935E01B PUSH1 0xE2 SHL DUP3 MSTORE CALLER PUSH1 0x4 DUP4 ADD MSTORE GAS STATICCALL DUP1 ISZERO PUSH2 0x15AD JUMPI PUSH2 0x2090 SWAP2 DUP5 SWAP2 PUSH2 0x53B JUMPI POP PUSH2 0x29DB JUMP JUMPDEST PUSH1 0xE SLOAD SWAP1 PUSH2 0x209E DUP2 DUP4 PUSH2 0x2A76 JUMP JUMPDEST PUSH1 0x9 SLOAD GT ISZERO PUSH2 0x20B6 JUMPI PUSH2 0x20B0 SWAP2 PUSH2 0x2A76 JUMP JUMPDEST PUSH1 0xE SSTORE DUP1 RETURN JUMPDEST PUSH1 0x40 MLOAD PUSH3 0x461BCD PUSH1 0xE5 SHL DUP2 MSTORE PUSH1 0x20 PUSH1 0x4 DUP3 ADD MSTORE PUSH1 0x29 PUSH1 0x24 DUP3 ADD MSTORE PUSH32 0x526567697374726174696F6E20706572696F64206F766572666C6F7773207361 PUSH1 0x44 DUP3 ADD MSTORE PUSH9 0x36329039BA30B93A17 PUSH1 0xB9 SHL PUSH1 0x64 DUP3 ADD MSTORE PUSH1 0x84 SWAP1 REVERT JUMPDEST POP CALLVALUE PUSH2 0x1E5 JUMPI PUSH1 0x20 PUSH2 0x2127 PUSH2 0x2121 CALLDATASIZE PUSH2 0x283E JUMP JUMPDEST SWAP2 PUSH2 0x2B66 JUMP JUMPDEST PUSH1 0x40 MLOAD PUSH1 0x1 PUSH1 0x1 PUSH1 0xA0 SHL SUB SWAP1 SWAP2 AND DUP2 MSTORE RETURN JUMPDEST POP CALLVALUE PUSH2 0x1E5 JUMPI PUSH1 0x20 PUSH2 0x1D99 PUSH2 0x214D CALLDATASIZE PUSH2 0x283E JUMP JUMPDEST SWAP2 PUSH2 0x2AEC JUMP JUMPDEST POP CALLVALUE PUSH2 0x1E5 JUMPI PUSH1 0x20 CALLDATASIZE PUSH1 0x3 NOT ADD SLT PUSH2 0x1E5 JUMPI PUSH1 0x4 CALLDATALOAD PUSH1 0x24 PUSH1 0x20 PUSH1 0x1 DUP1 PUSH1 0xA0 SHL SUB PUSH1 0x2 SLOAD AND PUSH1 0x40 MLOAD SWAP3 DUP4 DUP1 SWAP3 PUSH4 0x935E01B PUSH1 0xE2 SHL DUP3 MSTORE CALLER PUSH1 0x4 DUP4 ADD MSTORE GAS STATICCALL DUP1 ISZERO PUSH2 0x15AD JUMPI PUSH2 0x21A6 SWAP2 DUP5 SWAP2 PUSH2 0x53B JUMPI POP PUSH2 0x29DB JUMP JUMPDEST PUSH2 0x21B3 PUSH1 0x9 SLOAD TIMESTAMP LT PUSH2 0x2A32 JUMP JUMPDEST DUP1 ISZERO PUSH2 0x21EB JUMPI PUSH1 0x20 DUP2 PUSH32 0x37CFB0744BDB923D0300A0C37FAC13CFEC5FC2EE313CB9B217D284122980BADA SWAP3 PUSH1 0xC SSTORE PUSH1 0x40 MLOAD SWAP1 DUP2 MSTORE LOG1 DUP1 RETURN JUMPDEST PUSH1 0x64 PUSH1 0x40 MLOAD PUSH3 0x461BCD PUSH1 0xE5 SHL DUP2 MSTORE PUSH1 0x20 PUSH1 0x4 DUP3 ADD MSTORE PUSH1 0x20 PUSH1 0x24 DUP3 ADD MSTORE PUSH32 0x43616E277420736574206D61782070617274696369706174696F6E20746F2030 PUSH1 0x44 DUP3 ADD MSTORE REVERT JUMPDEST POP CALLVALUE PUSH2 0x1E5 JUMPI DUP1 PUSH1 0x3 NOT CALLDATASIZE ADD SLT PUSH2 0x1E5 JUMPI PUSH1 0xD SLOAD PUSH1 0xE SLOAD PUSH1 0xF SLOAD PUSH1 0x40 DUP1 MLOAD SWAP4 DUP5 MSTORE PUSH1 0x20 DUP5 ADD SWAP3 SWAP1 SWAP3 MSTORE SWAP1 DUP3 ADD MSTORE PUSH1 0x60 SWAP1 RETURN JUMPDEST POP CALLVALUE PUSH2 0x1E5 JUMPI PUSH1 0x20 CALLDATASIZE PUSH1 0x3 NOT ADD SLT PUSH2 0x1E5 JUMPI PUSH1 0x4 CALLDATALOAD PUSH1 0xB SLOAD TIMESTAMP LT PUSH2 0x23A4 JUMPI PUSH1 0x15 SLOAD DUP2 LT ISZERO PUSH2 0x235F JUMPI CALLER DUP3 MSTORE PUSH1 0x11 PUSH1 0x20 MSTORE PUSH1 0x40 DUP3 KECCAK256 PUSH1 0x3 DUP2 ADD SWAP2 PUSH1 0xFF PUSH2 0x22A6 DUP3 DUP6 PUSH2 0x2A99 JUMP JUMPDEST SWAP1 SLOAD SWAP1 PUSH1 0x3 SHL SHR AND ISZERO DUP1 PUSH2 0x2346 JUMPI JUMPDEST ISZERO PUSH2 0x22E3 JUMPI PUSH2 0x1E90 PUSH2 0x1E9D SWAP3 PUSH2 0x22D1 PUSH2 0x1E6C DUP5 PUSH2 0x22DA SWAP8 PUSH2 0x2A99 JUMP JUMPDEST SWAP1 SSTORE SLOAD SWAP2 PUSH2 0x28B5 JUMP JUMPDEST DUP1 PUSH2 0x1EDB JUMPI POP DUP1 RETURN JUMPDEST PUSH1 0x40 MLOAD PUSH3 0x461BCD PUSH1 0xE5 SHL DUP2 MSTORE PUSH1 0x20 PUSH1 0x4 DUP3 ADD MSTORE PUSH1 0x35 PUSH1 0x24 DUP3 ADD MSTORE PUSH32 0x546F6B656E7320616C72656164792077697468647261776E206F7220706F7274 PUSH1 0x44 DUP3 ADD MSTORE PUSH21 0x34B7B7103737BA103AB73637B1B5B2B2103CB2BA17 PUSH1 0x59 SHL PUSH1 0x64 DUP3 ADD MSTORE PUSH1 0x84 SWAP1 REVERT JUMPDEST POP PUSH2 0x2350 DUP2 PUSH2 0x2884 JUMP JUMPDEST TIMESTAMP SWAP2 SLOAD SWAP1 PUSH1 0x3 SHL SHR GT ISZERO PUSH2 0x22B5 JUMP JUMPDEST PUSH1 0x40 MLOAD PUSH3 0x461BCD PUSH1 0xE5 SHL DUP2 MSTORE PUSH1 0x20 PUSH1 0x4 DUP3 ADD MSTORE PUSH1 0x18 PUSH1 0x24 DUP3 ADD MSTORE PUSH32 0x506F7274696F6E206964206F7574206F662072616E67652E0000000000000000 PUSH1 0x44 DUP3 ADD MSTORE PUSH1 0x64 SWAP1 REVERT JUMPDEST PUSH1 0x64 PUSH1 0x40 MLOAD PUSH3 0x461BCD PUSH1 0xE5 SHL DUP2 MSTORE PUSH1 0x20 PUSH1 0x4 DUP3 ADD MSTORE PUSH1 0x20 PUSH1 0x24 DUP3 ADD MSTORE PUSH32 0x546F6B656E732063616E206E6F742062652077697468647261776E207965742E PUSH1 0x44 DUP3 ADD MSTORE REVERT JUMPDEST POP CALLVALUE PUSH2 0x1E5 JUMPI PUSH1 0x20 CALLDATASIZE PUSH1 0x3 NOT ADD SLT PUSH2 0x1E5 JUMPI PUSH1 0x4 CALLDATALOAD PUSH1 0x24 PUSH1 0x20 PUSH1 0x1 DUP1 PUSH1 0xA0 SHL SUB PUSH1 0x2 SLOAD AND PUSH1 0x40 MLOAD SWAP3 DUP4 DUP1 SWAP3 PUSH4 0x935E01B PUSH1 0xE2 SHL DUP3 MSTORE CALLER PUSH1 0x4 DUP4 ADD MSTORE GAS STATICCALL DUP1 ISZERO PUSH2 0x15AD JUMPI PUSH2 0x243B SWAP2 DUP5 SWAP2 PUSH2 0x53B JUMPI POP PUSH2 0x29DB JUMP JUMPDEST PUSH1 0xFF PUSH1 0x3 SLOAD PUSH1 0xA0 SHR AND ISZERO PUSH2 0x25FA JUMPI PUSH1 0x9 SLOAD PUSH2 0x25A6 JUMPI PUSH1 0xE SLOAD DUP2 GT ISZERO PUSH2 0x2544 JUMPI PUSH1 0xA SLOAD DUP2 LT ISZERO PUSH2 0x24EE JUMPI TIMESTAMP DUP2 LT PUSH2 0x249D JUMPI PUSH1 0x20 DUP2 PUSH32 0xAAD53C4362EF2FE5A5390CC046E71FD8423A0A8DCEEBC156AC9BBCD15997EEC2 SWAP3 PUSH1 0x9 SSTORE PUSH1 0x40 MLOAD SWAP1 DUP2 MSTORE LOG1 DUP1 RETURN JUMPDEST PUSH1 0x40 MLOAD PUSH3 0x461BCD PUSH1 0xE5 SHL DUP2 MSTORE PUSH1 0x20 PUSH1 0x4 DUP3 ADD MSTORE PUSH1 0x23 PUSH1 0x24 DUP3 ADD MSTORE PUSH32 0x73746172742074696D652073686F756C6420626520696E207468652066757475 PUSH1 0x44 DUP3 ADD MSTORE PUSH3 0x393297 PUSH1 0xE9 SHL PUSH1 0x64 DUP3 ADD MSTORE PUSH1 0x84 SWAP1 REVERT JUMPDEST PUSH1 0x40 MLOAD PUSH3 0x461BCD PUSH1 0xE5 SHL DUP2 MSTORE PUSH1 0x20 PUSH1 0x4 DUP3 ADD MSTORE PUSH1 0x28 PUSH1 0x24 DUP3 ADD MSTORE PUSH32 0x73746172742074696D652073686F756C64206C657373207468616E2073616C65 PUSH1 0x44 DUP3 ADD MSTORE PUSH8 0x456E642074696D65 PUSH1 0xC0 SHL PUSH1 0x64 DUP3 ADD MSTORE PUSH1 0x84 SWAP1 REVERT JUMPDEST PUSH1 0x40 MLOAD PUSH3 0x461BCD PUSH1 0xE5 SHL DUP2 MSTORE PUSH1 0x20 PUSH1 0x4 DUP3 ADD MSTORE PUSH1 0x34 PUSH1 0x24 DUP3 ADD MSTORE PUSH32 0x73746172742074696D652073686F756C642067726561746572207468616E2072 PUSH1 0x44 DUP3 ADD MSTORE PUSH20 0x32B3B4B9BA3930BA34B7B72A34B6B2A2B7323997 PUSH1 0x61 SHL PUSH1 0x64 DUP3 ADD MSTORE PUSH1 0x84 SWAP1 REVERT JUMPDEST PUSH1 0x40 MLOAD PUSH3 0x461BCD PUSH1 0xE5 SHL DUP2 MSTORE PUSH1 0x20 PUSH1 0x4 DUP3 ADD MSTORE PUSH1 0x26 PUSH1 0x24 DUP3 ADD MSTORE PUSH32 0x73657453616C6553746172743A207374617254696D652069732073657420616C PUSH1 0x44 DUP3 ADD MSTORE PUSH6 0x3932B0B23C97 PUSH1 0xD1 SHL PUSH1 0x64 DUP3 ADD MSTORE PUSH1 0x84 SWAP1 REVERT JUMPDEST PUSH1 0x40 MLOAD PUSH3 0x461BCD PUSH1 0xE5 SHL DUP2 MSTORE PUSH1 0x20 PUSH1 0x4 DUP3 ADD MSTORE PUSH1 0x14 PUSH1 0x24 DUP3 ADD MSTORE PUSH20 0x39B0B6329034B9903737BA1031B932B0BA32B217 PUSH1 0x61 SHL PUSH1 0x44 DUP3 ADD MSTORE PUSH1 0x64 SWAP1 REVERT JUMPDEST POP CALLVALUE PUSH2 0x1E5 JUMPI DUP1 PUSH1 0x3 NOT CALLDATASIZE ADD SLT PUSH2 0x1E5 JUMPI PUSH1 0x20 PUSH1 0x16 SLOAD PUSH1 0x40 MLOAD SWAP1 DUP2 MSTORE RETURN JUMPDEST POP CALLVALUE PUSH2 0x1E5 JUMPI PUSH1 0x20 CALLDATASIZE PUSH1 0x3 NOT ADD SLT PUSH2 0x1E5 JUMPI PUSH1 0x24 PUSH1 0x4 CALLDATALOAD PUSH1 0x20 PUSH1 0x1 DUP1 PUSH1 0xA0 SHL SUB PUSH1 0x2 SLOAD AND PUSH1 0x40 MLOAD SWAP4 DUP5 DUP1 SWAP3 PUSH4 0x935E01B PUSH1 0xE2 SHL DUP3 MSTORE CALLER PUSH1 0x4 DUP4 ADD MSTORE GAS STATICCALL SWAP2 DUP3 ISZERO PUSH2 0x15AD JUMPI PUSH2 0x26CC SWAP3 PUSH2 0x26AC SWAP2 DUP6 SWAP2 PUSH2 0x53B JUMPI POP PUSH2 0x29DB JUMP JUMPDEST PUSH2 0x26C3 DUP2 PUSH1 0x9 SLOAD PUSH2 0x26BE DUP2 TIMESTAMP LT PUSH2 0x2A32 JUMP JUMPDEST PUSH2 0x2A76 JUMP JUMPDEST DUP1 PUSH1 0x9 SSTORE PUSH2 0x2A76 JUMP JUMPDEST PUSH1 0xA SLOAD GT ISZERO PUSH2 0x26D8 JUMPI DUP1 RETURN JUMPDEST PUSH1 0x40 MLOAD PUSH3 0x461BCD PUSH1 0xE5 SHL DUP2 MSTORE PUSH1 0x20 PUSH1 0x4 DUP3 ADD MSTORE PUSH1 0x2C PUSH1 0x24 DUP3 ADD MSTORE PUSH32 0x53746172742074696D652063616E206E6F742062652067726561746572207468 PUSH1 0x44 DUP3 ADD MSTORE PUSH12 0x30B71032B732103A34B6B297 PUSH1 0xA1 SHL PUSH1 0x64 DUP3 ADD MSTORE PUSH1 0x84 SWAP1 REVERT JUMPDEST SWAP1 POP CALLVALUE PUSH2 0x928 JUMPI DUP2 PUSH1 0x3 NOT CALLDATASIZE ADD SLT PUSH2 0x928 JUMPI SWAP1 SLOAD PUSH1 0x1 PUSH1 0x1 PUSH1 0xA0 SHL SUB AND DUP2 MSTORE PUSH1 0x20 SWAP1 RETURN JUMPDEST PUSH1 0x80 DUP2 ADD SWAP1 DUP2 LT PUSH8 0xFFFFFFFFFFFFFFFF DUP3 GT OR PUSH2 0x2772 JUMPI PUSH1 0x40 MSTORE JUMP JUMPDEST PUSH4 0x4E487B71 PUSH1 0xE0 SHL PUSH1 0x0 MSTORE PUSH1 0x41 PUSH1 0x4 MSTORE PUSH1 0x24 PUSH1 0x0 REVERT JUMPDEST SWAP1 PUSH1 0x1F DUP1 NOT SWAP2 ADD AND DUP2 ADD SWAP1 DUP2 LT PUSH8 0xFFFFFFFFFFFFFFFF DUP3 GT OR PUSH2 0x2772 JUMPI PUSH1 0x40 MSTORE JUMP JUMPDEST PUSH8 0xFFFFFFFFFFFFFFFF DUP2 GT PUSH2 0x2772 JUMPI PUSH1 0x1F ADD PUSH1 0x1F NOT AND PUSH1 0x20 ADD SWAP1 JUMP JUMPDEST DUP2 PUSH1 0x1F DUP3 ADD SLT ISZERO PUSH2 0x280D JUMPI DUP1 CALLDATALOAD SWAP1 PUSH2 0x27DD DUP3 PUSH2 0x27AA JUMP JUMPDEST SWAP3 PUSH2 0x27EB PUSH1 0x40 MLOAD SWAP5 DUP6 PUSH2 0x2788 JUMP JUMPDEST DUP3 DUP5 MSTORE PUSH1 0x20 DUP4 DUP4 ADD ADD GT PUSH2 0x280D JUMPI DUP2 PUSH1 0x0 SWAP3 PUSH1 0x20 DUP1 SWAP4 ADD DUP4 DUP7 ADD CALLDATACOPY DUP4 ADD ADD MSTORE SWAP1 JUMP JUMPDEST PUSH1 0x0 DUP1 REVERT JUMPDEST PUSH1 0x4 CALLDATALOAD SWAP1 PUSH1 0x1 PUSH1 0x1 PUSH1 0xA0 SHL SUB DUP3 AND DUP3 SUB PUSH2 0x280D JUMPI JUMP JUMPDEST PUSH1 0x24 CALLDATALOAD SWAP1 PUSH1 0x1 PUSH1 0x1 PUSH1 0xA0 SHL SUB DUP3 AND DUP3 SUB PUSH2 0x280D JUMPI JUMP JUMPDEST PUSH1 0x60 PUSH1 0x3 NOT DUP3 ADD SLT PUSH2 0x280D JUMPI PUSH1 0x4 CALLDATALOAD SWAP1 PUSH8 0xFFFFFFFFFFFFFFFF DUP3 GT PUSH2 0x280D JUMPI PUSH2 0x2869 SWAP2 PUSH1 0x4 ADD PUSH2 0x27C6 JUMP JUMPDEST SWAP1 PUSH1 0x24 CALLDATALOAD PUSH1 0x1 PUSH1 0x1 PUSH1 0xA0 SHL SUB DUP2 AND DUP2 SUB PUSH2 0x280D JUMPI SWAP1 PUSH1 0x44 CALLDATALOAD SWAP1 JUMP JUMPDEST PUSH1 0x14 SLOAD DUP2 LT ISZERO PUSH2 0x289F JUMPI PUSH1 0x14 PUSH1 0x0 MSTORE PUSH1 0x20 PUSH1 0x0 KECCAK256 ADD SWAP1 PUSH1 0x0 SWAP1 JUMP JUMPDEST PUSH4 0x4E487B71 PUSH1 0xE0 SHL PUSH1 0x0 MSTORE PUSH1 0x32 PUSH1 0x4 MSTORE PUSH1 0x24 PUSH1 0x0 REVERT JUMPDEST PUSH1 0x15 SLOAD DUP2 LT ISZERO PUSH2 0x289F JUMPI PUSH1 0x15 PUSH1 0x0 MSTORE PUSH1 0x20 PUSH1 0x0 KECCAK256 ADD SWAP1 PUSH1 0x0 SWAP1 JUMP JUMPDEST DUP1 SLOAD DUP3 LT ISZERO PUSH2 0x289F JUMPI PUSH1 0x0 MSTORE PUSH1 0x20 PUSH1 0x0 KECCAK256 ADD SWAP1 PUSH1 0x0 SWAP1 JUMP JUMPDEST PUSH1 0x40 PUSH1 0x3 NOT DUP3 ADD SLT PUSH2 0x280D JUMPI PUSH1 0x4 CALLDATALOAD SWAP1 PUSH8 0xFFFFFFFFFFFFFFFF DUP3 GT PUSH2 0x280D JUMPI PUSH2 0x2913 SWAP2 PUSH1 0x4 ADD PUSH2 0x27C6 JUMP JUMPDEST SWAP1 PUSH1 0x24 CALLDATALOAD SWAP1 JUMP JUMPDEST PUSH8 0xFFFFFFFFFFFFFFFF DUP2 GT PUSH2 0x2772 JUMPI PUSH1 0x5 SHL PUSH1 0x20 ADD SWAP1 JUMP JUMPDEST SWAP1 DUP1 PUSH1 0x1F DUP4 ADD SLT ISZERO PUSH2 0x280D JUMPI DUP2 CALLDATALOAD PUSH2 0x2949 DUP2 PUSH2 0x291A JUMP JUMPDEST SWAP3 PUSH2 0x2957 PUSH1 0x40 MLOAD SWAP5 DUP6 PUSH2 0x2788 JUMP JUMPDEST DUP2 DUP5 MSTORE PUSH1 0x20 DUP1 DUP6 ADD SWAP3 PUSH1 0x5 SHL DUP3 ADD ADD SWAP3 DUP4 GT PUSH2 0x280D JUMPI PUSH1 0x20 ADD SWAP1 JUMPDEST DUP3 DUP3 LT PUSH2 0x297F JUMPI POP POP POP SWAP1 JUMP JUMPDEST DUP2 CALLDATALOAD DUP2 MSTORE PUSH1 0x20 SWAP2 DUP3 ADD SWAP2 ADD PUSH2 0x2972 JUMP JUMPDEST SWAP1 PUSH1 0x20 DUP1 DUP4 MLOAD SWAP3 DUP4 DUP2 MSTORE ADD SWAP3 ADD SWAP1 PUSH1 0x0 JUMPDEST DUP2 DUP2 LT PUSH2 0x29AD JUMPI POP POP POP SWAP1 JUMP JUMPDEST DUP3 MLOAD DUP5 MSTORE PUSH1 0x20 SWAP4 DUP5 ADD SWAP4 SWAP1 SWAP3 ADD SWAP2 PUSH1 0x1 ADD PUSH2 0x29A0 JUMP JUMPDEST SWAP1 DUP2 PUSH1 0x20 SWAP2 SUB SLT PUSH2 0x280D JUMPI MLOAD DUP1 ISZERO ISZERO DUP2 SUB PUSH2 0x280D JUMPI SWAP1 JUMP JUMPDEST ISZERO PUSH2 0x29E2 JUMPI JUMP JUMPDEST PUSH1 0x40 MLOAD PUSH3 0x461BCD PUSH1 0xE5 SHL DUP2 MSTORE PUSH1 0x20 PUSH1 0x4 DUP3 ADD MSTORE PUSH1 0x22 PUSH1 0x24 DUP3 ADD MSTORE PUSH32 0x4F6E6C792061646D696E2063616E2063616C6C20746869732066756E6374696F PUSH1 0x44 DUP3 ADD MSTORE PUSH2 0x3717 PUSH1 0xF1 SHL PUSH1 0x64 DUP3 ADD MSTORE PUSH1 0x84 SWAP1 REVERT JUMPDEST ISZERO PUSH2 0x2A39 JUMPI JUMP JUMPDEST PUSH1 0x40 MLOAD PUSH3 0x461BCD PUSH1 0xE5 SHL DUP2 MSTORE PUSH1 0x20 PUSH1 0x4 DUP3 ADD MSTORE PUSH1 0x15 PUSH1 0x24 DUP3 ADD MSTORE PUSH21 0x39B0B6329030B63932B0B23C9039BA30B93A32B217 PUSH1 0x59 SHL PUSH1 0x44 DUP3 ADD MSTORE PUSH1 0x64 SWAP1 REVERT JUMPDEST SWAP2 SWAP1 DUP3 ADD DUP1 SWAP3 GT PUSH2 0x2A83 JUMPI JUMP JUMPDEST PUSH4 0x4E487B71 PUSH1 0xE0 SHL PUSH1 0x0 MSTORE PUSH1 0x11 PUSH1 0x4 MSTORE PUSH1 0x24 PUSH1 0x0 REVERT JUMPDEST SWAP2 SWAP1 SWAP2 DUP1 SLOAD DUP4 LT ISZERO PUSH2 0x289F JUMPI PUSH1 0x0 MSTORE PUSH1 0x1F PUSH1 0x20 PUSH1 0x0 KECCAK256 DUP4 PUSH1 0x5 SHR ADD SWAP3 AND SWAP1 JUMP JUMPDEST DUP2 DUP2 MUL SWAP3 SWAP2 DUP2 ISZERO SWAP2 DUP5 DIV EQ OR ISZERO PUSH2 0x2A83 JUMPI JUMP JUMPDEST DUP2 ISZERO PUSH2 0x2AD6 JUMPI DIV SWAP1 JUMP JUMPDEST PUSH4 0x4E487B71 PUSH1 0xE0 SHL PUSH1 0x0 MSTORE PUSH1 0x12 PUSH1 0x4 MSTORE PUSH1 0x24 PUSH1 0x0 REVERT JUMPDEST PUSH1 0x2 SLOAD PUSH1 0x1 PUSH1 0x1 PUSH1 0xA0 SHL SUB AND SWAP3 PUSH1 0x20 SWAP3 PUSH2 0x2B05 SWAP3 PUSH2 0x2B66 JUMP JUMPDEST PUSH1 0x40 MLOAD PUSH4 0x935E01B PUSH1 0xE2 SHL DUP2 MSTORE PUSH1 0x1 PUSH1 0x1 PUSH1 0xA0 SHL SUB SWAP1 SWAP2 AND PUSH1 0x4 DUP3 ADD MSTORE SWAP2 DUP3 SWAP1 PUSH1 0x24 SWAP1 DUP3 SWAP1 GAS STATICCALL SWAP1 DUP2 ISZERO PUSH2 0x2B5A JUMPI PUSH1 0x0 SWAP2 PUSH2 0x2B3E JUMPI POP SWAP1 JUMP JUMPDEST PUSH2 0x2B57 SWAP2 POP PUSH1 0x20 RETURNDATASIZE PUSH1 0x20 GT PUSH2 0x563 JUMPI PUSH2 0x555 DUP2 DUP4 PUSH2 0x2788 JUMP JUMPDEST SWAP1 JUMP JUMPDEST PUSH1 0x40 MLOAD RETURNDATASIZE PUSH1 0x0 DUP3 RETURNDATACOPY RETURNDATASIZE SWAP1 REVERT JUMPDEST PUSH2 0x2BD8 SWAP2 PUSH2 0x2B57 SWAP4 PUSH1 0x40 MLOAD SWAP1 PUSH1 0x20 DUP3 ADD SWAP3 PUSH1 0x1 PUSH1 0x1 PUSH1 0x60 SHL SUB NOT SWAP1 PUSH1 0x60 SHL AND DUP4 MSTORE PUSH1 0x34 DUP3 ADD MSTORE ADDRESS PUSH1 0x60 SHL PUSH1 0x54 DUP3 ADD MSTORE PUSH1 0x48 DUP2 MSTORE PUSH2 0x2BA4 PUSH1 0x68 DUP3 PUSH2 0x2788 JUMP JUMPDEST MLOAD SWAP1 KECCAK256 PUSH32 0x19457468657265756D205369676E6564204D6573736167653A0A333200000000 PUSH1 0x0 MSTORE PUSH1 0x1C MSTORE PUSH1 0x3C PUSH1 0x0 KECCAK256 PUSH2 0x2FD4 JUMP JUMPDEST SWAP1 SWAP3 SWAP2 SWAP3 PUSH2 0x3010 JUMP JUMPDEST SWAP1 PUSH1 0x40 MLOAD PUSH1 0x20 DUP2 ADD SWAP2 PUSH1 0x1 PUSH1 0x1 PUSH1 0x60 SHL SUB NOT SWAP1 PUSH1 0x60 SHL AND DUP3 MSTORE ADDRESS PUSH1 0x60 SHL PUSH1 0x34 DUP3 ADD MSTORE PUSH1 0x28 DUP2 MSTORE PUSH2 0x2C12 PUSH1 0x48 DUP3 PUSH2 0x2788 JUMP JUMPDEST MLOAD SWAP1 KECCAK256 PUSH32 0x19457468657265756D205369676E6564204D6573736167653A0A333200000000 PUSH1 0x0 MSTORE PUSH1 0x1C MSTORE PUSH1 0x20 PUSH2 0x2B05 PUSH2 0x2BD8 PUSH1 0x3C PUSH1 0x0 KECCAK256 SWAP4 PUSH1 0x1 DUP1 PUSH1 0xA0 SHL SUB PUSH1 0x2 SLOAD AND SWAP5 PUSH2 0x2FD4 JUMP JUMPDEST ISZERO PUSH2 0x2C62 JUMPI JUMP JUMPDEST PUSH1 0x40 MLOAD PUSH3 0x461BCD PUSH1 0xE5 SHL DUP2 MSTORE PUSH1 0x20 PUSH1 0x4 DUP3 ADD MSTORE PUSH1 0x1A PUSH1 0x24 DUP3 ADD MSTORE PUSH32 0x4F6E6C7953616C654F776E65723A3A2052657374726963746564000000000000 PUSH1 0x44 DUP3 ADD MSTORE PUSH1 0x64 SWAP1 REVERT JUMPDEST DUP1 ISZERO PUSH2 0x2D3C JUMPI PUSH1 0x0 SWAP1 PUSH1 0x20 DUP2 LT PUSH1 0x1 AND PUSH1 0x4E DUP3 LT PUSH1 0x1 AND OR PUSH2 0x2D34 JUMPI PUSH1 0xA SWAP2 PUSH1 0x1 SWAP2 JUMPDEST PUSH1 0x1 DUP2 GT PUSH2 0x2CF7 JUMPI POP DUP3 PUSH1 0x0 NOT DIV DUP3 GT PUSH2 0x2CE3 JUMPI POP MUL SWAP1 JUMP JUMPDEST PUSH4 0x4E487B71 PUSH1 0xE0 SHL DUP2 MSTORE PUSH1 0x11 PUSH1 0x4 MSTORE PUSH1 0x24 SWAP1 REVERT JUMPDEST SWAP3 DUP1 PUSH1 0x0 NOT DIV DUP2 GT PUSH2 0x2D20 JUMPI PUSH1 0x1 DUP5 AND PUSH2 0x2D17 JUMPI JUMPDEST DUP1 MUL SWAP3 PUSH1 0x1 SHR PUSH2 0x2CCA JUMP JUMPDEST DUP1 SWAP3 MUL SWAP2 PUSH2 0x2D0C JUMP JUMPDEST PUSH4 0x4E487B71 PUSH1 0xE0 SHL DUP3 MSTORE PUSH1 0x11 PUSH1 0x4 MSTORE PUSH1 0x24 DUP3 REVERT JUMPDEST SWAP1 POP PUSH1 0xA EXP SWAP1 JUMP JUMPDEST POP PUSH1 0x1 SWAP1 JUMP JUMPDEST PUSH1 0x0 NOT DUP2 EQ PUSH2 0x2A83 JUMPI PUSH1 0x1 ADD SWAP1 JUMP JUMPDEST DUP1 MLOAD DUP3 LT ISZERO PUSH2 0x289F JUMPI PUSH1 0x20 SWAP2 PUSH1 0x5 SHL ADD ADD SWAP1 JUMP JUMPDEST PUSH1 0x40 MLOAD PUSH4 0xA9059CBB PUSH1 0xE0 SHL PUSH1 0x20 DUP3 ADD MSTORE PUSH1 0x1 PUSH1 0x1 PUSH1 0xA0 SHL SUB SWAP3 SWAP1 SWAP3 AND PUSH1 0x24 DUP4 ADD MSTORE PUSH1 0x44 DUP1 DUP4 ADD SWAP4 SWAP1 SWAP4 MSTORE SWAP2 DUP2 MSTORE PUSH2 0x2DA6 SWAP2 PUSH2 0x2DA1 PUSH1 0x64 DUP4 PUSH2 0x2788 JUMP JUMPDEST PUSH2 0x2F79 JUMP JUMPDEST JUMP JUMPDEST ISZERO PUSH2 0x2DAF JUMPI JUMP JUMPDEST PUSH1 0x40 MLOAD PUSH3 0x461BCD PUSH1 0xE5 SHL DUP2 MSTORE PUSH1 0x20 PUSH1 0x4 DUP3 ADD MSTORE PUSH1 0x16 PUSH1 0x24 DUP3 ADD MSTORE PUSH22 0x39B0B6329034B9903737BA1032B73232B2103CB2BA17 PUSH1 0x51 SHL PUSH1 0x44 DUP3 ADD MSTORE PUSH1 0x64 SWAP1 REVERT JUMPDEST PUSH2 0x2DFB PUSH1 0xA SLOAD TIMESTAMP LT ISZERO PUSH2 0x2DA8 JUMP JUMPDEST PUSH1 0x3 SLOAD PUSH1 0xFF DUP2 PUSH1 0xB0 SHR AND PUSH2 0x2E48 JUMPI PUSH1 0xFF PUSH1 0xB0 SHL NOT DUP2 AND PUSH1 0x1 PUSH1 0xB0 SHL OR PUSH1 0x3 SSTORE PUSH1 0x6 SLOAD PUSH1 0x7 SLOAD DUP1 DUP3 SUB SWAP2 DUP1 DUP4 GT PUSH2 0x2A83 JUMPI SUB PUSH2 0x2E34 JUMPI POP POP JUMP JUMPDEST PUSH2 0x2DA6 SWAP2 CALLER SWAP1 PUSH1 0x1 PUSH1 0x1 PUSH1 0xA0 SHL SUB AND PUSH2 0x2D65 JUMP JUMPDEST PUSH1 0x40 MLOAD PUSH3 0x461BCD PUSH1 0xE5 SHL DUP2 MSTORE PUSH1 0x20 PUSH1 0x4 DUP3 ADD MSTORE PUSH1 0x23 PUSH1 0x24 DUP3 ADD MSTORE PUSH32 0x6F776E65722063616E2774207769746864726177206C6566746F766572207477 PUSH1 0x44 DUP3 ADD MSTORE PUSH3 0x696365 PUSH1 0xE8 SHL PUSH1 0x64 DUP3 ADD MSTORE PUSH1 0x84 SWAP1 REVERT JUMPDEST PUSH2 0x2EA7 PUSH1 0xA SLOAD TIMESTAMP LT ISZERO PUSH2 0x2DA8 JUMP JUMPDEST PUSH1 0x3 SLOAD PUSH1 0xFF DUP2 PUSH1 0xA8 SHR AND PUSH2 0x2F28 JUMPI PUSH1 0xFF PUSH1 0xA8 SHL NOT AND PUSH1 0x1 PUSH1 0xA8 SHL OR PUSH1 0x3 SSTORE PUSH1 0x8 SLOAD PUSH1 0x40 MLOAD PUSH1 0x20 SWAP2 PUSH1 0x0 SWAP2 DUP3 SWAP2 SWAP1 PUSH2 0x2EDE DUP6 DUP3 PUSH2 0x2788 JUMP JUMPDEST DUP3 DUP2 MSTORE DUP5 DUP2 ADD SWAP1 PUSH1 0x1F NOT DUP7 ADD CALLDATASIZE DUP4 CALLDATACOPY MLOAD SWAP2 CALLER GAS CALL SWAP1 RETURNDATASIZE ISZERO PUSH2 0x2F22 JUMPI PUSH1 0x0 RETURNDATASIZE SWAP2 PUSH2 0x2F06 DUP4 PUSH2 0x27AA JUMP JUMPDEST SWAP3 PUSH2 0x2F14 PUSH1 0x40 MLOAD SWAP5 DUP6 PUSH2 0x2788 JUMP JUMPDEST DUP4 MSTORE RETURNDATASIZE SWAP3 ADD RETURNDATACOPY JUMPDEST ISZERO PUSH2 0x280D JUMPI JUMP JUMPDEST POP PUSH2 0x2F1B JUMP JUMPDEST PUSH1 0x40 MLOAD PUSH3 0x461BCD PUSH1 0xE5 SHL DUP2 MSTORE PUSH1 0x20 PUSH1 0x4 DUP3 ADD MSTORE PUSH1 0x23 PUSH1 0x24 DUP3 ADD MSTORE PUSH32 0x6F776E65722063616E2774207769746864726177206561726E696E6773207477 PUSH1 0x44 DUP3 ADD MSTORE PUSH3 0x696365 PUSH1 0xE8 SHL PUSH1 0x64 DUP3 ADD MSTORE PUSH1 0x84 SWAP1 REVERT JUMPDEST SWAP1 PUSH1 0x0 PUSH1 0x20 SWAP2 DUP3 DUP2 MLOAD SWAP2 ADD DUP3 DUP6 GAS CALL ISZERO PUSH2 0x2B5A JUMPI PUSH1 0x0 MLOAD RETURNDATASIZE PUSH2 0x2FCB JUMPI POP PUSH1 0x1 PUSH1 0x1 PUSH1 0xA0 SHL SUB DUP2 AND EXTCODESIZE ISZERO JUMPDEST PUSH2 0x2FAA JUMPI POP JUMP JUMPDEST PUSH4 0x5274AFE7 PUSH1 0xE0 SHL PUSH1 0x0 SWAP1 DUP2 MSTORE PUSH1 0x1 PUSH1 0x1 PUSH1 0xA0 SHL SUB SWAP2 SWAP1 SWAP2 AND PUSH1 0x4 MSTORE PUSH1 0x24 SWAP1 REVERT JUMPDEST PUSH1 0x1 EQ ISZERO PUSH2 0x2FA3 JUMP JUMPDEST DUP2 MLOAD SWAP2 SWAP1 PUSH1 0x41 DUP4 SUB PUSH2 0x3005 JUMPI PUSH2 0x2FFE SWAP3 POP PUSH1 0x20 DUP3 ADD MLOAD SWAP1 PUSH1 0x60 PUSH1 0x40 DUP5 ADD MLOAD SWAP4 ADD MLOAD PUSH1 0x0 BYTE SWAP1 PUSH2 0x3098 JUMP JUMPDEST SWAP2 SWAP3 SWAP1 SWAP2 SWAP1 JUMP JUMPDEST POP POP PUSH1 0x0 SWAP2 PUSH1 0x2 SWAP2 SWAP1 JUMP JUMPDEST SWAP2 SWAP1 SWAP2 PUSH1 0x4 DUP2 LT ISZERO PUSH2 0x3082 JUMPI DUP1 PUSH2 0x3026 JUMPI POP SWAP1 POP JUMP JUMPDEST PUSH1 0x0 PUSH1 0x1 DUP3 SUB PUSH2 0x3041 JUMPI PUSH4 0xF645EEDF PUSH1 0xE0 SHL PUSH1 0x0 MSTORE PUSH1 0x4 PUSH1 0x0 REVERT JUMPDEST POP PUSH1 0x2 DUP2 SUB PUSH2 0x305F JUMPI DUP3 PUSH4 0xFCE698F7 PUSH1 0xE0 SHL PUSH1 0x0 MSTORE PUSH1 0x4 MSTORE PUSH1 0x24 PUSH1 0x0 REVERT JUMPDEST SWAP1 SWAP2 PUSH1 0x3 PUSH1 0x0 SWAP3 EQ PUSH2 0x306F JUMPI POP POP JUMP JUMPDEST PUSH4 0x35E2F383 PUSH1 0xE2 SHL DUP3 MSTORE PUSH1 0x4 MSTORE PUSH1 0x24 SWAP2 POP REVERT JUMPDEST PUSH4 0x4E487B71 PUSH1 0xE0 SHL PUSH1 0x0 MSTORE PUSH1 0x21 PUSH1 0x4 MSTORE PUSH1 0x24 PUSH1 0x0 REVERT JUMPDEST SWAP2 SWAP1 PUSH32 0x7FFFFFFFFFFFFFFFFFFFFFFFFFFFFFFF5D576E7357A4501DDFE92F46681B20A0 DUP5 GT PUSH2 0x3115 JUMPI SWAP2 PUSH1 0x20 SWAP4 PUSH1 0x80 SWAP3 PUSH1 0xFF PUSH1 0x0 SWAP6 PUSH1 0x40 MLOAD SWAP5 DUP6 MSTORE AND DUP7 DUP5 ADD MSTORE PUSH1 0x40 DUP4 ADD MSTORE PUSH1 0x60 DUP3 ADD MSTORE DUP3 DUP1 MSTORE PUSH1 0x1 GAS STATICCALL ISZERO PUSH2 0x2B5A JUMPI PUSH1 0x0 MLOAD PUSH1 0x1 PUSH1 0x1 PUSH1 0xA0 SHL SUB DUP2 AND ISZERO PUSH2 0x3109 JUMPI SWAP1 PUSH1 0x0 SWAP1 PUSH1 0x0 SWAP1 JUMP JUMPDEST POP PUSH1 0x0 SWAP1 PUSH1 0x1 SWAP1 PUSH1 0x0 SWAP1 JUMP JUMPDEST POP POP POP PUSH1 0x0 SWAP2 PUSH1 0x3 SWAP2 SWAP1 JUMP INVALID LOG2 PUSH5 0x6970667358 0x22 SLT KECCAK256 0xF9 GASLIMIT LOG3 0xBB PUSH0 NOT PUSH10 0x8ECAFBFFC5DD290E615E PUSH20 0x4BABE1627A49B5093E8BC538AE864736F6C6343 STOP ADDMOD BYTE STOP CALLER "},"methodIdentifiers":{"admin()":"f851a440","allocationStakingContract()":"059ea172","checkParticipationSignature(bytes,address,uint256)":"482a5dc7","checkRegistrationSignature(bytes,address)":"735deffa","depositTokens()":"7c4b414d","extendRegistrationPeriod(uint256)":"5164d871","factory()":"c45a0155","getNumberOfRegisteredUsers()":"ab7589b5","getParticipation(address)":"cad925ef","getParticipationSigner(bytes,address,uint256)":"4897f4c3","getVestingInfo()":"dc25a300","isParticipated(address)":"cf5b8d4b","isRegistered(address)":"c3c5a547","maxVestingTimeShift()":"ccc171f5","numberOfParticipants()":"7417040e","participate(bytes,uint256)":"931d81c9","portionVestingPrecision()":"2a7c35de","postponeSale(uint256)":"1f11cb1e","registerForSale(bytes,uint256)":"e9d8479e","registration()":"443bd1d0","sale()":"6ad1fe02","setCap(uint256)":"47786d37","setRegistrationTime(uint256,uint256)":"e099cf64","setSaleParams(address,address,uint256,uint256,uint256,uint256,uint256,uint256)":"c4fbe091","setSaleStart(uint256)":"2f181f54","setSaleToken(address)":"a29f481c","setVestingParams(uint256[],uint256[],uint256)":"d937d456","shiftVestingUnlockingTimes(uint256)":"abee6927","updateTokenPriceInETH(uint256)":"7843990a","userToParticipation(address)":"5e7464f6","vestingPercentPerPortion(uint256)":"927f6aee","vestingPortionsUnlockTime(uint256)":"f1ef7ff2","withdrawEarnings()":"b73c6ce9","withdrawEarningsAndLeftover()":"da4d4fbf","withdrawLeftover()":"a525d237","withdrawMultiplePortions(uint256[])":"718af7e6","withdrawTokens(uint256)":"315a095d"}},"storageLayout":{"storage":[{"astId":9319,"contract":"contracts/sales/C2NSale.sol:C2NSale","label":"allocationStakingContract","offset":0,"slot":"0","type":"t_contract(IAllocationStaking)8154"},{"astId":9322,"contract":"contracts/sales/C2NSale.sol:C2NSale","label":"factory","offset":0,"slot":"1","type":"t_contract(ISalesFactory)8171"},{"astId":9325,"contract":"contracts/sales/C2NSale.sol:C2NSale","label":"admin","offset":0,"slot":"2","type":"t_contract(IAdmin)8133"},{"astId":9375,"contract":"contracts/sales/C2NSale.sol:C2NSale","label":"sale","offset":0,"slot":"3","type":"t_struct(Sale)9355_storage"},{"astId":9378,"contract":"contracts/sales/C2NSale.sol:C2NSale","label":"registration","offset":0,"slot":"13","type":"t_struct(Registration)9372_storage"},{"astId":9380,"contract":"contracts/sales/C2NSale.sol:C2NSale","label":"numberOfParticipants","offset":0,"slot":"16","type":"t_uint256"},{"astId":9385,"contract":"contracts/sales/C2NSale.sol:C2NSale","label":"userToParticipation","offset":0,"slot":"17","type":"t_mapping(t_address,t_struct(Participation)9365_storage)"},{"astId":9389,"contract":"contracts/sales/C2NSale.sol:C2NSale","label":"isRegistered","offset":0,"slot":"18","type":"t_mapping(t_address,t_bool)"},{"astId":9393,"contract":"contracts/sales/C2NSale.sol:C2NSale","label":"isParticipated","offset":0,"slot":"19","type":"t_mapping(t_address,t_bool)"},{"astId":9396,"contract":"contracts/sales/C2NSale.sol:C2NSale","label":"vestingPortionsUnlockTime","offset":0,"slot":"20","type":"t_array(t_uint256)dyn_storage"},{"astId":9399,"contract":"contracts/sales/C2NSale.sol:C2NSale","label":"vestingPercentPerPortion","offset":0,"slot":"21","type":"t_array(t_uint256)dyn_storage"},{"astId":9401,"contract":"contracts/sales/C2NSale.sol:C2NSale","label":"portionVestingPrecision","offset":0,"slot":"22","type":"t_uint256"},{"astId":9403,"contract":"contracts/sales/C2NSale.sol:C2NSale","label":"maxVestingTimeShift","offset":0,"slot":"23","type":"t_uint256"}],"types":{"t_address":{"encoding":"inplace","label":"address","numberOfBytes":"20"},"t_array(t_bool)dyn_storage":{"base":"t_bool","encoding":"dynamic_array","label":"bool[]","numberOfBytes":"32"},"t_array(t_uint256)dyn_storage":{"base":"t_uint256","encoding":"dynamic_array","label":"uint256[]","numberOfBytes":"32"},"t_bool":{"encoding":"inplace","label":"bool","numberOfBytes":"1"},"t_contract(IAdmin)8133":{"encoding":"inplace","label":"contract IAdmin","numberOfBytes":"20"},"t_contract(IAllocationStaking)8154":{"encoding":"inplace","label":"contract IAllocationStaking","numberOfBytes":"20"},"t_contract(IERC20)1466":{"encoding":"inplace","label":"contract IERC20","numberOfBytes":"20"},"t_contract(ISalesFactory)8171":{"encoding":"inplace","label":"contract ISalesFactory","numberOfBytes":"20"},"t_mapping(t_address,t_bool)":{"encoding":"mapping","key":"t_address","label":"mapping(address => bool)","numberOfBytes":"32","value":"t_bool"},"t_mapping(t_address,t_struct(Participation)9365_storage)":{"encoding":"mapping","key":"t_address","label":"mapping(address => struct C2NSale.Participation)","numberOfBytes":"32","value":"t_struct(Participation)9365_storage"},"t_struct(Participation)9365_storage":{"encoding":"inplace","label":"struct C2NSale.Participation","members":[{"astId":9357,"contract":"contracts/sales/C2NSale.sol:C2NSale","label":"amountBought","offset":0,"slot":"0","type":"t_uint256"},{"astId":9359,"contract":"contracts/sales/C2NSale.sol:C2NSale","label":"amountETHPaid","offset":0,"slot":"1","type":"t_uint256"},{"astId":9361,"contract":"contracts/sales/C2NSale.sol:C2NSale","label":"timeParticipated","offset":0,"slot":"2","type":"t_uint256"},{"astId":9364,"contract":"contracts/sales/C2NSale.sol:C2NSale","label":"isPortionWithdrawn","offset":0,"slot":"3","type":"t_array(t_bool)dyn_storage"}],"numberOfBytes":"128"},"t_struct(Registration)9372_storage":{"encoding":"inplace","label":"struct C2NSale.Registration","members":[{"astId":9367,"contract":"contracts/sales/C2NSale.sol:C2NSale","label":"registrationTimeStarts","offset":0,"slot":"0","type":"t_uint256"},{"astId":9369,"contract":"contracts/sales/C2NSale.sol:C2NSale","label":"registrationTimeEnds","offset":0,"slot":"1","type":"t_uint256"},{"astId":9371,"contract":"contracts/sales/C2NSale.sol:C2NSale","label":"numberOfRegistrants","offset":0,"slot":"2","type":"t_uint256"}],"numberOfBytes":"96"},"t_struct(Sale)9355_storage":{"encoding":"inplace","label":"struct C2NSale.Sale","members":[{"astId":9328,"contract":"contracts/sales/C2NSale.sol:C2NSale","label":"token","offset":0,"slot":"0","type":"t_contract(IERC20)1466"},{"astId":9330,"contract":"contracts/sales/C2NSale.sol:C2NSale","label":"isCreated","offset":20,"slot":"0","type":"t_bool"},{"astId":9332,"contract":"contracts/sales/C2NSale.sol:C2NSale","label":"earningsWithdrawn","offset":21,"slot":"0","type":"t_bool"},{"astId":9334,"contract":"contracts/sales/C2NSale.sol:C2NSale","label":"leftoverWithdrawn","offset":22,"slot":"0","type":"t_bool"},{"astId":9336,"contract":"contracts/sales/C2NSale.sol:C2NSale","label":"tokensDeposited","offset":23,"slot":"0","type":"t_bool"},{"astId":9338,"contract":"contracts/sales/C2NSale.sol:C2NSale","label":"saleOwner","offset":0,"slot":"1","type":"t_address"},{"astId":9340,"contract":"contracts/sales/C2NSale.sol:C2NSale","label":"tokenPriceInETH","offset":0,"slot":"2","type":"t_uint256"},{"astId":9342,"contract":"contracts/sales/C2NSale.sol:C2NSale","label":"amountOfTokensToSell","offset":0,"slot":"3","type":"t_uint256"},{"astId":9344,"contract":"contracts/sales/C2NSale.sol:C2NSale","label":"totalTokensSold","offset":0,"slot":"4","type":"t_uint256"},{"astId":9346,"contract":"contracts/sales/C2NSale.sol:C2NSale","label":"totalETHRaised","offset":0,"slot":"5","type":"t_uint256"},{"astId":9348,"contract":"contracts/sales/C2NSale.sol:C2NSale","label":"saleStart","offset":0,"slot":"6","type":"t_uint256"},{"astId":9350,"contract":"contracts/sales/C2NSale.sol:C2NSale","label":"saleEnd","offset":0,"slot":"7","type":"t_uint256"},{"astId":9352,"contract":"contracts/sales/C2NSale.sol:C2NSale","label":"tokensUnlockTime","offset":0,"slot":"8","type":"t_uint256"},{"astId":9354,"contract":"contracts/sales/C2NSale.sol:C2NSale","label":"maxParticipation","offset":0,"slot":"9","type":"t_uint256"}],"numberOfBytes":"320"},"t_uint256":{"encoding":"inplace","label":"uint256","numberOfBytes":"32"}}}}}}