{"contracts/farming/FarmingC2N.sol":{"FarmingC2N":{"abi":[{"inputs":[{"internalType":"contract IERC20","name":"_erc20","type":"address"},{"internalType":"uint256","name":"_rewardPerSecond","type":"uint256"},{"internalType":"uint256","name":"_startTimestamp","type":"uint256"}],"stateMutability":"nonpayable","type":"constructor"},{"inputs":[{"internalType":"address","name":"owner","type":"address"}],"name":"OwnableInvalidOwner","type":"error"},{"inputs":[{"internalType":"address","name":"account","type":"address"}],"name":"OwnableUnauthorizedAccount","type":"error"},{"inputs":[{"internalType":"address","name":"token","type":"address"}],"name":"SafeERC20FailedOperation","type":"error"},{"anonymous":false,"inputs":[{"indexed":true,"internalType":"address","name":"user","type":"address"},{"indexed":true,"internalType":"uint256","name":"pid","type":"uint256"},{"indexed":false,"internalType":"uint256","name":"amount","type":"uint256"}],"name":"Deposit","type":"event"},{"anonymous":false,"inputs":[{"indexed":true,"internalType":"address","name":"user","type":"address"},{"indexed":true,"internalType":"uint256","name":"pid","type":"uint256"},{"indexed":false,"internalType":"uint256","name":"amount","type":"uint256"}],"name":"EmergencyWithdraw","type":"event"},{"anonymous":false,"inputs":[{"indexed":true,"internalType":"address","name":"previousOwner","type":"address"},{"indexed":true,"internalType":"address","name":"newOwner","type":"address"}],"name":"OwnershipTransferred","type":"event"},{"anonymous":false,"inputs":[{"indexed":true,"internalType":"address","name":"user","type":"address"},{"indexed":true,"internalType":"uint256","name":"pid","type":"uint256"},{"indexed":false,"internalType":"uint256","name":"amount","type":"uint256"}],"name":"Withdraw","type":"event"},{"inputs":[{"internalType":"uint256","name":"_allocPoint","type":"uint256"},{"internalType":"contract IERC20","name":"_lpToken","type":"address"},{"internalType":"bool","name":"_withUpdate","type":"bool"}],"name":"add","outputs":[],"stateMutability":"nonpayable","type":"function"},{"inputs":[{"internalType":"uint256","name":"_pid","type":"uint256"},{"internalType":"uint256","name":"_amount","type":"uint256"}],"name":"deposit","outputs":[],"stateMutability":"nonpayable","type":"function"},{"inputs":[{"internalType":"uint256","name":"_pid","type":"uint256"},{"internalType":"address","name":"_user","type":"address"}],"name":"deposited","outputs":[{"internalType":"uint256","name":"","type":"uint256"}],"stateMutability":"view","type":"function"},{"inputs":[{"internalType":"uint256","name":"_pid","type":"uint256"}],"name":"emergencyWithdraw","outputs":[],"stateMutability":"nonpayable","type":"function"},{"inputs":[],"name":"endTimestamp","outputs":[{"internalType":"uint256","name":"","type":"uint256"}],"stateMutability":"view","type":"function"},{"inputs":[],"name":"erc20","outputs":[{"internalType":"contract IERC20","name":"","type":"address"}],"stateMutability":"view","type":"function"},{"inputs":[{"internalType":"uint256","name":"_amount","type":"uint256"}],"name":"fund","outputs":[],"stateMutability":"nonpayable","type":"function"},{"inputs":[],"name":"massUpdatePools","outputs":[],"stateMutability":"nonpayable","type":"function"},{"inputs":[],"name":"owner","outputs":[{"internalType":"address","name":"","type":"address"}],"stateMutability":"view","type":"function"},{"inputs":[],"name":"paidOut","outputs":[{"internalType":"uint256","name":"","type":"uint256"}],"stateMutability":"view","type":"function"},{"inputs":[{"internalType":"uint256","name":"_pid","type":"uint256"},{"internalType":"address","name":"_user","type":"address"}],"name":"pending","outputs":[{"internalType":"uint256","name":"","type":"uint256"}],"stateMutability":"view","type":"function"},{"inputs":[{"internalType":"uint256","name":"","type":"uint256"}],"name":"poolInfo","outputs":[{"internalType":"contract IERC20","name":"lpToken","type":"address"},{"internalType":"uint256","name":"allocPoint","type":"uint256"},{"internalType":"uint256","name":"lastRewardTimestamp","type":"uint256"},{"internalType":"uint256","name":"accERC20PerShare","type":"uint256"},{"internalType":"uint256","name":"totalDeposits","type":"uint256"}],"stateMutability":"view","type":"function"},{"inputs":[],"name":"poolLength","outputs":[{"internalType":"uint256","name":"","type":"uint256"}],"stateMutability":"view","type":"function"},{"inputs":[],"name":"renounceOwnership","outputs":[],"stateMutability":"nonpayable","type":"function"},{"inputs":[],"name":"rewardPerSecond","outputs":[{"internalType":"uint256","name":"","type":"uint256"}],"stateMutability":"view","type":"function"},{"inputs":[{"internalType":"uint256","name":"_pid","type":"uint256"},{"internalType":"uint256","name":"_allocPoint","type":"uint256"},{"internalType":"bool","name":"_withUpdate","type":"bool"}],"name":"set","outputs":[],"stateMutability":"nonpayable","type":"function"},{"inputs":[],"name":"startTimestamp","outputs":[{"internalType":"uint256","name":"","type":"uint256"}],"stateMutability":"view","type":"function"},{"inputs":[],"name":"totalAllocPoint","outputs":[{"internalType":"uint256","name":"","type":"uint256"}],"stateMutability":"view","type":"function"},{"inputs":[],"name":"totalPending","outputs":[{"internalType":"uint256","name":"","type":"uint256"}],"stateMutability":"view","type":"function"},{"inputs":[],"name":"totalRewards","outputs":[{"internalType":"uint256","name":"","type":"uint256"}],"stateMutability":"view","type":"function"},{"inputs":[{"internalType":"address","name":"newOwner","type":"address"}],"name":"transferOwnership","outputs":[],"stateMutability":"nonpayable","type":"function"},{"inputs":[{"internalType":"uint256","name":"_pid","type":"uint256"}],"name":"updatePool","outputs":[],"stateMutability":"nonpayable","type":"function"},{"inputs":[{"internalType":"uint256","name":"","type":"uint256"},{"internalType":"address","name":"","type":"address"}],"name":"userInfo","outputs":[{"internalType":"uint256","name":"amount","type":"uint256"},{"internalType":"uint256","name":"rewardDebt","type":"uint256"}],"stateMutability":"view","type":"function"},{"inputs":[{"internalType":"uint256","name":"_pid","type":"uint256"},{"internalType":"uint256","name":"_amount","type":"uint256"}],"name":"withdraw","outputs":[],"stateMutability":"nonpayable","type":"function"}],"evm":{"bytecode":{"linkReferences":{},"object":"6080346100e957601f61105e38819003918201601f19168301916001600160401b038311848410176100ee578084926060946040528339810103126100e95780516001600160a01b03811691908290036100e957604060208201519101519033156100d35760008054336001600160a01b0319821681178355604051959290916001600160a01b0316907f8be0079c531659141344cd1fd0a4f28419497f9722a3daafe3b4186f6b6457e09080a360018060a01b0319600154161760015560035580600855600955610f5990816101058239f35b631e4fbdf760e01b600052600060045260246000fd5b600080fd5b634e487b7160e01b600052604160045260246000fdfe608080604052600436101561001357600080fd5b60003560e01c908163081e3eda14610b31575080630e15561a14610b135780631526fe2714610aad57806317caf6f114610a8f5780631eaaa0451461094e5780633f90916a14610933578063441a3e70146107e657806351eb05a6146107ca5780635312ea8e1461072c5780635c76ca2d1461070e578063630b5ba1146106f357806364482f7914610686578063715018a61461062d578063785e9e86146106045780638da5cb5b146105db5780638f10369a146105bd57806393f1a40b1461056c578063a238310614610524578063a85adeab14610506578063ca1d209d14610451578063e2bbb15814610353578063e4c75c27146101d7578063e6fd48bc146101b95763f2fde38b1461012757600080fd5b346101b45760203660031901126101b4576004356001600160a01b038116908190036101b457610155610d79565b801561019e57600080546001600160a01b03198116831782556001600160a01b0316907f8be0079c531659141344cd1fd0a4f28419497f9722a3daafe3b4186f6b6457e09080a3005b631e4fbdf760e01b600052600060045260246000fd5b600080fd5b346101b45760003660031901126101b4576020600854604051908152f35b346101b45760403660031901126101b4576004356101f3610bbf565b6101fc82610b4c565b5091600052600660205260406000209060018060a01b0316600052602052604060002060038201549160048101549060028101548042118061034a575b610272575b602061026a8560016a0c097ce7bc90715b34b9f160241b6102608a8454610c11565b0491015490610c04565b604051908152f35b6102c09160016102ae6102a56102b794600998979854908142106000146103445742915b8082101561033c575090610c04565b60035490610c11565b91015490610c11565b60075490610c75565b916a0c097ce7bc90715b34b9f160241b8302928084046a0c097ce7bc90715b34b9f160241b1490151715610326576a0c097ce7bc90715b34b9f160241b61026061031b60209661031560019561026a98610c75565b90610bd5565b95505082935061023e565b634e487b7160e01b600052601160045260246000fd5b905090610c04565b81610296565b50821515610239565b346101b45761036136610ba9565b61036a82610b4c565b5082600052600660205260016a0c097ce7bc90715b34b9f160241b6103f2604080600020600090858060a01b033316825260205220936103a987610c95565b845480610424575b506103c886858060a01b0383541630903390610e84565b600481016103d7878254610bd5565b905560036103e6878754610bd5565b91828755015490610c11565b049101556040519081527f90890809c654f11d6e72a28fa60149770a0d11ec6c92319d6ceb2bb0a4ea1a1560203392a3005b6104458461043a61044b93600386015490610c11565b048688015490610c04565b33610da2565b876103b1565b346101b45760203660031901126101b4576004356009544210156104b6576001546104b1919061048f908290309033906001600160a01b0316610e84565b6104a661049e60035483610c75565b600954610bd5565b600955600454610bd5565b600455005b60405162461bcd60e51b815260206004820152602260248201527f66756e643a20746f6f206c6174652c20746865206661726d20697320636c6f73604482015261195960f21b6064820152608490fd5b346101b45760003660031901126101b4576020600954604051908152f35b346101b45760403660031901126101b45761053d610bbf565b600435600052600660205260406000209060018060a01b03166000526020526020604060002054604051908152f35b346101b45760403660031901126101b457610585610bbf565b600435600052600660205260406000209060018060a01b03166000526020526040806000206001815491015482519182526020820152f35b346101b45760003660031901126101b4576020600354604051908152f35b346101b45760003660031901126101b4576000546040516001600160a01b039091168152602090f35b346101b45760003660031901126101b4576001546040516001600160a01b039091168152602090f35b346101b45760003660031901126101b457610646610d79565b600080546001600160a01b0319811682556001600160a01b03167f8be0079c531659141344cd1fd0a4f28419497f9722a3daafe3b4186f6b6457e08280a3005b346101b45760603660031901126101b45760243560016106e16004356106aa610b9a565b6106b2610d79565b6106e6575b6106d9846106d4600754866106cb86610b4c565b50015490610c04565b610bd5565b600755610b4c565b500155005b6106ee610d56565b6106b7565b346101b45760003660031901126101b45761070c610d56565b005b346101b45760003660031901126101b4576020600254604051908152f35b346101b45760203660031901126101b4576000600160043561074d81610b4c565b50908084526006602052600460408086208690868060a01b03331682526020522092610785858060a01b038254168554903390610e41565b016107938154845490610c04565b905581546040519081527fbb757047c2b5f3974fe26b7c10f732e7bce710b0952a71082702781e62ae059560203392a38281550155005b346101b45760203660031901126101b45761070c600435610c95565b346101b4576107f436610ba9565b6107fd82610b4c565b5082600052600660205260408060002060009060018060a01b03331682526020522090828254106108db5760049161083485610c95565b6a0c097ce7bc90715b34b9f160241b6108848254928261085a6003870195865490610c11565b049361086f6104456001840196875490610c04565b61087a888354610c04565b8092555490610c11565b049055805461089f90849033906001600160a01b0316610e41565b016108ab828254610c04565b90556040519081527ff279e6a1f5e320cca91135676d9cb6e44ca8a08c0b88342bcdb1144f6511b56860203392a3005b60405162461bcd60e51b815260206004820152602a60248201527f77697468647261773a2063616e2774207769746864726177206d6f7265207468604482015269185b8819195c1bdcda5d60b21b6064820152608490fd5b346101b45760003660031901126101b457602061026a610c24565b346101b45760603660031901126101b4576004356024356001600160a01b038116908190036101b45761097f610b9a565b610987610d79565b610a82575b600854804211600014610a7d5750425b6109a883600754610bd5565b6007556040519160a0830183811067ffffffffffffffff821117610a675760405282526020820192835260408201908152606082016000815260808301916000835260055468010000000000000000811015610a6757806001610a0e9201600555610b4c565b959095610a5157935185546001600160a01b0319166001600160a01b03919091161785559251600185015591516002840155905160038301555160049190910155005b634e487b7160e01b600052600060045260246000fd5b634e487b7160e01b600052604160045260246000fd5b61099c565b610a8a610d56565b61098c565b346101b45760003660031901126101b4576020600754604051908152f35b346101b45760203660031901126101b4576004356005548110156101b457610ad660a091610b4c565b50600180831b0381541690600181015490600281015460046003830154920154926040519485526020850152604084015260608301526080820152f35b346101b45760003660031901126101b4576020600454604051908152f35b346101b45760003660031901126101b4576020906005548152f35b600554811015610b84576005600081815291027f036b6384b5eca791c62761152d0c79bb0604c104a5fb6f4eb0703f3154bb3db00191565b634e487b7160e01b600052603260045260246000fd5b6044359081151582036101b457565b60409060031901126101b4576004359060243590565b602435906001600160a01b03821682036101b457565b9190820180921161032657565b90601f8019910116810190811067ffffffffffffffff821117610a6757604052565b9190820391821161032657565b8181029291811591840414171561032657565b60085480421115610c6f57610c59610c6291600954804210600014610c655750610c5342915b60035492610c04565b90610c11565b60025490610c04565b90565b610c539091610c4a565b50600090565b8115610c7f570490565b634e487b7160e01b600052601260045260246000fd5b610c9e90610b4c565b50600954804210600014610d50575042905b60028101918254811115610d4b576004820154908115610d4457610cfd610cf4610ce9610ce1600394885490610c04565b845490610c11565b600186015490610c11565b60075490610c04565b9201918254906a0c097ce7bc90715b34b9f160241b8102908082046a0c097ce7bc90715b34b9f160241b149015171561032657610d3d9261031591610c75565b9055429055565b9291505055565b505050565b90610cb0565b60055460005b818110610d67575050565b80610d73600192610c95565b01610d5c565b6000546001600160a01b03163303610d8d57565b63118cdaa760e01b6000523360045260246000fd5b60015460405163a9059cbb60e01b81526001600160a01b039283166004820152602481018490529160209183916044918391600091165af18015610e3557610df7575b50610df290600254610bd5565b600255565b6020813d602011610e2d575b81610e1060209383610be2565b810103126101b457519081151582036101b4579050610df2610de5565b3d9150610e03565b6040513d6000823e3d90fd5b60405163a9059cbb60e01b60208201526001600160a01b03929092166024830152604480830193909352918152610e8291610e7d606483610be2565b610ec8565b565b6040516323b872dd60e01b60208201526001600160a01b039283166024820152929091166044830152606480830193909352918152610e8291610e7d608483610be2565b906000602091828151910182855af115610e35576000513d610f1a57506001600160a01b0381163b155b610ef95750565b635274afe760e01b60009081526001600160a01b0391909116600452602490fd5b60011415610ef256fea2646970667358221220e11754112785eae65f40576fb528dd16c33c2e6d79b1372d11a3c50f5749bf5664736f6c634300081a0033","opcodes":"PUSH1 0x80 CALLVALUE PUSH2 0xE9 JUMPI PUSH1 0x1F PUSH2 0x105E CODESIZE DUP2 SWAP1 SUB SWAP2 DUP3 ADD PUSH1 0x1F NOT AND DUP4 ADD SWAP2 PUSH1 0x1 PUSH1 0x1 PUSH1 0x40 SHL SUB DUP4 GT DUP5 DUP5 LT OR PUSH2 0xEE JUMPI DUP1 DUP5 SWAP3 PUSH1 0x60 SWAP5 PUSH1 0x40 MSTORE DUP4 CODECOPY DUP2 ADD SUB SLT PUSH2 0xE9 JUMPI DUP1 MLOAD PUSH1 0x1 PUSH1 0x1 PUSH1 0xA0 SHL SUB DUP2 AND SWAP2 SWAP1 DUP3 SWAP1 SUB PUSH2 0xE9 JUMPI PUSH1 0x40 PUSH1 0x20 DUP3 ADD MLOAD SWAP2 ADD MLOAD SWAP1 CALLER ISZERO PUSH2 0xD3 JUMPI PUSH1 0x0 DUP1 SLOAD CALLER PUSH1 0x1 PUSH1 0x1 PUSH1 0xA0 SHL SUB NOT DUP3 AND DUP2 OR DUP4 SSTORE PUSH1 0x40 MLOAD SWAP6 SWAP3 SWAP1 SWAP2 PUSH1 0x1 PUSH1 0x1 PUSH1 0xA0 SHL SUB AND SWAP1 PUSH32 0x8BE0079C531659141344CD1FD0A4F28419497F9722A3DAAFE3B4186F6B6457E0 SWAP1 DUP1 LOG3 PUSH1 0x1 DUP1 PUSH1 0xA0 SHL SUB NOT PUSH1 0x1 SLOAD AND OR PUSH1 0x1 SSTORE PUSH1 0x3 SSTORE DUP1 PUSH1 0x8 SSTORE PUSH1 0x9 SSTORE PUSH2 0xF59 SWAP1 DUP2 PUSH2 0x105 DUP3 CODECOPY RETURN JUMPDEST PUSH4 0x1E4FBDF7 PUSH1 0xE0 SHL PUSH1 0x0 MSTORE PUSH1 0x0 PUSH1 0x4 MSTORE PUSH1 0x24 PUSH1 0x0 REVERT JUMPDEST PUSH1 0x0 DUP1 REVERT JUMPDEST PUSH4 0x4E487B71 PUSH1 0xE0 SHL PUSH1 0x0 MSTORE PUSH1 0x41 PUSH1 0x4 MSTORE PUSH1 0x24 PUSH1 0x0 REVERT INVALID PUSH1 0x80 DUP1 PUSH1 0x40 MSTORE PUSH1 0x4 CALLDATASIZE LT ISZERO PUSH2 0x13 JUMPI PUSH1 0x0 DUP1 REVERT JUMPDEST PUSH1 0x0 CALLDATALOAD PUSH1 0xE0 SHR SWAP1 DUP2 PUSH4 0x81E3EDA EQ PUSH2 0xB31 JUMPI POP DUP1 PUSH4 0xE15561A EQ PUSH2 0xB13 JUMPI DUP1 PUSH4 0x1526FE27 EQ PUSH2 0xAAD JUMPI DUP1 PUSH4 0x17CAF6F1 EQ PUSH2 0xA8F JUMPI DUP1 PUSH4 0x1EAAA045 EQ PUSH2 0x94E JUMPI DUP1 PUSH4 0x3F90916A EQ PUSH2 0x933 JUMPI DUP1 PUSH4 0x441A3E70 EQ PUSH2 0x7E6 JUMPI DUP1 PUSH4 0x51EB05A6 EQ PUSH2 0x7CA JUMPI DUP1 PUSH4 0x5312EA8E EQ PUSH2 0x72C JUMPI DUP1 PUSH4 0x5C76CA2D EQ PUSH2 0x70E JUMPI DUP1 PUSH4 0x630B5BA1 EQ PUSH2 0x6F3 JUMPI DUP1 PUSH4 0x64482F79 EQ PUSH2 0x686 JUMPI DUP1 PUSH4 0x715018A6 EQ PUSH2 0x62D JUMPI DUP1 PUSH4 0x785E9E86 EQ PUSH2 0x604 JUMPI DUP1 PUSH4 0x8DA5CB5B EQ PUSH2 0x5DB JUMPI DUP1 PUSH4 0x8F10369A EQ PUSH2 0x5BD JUMPI DUP1 PUSH4 0x93F1A40B EQ PUSH2 0x56C JUMPI DUP1 PUSH4 0xA2383106 EQ PUSH2 0x524 JUMPI DUP1 PUSH4 0xA85ADEAB EQ PUSH2 0x506 JUMPI DUP1 PUSH4 0xCA1D209D EQ PUSH2 0x451 JUMPI DUP1 PUSH4 0xE2BBB158 EQ PUSH2 0x353 JUMPI DUP1 PUSH4 0xE4C75C27 EQ PUSH2 0x1D7 JUMPI DUP1 PUSH4 0xE6FD48BC EQ PUSH2 0x1B9 JUMPI PUSH4 0xF2FDE38B EQ PUSH2 0x127 JUMPI PUSH1 0x0 DUP1 REVERT JUMPDEST CALLVALUE PUSH2 0x1B4 JUMPI PUSH1 0x20 CALLDATASIZE PUSH1 0x3 NOT ADD SLT PUSH2 0x1B4 JUMPI PUSH1 0x4 CALLDATALOAD PUSH1 0x1 PUSH1 0x1 PUSH1 0xA0 SHL SUB DUP2 AND SWAP1 DUP2 SWAP1 SUB PUSH2 0x1B4 JUMPI PUSH2 0x155 PUSH2 0xD79 JUMP JUMPDEST DUP1 ISZERO PUSH2 0x19E JUMPI PUSH1 0x0 DUP1 SLOAD PUSH1 0x1 PUSH1 0x1 PUSH1 0xA0 SHL SUB NOT DUP2 AND DUP4 OR DUP3 SSTORE PUSH1 0x1 PUSH1 0x1 PUSH1 0xA0 SHL SUB AND SWAP1 PUSH32 0x8BE0079C531659141344CD1FD0A4F28419497F9722A3DAAFE3B4186F6B6457E0 SWAP1 DUP1 LOG3 STOP JUMPDEST PUSH4 0x1E4FBDF7 PUSH1 0xE0 SHL PUSH1 0x0 MSTORE PUSH1 0x0 PUSH1 0x4 MSTORE PUSH1 0x24 PUSH1 0x0 REVERT JUMPDEST PUSH1 0x0 DUP1 REVERT JUMPDEST CALLVALUE PUSH2 0x1B4 JUMPI PUSH1 0x0 CALLDATASIZE PUSH1 0x3 NOT ADD SLT PUSH2 0x1B4 JUMPI PUSH1 0x20 PUSH1 0x8 SLOAD PUSH1 0x40 MLOAD SWAP1 DUP2 MSTORE RETURN JUMPDEST CALLVALUE PUSH2 0x1B4 JUMPI PUSH1 0x40 CALLDATASIZE PUSH1 0x3 NOT ADD SLT PUSH2 0x1B4 JUMPI PUSH1 0x4 CALLDATALOAD PUSH2 0x1F3 PUSH2 0xBBF JUMP JUMPDEST PUSH2 0x1FC DUP3 PUSH2 0xB4C JUMP JUMPDEST POP SWAP2 PUSH1 0x0 MSTORE PUSH1 0x6 PUSH1 0x20 MSTORE PUSH1 0x40 PUSH1 0x0 KECCAK256 SWAP1 PUSH1 0x1 DUP1 PUSH1 0xA0 SHL SUB AND PUSH1 0x0 MSTORE PUSH1 0x20 MSTORE PUSH1 0x40 PUSH1 0x0 KECCAK256 PUSH1 0x3 DUP3 ADD SLOAD SWAP2 PUSH1 0x4 DUP2 ADD SLOAD SWAP1 PUSH1 0x2 DUP2 ADD SLOAD DUP1 TIMESTAMP GT DUP1 PUSH2 0x34A JUMPI JUMPDEST PUSH2 0x272 JUMPI JUMPDEST PUSH1 0x20 PUSH2 0x26A DUP6 PUSH1 0x1 PUSH11 0xC097CE7BC90715B34B9F1 PUSH1 0x24 SHL PUSH2 0x260 DUP11 DUP5 SLOAD PUSH2 0xC11 JUMP JUMPDEST DIV SWAP2 ADD SLOAD SWAP1 PUSH2 0xC04 JUMP JUMPDEST PUSH1 0x40 MLOAD SWAP1 DUP2 MSTORE RETURN JUMPDEST PUSH2 0x2C0 SWAP2 PUSH1 0x1 PUSH2 0x2AE PUSH2 0x2A5 PUSH2 0x2B7 SWAP5 PUSH1 0x9 SWAP9 SWAP8 SWAP9 SLOAD SWAP1 DUP2 TIMESTAMP LT PUSH1 0x0 EQ PUSH2 0x344 JUMPI TIMESTAMP SWAP2 JUMPDEST DUP1 DUP3 LT ISZERO PUSH2 0x33C JUMPI POP SWAP1 PUSH2 0xC04 JUMP JUMPDEST PUSH1 0x3 SLOAD SWAP1 PUSH2 0xC11 JUMP JUMPDEST SWAP2 ADD SLOAD SWAP1 PUSH2 0xC11 JUMP JUMPDEST PUSH1 0x7 SLOAD SWAP1 PUSH2 0xC75 JUMP JUMPDEST SWAP2 PUSH11 0xC097CE7BC90715B34B9F1 PUSH1 0x24 SHL DUP4 MUL SWAP3 DUP1 DUP5 DIV PUSH11 0xC097CE7BC90715B34B9F1 PUSH1 0x24 SHL EQ SWAP1 ISZERO OR ISZERO PUSH2 0x326 JUMPI PUSH11 0xC097CE7BC90715B34B9F1 PUSH1 0x24 SHL PUSH2 0x260 PUSH2 0x31B PUSH1 0x20 SWAP7 PUSH2 0x315 PUSH1 0x1 SWAP6 PUSH2 0x26A SWAP9 PUSH2 0xC75 JUMP JUMPDEST SWAP1 PUSH2 0xBD5 JUMP JUMPDEST SWAP6 POP POP DUP3 SWAP4 POP PUSH2 0x23E JUMP JUMPDEST PUSH4 0x4E487B71 PUSH1 0xE0 SHL PUSH1 0x0 MSTORE PUSH1 0x11 PUSH1 0x4 MSTORE PUSH1 0x24 PUSH1 0x0 REVERT JUMPDEST SWAP1 POP SWAP1 PUSH2 0xC04 JUMP JUMPDEST DUP2 PUSH2 0x296 JUMP JUMPDEST POP DUP3 ISZERO ISZERO PUSH2 0x239 JUMP JUMPDEST CALLVALUE PUSH2 0x1B4 JUMPI PUSH2 0x361 CALLDATASIZE PUSH2 0xBA9 JUMP JUMPDEST PUSH2 0x36A DUP3 PUSH2 0xB4C JUMP JUMPDEST POP DUP3 PUSH1 0x0 MSTORE PUSH1 0x6 PUSH1 0x20 MSTORE PUSH1 0x1 PUSH11 0xC097CE7BC90715B34B9F1 PUSH1 0x24 SHL PUSH2 0x3F2 PUSH1 0x40 DUP1 PUSH1 0x0 KECCAK256 PUSH1 0x0 SWAP1 DUP6 DUP1 PUSH1 0xA0 SHL SUB CALLER AND DUP3 MSTORE PUSH1 0x20 MSTORE KECCAK256 SWAP4 PUSH2 0x3A9 DUP8 PUSH2 0xC95 JUMP JUMPDEST DUP5 SLOAD DUP1 PUSH2 0x424 JUMPI JUMPDEST POP PUSH2 0x3C8 DUP7 DUP6 DUP1 PUSH1 0xA0 SHL SUB DUP4 SLOAD AND ADDRESS SWAP1 CALLER SWAP1 PUSH2 0xE84 JUMP JUMPDEST PUSH1 0x4 DUP2 ADD PUSH2 0x3D7 DUP8 DUP3 SLOAD PUSH2 0xBD5 JUMP JUMPDEST SWAP1 SSTORE PUSH1 0x3 PUSH2 0x3E6 DUP8 DUP8 SLOAD PUSH2 0xBD5 JUMP JUMPDEST SWAP2 DUP3 DUP8 SSTORE ADD SLOAD SWAP1 PUSH2 0xC11 JUMP JUMPDEST DIV SWAP2 ADD SSTORE PUSH1 0x40 MLOAD SWAP1 DUP2 MSTORE PUSH32 0x90890809C654F11D6E72A28FA60149770A0D11EC6C92319D6CEB2BB0A4EA1A15 PUSH1 0x20 CALLER SWAP3 LOG3 STOP JUMPDEST PUSH2 0x445 DUP5 PUSH2 0x43A PUSH2 0x44B SWAP4 PUSH1 0x3 DUP7 ADD SLOAD SWAP1 PUSH2 0xC11 JUMP JUMPDEST DIV DUP7 DUP9 ADD SLOAD SWAP1 PUSH2 0xC04 JUMP JUMPDEST CALLER PUSH2 0xDA2 JUMP JUMPDEST DUP8 PUSH2 0x3B1 JUMP JUMPDEST CALLVALUE PUSH2 0x1B4 JUMPI PUSH1 0x20 CALLDATASIZE PUSH1 0x3 NOT ADD SLT PUSH2 0x1B4 JUMPI PUSH1 0x4 CALLDATALOAD PUSH1 0x9 SLOAD TIMESTAMP LT ISZERO PUSH2 0x4B6 JUMPI PUSH1 0x1 SLOAD PUSH2 0x4B1 SWAP2 SWAP1 PUSH2 0x48F SWAP1 DUP3 SWAP1 ADDRESS SWAP1 CALLER SWAP1 PUSH1 0x1 PUSH1 0x1 PUSH1 0xA0 SHL SUB AND PUSH2 0xE84 JUMP JUMPDEST PUSH2 0x4A6 PUSH2 0x49E PUSH1 0x3 SLOAD DUP4 PUSH2 0xC75 JUMP JUMPDEST PUSH1 0x9 SLOAD PUSH2 0xBD5 JUMP JUMPDEST PUSH1 0x9 SSTORE PUSH1 0x4 SLOAD PUSH2 0xBD5 JUMP JUMPDEST PUSH1 0x4 SSTORE STOP JUMPDEST PUSH1 0x40 MLOAD PUSH3 0x461BCD PUSH1 0xE5 SHL DUP2 MSTORE PUSH1 0x20 PUSH1 0x4 DUP3 ADD MSTORE PUSH1 0x22 PUSH1 0x24 DUP3 ADD MSTORE PUSH32 0x66756E643A20746F6F206C6174652C20746865206661726D20697320636C6F73 PUSH1 0x44 DUP3 ADD MSTORE PUSH2 0x1959 PUSH1 0xF2 SHL PUSH1 0x64 DUP3 ADD MSTORE PUSH1 0x84 SWAP1 REVERT JUMPDEST CALLVALUE PUSH2 0x1B4 JUMPI PUSH1 0x0 CALLDATASIZE PUSH1 0x3 NOT ADD SLT PUSH2 0x1B4 JUMPI PUSH1 0x20 PUSH1 0x9 SLOAD PUSH1 0x40 MLOAD SWAP1 DUP2 MSTORE RETURN JUMPDEST CALLVALUE PUSH2 0x1B4 JUMPI PUSH1 0x40 CALLDATASIZE PUSH1 0x3 NOT ADD SLT PUSH2 0x1B4 JUMPI PUSH2 0x53D PUSH2 0xBBF JUMP JUMPDEST PUSH1 0x4 CALLDATALOAD PUSH1 0x0 MSTORE PUSH1 0x6 PUSH1 0x20 MSTORE PUSH1 0x40 PUSH1 0x0 KECCAK256 SWAP1 PUSH1 0x1 DUP1 PUSH1 0xA0 SHL SUB AND PUSH1 0x0 MSTORE PUSH1 0x20 MSTORE PUSH1 0x20 PUSH1 0x40 PUSH1 0x0 KECCAK256 SLOAD PUSH1 0x40 MLOAD SWAP1 DUP2 MSTORE RETURN JUMPDEST CALLVALUE PUSH2 0x1B4 JUMPI PUSH1 0x40 CALLDATASIZE PUSH1 0x3 NOT ADD SLT PUSH2 0x1B4 JUMPI PUSH2 0x585 PUSH2 0xBBF JUMP JUMPDEST PUSH1 0x4 CALLDATALOAD PUSH1 0x0 MSTORE PUSH1 0x6 PUSH1 0x20 MSTORE PUSH1 0x40 PUSH1 0x0 KECCAK256 SWAP1 PUSH1 0x1 DUP1 PUSH1 0xA0 SHL SUB AND PUSH1 0x0 MSTORE PUSH1 0x20 MSTORE PUSH1 0x40 DUP1 PUSH1 0x0 KECCAK256 PUSH1 0x1 DUP2 SLOAD SWAP2 ADD SLOAD DUP3 MLOAD SWAP2 DUP3 MSTORE PUSH1 0x20 DUP3 ADD MSTORE RETURN JUMPDEST CALLVALUE PUSH2 0x1B4 JUMPI PUSH1 0x0 CALLDATASIZE PUSH1 0x3 NOT ADD SLT PUSH2 0x1B4 JUMPI PUSH1 0x20 PUSH1 0x3 SLOAD PUSH1 0x40 MLOAD SWAP1 DUP2 MSTORE RETURN JUMPDEST CALLVALUE PUSH2 0x1B4 JUMPI PUSH1 0x0 CALLDATASIZE PUSH1 0x3 NOT ADD SLT PUSH2 0x1B4 JUMPI PUSH1 0x0 SLOAD PUSH1 0x40 MLOAD PUSH1 0x1 PUSH1 0x1 PUSH1 0xA0 SHL SUB SWAP1 SWAP2 AND DUP2 MSTORE PUSH1 0x20 SWAP1 RETURN JUMPDEST CALLVALUE PUSH2 0x1B4 JUMPI PUSH1 0x0 CALLDATASIZE PUSH1 0x3 NOT ADD SLT PUSH2 0x1B4 JUMPI PUSH1 0x1 SLOAD PUSH1 0x40 MLOAD PUSH1 0x1 PUSH1 0x1 PUSH1 0xA0 SHL SUB SWAP1 SWAP2 AND DUP2 MSTORE PUSH1 0x20 SWAP1 RETURN JUMPDEST CALLVALUE PUSH2 0x1B4 JUMPI PUSH1 0x0 CALLDATASIZE PUSH1 0x3 NOT ADD SLT PUSH2 0x1B4 JUMPI PUSH2 0x646 PUSH2 0xD79 JUMP JUMPDEST PUSH1 0x0 DUP1 SLOAD PUSH1 0x1 PUSH1 0x1 PUSH1 0xA0 SHL SUB NOT DUP2 AND DUP3 SSTORE PUSH1 0x1 PUSH1 0x1 PUSH1 0xA0 SHL SUB AND PUSH32 0x8BE0079C531659141344CD1FD0A4F28419497F9722A3DAAFE3B4186F6B6457E0 DUP3 DUP1 LOG3 STOP JUMPDEST CALLVALUE PUSH2 0x1B4 JUMPI PUSH1 0x60 CALLDATASIZE PUSH1 0x3 NOT ADD SLT PUSH2 0x1B4 JUMPI PUSH1 0x24 CALLDATALOAD PUSH1 0x1 PUSH2 0x6E1 PUSH1 0x4 CALLDATALOAD PUSH2 0x6AA PUSH2 0xB9A JUMP JUMPDEST PUSH2 0x6B2 PUSH2 0xD79 JUMP JUMPDEST PUSH2 0x6E6 JUMPI JUMPDEST PUSH2 0x6D9 DUP5 PUSH2 0x6D4 PUSH1 0x7 SLOAD DUP7 PUSH2 0x6CB DUP7 PUSH2 0xB4C JUMP JUMPDEST POP ADD SLOAD SWAP1 PUSH2 0xC04 JUMP JUMPDEST PUSH2 0xBD5 JUMP JUMPDEST PUSH1 0x7 SSTORE PUSH2 0xB4C JUMP JUMPDEST POP ADD SSTORE STOP JUMPDEST PUSH2 0x6EE PUSH2 0xD56 JUMP JUMPDEST PUSH2 0x6B7 JUMP JUMPDEST CALLVALUE PUSH2 0x1B4 JUMPI PUSH1 0x0 CALLDATASIZE PUSH1 0x3 NOT ADD SLT PUSH2 0x1B4 JUMPI PUSH2 0x70C PUSH2 0xD56 JUMP JUMPDEST STOP JUMPDEST CALLVALUE PUSH2 0x1B4 JUMPI PUSH1 0x0 CALLDATASIZE PUSH1 0x3 NOT ADD SLT PUSH2 0x1B4 JUMPI PUSH1 0x20 PUSH1 0x2 SLOAD PUSH1 0x40 MLOAD SWAP1 DUP2 MSTORE RETURN JUMPDEST CALLVALUE PUSH2 0x1B4 JUMPI PUSH1 0x20 CALLDATASIZE PUSH1 0x3 NOT ADD SLT PUSH2 0x1B4 JUMPI PUSH1 0x0 PUSH1 0x1 PUSH1 0x4 CALLDATALOAD PUSH2 0x74D DUP2 PUSH2 0xB4C JUMP JUMPDEST POP SWAP1 DUP1 DUP5 MSTORE PUSH1 0x6 PUSH1 0x20 MSTORE PUSH1 0x4 PUSH1 0x40 DUP1 DUP7 KECCAK256 DUP7 SWAP1 DUP7 DUP1 PUSH1 0xA0 SHL SUB CALLER AND DUP3 MSTORE PUSH1 0x20 MSTORE KECCAK256 SWAP3 PUSH2 0x785 DUP6 DUP1 PUSH1 0xA0 SHL SUB DUP3 SLOAD AND DUP6 SLOAD SWAP1 CALLER SWAP1 PUSH2 0xE41 JUMP JUMPDEST ADD PUSH2 0x793 DUP2 SLOAD DUP5 SLOAD SWAP1 PUSH2 0xC04 JUMP JUMPDEST SWAP1 SSTORE DUP2 SLOAD PUSH1 0x40 MLOAD SWAP1 DUP2 MSTORE PUSH32 0xBB757047C2B5F3974FE26B7C10F732E7BCE710B0952A71082702781E62AE0595 PUSH1 0x20 CALLER SWAP3 LOG3 DUP3 DUP2 SSTORE ADD SSTORE STOP JUMPDEST CALLVALUE PUSH2 0x1B4 JUMPI PUSH1 0x20 CALLDATASIZE PUSH1 0x3 NOT ADD SLT PUSH2 0x1B4 JUMPI PUSH2 0x70C PUSH1 0x4 CALLDATALOAD PUSH2 0xC95 JUMP JUMPDEST CALLVALUE PUSH2 0x1B4 JUMPI PUSH2 0x7F4 CALLDATASIZE PUSH2 0xBA9 JUMP JUMPDEST PUSH2 0x7FD DUP3 PUSH2 0xB4C JUMP JUMPDEST POP DUP3 PUSH1 0x0 MSTORE PUSH1 0x6 PUSH1 0x20 MSTORE PUSH1 0x40 DUP1 PUSH1 0x0 KECCAK256 PUSH1 0x0 SWAP1 PUSH1 0x1 DUP1 PUSH1 0xA0 SHL SUB CALLER AND DUP3 MSTORE PUSH1 0x20 MSTORE KECCAK256 SWAP1 DUP3 DUP3 SLOAD LT PUSH2 0x8DB JUMPI PUSH1 0x4 SWAP2 PUSH2 0x834 DUP6 PUSH2 0xC95 JUMP JUMPDEST PUSH11 0xC097CE7BC90715B34B9F1 PUSH1 0x24 SHL PUSH2 0x884 DUP3 SLOAD SWAP3 DUP3 PUSH2 0x85A PUSH1 0x3 DUP8 ADD SWAP6 DUP7 SLOAD SWAP1 PUSH2 0xC11 JUMP JUMPDEST DIV SWAP4 PUSH2 0x86F PUSH2 0x445 PUSH1 0x1 DUP5 ADD SWAP7 DUP8 SLOAD SWAP1 PUSH2 0xC04 JUMP JUMPDEST PUSH2 0x87A DUP9 DUP4 SLOAD PUSH2 0xC04 JUMP JUMPDEST DUP1 SWAP3 SSTORE SLOAD SWAP1 PUSH2 0xC11 JUMP JUMPDEST DIV SWAP1 SSTORE DUP1 SLOAD PUSH2 0x89F SWAP1 DUP5 SWAP1 CALLER SWAP1 PUSH1 0x1 PUSH1 0x1 PUSH1 0xA0 SHL SUB AND PUSH2 0xE41 JUMP JUMPDEST ADD PUSH2 0x8AB DUP3 DUP3 SLOAD PUSH2 0xC04 JUMP JUMPDEST SWAP1 SSTORE PUSH1 0x40 MLOAD SWAP1 DUP2 MSTORE PUSH32 0xF279E6A1F5E320CCA91135676D9CB6E44CA8A08C0B88342BCDB1144F6511B568 PUSH1 0x20 CALLER SWAP3 LOG3 STOP JUMPDEST PUSH1 0x40 MLOAD PUSH3 0x461BCD PUSH1 0xE5 SHL DUP2 MSTORE PUSH1 0x20 PUSH1 0x4 DUP3 ADD MSTORE PUSH1 0x2A PUSH1 0x24 DUP3 ADD MSTORE PUSH32 0x77697468647261773A2063616E2774207769746864726177206D6F7265207468 PUSH1 0x44 DUP3 ADD MSTORE PUSH10 0x185B8819195C1BDCDA5D PUSH1 0xB2 SHL PUSH1 0x64 DUP3 ADD MSTORE PUSH1 0x84 SWAP1 REVERT JUMPDEST CALLVALUE PUSH2 0x1B4 JUMPI PUSH1 0x0 CALLDATASIZE PUSH1 0x3 NOT ADD SLT PUSH2 0x1B4 JUMPI PUSH1 0x20 PUSH2 0x26A PUSH2 0xC24 JUMP JUMPDEST CALLVALUE PUSH2 0x1B4 JUMPI PUSH1 0x60 CALLDATASIZE PUSH1 0x3 NOT ADD SLT PUSH2 0x1B4 JUMPI PUSH1 0x4 CALLDATALOAD PUSH1 0x24 CALLDATALOAD PUSH1 0x1 PUSH1 0x1 PUSH1 0xA0 SHL SUB DUP2 AND SWAP1 DUP2 SWAP1 SUB PUSH2 0x1B4 JUMPI PUSH2 0x97F PUSH2 0xB9A JUMP JUMPDEST PUSH2 0x987 PUSH2 0xD79 JUMP JUMPDEST PUSH2 0xA82 JUMPI JUMPDEST PUSH1 0x8 SLOAD DUP1 TIMESTAMP GT PUSH1 0x0 EQ PUSH2 0xA7D JUMPI POP TIMESTAMP JUMPDEST PUSH2 0x9A8 DUP4 PUSH1 0x7 SLOAD PUSH2 0xBD5 JUMP JUMPDEST PUSH1 0x7 SSTORE PUSH1 0x40 MLOAD SWAP2 PUSH1 0xA0 DUP4 ADD DUP4 DUP2 LT PUSH8 0xFFFFFFFFFFFFFFFF DUP3 GT OR PUSH2 0xA67 JUMPI PUSH1 0x40 MSTORE DUP3 MSTORE PUSH1 0x20 DUP3 ADD SWAP3 DUP4 MSTORE PUSH1 0x40 DUP3 ADD SWAP1 DUP2 MSTORE PUSH1 0x60 DUP3 ADD PUSH1 0x0 DUP2 MSTORE PUSH1 0x80 DUP4 ADD SWAP2 PUSH1 0x0 DUP4 MSTORE PUSH1 0x5 SLOAD PUSH9 0x10000000000000000 DUP2 LT ISZERO PUSH2 0xA67 JUMPI DUP1 PUSH1 0x1 PUSH2 0xA0E SWAP3 ADD PUSH1 0x5 SSTORE PUSH2 0xB4C JUMP JUMPDEST SWAP6 SWAP1 SWAP6 PUSH2 0xA51 JUMPI SWAP4 MLOAD DUP6 SLOAD PUSH1 0x1 PUSH1 0x1 PUSH1 0xA0 SHL SUB NOT AND PUSH1 0x1 PUSH1 0x1 PUSH1 0xA0 SHL SUB SWAP2 SWAP1 SWAP2 AND OR DUP6 SSTORE SWAP3 MLOAD PUSH1 0x1 DUP6 ADD SSTORE SWAP2 MLOAD PUSH1 0x2 DUP5 ADD SSTORE SWAP1 MLOAD PUSH1 0x3 DUP4 ADD SSTORE MLOAD PUSH1 0x4 SWAP2 SWAP1 SWAP2 ADD SSTORE STOP JUMPDEST PUSH4 0x4E487B71 PUSH1 0xE0 SHL PUSH1 0x0 MSTORE PUSH1 0x0 PUSH1 0x4 MSTORE PUSH1 0x24 PUSH1 0x0 REVERT JUMPDEST PUSH4 0x4E487B71 PUSH1 0xE0 SHL PUSH1 0x0 MSTORE PUSH1 0x41 PUSH1 0x4 MSTORE PUSH1 0x24 PUSH1 0x0 REVERT JUMPDEST PUSH2 0x99C JUMP JUMPDEST PUSH2 0xA8A PUSH2 0xD56 JUMP JUMPDEST PUSH2 0x98C JUMP JUMPDEST CALLVALUE PUSH2 0x1B4 JUMPI PUSH1 0x0 CALLDATASIZE PUSH1 0x3 NOT ADD SLT PUSH2 0x1B4 JUMPI PUSH1 0x20 PUSH1 0x7 SLOAD PUSH1 0x40 MLOAD SWAP1 DUP2 MSTORE RETURN JUMPDEST CALLVALUE PUSH2 0x1B4 JUMPI PUSH1 0x20 CALLDATASIZE PUSH1 0x3 NOT ADD SLT PUSH2 0x1B4 JUMPI PUSH1 0x4 CALLDATALOAD PUSH1 0x5 SLOAD DUP2 LT ISZERO PUSH2 0x1B4 JUMPI PUSH2 0xAD6 PUSH1 0xA0 SWAP2 PUSH2 0xB4C JUMP JUMPDEST POP PUSH1 0x1 DUP1 DUP4 SHL SUB DUP2 SLOAD AND SWAP1 PUSH1 0x1 DUP2 ADD SLOAD SWAP1 PUSH1 0x2 DUP2 ADD SLOAD PUSH1 0x4 PUSH1 0x3 DUP4 ADD SLOAD SWAP3 ADD SLOAD SWAP3 PUSH1 0x40 MLOAD SWAP5 DUP6 MSTORE PUSH1 0x20 DUP6 ADD MSTORE PUSH1 0x40 DUP5 ADD MSTORE PUSH1 0x60 DUP4 ADD MSTORE PUSH1 0x80 DUP3 ADD MSTORE RETURN JUMPDEST CALLVALUE PUSH2 0x1B4 JUMPI PUSH1 0x0 CALLDATASIZE PUSH1 0x3 NOT ADD SLT PUSH2 0x1B4 JUMPI PUSH1 0x20 PUSH1 0x4 SLOAD PUSH1 0x40 MLOAD SWAP1 DUP2 MSTORE RETURN JUMPDEST CALLVALUE PUSH2 0x1B4 JUMPI PUSH1 0x0 CALLDATASIZE PUSH1 0x3 NOT ADD SLT PUSH2 0x1B4 JUMPI PUSH1 0x20 SWAP1 PUSH1 0x5 SLOAD DUP2 MSTORE RETURN JUMPDEST PUSH1 0x5 SLOAD DUP2 LT ISZERO PUSH2 0xB84 JUMPI PUSH1 0x5 PUSH1 0x0 DUP2 DUP2 MSTORE SWAP2 MUL PUSH32 0x36B6384B5ECA791C62761152D0C79BB0604C104A5FB6F4EB0703F3154BB3DB0 ADD SWAP2 JUMP JUMPDEST PUSH4 0x4E487B71 PUSH1 0xE0 SHL PUSH1 0x0 MSTORE PUSH1 0x32 PUSH1 0x4 MSTORE PUSH1 0x24 PUSH1 0x0 REVERT JUMPDEST PUSH1 0x44 CALLDATALOAD SWAP1 DUP2 ISZERO ISZERO DUP3 SUB PUSH2 0x1B4 JUMPI JUMP JUMPDEST PUSH1 0x40 SWAP1 PUSH1 0x3 NOT ADD SLT PUSH2 0x1B4 JUMPI PUSH1 0x4 CALLDATALOAD SWAP1 PUSH1 0x24 CALLDATALOAD SWAP1 JUMP JUMPDEST PUSH1 0x24 CALLDATALOAD SWAP1 PUSH1 0x1 PUSH1 0x1 PUSH1 0xA0 SHL SUB DUP3 AND DUP3 SUB PUSH2 0x1B4 JUMPI JUMP JUMPDEST SWAP2 SWAP1 DUP3 ADD DUP1 SWAP3 GT PUSH2 0x326 JUMPI JUMP JUMPDEST SWAP1 PUSH1 0x1F DUP1 NOT SWAP2 ADD AND DUP2 ADD SWAP1 DUP2 LT PUSH8 0xFFFFFFFFFFFFFFFF DUP3 GT OR PUSH2 0xA67 JUMPI PUSH1 0x40 MSTORE JUMP JUMPDEST SWAP2 SWAP1 DUP3 SUB SWAP2 DUP3 GT PUSH2 0x326 JUMPI JUMP JUMPDEST DUP2 DUP2 MUL SWAP3 SWAP2 DUP2 ISZERO SWAP2 DUP5 DIV EQ OR ISZERO PUSH2 0x326 JUMPI JUMP JUMPDEST PUSH1 0x8 SLOAD DUP1 TIMESTAMP GT ISZERO PUSH2 0xC6F JUMPI PUSH2 0xC59 PUSH2 0xC62 SWAP2 PUSH1 0x9 SLOAD DUP1 TIMESTAMP LT PUSH1 0x0 EQ PUSH2 0xC65 JUMPI POP PUSH2 0xC53 TIMESTAMP SWAP2 JUMPDEST PUSH1 0x3 SLOAD SWAP3 PUSH2 0xC04 JUMP JUMPDEST SWAP1 PUSH2 0xC11 JUMP JUMPDEST PUSH1 0x2 SLOAD SWAP1 PUSH2 0xC04 JUMP JUMPDEST SWAP1 JUMP JUMPDEST PUSH2 0xC53 SWAP1 SWAP2 PUSH2 0xC4A JUMP JUMPDEST POP PUSH1 0x0 SWAP1 JUMP JUMPDEST DUP2 ISZERO PUSH2 0xC7F JUMPI DIV SWAP1 JUMP JUMPDEST PUSH4 0x4E487B71 PUSH1 0xE0 SHL PUSH1 0x0 MSTORE PUSH1 0x12 PUSH1 0x4 MSTORE PUSH1 0x24 PUSH1 0x0 REVERT JUMPDEST PUSH2 0xC9E SWAP1 PUSH2 0xB4C JUMP JUMPDEST POP PUSH1 0x9 SLOAD DUP1 TIMESTAMP LT PUSH1 0x0 EQ PUSH2 0xD50 JUMPI POP TIMESTAMP SWAP1 JUMPDEST PUSH1 0x2 DUP2 ADD SWAP2 DUP3 SLOAD DUP2 GT ISZERO PUSH2 0xD4B JUMPI PUSH1 0x4 DUP3 ADD SLOAD SWAP1 DUP2 ISZERO PUSH2 0xD44 JUMPI PUSH2 0xCFD PUSH2 0xCF4 PUSH2 0xCE9 PUSH2 0xCE1 PUSH1 0x3 SWAP5 DUP9 SLOAD SWAP1 PUSH2 0xC04 JUMP JUMPDEST DUP5 SLOAD SWAP1 PUSH2 0xC11 JUMP JUMPDEST PUSH1 0x1 DUP7 ADD SLOAD SWAP1 PUSH2 0xC11 JUMP JUMPDEST PUSH1 0x7 SLOAD SWAP1 PUSH2 0xC04 JUMP JUMPDEST SWAP3 ADD SWAP2 DUP3 SLOAD SWAP1 PUSH11 0xC097CE7BC90715B34B9F1 PUSH1 0x24 SHL DUP2 MUL SWAP1 DUP1 DUP3 DIV PUSH11 0xC097CE7BC90715B34B9F1 PUSH1 0x24 SHL EQ SWAP1 ISZERO OR ISZERO PUSH2 0x326 JUMPI PUSH2 0xD3D SWAP3 PUSH2 0x315 SWAP2 PUSH2 0xC75 JUMP JUMPDEST SWAP1 SSTORE TIMESTAMP SWAP1 SSTORE JUMP JUMPDEST SWAP3 SWAP2 POP POP SSTORE JUMP JUMPDEST POP POP POP JUMP JUMPDEST SWAP1 PUSH2 0xCB0 JUMP JUMPDEST PUSH1 0x5 SLOAD PUSH1 0x0 JUMPDEST DUP2 DUP2 LT PUSH2 0xD67 JUMPI POP POP JUMP JUMPDEST DUP1 PUSH2 0xD73 PUSH1 0x1 SWAP3 PUSH2 0xC95 JUMP JUMPDEST ADD PUSH2 0xD5C JUMP JUMPDEST PUSH1 0x0 SLOAD PUSH1 0x1 PUSH1 0x1 PUSH1 0xA0 SHL SUB AND CALLER SUB PUSH2 0xD8D JUMPI JUMP JUMPDEST PUSH4 0x118CDAA7 PUSH1 0xE0 SHL PUSH1 0x0 MSTORE CALLER PUSH1 0x4 MSTORE PUSH1 0x24 PUSH1 0x0 REVERT JUMPDEST PUSH1 0x1 SLOAD PUSH1 0x40 MLOAD PUSH4 0xA9059CBB PUSH1 0xE0 SHL DUP2 MSTORE PUSH1 0x1 PUSH1 0x1 PUSH1 0xA0 SHL SUB SWAP3 DUP4 AND PUSH1 0x4 DUP3 ADD MSTORE PUSH1 0x24 DUP2 ADD DUP5 SWAP1 MSTORE SWAP2 PUSH1 0x20 SWAP2 DUP4 SWAP2 PUSH1 0x44 SWAP2 DUP4 SWAP2 PUSH1 0x0 SWAP2 AND GAS CALL DUP1 ISZERO PUSH2 0xE35 JUMPI PUSH2 0xDF7 JUMPI JUMPDEST POP PUSH2 0xDF2 SWAP1 PUSH1 0x2 SLOAD PUSH2 0xBD5 JUMP JUMPDEST PUSH1 0x2 SSTORE JUMP JUMPDEST PUSH1 0x20 DUP2 RETURNDATASIZE PUSH1 0x20 GT PUSH2 0xE2D JUMPI JUMPDEST DUP2 PUSH2 0xE10 PUSH1 0x20 SWAP4 DUP4 PUSH2 0xBE2 JUMP JUMPDEST DUP2 ADD SUB SLT PUSH2 0x1B4 JUMPI MLOAD SWAP1 DUP2 ISZERO ISZERO DUP3 SUB PUSH2 0x1B4 JUMPI SWAP1 POP PUSH2 0xDF2 PUSH2 0xDE5 JUMP JUMPDEST RETURNDATASIZE SWAP2 POP PUSH2 0xE03 JUMP JUMPDEST PUSH1 0x40 MLOAD RETURNDATASIZE PUSH1 0x0 DUP3 RETURNDATACOPY RETURNDATASIZE SWAP1 REVERT JUMPDEST PUSH1 0x40 MLOAD PUSH4 0xA9059CBB PUSH1 0xE0 SHL PUSH1 0x20 DUP3 ADD MSTORE PUSH1 0x1 PUSH1 0x1 PUSH1 0xA0 SHL SUB SWAP3 SWAP1 SWAP3 AND PUSH1 0x24 DUP4 ADD MSTORE PUSH1 0x44 DUP1 DUP4 ADD SWAP4 SWAP1 SWAP4 MSTORE SWAP2 DUP2 MSTORE PUSH2 0xE82 SWAP2 PUSH2 0xE7D PUSH1 0x64 DUP4 PUSH2 0xBE2 JUMP JUMPDEST PUSH2 0xEC8 JUMP JUMPDEST JUMP JUMPDEST PUSH1 0x40 MLOAD PUSH4 0x23B872DD PUSH1 0xE0 SHL PUSH1 0x20 DUP3 ADD MSTORE PUSH1 0x1 PUSH1 0x1 PUSH1 0xA0 SHL SUB SWAP3 DUP4 AND PUSH1 0x24 DUP3 ADD MSTORE SWAP3 SWAP1 SWAP2 AND PUSH1 0x44 DUP4 ADD MSTORE PUSH1 0x64 DUP1 DUP4 ADD SWAP4 SWAP1 SWAP4 MSTORE SWAP2 DUP2 MSTORE PUSH2 0xE82 SWAP2 PUSH2 0xE7D PUSH1 0x84 DUP4 PUSH2 0xBE2 JUMP JUMPDEST SWAP1 PUSH1 0x0 PUSH1 0x20 SWAP2 DUP3 DUP2 MLOAD SWAP2 ADD DUP3 DUP6 GAS CALL ISZERO PUSH2 0xE35 JUMPI PUSH1 0x0 MLOAD RETURNDATASIZE PUSH2 0xF1A JUMPI POP PUSH1 0x1 PUSH1 0x1 PUSH1 0xA0 SHL SUB DUP2 AND EXTCODESIZE ISZERO JUMPDEST PUSH2 0xEF9 JUMPI POP JUMP JUMPDEST PUSH4 0x5274AFE7 PUSH1 0xE0 SHL PUSH1 0x0 SWAP1 DUP2 MSTORE PUSH1 0x1 PUSH1 0x1 PUSH1 0xA0 SHL SUB SWAP2 SWAP1 SWAP2 AND PUSH1 0x4 MSTORE PUSH1 0x24 SWAP1 REVERT JUMPDEST PUSH1 0x1 EQ ISZERO PUSH2 0xEF2 JUMP INVALID LOG2 PUSH5 0x6970667358 0x22 SLT KECCAK256 0xE1 OR SLOAD GT 0x27 DUP6 0xEA 0xE6 PUSH0 BLOCKHASH JUMPI PUSH16 0xB528DD16C33C2E6D79B1372D11A3C50F JUMPI BLOBHASH 0xBF JUMP PUSH5 0x736F6C6343 STOP ADDMOD BYTE STOP CALLER "},"methodIdentifiers":{"add(uint256,address,bool)":"1eaaa045","deposit(uint256,uint256)":"e2bbb158","deposited(uint256,address)":"a2383106","emergencyWithdraw(uint256)":"5312ea8e","endTimestamp()":"a85adeab","erc20()":"785e9e86","fund(uint256)":"ca1d209d","massUpdatePools()":"630b5ba1","owner()":"8da5cb5b","paidOut()":"5c76ca2d","pending(uint256,address)":"e4c75c27","poolInfo(uint256)":"1526fe27","poolLength()":"081e3eda","renounceOwnership()":"715018a6","rewardPerSecond()":"8f10369a","set(uint256,uint256,bool)":"64482f79","startTimestamp()":"e6fd48bc","totalAllocPoint()":"17caf6f1","totalPending()":"3f90916a","totalRewards()":"0e15561a","transferOwnership(address)":"f2fde38b","updatePool(uint256)":"51eb05a6","userInfo(uint256,address)":"93f1a40b","withdraw(uint256,uint256)":"441a3e70"}},"storageLayout":{"storage":[{"astId":503,"contract":"contracts/farming/FarmingC2N.sol:FarmingC2N","label":"_owner","offset":0,"slot":"0","type":"t_address"},{"astId":7336,"contract":"contracts/farming/FarmingC2N.sol:FarmingC2N","label":"erc20","offset":0,"slot":"1","type":"t_contract(IERC20)1466"},{"astId":7338,"contract":"contracts/farming/FarmingC2N.sol:FarmingC2N","label":"paidOut","offset":0,"slot":"2","type":"t_uint256"},{"astId":7340,"contract":"contracts/farming/FarmingC2N.sol:FarmingC2N","label":"rewardPerSecond","offset":0,"slot":"3","type":"t_uint256"},{"astId":7342,"contract":"contracts/farming/FarmingC2N.sol:FarmingC2N","label":"totalRewards","offset":0,"slot":"4","type":"t_uint256"},{"astId":7346,"contract":"contracts/farming/FarmingC2N.sol:FarmingC2N","label":"poolInfo","offset":0,"slot":"5","type":"t_array(t_struct(PoolInfo)7333_storage)dyn_storage"},{"astId":7353,"contract":"contracts/farming/FarmingC2N.sol:FarmingC2N","label":"userInfo","offset":0,"slot":"6","type":"t_mapping(t_uint256,t_mapping(t_address,t_struct(UserInfo)7321_storage))"},{"astId":7355,"contract":"contracts/farming/FarmingC2N.sol:FarmingC2N","label":"totalAllocPoint","offset":0,"slot":"7","type":"t_uint256"},{"astId":7357,"contract":"contracts/farming/FarmingC2N.sol:FarmingC2N","label":"startTimestamp","offset":0,"slot":"8","type":"t_uint256"},{"astId":7359,"contract":"contracts/farming/FarmingC2N.sol:FarmingC2N","label":"endTimestamp","offset":0,"slot":"9","type":"t_uint256"}],"types":{"t_address":{"encoding":"inplace","label":"address","numberOfBytes":"20"},"t_array(t_struct(PoolInfo)7333_storage)dyn_storage":{"base":"t_struct(PoolInfo)7333_storage","encoding":"dynamic_array","label":"struct FarmingC2N.PoolInfo[]","numberOfBytes":"32"},"t_contract(IERC20)1466":{"encoding":"inplace","label":"contract IERC20","numberOfBytes":"20"},"t_mapping(t_address,t_struct(UserInfo)7321_storage)":{"encoding":"mapping","key":"t_address","label":"mapping(address => struct FarmingC2N.UserInfo)","numberOfBytes":"32","value":"t_struct(UserInfo)7321_storage"},"t_mapping(t_uint256,t_mapping(t_address,t_struct(UserInfo)7321_storage))":{"encoding":"mapping","key":"t_uint256","label":"mapping(uint256 => mapping(address => struct FarmingC2N.UserInfo))","numberOfBytes":"32","value":"t_mapping(t_address,t_struct(UserInfo)7321_storage)"},"t_struct(PoolInfo)7333_storage":{"encoding":"inplace","label":"struct FarmingC2N.PoolInfo","members":[{"astId":7324,"contract":"contracts/farming/FarmingC2N.sol:FarmingC2N","label":"lpToken","offset":0,"slot":"0","type":"t_contract(IERC20)1466"},{"astId":7326,"contract":"contracts/farming/FarmingC2N.sol:FarmingC2N","label":"allocPoint","offset":0,"slot":"1","type":"t_uint256"},{"astId":7328,"contract":"contracts/farming/FarmingC2N.sol:FarmingC2N","label":"lastRewardTimestamp","offset":0,"slot":"2","type":"t_uint256"},{"astId":7330,"contract":"contracts/farming/FarmingC2N.sol:FarmingC2N","label":"accERC20PerShare","offset":0,"slot":"3","type":"t_uint256"},{"astId":7332,"contract":"contracts/farming/FarmingC2N.sol:FarmingC2N","label":"totalDeposits","offset":0,"slot":"4","type":"t_uint256"}],"numberOfBytes":"160"},"t_struct(UserInfo)7321_storage":{"encoding":"inplace","label":"struct FarmingC2N.UserInfo","members":[{"astId":7318,"contract":"contracts/farming/FarmingC2N.sol:FarmingC2N","label":"amount","offset":0,"slot":"0","type":"t_uint256"},{"astId":7320,"contract":"contracts/farming/FarmingC2N.sol:FarmingC2N","label":"rewardDebt","offset":0,"slot":"1","type":"t_uint256"}],"numberOfBytes":"64"},"t_uint256":{"encoding":"inplace","label":"uint256","numberOfBytes":"32"}}}}}}