{"contracts/token/Airdrop.sol":{"Airdrop":{"abi":[{"inputs":[{"internalType":"address","name":"_airdropToken","type":"address"}],"stateMutability":"nonpayable","type":"constructor"},{"anonymous":false,"inputs":[{"indexed":false,"internalType":"address","name":"beneficiary","type":"address"}],"name":"TokensAirdropped","type":"event"},{"inputs":[],"name":"TOKENS_PER_CLAIM","outputs":[{"internalType":"uint256","name":"","type":"uint256"}],"stateMutability":"view","type":"function"},{"inputs":[],"name":"airdropToken","outputs":[{"internalType":"contract IERC20","name":"","type":"address"}],"stateMutability":"view","type":"function"},{"inputs":[],"name":"totalTokensWithdrawn","outputs":[{"internalType":"uint256","name":"","type":"uint256"}],"stateMutability":"view","type":"function"},{"inputs":[{"internalType":"address","name":"","type":"address"}],"name":"wasClaimed","outputs":[{"internalType":"bool","name":"","type":"bool"}],"stateMutability":"view","type":"function"},{"inputs":[],"name":"withdrawTokens","outputs":[],"stateMutability":"nonpayable","type":"function"}],"evm":{"bytecode":{"linkReferences":{},"object":"608034607557601f61040638819003918201601f19168301916001600160401b03831184841017607a57808492602094604052833981010312607557516001600160a01b038116908190036075578015607557600080546001600160a01b03191691909117905560405161037590816100918239f35b600080fd5b634e487b7160e01b600052604160045260246000fdfe608080604052600436101561001357600080fd5b60003560e01c9081634d06068a1461031b575080638d8f2adb146100e0578063bd8d8c321461009d578063cac37f931461007f5763ccfff6791461005657600080fd5b3461007a57600036600319011261007a57602060405168056bc75e2d631000008152f35b600080fd5b3461007a57600036600319011261007a576020600154604051908152f35b3461007a57602036600319011261007a576004356001600160a01b0381169081900361007a576000526002602052602060ff604060002054166040519015158152f35b3461007a57600036600319011261007a573233036102c45733600052600260205260ff6040600020541661028c573360005260026020526040600020600160ff198254161790556000602060018060a01b0382541660446040518094819363a9059cbb60e01b835233600484015268056bc75e2d6310000060248401525af190811561028057600091610214575b50156101cf5760015468056bc75e2d6310000081018091116101b9576001557fdf23082d2b28b19078bc48141d3fdbfd14390048297d149755a09e7edd8129a96020604051338152a1005b634e487b7160e01b600052601160045260246000fd5b60405162461bcd60e51b815260206004820152601f60248201527f546f6b656e207472616e73666572207374617475732069732066616c73652e006044820152606490fd5b60203d602011610279575b601f8101601f1916820167ffffffffffffffff81118382101761026557602091839160405281010312610261575190811515820361025e57508161016e565b80fd5b5080fd5b634e487b7160e01b84526041600452602484fd5b503d61021f565b6040513d6000823e3d90fd5b60405162461bcd60e51b815260206004820152601060248201526f416c726561647920636c61696d65642160801b6044820152606490fd5b60405162461bcd60e51b815260206004820152602960248201527f526571756972652074686174206d6573736167652073656e64657220697320746044820152683c16b7b934b3b4b71760b91b6064820152608490fd5b3461007a57600036600319011261007a576000546001600160a01b03168152602090f3fea264697066735822122022d0d527cc0996f460e1a259ec34b6a5083d3e0a38d7341635ea0bc7c7099c9964736f6c634300081a0033","opcodes":"PUSH1 0x80 CALLVALUE PUSH1 0x75 JUMPI PUSH1 0x1F PUSH2 0x406 CODESIZE DUP2 SWAP1 SUB SWAP2 DUP3 ADD PUSH1 0x1F NOT AND DUP4 ADD SWAP2 PUSH1 0x1 PUSH1 0x1 PUSH1 0x40 SHL SUB DUP4 GT DUP5 DUP5 LT OR PUSH1 0x7A JUMPI DUP1 DUP5 SWAP3 PUSH1 0x20 SWAP5 PUSH1 0x40 MSTORE DUP4 CODECOPY DUP2 ADD SUB SLT PUSH1 0x75 JUMPI MLOAD PUSH1 0x1 PUSH1 0x1 PUSH1 0xA0 SHL SUB DUP2 AND SWAP1 DUP2 SWAP1 SUB PUSH1 0x75 JUMPI DUP1 ISZERO PUSH1 0x75 JUMPI PUSH1 0x0 DUP1 SLOAD PUSH1 0x1 PUSH1 0x1 PUSH1 0xA0 SHL SUB NOT AND SWAP2 SWAP1 SWAP2 OR SWAP1 SSTORE PUSH1 0x40 MLOAD PUSH2 0x375 SWAP1 DUP2 PUSH2 0x91 DUP3 CODECOPY RETURN JUMPDEST PUSH1 0x0 DUP1 REVERT JUMPDEST PUSH4 0x4E487B71 PUSH1 0xE0 SHL PUSH1 0x0 MSTORE PUSH1 0x41 PUSH1 0x4 MSTORE PUSH1 0x24 PUSH1 0x0 REVERT INVALID PUSH1 0x80 DUP1 PUSH1 0x40 MSTORE PUSH1 0x4 CALLDATASIZE LT ISZERO PUSH2 0x13 JUMPI PUSH1 0x0 DUP1 REVERT JUMPDEST PUSH1 0x0 CALLDATALOAD PUSH1 0xE0 SHR SWAP1 DUP2 PUSH4 0x4D06068A EQ PUSH2 0x31B JUMPI POP DUP1 PUSH4 0x8D8F2ADB EQ PUSH2 0xE0 JUMPI DUP1 PUSH4 0xBD8D8C32 EQ PUSH2 0x9D JUMPI DUP1 PUSH4 0xCAC37F93 EQ PUSH2 0x7F JUMPI PUSH4 0xCCFFF679 EQ PUSH2 0x56 JUMPI PUSH1 0x0 DUP1 REVERT JUMPDEST CALLVALUE PUSH2 0x7A JUMPI PUSH1 0x0 CALLDATASIZE PUSH1 0x3 NOT ADD SLT PUSH2 0x7A JUMPI PUSH1 0x20 PUSH1 0x40 MLOAD PUSH9 0x56BC75E2D63100000 DUP2 MSTORE RETURN JUMPDEST PUSH1 0x0 DUP1 REVERT JUMPDEST CALLVALUE PUSH2 0x7A JUMPI PUSH1 0x0 CALLDATASIZE PUSH1 0x3 NOT ADD SLT PUSH2 0x7A JUMPI PUSH1 0x20 PUSH1 0x1 SLOAD PUSH1 0x40 MLOAD SWAP1 DUP2 MSTORE RETURN JUMPDEST CALLVALUE PUSH2 0x7A JUMPI PUSH1 0x20 CALLDATASIZE PUSH1 0x3 NOT ADD SLT PUSH2 0x7A JUMPI PUSH1 0x4 CALLDATALOAD PUSH1 0x1 PUSH1 0x1 PUSH1 0xA0 SHL SUB DUP2 AND SWAP1 DUP2 SWAP1 SUB PUSH2 0x7A JUMPI PUSH1 0x0 MSTORE PUSH1 0x2 PUSH1 0x20 MSTORE PUSH1 0x20 PUSH1 0xFF PUSH1 0x40 PUSH1 0x0 KECCAK256 SLOAD AND PUSH1 0x40 MLOAD SWAP1 ISZERO ISZERO DUP2 MSTORE RETURN JUMPDEST CALLVALUE PUSH2 0x7A JUMPI PUSH1 0x0 CALLDATASIZE PUSH1 0x3 NOT ADD SLT PUSH2 0x7A JUMPI ORIGIN CALLER SUB PUSH2 0x2C4 JUMPI CALLER PUSH1 0x0 MSTORE PUSH1 0x2 PUSH1 0x20 MSTORE PUSH1 0xFF PUSH1 0x40 PUSH1 0x0 KECCAK256 SLOAD AND PUSH2 0x28C JUMPI CALLER PUSH1 0x0 MSTORE PUSH1 0x2 PUSH1 0x20 MSTORE PUSH1 0x40 PUSH1 0x0 KECCAK256 PUSH1 0x1 PUSH1 0xFF NOT DUP3 SLOAD AND OR SWAP1 SSTORE PUSH1 0x0 PUSH1 0x20 PUSH1 0x1 DUP1 PUSH1 0xA0 SHL SUB DUP3 SLOAD AND PUSH1 0x44 PUSH1 0x40 MLOAD DUP1 SWAP5 DUP2 SWAP4 PUSH4 0xA9059CBB PUSH1 0xE0 SHL DUP4 MSTORE CALLER PUSH1 0x4 DUP5 ADD MSTORE PUSH9 0x56BC75E2D63100000 PUSH1 0x24 DUP5 ADD MSTORE GAS CALL SWAP1 DUP2 ISZERO PUSH2 0x280 JUMPI PUSH1 0x0 SWAP2 PUSH2 0x214 JUMPI JUMPDEST POP ISZERO PUSH2 0x1CF JUMPI PUSH1 0x1 SLOAD PUSH9 0x56BC75E2D63100000 DUP2 ADD DUP1 SWAP2 GT PUSH2 0x1B9 JUMPI PUSH1 0x1 SSTORE PUSH32 0xDF23082D2B28B19078BC48141D3FDBFD14390048297D149755A09E7EDD8129A9 PUSH1 0x20 PUSH1 0x40 MLOAD CALLER DUP2 MSTORE LOG1 STOP JUMPDEST PUSH4 0x4E487B71 PUSH1 0xE0 SHL PUSH1 0x0 MSTORE PUSH1 0x11 PUSH1 0x4 MSTORE PUSH1 0x24 PUSH1 0x0 REVERT JUMPDEST PUSH1 0x40 MLOAD PUSH3 0x461BCD PUSH1 0xE5 SHL DUP2 MSTORE PUSH1 0x20 PUSH1 0x4 DUP3 ADD MSTORE PUSH1 0x1F PUSH1 0x24 DUP3 ADD MSTORE PUSH32 0x546F6B656E207472616E73666572207374617475732069732066616C73652E00 PUSH1 0x44 DUP3 ADD MSTORE PUSH1 0x64 SWAP1 REVERT JUMPDEST PUSH1 0x20 RETURNDATASIZE PUSH1 0x20 GT PUSH2 0x279 JUMPI JUMPDEST PUSH1 0x1F DUP2 ADD PUSH1 0x1F NOT AND DUP3 ADD PUSH8 0xFFFFFFFFFFFFFFFF DUP2 GT DUP4 DUP3 LT OR PUSH2 0x265 JUMPI PUSH1 0x20 SWAP2 DUP4 SWAP2 PUSH1 0x40 MSTORE DUP2 ADD SUB SLT PUSH2 0x261 JUMPI MLOAD SWAP1 DUP2 ISZERO ISZERO DUP3 SUB PUSH2 0x25E JUMPI POP DUP2 PUSH2 0x16E JUMP JUMPDEST DUP1 REVERT JUMPDEST POP DUP1 REVERT JUMPDEST PUSH4 0x4E487B71 PUSH1 0xE0 SHL DUP5 MSTORE PUSH1 0x41 PUSH1 0x4 MSTORE PUSH1 0x24 DUP5 REVERT JUMPDEST POP RETURNDATASIZE PUSH2 0x21F JUMP JUMPDEST PUSH1 0x40 MLOAD RETURNDATASIZE PUSH1 0x0 DUP3 RETURNDATACOPY RETURNDATASIZE SWAP1 REVERT JUMPDEST PUSH1 0x40 MLOAD PUSH3 0x461BCD PUSH1 0xE5 SHL DUP2 MSTORE PUSH1 0x20 PUSH1 0x4 DUP3 ADD MSTORE PUSH1 0x10 PUSH1 0x24 DUP3 ADD MSTORE PUSH16 0x416C726561647920636C61696D656421 PUSH1 0x80 SHL PUSH1 0x44 DUP3 ADD MSTORE PUSH1 0x64 SWAP1 REVERT JUMPDEST PUSH1 0x40 MLOAD PUSH3 0x461BCD PUSH1 0xE5 SHL DUP2 MSTORE PUSH1 0x20 PUSH1 0x4 DUP3 ADD MSTORE PUSH1 0x29 PUSH1 0x24 DUP3 ADD MSTORE PUSH32 0x526571756972652074686174206D6573736167652073656E6465722069732074 PUSH1 0x44 DUP3 ADD MSTORE PUSH9 0x3C16B7B934B3B4B717 PUSH1 0xB9 SHL PUSH1 0x64 DUP3 ADD MSTORE PUSH1 0x84 SWAP1 REVERT JUMPDEST CALLVALUE PUSH2 0x7A JUMPI PUSH1 0x0 CALLDATASIZE PUSH1 0x3 NOT ADD SLT PUSH2 0x7A JUMPI PUSH1 0x0 SLOAD PUSH1 0x1 PUSH1 0x1 PUSH1 0xA0 SHL SUB AND DUP2 MSTORE PUSH1 0x20 SWAP1 RETURN INVALID LOG2 PUSH5 0x6970667358 0x22 SLT KECCAK256 0x22 0xD0 0xD5 0x27 0xCC MULMOD SWAP7 DELEGATECALL PUSH1 0xE1 LOG2 MSIZE 0xEC CALLVALUE 0xB6 0xA5 ADDMOD RETURNDATASIZE RETURNDATACOPY EXP CODESIZE 0xD7 CALLVALUE AND CALLDATALOAD 0xEA SIGNEXTEND 0xC7 0xC7 MULMOD SWAP13 SWAP10 PUSH5 0x736F6C6343 STOP ADDMOD BYTE STOP CALLER "},"methodIdentifiers":{"TOKENS_PER_CLAIM()":"ccfff679","airdropToken()":"4d06068a","totalTokensWithdrawn()":"cac37f93","wasClaimed(address)":"bd8d8c32","withdrawTokens()":"8d8f2adb"}},"storageLayout":{"storage":[{"astId":11091,"contract":"contracts/token/Airdrop.sol:Airdrop","label":"airdropToken","offset":0,"slot":"0","type":"t_contract(IERC20)1466"},{"astId":11093,"contract":"contracts/token/Airdrop.sol:Airdrop","label":"totalTokensWithdrawn","offset":0,"slot":"1","type":"t_uint256"},{"astId":11097,"contract":"contracts/token/Airdrop.sol:Airdrop","label":"wasClaimed","offset":0,"slot":"2","type":"t_mapping(t_address,t_bool)"}],"types":{"t_address":{"encoding":"inplace","label":"address","numberOfBytes":"20"},"t_bool":{"encoding":"inplace","label":"bool","numberOfBytes":"1"},"t_contract(IERC20)1466":{"encoding":"inplace","label":"contract IERC20","numberOfBytes":"20"},"t_mapping(t_address,t_bool)":{"encoding":"mapping","key":"t_address","label":"mapping(address => bool)","numberOfBytes":"32","value":"t_bool"},"t_uint256":{"encoding":"inplace","label":"uint256","numberOfBytes":"32"}}}}}}