{
  "_format": "hh-sol-artifact-1",
  "contractName": "SalesFactory",
  "sourceName": "contracts/sales/SalesFactory.sol",
  "abi": [
    {
      "inputs": [
        {
          "internalType": "address",
          "name": "_adminContract",
          "type": "address"
        },
        {
          "internalType": "address",
          "name": "_allocationStaking",
          "type": "address"
        }
      ],
      "stateMutability": "nonpayable",
      "type": "constructor"
    },
    {
      "anonymous": false,
      "inputs": [
        {
          "indexed": false,
          "internalType": "address",
          "name": "saleContract",
          "type": "address"
        }
      ],
      "name": "SaleDeployed",
      "type": "event"
    },
    {
      "anonymous": false,
      "inputs": [
        {
          "indexed": false,
          "internalType": "address",
          "name": "sale",
          "type": "address"
        },
        {
          "indexed": false,
          "internalType": "address",
          "name": "saleOwner",
          "type": "address"
        },
        {
          "indexed": false,
          "internalType": "address",
          "name": "saleToken",
          "type": "address"
        }
      ],
      "name": "SaleOwnerAndTokenSetInFactory",
      "type": "event"
    },
    {
      "inputs": [],
      "name": "admin",
      "outputs": [
        {
          "internalType": "contract IAdmin",
          "name": "",
          "type": "address"
        }
      ],
      "stateMutability": "view",
      "type": "function"
    },
    {
      "inputs": [
        {
          "internalType": "uint256",
          "name": "",
          "type": "uint256"
        }
      ],
      "name": "allSales",
      "outputs": [
        {
          "internalType": "address",
          "name": "",
          "type": "address"
        }
      ],
      "stateMutability": "view",
      "type": "function"
    },
    {
      "inputs": [],
      "name": "allocationStaking",
      "outputs": [
        {
          "internalType": "address",
          "name": "",
          "type": "address"
        }
      ],
      "stateMutability": "view",
      "type": "function"
    },
    {
      "inputs": [],
      "name": "deploySale",
      "outputs": [],
      "stateMutability": "nonpayable",
      "type": "function"
    },
    {
      "inputs": [
        {
          "internalType": "uint256",
          "name": "startIndex",
          "type": "uint256"
        },
        {
          "internalType": "uint256",
          "name": "endIndex",
          "type": "uint256"
        }
      ],
      "name": "getAllSales",
      "outputs": [
        {
          "internalType": "address[]",
          "name": "",
          "type": "address[]"
        }
      ],
      "stateMutability": "view",
      "type": "function"
    },
    {
      "inputs": [],
      "name": "getLastDeployedSale",
      "outputs": [
        {
          "internalType": "address",
          "name": "",
          "type": "address"
        }
      ],
      "stateMutability": "view",
      "type": "function"
    },
    {
      "inputs": [],
      "name": "getNumberOfSalesDeployed",
      "outputs": [
        {
          "internalType": "uint256",
          "name": "",
          "type": "uint256"
        }
      ],
      "stateMutability": "view",
      "type": "function"
    },
    {
      "inputs": [
        {
          "internalType": "address",
          "name": "",
          "type": "address"
        }
      ],
      "name": "isSaleCreatedThroughFactory",
      "outputs": [
        {
          "internalType": "bool",
          "name": "",
          "type": "bool"
        }
      ],
      "stateMutability": "view",
      "type": "function"
    },
    {
      "inputs": [
        {
          "internalType": "address",
          "name": "",
          "type": "address"
        }
      ],
      "name": "saleOwnerToSale",
      "outputs": [
        {
          "internalType": "address",
          "name": "",
          "type": "address"
        }
      ],
      "stateMutability": "view",
      "type": "function"
    },
    {
      "inputs": [
        {
          "internalType": "address",
          "name": "_allocationStaking",
          "type": "address"
        }
      ],
      "name": "setAllocationStaking",
      "outputs": [],
      "stateMutability": "nonpayable",
      "type": "function"
    },
    {
      "inputs": [
        {
          "internalType": "address",
          "name": "",
          "type": "address"
        }
      ],
      "name": "tokenToSale",
      "outputs": [
        {
          "internalType": "address",
          "name": "",
          "type": "address"
        }
      ],
      "stateMutability": "view",
      "type": "function"
    }
  ],
  "bytecode": "0x608034608657601f6139aa38819003918201601f19168301916001600160401b03831184841017608b578084926040948552833981010312608657604b602060458360a1565b920160a1565b600080546001600160a01b039384166001600160a01b031991821617909155600180549290931691161790556040516138f590816100b58239f35b600080fd5b634e487b7160e01b600052604160045260246000fd5b51906001600160a01b038216820360865756fe608080604052600436101561001357600080fd5b60003560e01c908163135fb5041461057d57508063209a9f411461055f57806324be4a50146105195780635b30b428146104d75780639af2c4811461044b5780639c0ad5ed146104055780639e75cf45146102b3578063a00249e814610270578063b033342b14610243578063c050f3d4146100c65763f851a4401461009857600080fd5b346100c15760003660031901126100c1576000546040516001600160a01b039091168152602090f35b600080fd5b346100c15760003660031901126100c157600054604051630935e01b60e21b81523360048201526001600160a01b0390911690602081602481855afa80156102085761011a91600091610214575b506105f6565b600154604051919061322d90818401906001600160a01b031667ffffffffffffffff8211858310176101f25760409385936106938539825260208201520301906000f08015610208576001600160a01b03166000818152600260205260409020805460ff19166001179055600554680100000000000000008110156101f2577f65c0ac3f6aa97317ad1e9f6c73af709aad47dc12a97239e1b08a43a73195f7e0916101cd826001602094016005556105a1565b81546001600160a01b0360039290921b91821b19169083901b179055604051908152a1005b634e487b7160e01b600052604160045260246000fd5b6040513d6000823e3d90fd5b610236915060203d60201161023c575b61022e81836105bc565b8101906105de565b83610114565b503d610224565b346100c15760003660031901126100c157602061025e61065a565b6040516001600160a01b039091168152f35b346100c15760203660031901126100c1576004356001600160a01b038116908190036100c1576000526002602052602060ff604060002054166040519015158152f35b346100c15760403660031901126100c157600435602435818111156103d457818103918183116103a8576102ff6102e984610642565b936102f760405195866105bc565b808552610642565b602084019290601f190136843760005b8183106103645783856040519182916020830190602084525180915260408301919060005b818110610342575050500390f35b82516001600160a01b0316845285945060209384019390920191600101610334565b61036d836105a1565b9054865160039290921b1c6001600160a01b0316908210156103be5760208260051b8701015260001981146103a8576001928301920161030f565b634e487b7160e01b600052601160045260246000fd5b634e487b7160e01b600052603260045260246000fd5b60405162461bcd60e51b8152602060048201526009602482015268109859081a5b9c1d5d60ba1b6044820152606490fd5b346100c15760203660031901126100c1576004356001600160a01b038116908190036100c1576000526004602052602060018060a01b0360406000205416604051908152f35b346100c15760203660031901126100c1576004356001600160a01b038116908190036100c157600054604051630935e01b60e21b815233600482015290602090829060249082906001600160a01b03165afa8015610208576104b49160009161021457506105f6565b80156100c1576bffffffffffffffffffffffff60a01b6001541617600155600080f35b346100c15760203660031901126100c1576004356005548110156100c1576105006020916105a1565b905460405160039290921b1c6001600160a01b03168152f35b346100c15760203660031901126100c1576004356001600160a01b038116908190036100c1576000526003602052602060018060a01b0360406000205416604051908152f35b346100c15760003660031901126100c1576020600554604051908152f35b346100c15760003660031901126100c1576001546001600160a01b03168152602090f35b6005548110156103be57600560005260206000200190600090565b90601f8019910116810190811067ffffffffffffffff8211176101f257604052565b908160209103126100c1575180151581036100c15790565b156105fd57565b60405162461bcd60e51b815260206004820152601b60248201527f4f6e6c792041646d696e2063616e206465706c6f792073616c657300000000006044820152606490fd5b67ffffffffffffffff81116101f25760051b60200190565b600554806106685750600090565b60001981019081116103a85761067d906105a1565b905460039190911b1c6001600160a01b03169056fe60803460a757601f61322d38819003918201601f19168301916001600160401b0383118484101760ac57808492604094855283398101031260a757604b602060458360c2565b920160c2565b6001600160a01b0390911690811560a7576001600160a01b031690811560a757600280546001600160a01b0319908116929092179055600180548216331790556000805490911691909117905560405161315790816100d68239f35b600080fd5b634e487b7160e01b600052604160045260246000fd5b51906001600160a01b038216820360a75756fe608080604052600436101561001d575b50361561001b57600080fd5b005b600090813560e01c908163059ea17214612732575080631f11cb1e146126545780632a7c35de146126365780632f181f54146123e8578063315a095d14612261578063443bd1d01461222f57806347786d3714612153578063482a5dc7146121395780634897f4c31461210d5780635164d8711461203d5780635e7464f614611fe35780636ad1fe0214611f2d578063718af7e614611da3578063735deffa14611d545780637417040e14611d365780637843990a14611c705780637c4b414d14611b9e578063927f6aee14611b73578063931d81c9146115b8578063a29f481c14611522578063a525d237146114fc578063ab7589b5146114de578063abee6927146113b7578063b73c6ce914611389578063c3c5a5471461134a578063c45a015514611321578063c4fbe09114611076578063cad925ef14610989578063ccc171f51461096b578063cf5b8d4b1461092c578063d937d45614610694578063da4d4fbf1461065b578063dc25a30014610575578063e099cf64146103f8578063e9d8479e14610222578063f1ef7ff2146101e85763f851a4400361000f57346101e557806003193601126101e5576002546040516001600160a01b039091168152602090f35b80fd5b50346101e55760203660031901126101e557600435906014548210156101e557602061021383612884565b90549060031b1c604051908152f35b50346101e557610231366128e8565b90600d54421015806103ec575b156103a75761024e903390612be1565b1561036e57338252601260205260ff60408320541661032957338252601260205260408220805460ff191660011790558154600a546001600160a01b0391909116918391833b1561032557606483928360405196879485936339bc12b360e21b8552600485015233602485015260448401525af1801561031857610308575b6102d8600f54612d42565b600f557f54db7a5cb4735e1aac1f53db512d3390390bb6637bd30ad4bf9fc98667d9b9b96020604051338152a180f35b61031191612788565b38816102cd565b50604051903d90823e3d90fd5b8280fd5b60405162461bcd60e51b815260206004820152601c60248201527f557365722063616e206e6f742072656769737465722074776963652e000000006044820152606490fd5b60405162461bcd60e51b8152602060048201526011602482015270496e76616c6964207369676e617475726560781b6044820152606490fd5b60405162461bcd60e51b815260206004820152601c60248201527f526567697374726174696f6e206761746520697320636c6f7365642e000000006044820152606490fd5b50600e5442111561023e565b50346101e55760403660031901126101e5576004356024356024602060018060a01b036002541660405192838092630935e01b60e21b82523360048301525afa801561056a5761044f91859161053b575b506129db565b60ff60035460a01c161561032557600d54610325574282101580610532575b1561032557600a5481101561032557600954806104c2575b50816040917faf6e91c17885891414abbe7fa95074976b3e429980b0d8790034468e69650dd993600d5580600e5582519182526020820152a180f35b8110156104cf5738610486565b60405162461bcd60e51b815260206004820152603560248201527f726567697374726174696f6e54696d65456e6473203e3d2073616c652e73616c6044820152741954dd185c9d081a5cc81b9bdd08185b1b1bddd959605a1b6064820152608490fd5b5081811161046e565b61055d915060203d602011610563575b6105558183612788565b8101906129c3565b38610449565b503d61054b565b6040513d86823e3d90fd5b50346101e557806003193601126101e5576040516014548082528160208101601485526020852092855b8181106106425750506105b492500382612788565b60405160158054808352908452909260208401917f55f448fdea98c4d29eb340757ef0a66cd03dbb9538908a6a81d96026b71ec475915b81811061062c5761061a856106288861060681890382612788565b60405193849360408552604085019061298f565b90838203602085015261298f565b0390f35b82548452602090930192600192830192016105eb565b845483526001948501948694506020909301920161059f565b50346101e557806003193601126101e55761068160018060a01b03600454163314612c5b565b610689612e99565b610691612ded565b80f35b50346101e55760603660031901126101e55760043567ffffffffffffffff8111610928576106c6903690600401612932565b60243567ffffffffffffffff8111610325576106e6903690600401612932565b600254604051630935e01b60e21b815233600482015260443591602090829060249082906001600160a01b03165afa801561091d5761072b91869161053b57506129db565b6015541580610913575b1561090f57825182510361090f57601654156108a45762278d00811161085f5760175582805b835185101561080f5761076e8585612d51565b51601454600160401b8110156107fb57906107948260016107ad940160145560146128d0565b90919082549060031b91821b91600019901b1916179055565b6107b78584612d51565b51601554600160401b8110156107fb57916107e26107f39261079485600180970160155560156128d0565b6107ec8786612d51565b5190612a76565b94019361075b565b634e487b7160e01b84526041600452602484fd5b6016540361081a5780f35b60405162461bcd60e51b815260206004820152601b60248201527f50657263656e7420646973747269627574696f6e2069737375652e00000000006044820152606490fd5b60405162461bcd60e51b815260206004820152601960248201527f4d6178696d616c20736869667420697320333020646179732e000000000000006044820152606490fd5b60405162461bcd60e51b815260206004820152603960248201527f53616665677561726420666f72206d616b696e6720737572652073657453616c60448201527f65506172616d73206765742066697273742063616c6c65642e000000000000006064820152608490fd5b8380fd5b5060145415610735565b6040513d87823e3d90fd5b5080fd5b50346101e55760203660031901126101e55760209060ff906040906001600160a01b03610957612812565b168152601384522054166040519015158152f35b50346101e557806003193601126101e5576020601754604051908152f35b50346101e55760203660031901126101e5576001600160a01b036109ab612812565b16815260116020526040812090604051906109c582612756565b8254825260018301549060208301918252600360028501549460408501958652019260405190818260208754928381520180978652602086209286905b80601f830110610e8e57610b1d945491818110610e78575b818110610e5f575b818110610e46575b818110610e2d575b818110610e15575b818110610dfc575b818110610de3575b818110610dca575b818110610db1575b818110610d98575b818110610d7f575b818110610d66575b818110610d4d575b818110610d34575b818110610d1b575b818110610d02575b818110610ce9575b818110610cd0575b818110610cb7575b818110610c9e575b818110610c85575b818110610c6c575b818110610c53575b818110610c3a575b818110610c21575b818110610c08575b818110610bef575b818110610bd6575b818110610bbd575b818110610ba4575b818110610b8b575b10610b7b575b5097969593970387612788565b8560608201525190519351946040519586956080870193875260208701526040860152608060608601525180915260a0840192915b818110610b60575050500390f35b82511515845285945060209384019390920191600101610b52565b60f81c1515815260200138610b10565b92602060019160ff8560f01c1615158152019301610b0a565b92602060019160ff8560e81c1615158152019301610b02565b92602060019160ff8560e01c1615158152019301610afa565b92602060019160ff8560d81c1615158152019301610af2565b92602060019160ff8560d01c1615158152019301610aea565b92602060019160ff8560c81c1615158152019301610ae2565b92602060019160ff8560c01c1615158152019301610ada565b92602060019160ff8560b81c1615158152019301610ad2565b92602060019160ff8560b01c1615158152019301610aca565b92602060019160ff8560a81c1615158152019301610ac2565b92602060019160ff8560a01c1615158152019301610aba565b92602060019160ff8560981c1615158152019301610ab2565b92602060019160ff8560901c1615158152019301610aaa565b92602060019160ff8560881c1615158152019301610aa2565b92602060019160ff8560801c1615158152019301610a9a565b92602060019160ff8560781c1615158152019301610a92565b92602060019160ff8560701c1615158152019301610a8a565b92602060019160ff8560681c1615158152019301610a82565b92602060019160ff8560601c1615158152019301610a7a565b92602060019160ff8560581c1615158152019301610a72565b92602060019160ff8560501c1615158152019301610a6a565b92602060019160ff8560481c1615158152019301610a62565b92602060019160ff8560401c1615158152019301610a5a565b92602060019160ff8560381c1615158152019301610a52565b92602060019160ff8560301c1615158152019301610a4a565b92602060019160ff8560281c1615158152019301610a42565b92602060019160ff85831c1615158152019301610a3a565b92602060019160ff8560181c1615158152019301610a32565b92602060019160ff8560101c1615158152019301610a2a565b92602060019160ff8560081c1615158152019301610a22565b92602060019160ff851615158152019301610a1a565b916020919350610400600191865460ff81161515825260ff8160081c1615158583015260ff8160101c161515604083015260ff8160181c161515606083015260ff81861c161515608083015260ff8160281c16151560a083015260ff8160301c16151560c083015260ff8160381c16151560e083015260ff8160401c16151561010083015260ff8160481c16151561012083015260ff8160501c16151561014083015260ff8160581c16151561016083015260ff8160601c16151561018083015260ff8160681c1615156101a083015260ff8160701c1615156101c083015260ff8160781c1615156101e083015260ff8160801c16151561020083015260ff8160881c16151561022083015260ff8160901c16151561024083015260ff8160981c16151561026083015260ff8160a01c16151561028083015260ff8160a81c1615156102a083015260ff8160b01c1615156102c083015260ff8160b81c1615156102e083015260ff8160c01c16151561030083015260ff8160c81c16151561032083015260ff8160d01c16151561034083015260ff8160d81c16151561036083015260ff8160e01c16151561038083015260ff8160e81c1615156103a083015260ff8160f01c1615156103c083015260f81c15156103e0820152019401920185929391610a02565b50346101e5576101003660031901126101e557611091612812565b611099612828565b6044356064356084359060a4359260c43560e4356024602060018060a01b036002541660405192838092630935e01b60e21b82523360048301525afa8015611316576110eb918b9161053b57506129db565b6003549660ff8860a01c166112c1576001600160a01b0316958615611264578315158061125b575b80611252575b80611249575b80611240575b156111fb57606483106111bd577f2cd2dfcdeb2b58c4b80527e9df5e12da537fa4f6c958a4fb623a83ab74eeab6398608098600160a01b9160018060a01b0316906affffffffffffffffffffff60a81b161717600355866001600160601b0360a01b6004541617600455836005558460065585600a55600b55600c55601655604051938452602084015260408301526060820152a180f35b60405162461bcd60e51b8152602060048201526016602482015275053686f756c64206265206174206c65617374203130360541b6044820152606490fd5b60405162461bcd60e51b815260206004820152601860248201527f73657453616c65506172616d733a2042616420696e70757400000000000000006044820152606490fd5b50811515611125565b5042811161111f565b50428611611119565b50841515611113565b60405162461bcd60e51b815260206004820152602f60248201527f73657453616c65506172616d733a2053616c65206f776e65722061646472657360448201526e399031b0b7103737ba10313290181760891b6064820152608490fd5b60405162461bcd60e51b815260206004820152602760248201527f73657453616c65506172616d733a2053616c6520697320616c726561647920636044820152663932b0ba32b21760c91b6064820152608490fd5b6040513d8c823e3d90fd5b50346101e557806003193601126101e5576001546040516001600160a01b039091168152602090f35b50346101e55760203660031901126101e55760209060ff906040906001600160a01b03611375612812565b168152601284522054166040519015158152f35b50346101e557806003193601126101e5576113af60018060a01b03600454163314612c5b565b610691612e99565b50346101e55760203660031901126101e557600435906024602060018060a01b036002541660405192838092630935e01b60e21b82523360048301525afa9081156114d3579061140d91839161053b57506129db565b811515806114c8575b1561145d5780601755805b601454811015611459578061145361144a8561143e600195612884565b90549060031b1c612a76565b61079483612884565b01611421565b5080f35b60405162461bcd60e51b815260206004820152603b60248201527f5368696674206d757374206265206e6f6e7a65726f20616e6420736d616c6c6560448201527f72207468616e206d617856657374696e6754696d6553686966742e00000000006064820152608490fd5b506017548210611416565b6040513d84823e3d90fd5b50346101e557806003193601126101e5576020600f54604051908152f35b50346101e557806003193601126101e55761068960018060a01b03600454163314612c5b565b50346101e55760203660031901126101e55761153c612812565b600254604051630935e01b60e21b815233600482015290602090829060249082906001600160a01b03165afa80156115ad5761157e91849161053b57506129db565b600354906001600160a01b038216610325576001600160a01b03166001600160a01b0319919091161760035580f35b6040513d85823e3d90fd5b506115c2366128e8565b90600c548211611b1a57338352601260205260ff60408420541615611ad557816115ed913390612aec565b15611a815760095442101580611a76575b15611a3257338252601360205260ff6040832054166119ed573233036119a85760035460405163313ce56760e01b815290602090829060049082906001600160a01b03165afa9081156115ad57839161196a575b5061166b61166560ff6116749316612ca7565b34612ab9565b60055490612acc565b9081156119305781116118ec5761168d81600754612a76565b60075561169c34600854612a76565b6008556014546116ab8161291a565b906116b96040519283612788565b8082526116c8601f199161291a565b0136602083013760036040516116dd81612756565b838152602081013481526040820190428252606083019485523387526011602052604087209251835551600183015551600282015501905180519067ffffffffffffffff82116118d857600160401b82116118d857825482845580831061187f575b50602001918452602084208160051c91855b83811061183a5750601f1981169003806117cf575b857f57d61f3ccd4ccd25ec5d234d6049553a586fac134c85c98d0b0d9d5724f4e43e6117c987338452601360205260408420600160ff198254161790556117ae601054612d42565b60105560408051338152602081019290925290918291820190565b0390a180f35b928593865b81811061180b5750505001556117c97f57d61f3ccd4ccd25ec5d234d6049553a586fac134c85c98d0b0d9d5724f4e43e3880611766565b90919460206118306001928489511515919060ff809160031b9316831b921b19161790565b96019291016117d4565b86875b60208110611852575083820155600101611751565b959060206118766001928985511515919060ff809160031b9316831b921b19161790565b9201960161183d565b83865260208620601f80850160051c8201920160051c0190601f8416806118bb575b505b8181106118b0575061173f565b8681556001016118a3565b6000198201908154906000199060200360031b1c169055386118a1565b634e487b7160e01b85526041600452602485fd5b606460405162461bcd60e51b815260206004820152602060248201527f547279696e6720746f20627579206d6f7265207468616e20616c6c6f7765642e6044820152fd5b60405162461bcd60e51b815260206004820152601260248201527143616e277420627579203020746f6b656e7360701b6044820152606490fd5b90506020813d6020116119a0575b8161198560209383612788565b81010312610325575160ff811681036103255761166b611652565b3d9150611978565b60405162461bcd60e51b815260206004820152601b60248201527f4f6e6c792064697265637420636f6e74726163742063616c6c732e00000000006044820152606490fd5b60405162461bcd60e51b815260206004820152601f60248201527f557365722063616e207061727469636970617465206f6e6c79206f6e63652e006044820152606490fd5b606460405162461bcd60e51b815260206004820152602060248201527f73616c65206469646e2774207374617274206f72206974277320656e6465642e6044820152fd5b50600a5442106115fe565b60405162461bcd60e51b815260206004820152602660248201527f496e76616c6964207369676e61747572652e20566572696669636174696f6e2060448201526519985a5b195960d21b6064820152608490fd5b60405162461bcd60e51b815260206004820152601d60248201527f4e6f74207265676973746572656420666f7220746869732073616c652e0000006044820152606490fd5b60405162461bcd60e51b815260206004820152602b60248201527f4f766572666c6f77696e67206d6178696d616c2070617274696369706174696f60448201526a37103337b91039b0b6329760a91b6064820152608490fd5b50346101e55760203660031901126101e557600435906015548210156101e5576020610213836128b5565b50346101e557806003193601126101e557611bc460018060a01b03600454163314612c5b565b60035460ff8160b81c16611c2b5760ff60b81b198116600160b81b176003556006546040516323b872dd60e01b602082015233602482015230604482015260648082019290925290815261069191611c1d608483612788565b6001600160a01b0316612f79565b60405162461bcd60e51b815260206004820152601d60248201527f4465706f7369742063616e20626520646f6e65206f6e6c79206f6e63650000006044820152606490fd5b50346101e55760203660031901126101e5576004356024602060018060a01b036002541660405192838092630935e01b60e21b82523360048301525afa80156115ad57611cc391849161053b57506129db565b8015611cfb576020817f4b59d61d9ffdc3db926d0ce7e06ebabb6bd1bf9dcdae262667e48be36822721692600555604051908152a180f35b60405162461bcd60e51b8152602060048201526013602482015272283934b1b29031b0b7103737ba10313290181760691b6044820152606490fd5b50346101e557806003193601126101e5576020601054604051908152f35b50346101e55760403660031901126101e5576004359067ffffffffffffffff82116101e5576020611d99611d8b36600486016127c6565b611d93612828565b90612be1565b6040519015158152f35b50346101e55760203660031901126101e55760043567ffffffffffffffff8111610928573660238201121561092857806004013567ffffffffffffffff8111610325573660248260051b8401011161032557908233845260116020526040842091849060038401915b85811015611ed05760248160051b83010135601554811015611ecc5760ff611e348286612a99565b90549060031b1c161580611eb3575b611e51575b50600101611e0c565b60019194611ea6611e9d83611e83611e6c611eac968a612a99565b819291549060031b9060ff6001831b921b19161790565b9055611e908a54916128b5565b90549060031b1c90612ab9565b60165490612acc565b90612a76565b9390611e48565b50611ebd81612884565b90549060031b1c421015611e43565b8780fd5b868480611edb575080f35b6117c981611f157f6352c5382c4a4578e712449ca65e83cdb392d045dfcf1cad9615189db2da244b933360018060a01b0360035416612d65565b60408051338152602081019290925290918291820190565b50346101e557806003193601126101e5576101c060035460018060a01b036004541660055460065460075460085460095491600a5493600b5495600c549760ff6040519a60018060a01b0381168c52818160a01c16151560208d0152818160a81c16151560408d0152818160b01c16151560608d015260b81c16151560808b015260a08a015260c089015260e08801526101008701526101208601526101408501526101608401526101808301526101a0820152f35b50346101e55760203660031901126101e5576040906001600160a01b03612008612812565b168152601160205220805461062860026001840154930154604051938493846040919493926060820195825260208201520152565b50346101e55760203660031901126101e5576004356024602060018060a01b036002541660405192838092630935e01b60e21b82523360048301525afa80156115ad5761209091849161053b57506129db565b600e549061209e8183612a76565b60095411156120b6576120b091612a76565b600e5580f35b60405162461bcd60e51b815260206004820152602960248201527f526567697374726174696f6e20706572696f64206f766572666c6f777320736160448201526836329039ba30b93a1760b91b6064820152608490fd5b50346101e55760206121276121213661283e565b91612b66565b6040516001600160a01b039091168152f35b50346101e5576020611d9961214d3661283e565b91612aec565b50346101e55760203660031901126101e5576004356024602060018060a01b036002541660405192838092630935e01b60e21b82523360048301525afa80156115ad576121a691849161053b57506129db565b6121b36009544210612a32565b80156121eb576020817f37cfb0744bdb923d0300a0c37fac13cfec5fc2ee313cb9b217d284122980bada92600c55604051908152a180f35b606460405162461bcd60e51b815260206004820152602060248201527f43616e277420736574206d61782070617274696369706174696f6e20746f20306044820152fd5b50346101e557806003193601126101e557600d54600e54600f5460408051938452602084019290925290820152606090f35b50346101e55760203660031901126101e557600435600b5442106123a45760155481101561235f57338252601160205260408220600381019160ff6122a68285612a99565b90549060031b1c161580612346575b156122e357611e90611e9d926122d1611e6c846122da97612a99565b905554916128b5565b80611edb575080f35b60405162461bcd60e51b815260206004820152603560248201527f546f6b656e7320616c72656164792077697468647261776e206f7220706f727460448201527434b7b7103737ba103ab73637b1b5b2b2103cb2ba1760591b6064820152608490fd5b5061235081612884565b4291549060031b1c11156122b5565b60405162461bcd60e51b815260206004820152601860248201527f506f7274696f6e206964206f7574206f662072616e67652e00000000000000006044820152606490fd5b606460405162461bcd60e51b815260206004820152602060248201527f546f6b656e732063616e206e6f742062652077697468647261776e207965742e6044820152fd5b50346101e55760203660031901126101e5576004356024602060018060a01b036002541660405192838092630935e01b60e21b82523360048301525afa80156115ad5761243b91849161053b57506129db565b60ff60035460a01c16156125fa576009546125a657600e5481111561254457600a548110156124ee5742811061249d576020817faad53c4362ef2fe5a5390cc046e71fd8423a0a8dceebc156ac9bbcd15997eec292600955604051908152a180f35b60405162461bcd60e51b815260206004820152602360248201527f73746172742074696d652073686f756c6420626520696e20746865206675747560448201526239329760e91b6064820152608490fd5b60405162461bcd60e51b815260206004820152602860248201527f73746172742074696d652073686f756c64206c657373207468616e2073616c65604482015267456e642074696d6560c01b6064820152608490fd5b60405162461bcd60e51b815260206004820152603460248201527f73746172742074696d652073686f756c642067726561746572207468616e207260448201527332b3b4b9ba3930ba34b7b72a34b6b2a2b732399760611b6064820152608490fd5b60405162461bcd60e51b815260206004820152602660248201527f73657453616c6553746172743a207374617254696d652069732073657420616c6044820152653932b0b23c9760d11b6064820152608490fd5b60405162461bcd60e51b815260206004820152601460248201527339b0b6329034b9903737ba1031b932b0ba32b21760611b6044820152606490fd5b50346101e557806003193601126101e5576020601654604051908152f35b50346101e55760203660031901126101e5576024600435602060018060a01b036002541660405193848092630935e01b60e21b82523360048301525afa9182156115ad576126cc926126ac91859161053b57506129db565b6126c3816009546126be814210612a32565b612a76565b80600955612a76565b600a5411156126d85780f35b60405162461bcd60e51b815260206004820152602c60248201527f53746172742074696d652063616e206e6f74206265206772656174657220746860448201526b30b71032b732103a34b6b29760a11b6064820152608490fd5b90503461092857816003193601126109285790546001600160a01b03168152602090f35b6080810190811067ffffffffffffffff82111761277257604052565b634e487b7160e01b600052604160045260246000fd5b90601f8019910116810190811067ffffffffffffffff82111761277257604052565b67ffffffffffffffff811161277257601f01601f191660200190565b81601f8201121561280d578035906127dd826127aa565b926127eb6040519485612788565b8284526020838301011161280d57816000926020809301838601378301015290565b600080fd5b600435906001600160a01b038216820361280d57565b602435906001600160a01b038216820361280d57565b606060031982011261280d576004359067ffffffffffffffff821161280d57612869916004016127c6565b906024356001600160a01b038116810361280d579060443590565b60145481101561289f57601460005260206000200190600090565b634e487b7160e01b600052603260045260246000fd5b60155481101561289f57601560005260206000200190600090565b805482101561289f5760005260206000200190600090565b604060031982011261280d576004359067ffffffffffffffff821161280d57612913916004016127c6565b9060243590565b67ffffffffffffffff81116127725760051b60200190565b9080601f8301121561280d5781356129498161291a565b926129576040519485612788565b81845260208085019260051b82010192831161280d57602001905b82821061297f5750505090565b8135815260209182019101612972565b906020808351928381520192019060005b8181106129ad5750505090565b82518452602093840193909201916001016129a0565b9081602091031261280d5751801515810361280d5790565b156129e257565b60405162461bcd60e51b815260206004820152602260248201527f4f6e6c792061646d696e2063616e2063616c6c20746869732066756e6374696f604482015261371760f11b6064820152608490fd5b15612a3957565b60405162461bcd60e51b815260206004820152601560248201527439b0b6329030b63932b0b23c9039ba30b93a32b21760591b6044820152606490fd5b91908201809211612a8357565b634e487b7160e01b600052601160045260246000fd5b919091805483101561289f57600052601f60206000208360051c01921690565b81810292918115918404141715612a8357565b8115612ad6570490565b634e487b7160e01b600052601260045260246000fd5b6002546001600160a01b031692602092612b0592612b66565b604051630935e01b60e21b81526001600160a01b03909116600482015291829060249082905afa908115612b5a57600091612b3e575090565b612b57915060203d602011610563576105558183612788565b90565b6040513d6000823e3d90fd5b612bd891612b57936040519060208201926001600160601b03199060601b16835260348201523060601b605482015260488152612ba4606882612788565b5190207f19457468657265756d205369676e6564204d6573736167653a0a333200000000600052601c52603c600020612fd4565b90929192613010565b9060405160208101916001600160601b03199060601b1682523060601b603482015260288152612c12604882612788565b5190207f19457468657265756d205369676e6564204d6573736167653a0a333200000000600052601c526020612b05612bd8603c6000209360018060a01b036002541694612fd4565b15612c6257565b60405162461bcd60e51b815260206004820152601a60248201527f4f6e6c7953616c654f776e65723a3a20526573747269637465640000000000006044820152606490fd5b8015612d3c5760009060208110600116604e821060011617612d3457600a916001915b60018111612cf7575082600019048211612ce357500290565b634e487b7160e01b81526011600452602490fd5b9280600019048111612d205760018416612d17575b80029260011c612cca565b80920291612d0c565b634e487b7160e01b82526011600452602482fd5b9050600a0a90565b50600190565b6000198114612a835760010190565b805182101561289f5760209160051b010190565b60405163a9059cbb60e01b60208201526001600160a01b03929092166024830152604480830193909352918152612da691612da1606483612788565b612f79565b565b15612daf57565b60405162461bcd60e51b815260206004820152601660248201527539b0b6329034b9903737ba1032b73232b2103cb2ba1760511b6044820152606490fd5b612dfb600a54421015612da8565b60035460ff8160b01c16612e485760ff60b01b198116600160b01b1760035560065460075480820391808311612a835703612e34575050565b612da69133906001600160a01b0316612d65565b60405162461bcd60e51b815260206004820152602360248201527f6f776e65722063616e2774207769746864726177206c6566746f76657220747760448201526269636560e81b6064820152608490fd5b612ea7600a54421015612da8565b60035460ff8160a81c16612f285760ff60a81b1916600160a81b17600355600854604051602091600091829190612ede8582612788565b82815284810190601f1986013683375191335af1903d15612f225760003d91612f06836127aa565b92612f146040519485612788565b83523d92013e5b1561280d57565b50612f1b565b60405162461bcd60e51b815260206004820152602360248201527f6f776e65722063616e2774207769746864726177206561726e696e677320747760448201526269636560e81b6064820152608490fd5b906000602091828151910182855af115612b5a576000513d612fcb57506001600160a01b0381163b155b612faa5750565b635274afe760e01b60009081526001600160a01b0391909116600452602490fd5b60011415612fa3565b815191906041830361300557612ffe92506020820151906060604084015193015160001a90613098565b9192909190565b505060009160029190565b9190916004811015613082578061302657509050565b6000600182036130415763f645eedf60e01b60005260046000fd5b506002810361305f578263fce698f760e01b60005260045260246000fd5b909160036000921461306f575050565b6335e2f38360e21b825260045260249150fd5b634e487b7160e01b600052602160045260246000fd5b91907f7fffffffffffffffffffffffffffffff5d576e7357a4501ddfe92f46681b20a08411613115579160209360809260ff60009560405194855216868401526040830152606082015282805260015afa15612b5a576000516001600160a01b038116156131095790600090600090565b50600090600190600090565b5050506000916003919056fea2646970667358221220f945a3bb5f19698ecafbffc5dd290e615e7304babe1627a49b5093e8bc538ae864736f6c634300081a0033a26469706673582212203ca5dbadd32d3517782a7abfa7d174d522e95257fb110bd06888ac17da6c629064736f6c634300081a0033",
  "linkReferences": {},
  "deployedLinkReferences": {}
}